{
	"contracts/proposal2.sol": {
		"proposalContract": {
			"abi": [
				{
					"inputs": [],
					"stateMutability": "nonpayable",
					"type": "constructor"
				},
				{
					"inputs": [
						{
							"internalType": "string",
							"name": "title",
							"type": "string"
						},
						{
							"internalType": "string",
							"name": "description",
							"type": "string"
						},
						{
							"internalType": "uint256",
							"name": "total_vote_to_end",
							"type": "uint256"
						}
					],
					"name": "create_proposal",
					"outputs": [],
					"stateMutability": "nonpayable",
					"type": "function"
				},
				{
					"inputs": [
						{
							"internalType": "address",
							"name": "_address",
							"type": "address"
						}
					],
					"name": "isVoted",
					"outputs": [
						{
							"internalType": "bool",
							"name": "",
							"type": "bool"
						}
					],
					"stateMutability": "view",
					"type": "function"
				},
				{
					"inputs": [
						{
							"internalType": "address",
							"name": "new_owner",
							"type": "address"
						}
					],
					"name": "setOwner",
					"outputs": [],
					"stateMutability": "nonpayable",
					"type": "function"
				},
				{
					"inputs": [
						{
							"internalType": "uint8",
							"name": "choice",
							"type": "uint8"
						}
					],
					"name": "vote",
					"outputs": [],
					"stateMutability": "nonpayable",
					"type": "function"
				}
			],
			"devdoc": {
				"kind": "dev",
				"methods": {},
				"version": 1
			},
			"evm": {
				"assembly": "    /* \"contracts/proposal2.sol\":61:3300  contract proposalContract{... */\n  mstore(0x40, 0x80)\n    /* \"contracts/proposal2.sol\":143:237  constructor (){... */\n  callvalue\n  dup1\n  iszero\n  tag_1\n  jumpi\n  0x00\n  dup1\n  revert\ntag_1:\n  pop\n    /* \"contracts/proposal2.sol\":176:186  msg.sender */\n  caller\n    /* \"contracts/proposal2.sol\":168:173  owner */\n  0x00\n  dup1\n    /* \"contracts/proposal2.sol\":168:186  owner = msg.sender */\n  0x0100\n  exp\n  dup2\n  sload\n  dup2\n  0xffffffffffffffffffffffffffffffffffffffff\n  mul\n  not\n  and\n  swap1\n  dup4\n  0xffffffffffffffffffffffffffffffffffffffff\n  and\n  mul\n  or\n  swap1\n  sstore\n  pop\n    /* \"contracts/proposal2.sol\":197:212  voted_addresses */\n  0x03\n    /* \"contracts/proposal2.sol\":218:228  msg.sender */\n  caller\n    /* \"contracts/proposal2.sol\":197:229  voted_addresses.push(msg.sender) */\n  swap1\n  dup1\n  0x01\n  dup2\n  sload\n  add\n  dup1\n  dup3\n  sstore\n  dup1\n  swap2\n  pop\n  pop\n  0x01\n  swap1\n  sub\n  swap1\n  0x00\n  mstore\n  keccak256(0x00, 0x20)\n  add\n  0x00\n  swap1\n  swap2\n  swap1\n  swap2\n  swap1\n  swap2\n  0x0100\n  exp\n  dup2\n  sload\n  dup2\n  0xffffffffffffffffffffffffffffffffffffffff\n  mul\n  not\n  and\n  swap1\n  dup4\n  0xffffffffffffffffffffffffffffffffffffffff\n  and\n  mul\n  or\n  swap1\n  sstore\n  pop\n    /* \"contracts/proposal2.sol\":61:3300  contract proposalContract{... */\n  dataSize(sub_0)\n  dup1\n  dataOffset(sub_0)\n  0x00\n  codecopy\n  0x00\n  return\nstop\n\nsub_0: assembly {\n        /* \"contracts/proposal2.sol\":61:3300  contract proposalContract{... */\n      mstore(0x40, 0x80)\n      callvalue\n      dup1\n      iszero\n      tag_1\n      jumpi\n      0x00\n      dup1\n      revert\n    tag_1:\n      pop\n      jumpi(tag_2, lt(calldatasize, 0x04))\n      shr(0xe0, calldataload(0x00))\n      dup1\n      0x13af4035\n      eq\n      tag_3\n      jumpi\n      dup1\n      0xb3f98adc\n      eq\n      tag_4\n      jumpi\n      dup1\n      0xbd611fe6\n      eq\n      tag_5\n      jumpi\n      dup1\n      0xcbff75cb\n      eq\n      tag_6\n      jumpi\n    tag_2:\n      0x00\n      dup1\n      revert\n        /* \"contracts/proposal2.sol\":3205:3297  function setOwner(address new_owner) external onlyOwner {... */\n    tag_3:\n      tag_7\n      0x04\n      dup1\n      calldatasize\n      sub\n      dup2\n      add\n      swap1\n      tag_8\n      swap2\n      swap1\n      tag_9\n      jump\t// in\n    tag_8:\n      tag_10\n      jump\t// in\n    tag_7:\n      stop\n        /* \"contracts/proposal2.sol\":1259:2130  function vote(uint8 choice) external active newVoter(msg.sender){... */\n    tag_4:\n      tag_11\n      0x04\n      dup1\n      calldatasize\n      sub\n      dup2\n      add\n      swap1\n      tag_12\n      swap2\n      swap1\n      tag_13\n      jump\t// in\n    tag_12:\n      tag_14\n      jump\t// in\n    tag_11:\n      stop\n        /* \"contracts/proposal2.sol\":2646:3197  function create_proposal(string memory title, string memory description, uint256 total_vote_to_end) external onlyOwner {... */\n    tag_5:\n      tag_15\n      0x04\n      dup1\n      calldatasize\n      sub\n      dup2\n      add\n      swap1\n      tag_16\n      swap2\n      swap1\n      tag_17\n      jump\t// in\n    tag_16:\n      tag_18\n      jump\t// in\n    tag_15:\n      stop\n        /* \"contracts/proposal2.sol\":990:1251  function isVoted(address _address) public view returns (bool) {... */\n    tag_6:\n      tag_19\n      0x04\n      dup1\n      calldatasize\n      sub\n      dup2\n      add\n      swap1\n      tag_20\n      swap2\n      swap1\n      tag_9\n      jump\t// in\n    tag_20:\n      tag_21\n      jump\t// in\n    tag_19:\n      mload(0x40)\n      tag_22\n      swap2\n      swap1\n      tag_23\n      jump\t// in\n    tag_22:\n      mload(0x40)\n      dup1\n      swap2\n      sub\n      swap1\n      return\n        /* \"contracts/proposal2.sol\":3205:3297  function setOwner(address new_owner) external onlyOwner {... */\n    tag_10:\n        /* \"contracts/proposal2.sol\":298:303  owner */\n      0x00\n      dup1\n      sload\n      swap1\n      0x0100\n      exp\n      swap1\n      div\n      0xffffffffffffffffffffffffffffffffffffffff\n      and\n        /* \"contracts/proposal2.sol\":284:303  msg.sender == owner */\n      0xffffffffffffffffffffffffffffffffffffffff\n      and\n        /* \"contracts/proposal2.sol\":284:294  msg.sender */\n      caller\n        /* \"contracts/proposal2.sol\":284:303  msg.sender == owner */\n      0xffffffffffffffffffffffffffffffffffffffff\n      and\n      eq\n        /* \"contracts/proposal2.sol\":276:304  require(msg.sender == owner) */\n      tag_25\n      jumpi\n      0x00\n      dup1\n      revert\n    tag_25:\n        /* \"contracts/proposal2.sol\":3280:3289  new_owner */\n      dup1\n        /* \"contracts/proposal2.sol\":3272:3277  owner */\n      0x00\n      dup1\n        /* \"contracts/proposal2.sol\":3272:3289  owner = new_owner */\n      0x0100\n      exp\n      dup2\n      sload\n      dup2\n      0xffffffffffffffffffffffffffffffffffffffff\n      mul\n      not\n      and\n      swap1\n      dup4\n      0xffffffffffffffffffffffffffffffffffffffff\n      and\n      mul\n      or\n      swap1\n      sstore\n      pop\n        /* \"contracts/proposal2.sol\":3205:3297  function setOwner(address new_owner) external onlyOwner {... */\n      pop\n      jump\t// out\n        /* \"contracts/proposal2.sol\":1259:2130  function vote(uint8 choice) external active newVoter(msg.sender){... */\n    tag_14:\n        /* \"contracts/proposal2.sol\":408:412  true */\n      0x01\n        /* \"contracts/proposal2.sol\":369:412  proposal_history[counter].is_active == true */\n      iszero\n      iszero\n        /* \"contracts/proposal2.sol\":369:385  proposal_history */\n      0x02\n        /* \"contracts/proposal2.sol\":369:394  proposal_history[counter] */\n      0x00\n        /* \"contracts/proposal2.sol\":386:393  counter */\n      sload(0x01)\n        /* \"contracts/proposal2.sol\":369:394  proposal_history[counter] */\n      dup2\n      mstore\n      0x20\n      add\n      swap1\n      dup2\n      mstore\n      0x20\n      add\n      0x00\n      keccak256\n        /* \"contracts/proposal2.sol\":369:404  proposal_history[counter].is_active */\n      0x06\n      add\n      0x01\n      swap1\n      sload\n      swap1\n      0x0100\n      exp\n      swap1\n      div\n      0xff\n      and\n        /* \"contracts/proposal2.sol\":369:412  proposal_history[counter].is_active == true */\n      iszero\n      iszero\n      eq\n        /* \"contracts/proposal2.sol\":361:443  require(proposal_history[counter].is_active == true, \"The proposal is not active\") */\n      tag_28\n      jumpi\n      mload(0x40)\n      0x08c379a000000000000000000000000000000000000000000000000000000000\n      dup2\n      mstore\n      0x04\n      add\n      tag_29\n      swap1\n      tag_30\n      jump\t// in\n    tag_29:\n      mload(0x40)\n      dup1\n      swap2\n      sub\n      swap1\n      revert\n    tag_28:\n        /* \"contracts/proposal2.sol\":1312:1322  msg.sender */\n      caller\n        /* \"contracts/proposal2.sol\":527:544  isVoted(_address) */\n      tag_32\n        /* \"contracts/proposal2.sol\":535:543  _address */\n      dup2\n        /* \"contracts/proposal2.sol\":527:534  isVoted */\n      tag_21\n        /* \"contracts/proposal2.sol\":527:544  isVoted(_address) */\n      jump\t// in\n    tag_32:\n        /* \"contracts/proposal2.sol\":526:544  !isVoted(_address) */\n      iszero\n        /* \"contracts/proposal2.sol\":518:574  require(!isVoted(_address), \"Address has already voted\") */\n      tag_33\n      jumpi\n      mload(0x40)\n      0x08c379a000000000000000000000000000000000000000000000000000000000\n      dup2\n      mstore\n      0x04\n      add\n      tag_34\n      swap1\n      tag_35\n      jump\t// in\n    tag_34:\n      mload(0x40)\n      dup1\n      swap2\n      sub\n      swap1\n      revert\n    tag_33:\n        /* \"contracts/proposal2.sol\":1334:1359  Proposal storage proposal */\n      0x00\n        /* \"contracts/proposal2.sol\":1362:1378  proposal_history */\n      0x02\n        /* \"contracts/proposal2.sol\":1362:1387  proposal_history[counter] */\n      0x00\n        /* \"contracts/proposal2.sol\":1379:1386  counter */\n      sload(0x01)\n        /* \"contracts/proposal2.sol\":1362:1387  proposal_history[counter] */\n      dup2\n      mstore\n      0x20\n      add\n      swap1\n      dup2\n      mstore\n      0x20\n      add\n      0x00\n      keccak256\n        /* \"contracts/proposal2.sol\":1334:1387  Proposal storage proposal = proposal_history[counter] */\n      swap1\n      pop\n        /* \"contracts/proposal2.sol\":1398:1416  uint256 total_vote */\n      0x00\n        /* \"contracts/proposal2.sol\":1456:1464  proposal */\n      dup2\n        /* \"contracts/proposal2.sol\":1456:1469  proposal.pass */\n      0x04\n      add\n      sload\n        /* \"contracts/proposal2.sol\":1438:1446  proposal */\n      dup3\n        /* \"contracts/proposal2.sol\":1438:1453  proposal.reject */\n      0x03\n      add\n      sload\n        /* \"contracts/proposal2.sol\":1419:1427  proposal */\n      dup4\n        /* \"contracts/proposal2.sol\":1419:1435  proposal.approve */\n      0x02\n      add\n      sload\n        /* \"contracts/proposal2.sol\":1419:1453  proposal.approve + proposal.reject */\n      tag_37\n      swap2\n      swap1\n      tag_38\n      jump\t// in\n    tag_37:\n        /* \"contracts/proposal2.sol\":1419:1469  proposal.approve + proposal.reject + proposal.pass */\n      tag_39\n      swap2\n      swap1\n      tag_38\n      jump\t// in\n    tag_39:\n        /* \"contracts/proposal2.sol\":1398:1469  uint256 total_vote = proposal.approve + proposal.reject + proposal.pass */\n      swap1\n      pop\n        /* \"contracts/proposal2.sol\":1482:1497  voted_addresses */\n      0x03\n        /* \"contracts/proposal2.sol\":1503:1513  msg.sender */\n      caller\n        /* \"contracts/proposal2.sol\":1482:1514  voted_addresses.push(msg.sender) */\n      swap1\n      dup1\n      0x01\n      dup2\n      sload\n      add\n      dup1\n      dup3\n      sstore\n      dup1\n      swap2\n      pop\n      pop\n      0x01\n      swap1\n      sub\n      swap1\n      0x00\n      mstore\n      keccak256(0x00, 0x20)\n      add\n      0x00\n      swap1\n      swap2\n      swap1\n      swap2\n      swap1\n      swap2\n      0x0100\n      exp\n      dup2\n      sload\n      dup2\n      0xffffffffffffffffffffffffffffffffffffffff\n      mul\n      not\n      and\n      swap1\n      dup4\n      0xffffffffffffffffffffffffffffffffffffffff\n      and\n      mul\n      or\n      swap1\n      sstore\n      pop\n        /* \"contracts/proposal2.sol\":1541:1542  1 */\n      0x01\n        /* \"contracts/proposal2.sol\":1531:1537  choice */\n      dup5\n        /* \"contracts/proposal2.sol\":1531:1542  choice == 1 */\n      0xff\n      and\n      sub\n        /* \"contracts/proposal2.sol\":1527:1919  if (choice == 1) {... */\n      tag_41\n      jumpi\n        /* \"contracts/proposal2.sol\":1579:1580  1 */\n      0x01\n        /* \"contracts/proposal2.sol\":1559:1567  proposal */\n      dup3\n        /* \"contracts/proposal2.sol\":1559:1575  proposal.approve */\n      0x02\n      add\n      0x00\n        /* \"contracts/proposal2.sol\":1559:1580  proposal.approve += 1 */\n      dup3\n      dup3\n      sload\n      tag_42\n      swap2\n      swap1\n      tag_38\n      jump\t// in\n    tag_42:\n      swap3\n      pop\n      pop\n      dup2\n      swap1\n      sstore\n      pop\n        /* \"contracts/proposal2.sol\":1620:1643  calculateCurrentState() */\n      tag_43\n        /* \"contracts/proposal2.sol\":1620:1641  calculateCurrentState */\n      tag_44\n        /* \"contracts/proposal2.sol\":1620:1643  calculateCurrentState() */\n      jump\t// in\n    tag_43:\n        /* \"contracts/proposal2.sol\":1595:1603  proposal */\n      dup3\n        /* \"contracts/proposal2.sol\":1595:1617  proposal.current_state */\n      0x06\n      add\n      0x00\n        /* \"contracts/proposal2.sol\":1595:1643  proposal.current_state = calculateCurrentState() */\n      0x0100\n      exp\n      dup2\n      sload\n      dup2\n      0xff\n      mul\n      not\n      and\n      swap1\n      dup4\n      iszero\n      iszero\n      mul\n      or\n      swap1\n      sstore\n      pop\n        /* \"contracts/proposal2.sol\":1527:1919  if (choice == 1) {... */\n      jump(tag_45)\n    tag_41:\n        /* \"contracts/proposal2.sol\":1675:1676  2 */\n      0x02\n        /* \"contracts/proposal2.sol\":1665:1671  choice */\n      dup5\n        /* \"contracts/proposal2.sol\":1665:1676  choice == 2 */\n      0xff\n      and\n      sub\n        /* \"contracts/proposal2.sol\":1661:1919  if (choice == 2) {... */\n      tag_46\n      jumpi\n        /* \"contracts/proposal2.sol\":1712:1713  1 */\n      0x01\n        /* \"contracts/proposal2.sol\":1693:1701  proposal */\n      dup3\n        /* \"contracts/proposal2.sol\":1693:1708  proposal.reject */\n      0x03\n      add\n      0x00\n        /* \"contracts/proposal2.sol\":1693:1713  proposal.reject += 1 */\n      dup3\n      dup3\n      sload\n      tag_47\n      swap2\n      swap1\n      tag_38\n      jump\t// in\n    tag_47:\n      swap3\n      pop\n      pop\n      dup2\n      swap1\n      sstore\n      pop\n        /* \"contracts/proposal2.sol\":1753:1776  calculateCurrentState() */\n      tag_48\n        /* \"contracts/proposal2.sol\":1753:1774  calculateCurrentState */\n      tag_44\n        /* \"contracts/proposal2.sol\":1753:1776  calculateCurrentState() */\n      jump\t// in\n    tag_48:\n        /* \"contracts/proposal2.sol\":1728:1736  proposal */\n      dup3\n        /* \"contracts/proposal2.sol\":1728:1750  proposal.current_state */\n      0x06\n      add\n      0x00\n        /* \"contracts/proposal2.sol\":1728:1776  proposal.current_state = calculateCurrentState() */\n      0x0100\n      exp\n      dup2\n      sload\n      dup2\n      0xff\n      mul\n      not\n      and\n      swap1\n      dup4\n      iszero\n      iszero\n      mul\n      or\n      swap1\n      sstore\n      pop\n        /* \"contracts/proposal2.sol\":1661:1919  if (choice == 2) {... */\n      jump(tag_49)\n    tag_46:\n        /* \"contracts/proposal2.sol\":1808:1809  0 */\n      0x00\n        /* \"contracts/proposal2.sol\":1798:1804  choice */\n      dup5\n        /* \"contracts/proposal2.sol\":1798:1809  choice == 0 */\n      0xff\n      and\n      sub\n        /* \"contracts/proposal2.sol\":1794:1919  if (choice == 0) {... */\n      tag_50\n      jumpi\n        /* \"contracts/proposal2.sol\":1843:1844  1 */\n      0x01\n        /* \"contracts/proposal2.sol\":1826:1834  proposal */\n      dup3\n        /* \"contracts/proposal2.sol\":1826:1839  proposal.pass */\n      0x04\n      add\n      0x00\n        /* \"contracts/proposal2.sol\":1826:1844  proposal.pass += 1 */\n      dup3\n      dup3\n      sload\n      tag_51\n      swap2\n      swap1\n      tag_38\n      jump\t// in\n    tag_51:\n      swap3\n      pop\n      pop\n      dup2\n      swap1\n      sstore\n      pop\n        /* \"contracts/proposal2.sol\":1884:1907  calculateCurrentState() */\n      tag_52\n        /* \"contracts/proposal2.sol\":1884:1905  calculateCurrentState */\n      tag_44\n        /* \"contracts/proposal2.sol\":1884:1907  calculateCurrentState() */\n      jump\t// in\n    tag_52:\n        /* \"contracts/proposal2.sol\":1859:1867  proposal */\n      dup3\n        /* \"contracts/proposal2.sol\":1859:1881  proposal.current_state */\n      0x06\n      add\n      0x00\n        /* \"contracts/proposal2.sol\":1859:1907  proposal.current_state = calculateCurrentState() */\n      0x0100\n      exp\n      dup2\n      sload\n      dup2\n      0xff\n      mul\n      not\n      and\n      swap1\n      dup4\n      iszero\n      iszero\n      mul\n      or\n      swap1\n      sstore\n      pop\n        /* \"contracts/proposal2.sol\":1794:1919  if (choice == 0) {... */\n    tag_50:\n        /* \"contracts/proposal2.sol\":1661:1919  if (choice == 2) {... */\n    tag_49:\n        /* \"contracts/proposal2.sol\":1527:1919  if (choice == 1) {... */\n    tag_45:\n        /* \"contracts/proposal2.sol\":1979:1980  1 */\n      0x01\n        /* \"contracts/proposal2.sol\":1965:1975  total_vote */\n      dup2\n        /* \"contracts/proposal2.sol\":1936:1944  proposal */\n      dup4\n        /* \"contracts/proposal2.sol\":1936:1962  proposal.total_vote_to_end */\n      0x05\n      add\n      sload\n        /* \"contracts/proposal2.sol\":1936:1975  proposal.total_vote_to_end - total_vote */\n      tag_53\n      swap2\n      swap1\n      tag_54\n      jump\t// in\n    tag_53:\n        /* \"contracts/proposal2.sol\":1936:1980  proposal.total_vote_to_end - total_vote == 1 */\n      eq\n        /* \"contracts/proposal2.sol\":1935:2028  (proposal.total_vote_to_end - total_vote == 1) && (choice == 1 || choice == 2 || choice == 0) */\n      dup1\n      iszero\n      tag_55\n      jumpi\n      pop\n        /* \"contracts/proposal2.sol\":1996:1997  1 */\n      0x01\n        /* \"contracts/proposal2.sol\":1986:1992  choice */\n      dup5\n        /* \"contracts/proposal2.sol\":1986:1997  choice == 1 */\n      0xff\n      and\n      eq\n        /* \"contracts/proposal2.sol\":1986:2012  choice == 1 || choice == 2 */\n      dup1\n      tag_56\n      jumpi\n      pop\n        /* \"contracts/proposal2.sol\":2011:2012  2 */\n      0x02\n        /* \"contracts/proposal2.sol\":2001:2007  choice */\n      dup5\n        /* \"contracts/proposal2.sol\":2001:2012  choice == 2 */\n      0xff\n      and\n      eq\n        /* \"contracts/proposal2.sol\":1986:2012  choice == 1 || choice == 2 */\n    tag_56:\n        /* \"contracts/proposal2.sol\":1986:2027  choice == 1 || choice == 2 || choice == 0 */\n      dup1\n      tag_57\n      jumpi\n      pop\n        /* \"contracts/proposal2.sol\":2026:2027  0 */\n      0x00\n        /* \"contracts/proposal2.sol\":2016:2022  choice */\n      dup5\n        /* \"contracts/proposal2.sol\":2016:2027  choice == 0 */\n      0xff\n      and\n      eq\n        /* \"contracts/proposal2.sol\":1986:2027  choice == 1 || choice == 2 || choice == 0 */\n    tag_57:\n        /* \"contracts/proposal2.sol\":1935:2028  (proposal.total_vote_to_end - total_vote == 1) && (choice == 1 || choice == 2 || choice == 0) */\n    tag_55:\n        /* \"contracts/proposal2.sol\":1931:2123  if ((proposal.total_vote_to_end - total_vote == 1) && (choice == 1 || choice == 2 || choice == 0)) {... */\n      iszero\n      tag_58\n      jumpi\n        /* \"contracts/proposal2.sol\":2066:2071  false */\n      0x00\n        /* \"contracts/proposal2.sol\":2045:2053  proposal */\n      dup3\n        /* \"contracts/proposal2.sol\":2045:2063  proposal.is_active */\n      0x06\n      add\n      0x01\n        /* \"contracts/proposal2.sol\":2045:2071  proposal.is_active = false */\n      0x0100\n      exp\n      dup2\n      sload\n      dup2\n      0xff\n      mul\n      not\n      and\n      swap1\n      dup4\n      iszero\n      iszero\n      mul\n      or\n      swap1\n      sstore\n      pop\n        /* \"contracts/proposal2.sol\":2086:2111  voted_addresses = [owner] */\n      mload(0x40)\n      dup1\n      0x20\n      add\n      0x40\n      mstore\n      dup1\n        /* \"contracts/proposal2.sol\":2105:2110  owner */\n      0x00\n      dup1\n      sload\n      swap1\n      0x0100\n      exp\n      swap1\n      div\n      0xffffffffffffffffffffffffffffffffffffffff\n      and\n        /* \"contracts/proposal2.sol\":2086:2111  voted_addresses = [owner] */\n      0xffffffffffffffffffffffffffffffffffffffff\n      and\n      0xffffffffffffffffffffffffffffffffffffffff\n      and\n      dup2\n      mstore\n      pop\n        /* \"contracts/proposal2.sol\":2086:2101  voted_addresses */\n      0x03\n        /* \"contracts/proposal2.sol\":2086:2111  voted_addresses = [owner] */\n      swap1\n      0x01\n      tag_59\n      swap3\n      swap2\n      swap1\n      tag_60\n      jump\t// in\n    tag_59:\n      pop\n        /* \"contracts/proposal2.sol\":1931:2123  if ((proposal.total_vote_to_end - total_vote == 1) && (choice == 1 || choice == 2 || choice == 0)) {... */\n    tag_58:\n        /* \"contracts/proposal2.sol\":1323:2130  {... */\n      pop\n      pop\n        /* \"contracts/proposal2.sol\":454:455  _ */\n      pop\n        /* \"contracts/proposal2.sol\":1259:2130  function vote(uint8 choice) external active newVoter(msg.sender){... */\n      pop\n      jump\t// out\n        /* \"contracts/proposal2.sol\":2646:3197  function create_proposal(string memory title, string memory description, uint256 total_vote_to_end) external onlyOwner {... */\n    tag_18:\n        /* \"contracts/proposal2.sol\":298:303  owner */\n      0x00\n      dup1\n      sload\n      swap1\n      0x0100\n      exp\n      swap1\n      div\n      0xffffffffffffffffffffffffffffffffffffffff\n      and\n        /* \"contracts/proposal2.sol\":284:303  msg.sender == owner */\n      0xffffffffffffffffffffffffffffffffffffffff\n      and\n        /* \"contracts/proposal2.sol\":284:294  msg.sender */\n      caller\n        /* \"contracts/proposal2.sol\":284:303  msg.sender == owner */\n      0xffffffffffffffffffffffffffffffffffffffff\n      and\n      eq\n        /* \"contracts/proposal2.sol\":276:304  require(msg.sender == owner) */\n      tag_62\n      jumpi\n      0x00\n      dup1\n      revert\n    tag_62:\n        /* \"contracts/proposal2.sol\":2776:2804  Proposal storage newProposal */\n      0x00\n        /* \"contracts/proposal2.sol\":2807:2823  proposal_history */\n      0x02\n        /* \"contracts/proposal2.sol\":2807:2832  proposal_history[counter] */\n      0x00\n        /* \"contracts/proposal2.sol\":2824:2831  counter */\n      sload(0x01)\n        /* \"contracts/proposal2.sol\":2807:2832  proposal_history[counter] */\n      dup2\n      mstore\n      0x20\n      add\n      swap1\n      dup2\n      mstore\n      0x20\n      add\n      0x00\n      keccak256\n        /* \"contracts/proposal2.sol\":2776:2832  Proposal storage newProposal = proposal_history[counter] */\n      swap1\n      pop\n        /* \"contracts/proposal2.sol\":2873:2878  title */\n      dup4\n        /* \"contracts/proposal2.sol\":2853:2864  newProposal */\n      dup2\n        /* \"contracts/proposal2.sol\":2853:2870  newProposal.title */\n      0x00\n      add\n        /* \"contracts/proposal2.sol\":2853:2878  newProposal.title = title */\n      swap1\n      dup2\n      tag_64\n      swap2\n      swap1\n      tag_65\n      jump\t// in\n    tag_64:\n      pop\n        /* \"contracts/proposal2.sol\":2915:2926  description */\n      dup3\n        /* \"contracts/proposal2.sol\":2889:2900  newProposal */\n      dup2\n        /* \"contracts/proposal2.sol\":2889:2912  newProposal.description */\n      0x01\n      add\n        /* \"contracts/proposal2.sol\":2889:2926  newProposal.description = description */\n      swap1\n      dup2\n      tag_66\n      swap2\n      swap1\n      tag_65\n      jump\t// in\n    tag_66:\n      pop\n        /* \"contracts/proposal2.sol\":2959:2960  0 */\n      0x00\n        /* \"contracts/proposal2.sol\":2937:2948  newProposal */\n      dup2\n        /* \"contracts/proposal2.sol\":2937:2956  newProposal.approve */\n      0x02\n      add\n        /* \"contracts/proposal2.sol\":2937:2960  newProposal.approve = 0 */\n      dup2\n      swap1\n      sstore\n      pop\n        /* \"contracts/proposal2.sol\":2992:2993  0 */\n      0x00\n        /* \"contracts/proposal2.sol\":2971:2982  newProposal */\n      dup2\n        /* \"contracts/proposal2.sol\":2971:2989  newProposal.reject */\n      0x03\n      add\n        /* \"contracts/proposal2.sol\":2971:2993  newProposal.reject = 0 */\n      dup2\n      swap1\n      sstore\n      pop\n        /* \"contracts/proposal2.sol\":3023:3024  0 */\n      0x00\n        /* \"contracts/proposal2.sol\":3004:3015  newProposal */\n      dup2\n        /* \"contracts/proposal2.sol\":3004:3020  newProposal.pass */\n      0x04\n      add\n        /* \"contracts/proposal2.sol\":3004:3024  newProposal.pass = 0 */\n      dup2\n      swap1\n      sstore\n      pop\n        /* \"contracts/proposal2.sol\":3067:3084  total_vote_to_end */\n      dup2\n        /* \"contracts/proposal2.sol\":3035:3046  newProposal */\n      dup2\n        /* \"contracts/proposal2.sol\":3035:3064  newProposal.total_vote_to_end */\n      0x05\n      add\n        /* \"contracts/proposal2.sol\":3035:3084  newProposal.total_vote_to_end = total_vote_to_end */\n      dup2\n      swap1\n      sstore\n      pop\n        /* \"contracts/proposal2.sol\":3123:3128  false */\n      0x00\n        /* \"contracts/proposal2.sol\":3095:3106  newProposal */\n      dup2\n        /* \"contracts/proposal2.sol\":3095:3120  newProposal.current_state */\n      0x06\n      add\n      0x00\n        /* \"contracts/proposal2.sol\":3095:3128  newProposal.current_state = false */\n      0x0100\n      exp\n      dup2\n      sload\n      dup2\n      0xff\n      mul\n      not\n      and\n      swap1\n      dup4\n      iszero\n      iszero\n      mul\n      or\n      swap1\n      sstore\n      pop\n        /* \"contracts/proposal2.sol\":3163:3167  true */\n      0x01\n        /* \"contracts/proposal2.sol\":3139:3150  newProposal */\n      dup2\n        /* \"contracts/proposal2.sol\":3139:3160  newProposal.is_active */\n      0x06\n      add\n      0x01\n        /* \"contracts/proposal2.sol\":3139:3167  newProposal.is_active = true */\n      0x0100\n      exp\n      dup2\n      sload\n      dup2\n      0xff\n      mul\n      not\n      and\n      swap1\n      dup4\n      iszero\n      iszero\n      mul\n      or\n      swap1\n      sstore\n      pop\n        /* \"contracts/proposal2.sol\":3180:3187  counter */\n      0x01\n      0x00\n        /* \"contracts/proposal2.sol\":3180:3189  counter++ */\n      dup2\n      sload\n      dup1\n      swap3\n      swap2\n      swap1\n      tag_67\n      swap1\n      tag_68\n      jump\t// in\n    tag_67:\n      swap2\n      swap1\n      pop\n      sstore\n      pop\n        /* \"contracts/proposal2.sol\":2765:3197  {... */\n      pop\n        /* \"contracts/proposal2.sol\":2646:3197  function create_proposal(string memory title, string memory description, uint256 total_vote_to_end) external onlyOwner {... */\n      pop\n      pop\n      pop\n      jump\t// out\n        /* \"contracts/proposal2.sol\":990:1251  function isVoted(address _address) public view returns (bool) {... */\n    tag_21:\n        /* \"contracts/proposal2.sol\":1046:1050  bool */\n      0x00\n        /* \"contracts/proposal2.sol\":1068:1074  uint i */\n      dup1\n        /* \"contracts/proposal2.sol\":1077:1078  0 */\n      0x00\n        /* \"contracts/proposal2.sol\":1068:1078  uint i = 0 */\n      swap1\n      pop\n        /* \"contracts/proposal2.sol\":1063:1221  for (uint i = 0; i < voted_addresses.length; i++) {... */\n    tag_70:\n        /* \"contracts/proposal2.sol\":1084:1099  voted_addresses */\n      0x03\n        /* \"contracts/proposal2.sol\":1084:1106  voted_addresses.length */\n      dup1\n      sload\n      swap1\n      pop\n        /* \"contracts/proposal2.sol\":1080:1081  i */\n      dup2\n        /* \"contracts/proposal2.sol\":1080:1106  i < voted_addresses.length */\n      lt\n        /* \"contracts/proposal2.sol\":1063:1221  for (uint i = 0; i < voted_addresses.length; i++) {... */\n      iszero\n      tag_71\n      jumpi\n        /* \"contracts/proposal2.sol\":1154:1162  _address */\n      dup3\n        /* \"contracts/proposal2.sol\":1132:1162  voted_addresses[i] == _address */\n      0xffffffffffffffffffffffffffffffffffffffff\n      and\n        /* \"contracts/proposal2.sol\":1132:1147  voted_addresses */\n      0x03\n        /* \"contracts/proposal2.sol\":1148:1149  i */\n      dup3\n        /* \"contracts/proposal2.sol\":1132:1150  voted_addresses[i] */\n      dup2\n      sload\n      dup2\n      lt\n      tag_73\n      jumpi\n      tag_74\n      tag_75\n      jump\t// in\n    tag_74:\n    tag_73:\n      swap1\n      0x00\n      mstore\n      keccak256(0x00, 0x20)\n      add\n      0x00\n      swap1\n      sload\n      swap1\n      0x0100\n      exp\n      swap1\n      div\n      0xffffffffffffffffffffffffffffffffffffffff\n      and\n        /* \"contracts/proposal2.sol\":1132:1162  voted_addresses[i] == _address */\n      0xffffffffffffffffffffffffffffffffffffffff\n      and\n      sub\n        /* \"contracts/proposal2.sol\":1128:1210  if (voted_addresses[i] == _address) {... */\n      tag_77\n      jumpi\n        /* \"contracts/proposal2.sol\":1190:1194  true */\n      0x01\n        /* \"contracts/proposal2.sol\":1183:1194  return true */\n      swap2\n      pop\n      pop\n      jump(tag_69)\n        /* \"contracts/proposal2.sol\":1128:1210  if (voted_addresses[i] == _address) {... */\n    tag_77:\n        /* \"contracts/proposal2.sol\":1108:1111  i++ */\n      dup1\n      dup1\n      0x01\n      add\n      swap2\n      pop\n      pop\n        /* \"contracts/proposal2.sol\":1063:1221  for (uint i = 0; i < voted_addresses.length; i++) {... */\n      jump(tag_70)\n    tag_71:\n      pop\n        /* \"contracts/proposal2.sol\":1238:1243  false */\n      0x00\n        /* \"contracts/proposal2.sol\":1231:1243  return false */\n      swap1\n      pop\n        /* \"contracts/proposal2.sol\":990:1251  function isVoted(address _address) public view returns (bool) {... */\n    tag_69:\n      swap2\n      swap1\n      pop\n      jump\t// out\n        /* \"contracts/proposal2.sol\":2138:2638  function calculateCurrentState() private view returns(bool) {... */\n    tag_44:\n        /* \"contracts/proposal2.sol\":2192:2196  bool */\n      0x00\n        /* \"contracts/proposal2.sol\":2209:2234  Proposal storage proposal */\n      dup1\n        /* \"contracts/proposal2.sol\":2237:2253  proposal_history */\n      0x02\n        /* \"contracts/proposal2.sol\":2237:2262  proposal_history[counter] */\n      0x00\n        /* \"contracts/proposal2.sol\":2254:2261  counter */\n      sload(0x01)\n        /* \"contracts/proposal2.sol\":2237:2262  proposal_history[counter] */\n      dup2\n      mstore\n      0x20\n      add\n      swap1\n      dup2\n      mstore\n      0x20\n      add\n      0x00\n      keccak256\n        /* \"contracts/proposal2.sol\":2209:2262  Proposal storage proposal = proposal_history[counter] */\n      swap1\n      pop\n        /* \"contracts/proposal2.sol\":2275:2290  uint256 approve */\n      0x00\n        /* \"contracts/proposal2.sol\":2293:2301  proposal */\n      dup2\n        /* \"contracts/proposal2.sol\":2293:2309  proposal.approve */\n      0x02\n      add\n      sload\n        /* \"contracts/proposal2.sol\":2275:2309  uint256 approve = proposal.approve */\n      swap1\n      pop\n        /* \"contracts/proposal2.sol\":2320:2334  uint256 reject */\n      0x00\n        /* \"contracts/proposal2.sol\":2337:2345  proposal */\n      dup3\n        /* \"contracts/proposal2.sol\":2337:2352  proposal.reject */\n      0x03\n      add\n      sload\n        /* \"contracts/proposal2.sol\":2320:2352  uint256 reject = proposal.reject */\n      swap1\n      pop\n        /* \"contracts/proposal2.sol\":2363:2375  uint256 pass */\n      0x00\n        /* \"contracts/proposal2.sol\":2378:2386  proposal */\n      dup4\n        /* \"contracts/proposal2.sol\":2378:2391  proposal.pass */\n      0x04\n      add\n      sload\n        /* \"contracts/proposal2.sol\":2363:2391  uint256 pass = proposal.pass */\n      swap1\n      pop\n        /* \"contracts/proposal2.sol\":2440:2441  1 */\n      0x01\n        /* \"contracts/proposal2.sol\":2435:2436  2 */\n      0x02\n        /* \"contracts/proposal2.sol\":2420:2428  proposal */\n      dup6\n        /* \"contracts/proposal2.sol\":2420:2433  proposal.pass */\n      0x04\n      add\n      sload\n        /* \"contracts/proposal2.sol\":2420:2436  proposal.pass %2 */\n      tag_79\n      swap2\n      swap1\n      tag_80\n      jump\t// in\n    tag_79:\n        /* \"contracts/proposal2.sol\":2420:2441  proposal.pass %2 == 1 */\n      sub\n        /* \"contracts/proposal2.sol\":2416:2479  if (proposal.pass %2 == 1) {... */\n      tag_81\n      jumpi\n        /* \"contracts/proposal2.sol\":2466:2467  1 */\n      0x01\n        /* \"contracts/proposal2.sol\":2458:2467  pass += 1 */\n      dup2\n      tag_82\n      swap2\n      swap1\n      tag_38\n      jump\t// in\n    tag_82:\n      swap1\n      pop\n        /* \"contracts/proposal2.sol\":2416:2479  if (proposal.pass %2 == 1) {... */\n    tag_81:\n        /* \"contracts/proposal2.sol\":2505:2506  2 */\n      0x02\n        /* \"contracts/proposal2.sol\":2498:2502  pass */\n      dup2\n        /* \"contracts/proposal2.sol\":2498:2506  pass / 2 */\n      tag_83\n      swap2\n      swap1\n      tag_84\n      jump\t// in\n    tag_83:\n        /* \"contracts/proposal2.sol\":2491:2506  pass = pass / 2 */\n      swap1\n      pop\n        /* \"contracts/proposal2.sol\":2542:2546  pass */\n      dup1\n        /* \"contracts/proposal2.sol\":2533:2539  reject */\n      dup3\n        /* \"contracts/proposal2.sol\":2533:2546  reject + pass */\n      tag_85\n      swap2\n      swap1\n      tag_38\n      jump\t// in\n    tag_85:\n        /* \"contracts/proposal2.sol\":2523:2530  approve */\n      dup4\n        /* \"contracts/proposal2.sol\":2523:2546  approve > reject + pass */\n      gt\n        /* \"contracts/proposal2.sol\":2519:2631  if (approve > reject + pass) {... */\n      iszero\n      tag_86\n      jumpi\n        /* \"contracts/proposal2.sol\":2570:2574  true */\n      0x01\n        /* \"contracts/proposal2.sol\":2563:2574  return true */\n      swap5\n      pop\n      pop\n      pop\n      pop\n      pop\n      jump(tag_78)\n        /* \"contracts/proposal2.sol\":2519:2631  if (approve > reject + pass) {... */\n    tag_86:\n        /* \"contracts/proposal2.sol\":2614:2619  false */\n      0x00\n        /* \"contracts/proposal2.sol\":2607:2619  return false */\n      swap5\n      pop\n      pop\n      pop\n      pop\n      pop\n        /* \"contracts/proposal2.sol\":2138:2638  function calculateCurrentState() private view returns(bool) {... */\n    tag_78:\n      swap1\n      jump\t// out\n    tag_60:\n      dup3\n      dup1\n      sload\n      dup3\n      dup3\n      sstore\n      swap1\n      0x00\n      mstore\n      keccak256(0x00, 0x20)\n      swap1\n      dup2\n      add\n      swap3\n      dup3\n      iszero\n      tag_88\n      jumpi\n      swap2\n      0x20\n      mul\n      dup3\n      add\n    tag_89:\n      dup3\n      dup2\n      gt\n      iszero\n      tag_90\n      jumpi\n      dup3\n      mload\n      dup3\n      exp(0x0100, 0x00)\n      dup2\n      sload\n      dup2\n      0xffffffffffffffffffffffffffffffffffffffff\n      mul\n      not\n      and\n      swap1\n      dup4\n      0xffffffffffffffffffffffffffffffffffffffff\n      and\n      mul\n      or\n      swap1\n      sstore\n      pop\n      swap2\n      0x20\n      add\n      swap2\n      swap1\n      0x01\n      add\n      swap1\n      jump(tag_89)\n    tag_90:\n    tag_88:\n      pop\n      swap1\n      pop\n      tag_91\n      swap2\n      swap1\n      tag_92\n      jump\t// in\n    tag_91:\n      pop\n      swap1\n      jump\t// out\n    tag_92:\n    tag_93:\n      dup1\n      dup3\n      gt\n      iszero\n      tag_94\n      jumpi\n      0x00\n      dup2\n      0x00\n      swap1\n      sstore\n      pop\n      0x01\n      add\n      jump(tag_93)\n    tag_94:\n      pop\n      swap1\n      jump\t// out\n        /* \"#utility.yul\":7:82   */\n    tag_95:\n        /* \"#utility.yul\":40:46   */\n      0x00\n        /* \"#utility.yul\":73:75   */\n      0x40\n        /* \"#utility.yul\":67:76   */\n      mload\n        /* \"#utility.yul\":57:76   */\n      swap1\n      pop\n        /* \"#utility.yul\":7:82   */\n      swap1\n      jump\t// out\n        /* \"#utility.yul\":88:205   */\n    tag_96:\n        /* \"#utility.yul\":197:198   */\n      0x00\n        /* \"#utility.yul\":194:195   */\n      dup1\n        /* \"#utility.yul\":187:199   */\n      revert\n        /* \"#utility.yul\":211:328   */\n    tag_97:\n        /* \"#utility.yul\":320:321   */\n      0x00\n        /* \"#utility.yul\":317:318   */\n      dup1\n        /* \"#utility.yul\":310:322   */\n      revert\n        /* \"#utility.yul\":334:460   */\n    tag_98:\n        /* \"#utility.yul\":371:378   */\n      0x00\n        /* \"#utility.yul\":411:453   */\n      0xffffffffffffffffffffffffffffffffffffffff\n        /* \"#utility.yul\":404:409   */\n      dup3\n        /* \"#utility.yul\":400:454   */\n      and\n        /* \"#utility.yul\":389:454   */\n      swap1\n      pop\n        /* \"#utility.yul\":334:460   */\n      swap2\n      swap1\n      pop\n      jump\t// out\n        /* \"#utility.yul\":466:562   */\n    tag_99:\n        /* \"#utility.yul\":503:510   */\n      0x00\n        /* \"#utility.yul\":532:556   */\n      tag_151\n        /* \"#utility.yul\":550:555   */\n      dup3\n        /* \"#utility.yul\":532:556   */\n      tag_98\n      jump\t// in\n    tag_151:\n        /* \"#utility.yul\":521:556   */\n      swap1\n      pop\n        /* \"#utility.yul\":466:562   */\n      swap2\n      swap1\n      pop\n      jump\t// out\n        /* \"#utility.yul\":568:690   */\n    tag_100:\n        /* \"#utility.yul\":641:665   */\n      tag_153\n        /* \"#utility.yul\":659:664   */\n      dup2\n        /* \"#utility.yul\":641:665   */\n      tag_99\n      jump\t// in\n    tag_153:\n        /* \"#utility.yul\":634:639   */\n      dup2\n        /* \"#utility.yul\":631:666   */\n      eq\n        /* \"#utility.yul\":621:684   */\n      tag_154\n      jumpi\n        /* \"#utility.yul\":680:681   */\n      0x00\n        /* \"#utility.yul\":677:678   */\n      dup1\n        /* \"#utility.yul\":670:682   */\n      revert\n        /* \"#utility.yul\":621:684   */\n    tag_154:\n        /* \"#utility.yul\":568:690   */\n      pop\n      jump\t// out\n        /* \"#utility.yul\":696:835   */\n    tag_101:\n        /* \"#utility.yul\":742:747   */\n      0x00\n        /* \"#utility.yul\":780:786   */\n      dup2\n        /* \"#utility.yul\":767:787   */\n      calldataload\n        /* \"#utility.yul\":758:787   */\n      swap1\n      pop\n        /* \"#utility.yul\":796:829   */\n      tag_156\n        /* \"#utility.yul\":823:828   */\n      dup2\n        /* \"#utility.yul\":796:829   */\n      tag_100\n      jump\t// in\n    tag_156:\n        /* \"#utility.yul\":696:835   */\n      swap3\n      swap2\n      pop\n      pop\n      jump\t// out\n        /* \"#utility.yul\":841:1170   */\n    tag_9:\n        /* \"#utility.yul\":900:906   */\n      0x00\n        /* \"#utility.yul\":949:951   */\n      0x20\n        /* \"#utility.yul\":937:946   */\n      dup3\n        /* \"#utility.yul\":928:935   */\n      dup5\n        /* \"#utility.yul\":924:947   */\n      sub\n        /* \"#utility.yul\":920:952   */\n      slt\n        /* \"#utility.yul\":917:1036   */\n      iszero\n      tag_158\n      jumpi\n        /* \"#utility.yul\":955:1034   */\n      tag_159\n      tag_96\n      jump\t// in\n    tag_159:\n        /* \"#utility.yul\":917:1036   */\n    tag_158:\n        /* \"#utility.yul\":1075:1076   */\n      0x00\n        /* \"#utility.yul\":1100:1153   */\n      tag_160\n        /* \"#utility.yul\":1145:1152   */\n      dup5\n        /* \"#utility.yul\":1136:1142   */\n      dup3\n        /* \"#utility.yul\":1125:1134   */\n      dup6\n        /* \"#utility.yul\":1121:1143   */\n      add\n        /* \"#utility.yul\":1100:1153   */\n      tag_101\n      jump\t// in\n    tag_160:\n        /* \"#utility.yul\":1090:1153   */\n      swap2\n      pop\n        /* \"#utility.yul\":1046:1163   */\n      pop\n        /* \"#utility.yul\":841:1170   */\n      swap3\n      swap2\n      pop\n      pop\n      jump\t// out\n        /* \"#utility.yul\":1176:1262   */\n    tag_102:\n        /* \"#utility.yul\":1211:1218   */\n      0x00\n        /* \"#utility.yul\":1251:1255   */\n      0xff\n        /* \"#utility.yul\":1244:1249   */\n      dup3\n        /* \"#utility.yul\":1240:1256   */\n      and\n        /* \"#utility.yul\":1229:1256   */\n      swap1\n      pop\n        /* \"#utility.yul\":1176:1262   */\n      swap2\n      swap1\n      pop\n      jump\t// out\n        /* \"#utility.yul\":1268:1386   */\n    tag_103:\n        /* \"#utility.yul\":1339:1361   */\n      tag_163\n        /* \"#utility.yul\":1355:1360   */\n      dup2\n        /* \"#utility.yul\":1339:1361   */\n      tag_102\n      jump\t// in\n    tag_163:\n        /* \"#utility.yul\":1332:1337   */\n      dup2\n        /* \"#utility.yul\":1329:1362   */\n      eq\n        /* \"#utility.yul\":1319:1380   */\n      tag_164\n      jumpi\n        /* \"#utility.yul\":1376:1377   */\n      0x00\n        /* \"#utility.yul\":1373:1374   */\n      dup1\n        /* \"#utility.yul\":1366:1378   */\n      revert\n        /* \"#utility.yul\":1319:1380   */\n    tag_164:\n        /* \"#utility.yul\":1268:1386   */\n      pop\n      jump\t// out\n        /* \"#utility.yul\":1392:1527   */\n    tag_104:\n        /* \"#utility.yul\":1436:1441   */\n      0x00\n        /* \"#utility.yul\":1474:1480   */\n      dup2\n        /* \"#utility.yul\":1461:1481   */\n      calldataload\n        /* \"#utility.yul\":1452:1481   */\n      swap1\n      pop\n        /* \"#utility.yul\":1490:1521   */\n      tag_166\n        /* \"#utility.yul\":1515:1520   */\n      dup2\n        /* \"#utility.yul\":1490:1521   */\n      tag_103\n      jump\t// in\n    tag_166:\n        /* \"#utility.yul\":1392:1527   */\n      swap3\n      swap2\n      pop\n      pop\n      jump\t// out\n        /* \"#utility.yul\":1533:1858   */\n    tag_13:\n        /* \"#utility.yul\":1590:1596   */\n      0x00\n        /* \"#utility.yul\":1639:1641   */\n      0x20\n        /* \"#utility.yul\":1627:1636   */\n      dup3\n        /* \"#utility.yul\":1618:1625   */\n      dup5\n        /* \"#utility.yul\":1614:1637   */\n      sub\n        /* \"#utility.yul\":1610:1642   */\n      slt\n        /* \"#utility.yul\":1607:1726   */\n      iszero\n      tag_168\n      jumpi\n        /* \"#utility.yul\":1645:1724   */\n      tag_169\n      tag_96\n      jump\t// in\n    tag_169:\n        /* \"#utility.yul\":1607:1726   */\n    tag_168:\n        /* \"#utility.yul\":1765:1766   */\n      0x00\n        /* \"#utility.yul\":1790:1841   */\n      tag_170\n        /* \"#utility.yul\":1833:1840   */\n      dup5\n        /* \"#utility.yul\":1824:1830   */\n      dup3\n        /* \"#utility.yul\":1813:1822   */\n      dup6\n        /* \"#utility.yul\":1809:1831   */\n      add\n        /* \"#utility.yul\":1790:1841   */\n      tag_104\n      jump\t// in\n    tag_170:\n        /* \"#utility.yul\":1780:1841   */\n      swap2\n      pop\n        /* \"#utility.yul\":1736:1851   */\n      pop\n        /* \"#utility.yul\":1533:1858   */\n      swap3\n      swap2\n      pop\n      pop\n      jump\t// out\n        /* \"#utility.yul\":1864:1981   */\n    tag_105:\n        /* \"#utility.yul\":1973:1974   */\n      0x00\n        /* \"#utility.yul\":1970:1971   */\n      dup1\n        /* \"#utility.yul\":1963:1975   */\n      revert\n        /* \"#utility.yul\":1987:2104   */\n    tag_106:\n        /* \"#utility.yul\":2096:2097   */\n      0x00\n        /* \"#utility.yul\":2093:2094   */\n      dup1\n        /* \"#utility.yul\":2086:2098   */\n      revert\n        /* \"#utility.yul\":2110:2212   */\n    tag_107:\n        /* \"#utility.yul\":2151:2157   */\n      0x00\n        /* \"#utility.yul\":2202:2204   */\n      0x1f\n        /* \"#utility.yul\":2198:2205   */\n      not\n        /* \"#utility.yul\":2193:2195   */\n      0x1f\n        /* \"#utility.yul\":2186:2191   */\n      dup4\n        /* \"#utility.yul\":2182:2196   */\n      add\n        /* \"#utility.yul\":2178:2206   */\n      and\n        /* \"#utility.yul\":2168:2206   */\n      swap1\n      pop\n        /* \"#utility.yul\":2110:2212   */\n      swap2\n      swap1\n      pop\n      jump\t// out\n        /* \"#utility.yul\":2218:2398   */\n    tag_108:\n        /* \"#utility.yul\":2266:2343   */\n      0x4e487b7100000000000000000000000000000000000000000000000000000000\n        /* \"#utility.yul\":2263:2264   */\n      0x00\n        /* \"#utility.yul\":2256:2344   */\n      mstore\n        /* \"#utility.yul\":2363:2367   */\n      0x41\n        /* \"#utility.yul\":2360:2361   */\n      0x04\n        /* \"#utility.yul\":2353:2368   */\n      mstore\n        /* \"#utility.yul\":2387:2391   */\n      0x24\n        /* \"#utility.yul\":2384:2385   */\n      0x00\n        /* \"#utility.yul\":2377:2392   */\n      revert\n        /* \"#utility.yul\":2404:2685   */\n    tag_109:\n        /* \"#utility.yul\":2487:2514   */\n      tag_176\n        /* \"#utility.yul\":2509:2513   */\n      dup3\n        /* \"#utility.yul\":2487:2514   */\n      tag_107\n      jump\t// in\n    tag_176:\n        /* \"#utility.yul\":2479:2485   */\n      dup2\n        /* \"#utility.yul\":2475:2515   */\n      add\n        /* \"#utility.yul\":2617:2623   */\n      dup2\n        /* \"#utility.yul\":2605:2615   */\n      dup2\n        /* \"#utility.yul\":2602:2624   */\n      lt\n        /* \"#utility.yul\":2581:2599   */\n      0xffffffffffffffff\n        /* \"#utility.yul\":2569:2579   */\n      dup3\n        /* \"#utility.yul\":2566:2600   */\n      gt\n        /* \"#utility.yul\":2563:2625   */\n      or\n        /* \"#utility.yul\":2560:2648   */\n      iszero\n      tag_177\n      jumpi\n        /* \"#utility.yul\":2628:2646   */\n      tag_178\n      tag_108\n      jump\t// in\n    tag_178:\n        /* \"#utility.yul\":2560:2648   */\n    tag_177:\n        /* \"#utility.yul\":2668:2678   */\n      dup1\n        /* \"#utility.yul\":2664:2666   */\n      0x40\n        /* \"#utility.yul\":2657:2679   */\n      mstore\n        /* \"#utility.yul\":2447:2685   */\n      pop\n        /* \"#utility.yul\":2404:2685   */\n      pop\n      pop\n      jump\t// out\n        /* \"#utility.yul\":2691:2820   */\n    tag_110:\n        /* \"#utility.yul\":2725:2731   */\n      0x00\n        /* \"#utility.yul\":2752:2772   */\n      tag_180\n      tag_95\n      jump\t// in\n    tag_180:\n        /* \"#utility.yul\":2742:2772   */\n      swap1\n      pop\n        /* \"#utility.yul\":2781:2814   */\n      tag_181\n        /* \"#utility.yul\":2809:2813   */\n      dup3\n        /* \"#utility.yul\":2801:2807   */\n      dup3\n        /* \"#utility.yul\":2781:2814   */\n      tag_109\n      jump\t// in\n    tag_181:\n        /* \"#utility.yul\":2691:2820   */\n      swap2\n      swap1\n      pop\n      jump\t// out\n        /* \"#utility.yul\":2826:3134   */\n    tag_111:\n        /* \"#utility.yul\":2888:2892   */\n      0x00\n        /* \"#utility.yul\":2978:2996   */\n      0xffffffffffffffff\n        /* \"#utility.yul\":2970:2976   */\n      dup3\n        /* \"#utility.yul\":2967:2997   */\n      gt\n        /* \"#utility.yul\":2964:3020   */\n      iszero\n      tag_183\n      jumpi\n        /* \"#utility.yul\":3000:3018   */\n      tag_184\n      tag_108\n      jump\t// in\n    tag_184:\n        /* \"#utility.yul\":2964:3020   */\n    tag_183:\n        /* \"#utility.yul\":3038:3067   */\n      tag_185\n        /* \"#utility.yul\":3060:3066   */\n      dup3\n        /* \"#utility.yul\":3038:3067   */\n      tag_107\n      jump\t// in\n    tag_185:\n        /* \"#utility.yul\":3030:3067   */\n      swap1\n      pop\n        /* \"#utility.yul\":3122:3126   */\n      0x20\n        /* \"#utility.yul\":3116:3120   */\n      dup2\n        /* \"#utility.yul\":3112:3127   */\n      add\n        /* \"#utility.yul\":3104:3127   */\n      swap1\n      pop\n        /* \"#utility.yul\":2826:3134   */\n      swap2\n      swap1\n      pop\n      jump\t// out\n        /* \"#utility.yul\":3140:3288   */\n    tag_112:\n        /* \"#utility.yul\":3238:3244   */\n      dup3\n        /* \"#utility.yul\":3233:3236   */\n      dup2\n        /* \"#utility.yul\":3228:3231   */\n      dup4\n        /* \"#utility.yul\":3215:3245   */\n      calldatacopy\n        /* \"#utility.yul\":3279:3280   */\n      0x00\n        /* \"#utility.yul\":3270:3276   */\n      dup4\n        /* \"#utility.yul\":3265:3268   */\n      dup4\n        /* \"#utility.yul\":3261:3277   */\n      add\n        /* \"#utility.yul\":3254:3281   */\n      mstore\n        /* \"#utility.yul\":3140:3288   */\n      pop\n      pop\n      pop\n      jump\t// out\n        /* \"#utility.yul\":3294:3719   */\n    tag_113:\n        /* \"#utility.yul\":3372:3377   */\n      0x00\n        /* \"#utility.yul\":3397:3463   */\n      tag_188\n        /* \"#utility.yul\":3413:3462   */\n      tag_189\n        /* \"#utility.yul\":3455:3461   */\n      dup5\n        /* \"#utility.yul\":3413:3462   */\n      tag_111\n      jump\t// in\n    tag_189:\n        /* \"#utility.yul\":3397:3463   */\n      tag_110\n      jump\t// in\n    tag_188:\n        /* \"#utility.yul\":3388:3463   */\n      swap1\n      pop\n        /* \"#utility.yul\":3486:3492   */\n      dup3\n        /* \"#utility.yul\":3479:3484   */\n      dup2\n        /* \"#utility.yul\":3472:3493   */\n      mstore\n        /* \"#utility.yul\":3524:3528   */\n      0x20\n        /* \"#utility.yul\":3517:3522   */\n      dup2\n        /* \"#utility.yul\":3513:3529   */\n      add\n        /* \"#utility.yul\":3562:3565   */\n      dup5\n        /* \"#utility.yul\":3553:3559   */\n      dup5\n        /* \"#utility.yul\":3548:3551   */\n      dup5\n        /* \"#utility.yul\":3544:3560   */\n      add\n        /* \"#utility.yul\":3541:3566   */\n      gt\n        /* \"#utility.yul\":3538:3650   */\n      iszero\n      tag_190\n      jumpi\n        /* \"#utility.yul\":3569:3648   */\n      tag_191\n      tag_106\n      jump\t// in\n    tag_191:\n        /* \"#utility.yul\":3538:3650   */\n    tag_190:\n        /* \"#utility.yul\":3659:3713   */\n      tag_192\n        /* \"#utility.yul\":3706:3712   */\n      dup5\n        /* \"#utility.yul\":3701:3704   */\n      dup3\n        /* \"#utility.yul\":3696:3699   */\n      dup6\n        /* \"#utility.yul\":3659:3713   */\n      tag_112\n      jump\t// in\n    tag_192:\n        /* \"#utility.yul\":3378:3719   */\n      pop\n        /* \"#utility.yul\":3294:3719   */\n      swap4\n      swap3\n      pop\n      pop\n      pop\n      jump\t// out\n        /* \"#utility.yul\":3739:4079   */\n    tag_114:\n        /* \"#utility.yul\":3795:3800   */\n      0x00\n        /* \"#utility.yul\":3844:3847   */\n      dup3\n        /* \"#utility.yul\":3837:3841   */\n      0x1f\n        /* \"#utility.yul\":3829:3835   */\n      dup4\n        /* \"#utility.yul\":3825:3842   */\n      add\n        /* \"#utility.yul\":3821:3848   */\n      slt\n        /* \"#utility.yul\":3811:3933   */\n      tag_194\n      jumpi\n        /* \"#utility.yul\":3852:3931   */\n      tag_195\n      tag_105\n      jump\t// in\n    tag_195:\n        /* \"#utility.yul\":3811:3933   */\n    tag_194:\n        /* \"#utility.yul\":3969:3975   */\n      dup2\n        /* \"#utility.yul\":3956:3976   */\n      calldataload\n        /* \"#utility.yul\":3994:4073   */\n      tag_196\n        /* \"#utility.yul\":4069:4072   */\n      dup5\n        /* \"#utility.yul\":4061:4067   */\n      dup3\n        /* \"#utility.yul\":4054:4058   */\n      0x20\n        /* \"#utility.yul\":4046:4052   */\n      dup7\n        /* \"#utility.yul\":4042:4059   */\n      add\n        /* \"#utility.yul\":3994:4073   */\n      tag_113\n      jump\t// in\n    tag_196:\n        /* \"#utility.yul\":3985:4073   */\n      swap2\n      pop\n        /* \"#utility.yul\":3801:4079   */\n      pop\n        /* \"#utility.yul\":3739:4079   */\n      swap3\n      swap2\n      pop\n      pop\n      jump\t// out\n        /* \"#utility.yul\":4085:4162   */\n    tag_115:\n        /* \"#utility.yul\":4122:4129   */\n      0x00\n        /* \"#utility.yul\":4151:4156   */\n      dup2\n        /* \"#utility.yul\":4140:4156   */\n      swap1\n      pop\n        /* \"#utility.yul\":4085:4162   */\n      swap2\n      swap1\n      pop\n      jump\t// out\n        /* \"#utility.yul\":4168:4290   */\n    tag_116:\n        /* \"#utility.yul\":4241:4265   */\n      tag_199\n        /* \"#utility.yul\":4259:4264   */\n      dup2\n        /* \"#utility.yul\":4241:4265   */\n      tag_115\n      jump\t// in\n    tag_199:\n        /* \"#utility.yul\":4234:4239   */\n      dup2\n        /* \"#utility.yul\":4231:4266   */\n      eq\n        /* \"#utility.yul\":4221:4284   */\n      tag_200\n      jumpi\n        /* \"#utility.yul\":4280:4281   */\n      0x00\n        /* \"#utility.yul\":4277:4278   */\n      dup1\n        /* \"#utility.yul\":4270:4282   */\n      revert\n        /* \"#utility.yul\":4221:4284   */\n    tag_200:\n        /* \"#utility.yul\":4168:4290   */\n      pop\n      jump\t// out\n        /* \"#utility.yul\":4296:4435   */\n    tag_117:\n        /* \"#utility.yul\":4342:4347   */\n      0x00\n        /* \"#utility.yul\":4380:4386   */\n      dup2\n        /* \"#utility.yul\":4367:4387   */\n      calldataload\n        /* \"#utility.yul\":4358:4387   */\n      swap1\n      pop\n        /* \"#utility.yul\":4396:4429   */\n      tag_202\n        /* \"#utility.yul\":4423:4428   */\n      dup2\n        /* \"#utility.yul\":4396:4429   */\n      tag_116\n      jump\t// in\n    tag_202:\n        /* \"#utility.yul\":4296:4435   */\n      swap3\n      swap2\n      pop\n      pop\n      jump\t// out\n        /* \"#utility.yul\":4441:5420   */\n    tag_17:\n        /* \"#utility.yul\":4538:4544   */\n      0x00\n        /* \"#utility.yul\":4546:4552   */\n      dup1\n        /* \"#utility.yul\":4554:4560   */\n      0x00\n        /* \"#utility.yul\":4603:4605   */\n      0x60\n        /* \"#utility.yul\":4591:4600   */\n      dup5\n        /* \"#utility.yul\":4582:4589   */\n      dup7\n        /* \"#utility.yul\":4578:4601   */\n      sub\n        /* \"#utility.yul\":4574:4606   */\n      slt\n        /* \"#utility.yul\":4571:4690   */\n      iszero\n      tag_204\n      jumpi\n        /* \"#utility.yul\":4609:4688   */\n      tag_205\n      tag_96\n      jump\t// in\n    tag_205:\n        /* \"#utility.yul\":4571:4690   */\n    tag_204:\n        /* \"#utility.yul\":4757:4758   */\n      0x00\n        /* \"#utility.yul\":4746:4755   */\n      dup5\n        /* \"#utility.yul\":4742:4759   */\n      add\n        /* \"#utility.yul\":4729:4760   */\n      calldataload\n        /* \"#utility.yul\":4787:4805   */\n      0xffffffffffffffff\n        /* \"#utility.yul\":4779:4785   */\n      dup2\n        /* \"#utility.yul\":4776:4806   */\n      gt\n        /* \"#utility.yul\":4773:4890   */\n      iszero\n      tag_206\n      jumpi\n        /* \"#utility.yul\":4809:4888   */\n      tag_207\n      tag_97\n      jump\t// in\n    tag_207:\n        /* \"#utility.yul\":4773:4890   */\n    tag_206:\n        /* \"#utility.yul\":4914:4977   */\n      tag_208\n        /* \"#utility.yul\":4969:4976   */\n      dup7\n        /* \"#utility.yul\":4960:4966   */\n      dup3\n        /* \"#utility.yul\":4949:4958   */\n      dup8\n        /* \"#utility.yul\":4945:4967   */\n      add\n        /* \"#utility.yul\":4914:4977   */\n      tag_114\n      jump\t// in\n    tag_208:\n        /* \"#utility.yul\":4904:4977   */\n      swap4\n      pop\n        /* \"#utility.yul\":4700:4987   */\n      pop\n        /* \"#utility.yul\":5054:5056   */\n      0x20\n        /* \"#utility.yul\":5043:5052   */\n      dup5\n        /* \"#utility.yul\":5039:5057   */\n      add\n        /* \"#utility.yul\":5026:5058   */\n      calldataload\n        /* \"#utility.yul\":5085:5103   */\n      0xffffffffffffffff\n        /* \"#utility.yul\":5077:5083   */\n      dup2\n        /* \"#utility.yul\":5074:5104   */\n      gt\n        /* \"#utility.yul\":5071:5188   */\n      iszero\n      tag_209\n      jumpi\n        /* \"#utility.yul\":5107:5186   */\n      tag_210\n      tag_97\n      jump\t// in\n    tag_210:\n        /* \"#utility.yul\":5071:5188   */\n    tag_209:\n        /* \"#utility.yul\":5212:5275   */\n      tag_211\n        /* \"#utility.yul\":5267:5274   */\n      dup7\n        /* \"#utility.yul\":5258:5264   */\n      dup3\n        /* \"#utility.yul\":5247:5256   */\n      dup8\n        /* \"#utility.yul\":5243:5265   */\n      add\n        /* \"#utility.yul\":5212:5275   */\n      tag_114\n      jump\t// in\n    tag_211:\n        /* \"#utility.yul\":5202:5275   */\n      swap3\n      pop\n        /* \"#utility.yul\":4997:5285   */\n      pop\n        /* \"#utility.yul\":5324:5326   */\n      0x40\n        /* \"#utility.yul\":5350:5403   */\n      tag_212\n        /* \"#utility.yul\":5395:5402   */\n      dup7\n        /* \"#utility.yul\":5386:5392   */\n      dup3\n        /* \"#utility.yul\":5375:5384   */\n      dup8\n        /* \"#utility.yul\":5371:5393   */\n      add\n        /* \"#utility.yul\":5350:5403   */\n      tag_117\n      jump\t// in\n    tag_212:\n        /* \"#utility.yul\":5340:5403   */\n      swap2\n      pop\n        /* \"#utility.yul\":5295:5413   */\n      pop\n        /* \"#utility.yul\":4441:5420   */\n      swap3\n      pop\n      swap3\n      pop\n      swap3\n      jump\t// out\n        /* \"#utility.yul\":5426:5516   */\n    tag_118:\n        /* \"#utility.yul\":5460:5467   */\n      0x00\n        /* \"#utility.yul\":5503:5508   */\n      dup2\n        /* \"#utility.yul\":5496:5509   */\n      iszero\n        /* \"#utility.yul\":5489:5510   */\n      iszero\n        /* \"#utility.yul\":5478:5510   */\n      swap1\n      pop\n        /* \"#utility.yul\":5426:5516   */\n      swap2\n      swap1\n      pop\n      jump\t// out\n        /* \"#utility.yul\":5522:5631   */\n    tag_119:\n        /* \"#utility.yul\":5603:5624   */\n      tag_215\n        /* \"#utility.yul\":5618:5623   */\n      dup2\n        /* \"#utility.yul\":5603:5624   */\n      tag_118\n      jump\t// in\n    tag_215:\n        /* \"#utility.yul\":5598:5601   */\n      dup3\n        /* \"#utility.yul\":5591:5625   */\n      mstore\n        /* \"#utility.yul\":5522:5631   */\n      pop\n      pop\n      jump\t// out\n        /* \"#utility.yul\":5637:5847   */\n    tag_23:\n        /* \"#utility.yul\":5724:5728   */\n      0x00\n        /* \"#utility.yul\":5762:5764   */\n      0x20\n        /* \"#utility.yul\":5751:5760   */\n      dup3\n        /* \"#utility.yul\":5747:5765   */\n      add\n        /* \"#utility.yul\":5739:5765   */\n      swap1\n      pop\n        /* \"#utility.yul\":5775:5840   */\n      tag_217\n        /* \"#utility.yul\":5837:5838   */\n      0x00\n        /* \"#utility.yul\":5826:5835   */\n      dup4\n        /* \"#utility.yul\":5822:5839   */\n      add\n        /* \"#utility.yul\":5813:5819   */\n      dup5\n        /* \"#utility.yul\":5775:5840   */\n      tag_119\n      jump\t// in\n    tag_217:\n        /* \"#utility.yul\":5637:5847   */\n      swap3\n      swap2\n      pop\n      pop\n      jump\t// out\n        /* \"#utility.yul\":5853:6022   */\n    tag_120:\n        /* \"#utility.yul\":5937:5948   */\n      0x00\n        /* \"#utility.yul\":5971:5977   */\n      dup3\n        /* \"#utility.yul\":5966:5969   */\n      dup3\n        /* \"#utility.yul\":5959:5978   */\n      mstore\n        /* \"#utility.yul\":6011:6015   */\n      0x20\n        /* \"#utility.yul\":6006:6009   */\n      dup3\n        /* \"#utility.yul\":6002:6016   */\n      add\n        /* \"#utility.yul\":5987:6016   */\n      swap1\n      pop\n        /* \"#utility.yul\":5853:6022   */\n      swap3\n      swap2\n      pop\n      pop\n      jump\t// out\n        /* \"#utility.yul\":6028:6204   */\n    tag_121:\n        /* \"#utility.yul\":6168:6196   */\n      0x5468652070726f706f73616c206973206e6f7420616374697665000000000000\n        /* \"#utility.yul\":6164:6165   */\n      0x00\n        /* \"#utility.yul\":6156:6162   */\n      dup3\n        /* \"#utility.yul\":6152:6166   */\n      add\n        /* \"#utility.yul\":6145:6197   */\n      mstore\n        /* \"#utility.yul\":6028:6204   */\n      pop\n      jump\t// out\n        /* \"#utility.yul\":6210:6576   */\n    tag_122:\n        /* \"#utility.yul\":6352:6355   */\n      0x00\n        /* \"#utility.yul\":6373:6440   */\n      tag_221\n        /* \"#utility.yul\":6437:6439   */\n      0x1a\n        /* \"#utility.yul\":6432:6435   */\n      dup4\n        /* \"#utility.yul\":6373:6440   */\n      tag_120\n      jump\t// in\n    tag_221:\n        /* \"#utility.yul\":6366:6440   */\n      swap2\n      pop\n        /* \"#utility.yul\":6449:6542   */\n      tag_222\n        /* \"#utility.yul\":6538:6541   */\n      dup3\n        /* \"#utility.yul\":6449:6542   */\n      tag_121\n      jump\t// in\n    tag_222:\n        /* \"#utility.yul\":6567:6569   */\n      0x20\n        /* \"#utility.yul\":6562:6565   */\n      dup3\n        /* \"#utility.yul\":6558:6570   */\n      add\n        /* \"#utility.yul\":6551:6570   */\n      swap1\n      pop\n        /* \"#utility.yul\":6210:6576   */\n      swap2\n      swap1\n      pop\n      jump\t// out\n        /* \"#utility.yul\":6582:7001   */\n    tag_30:\n        /* \"#utility.yul\":6748:6752   */\n      0x00\n        /* \"#utility.yul\":6786:6788   */\n      0x20\n        /* \"#utility.yul\":6775:6784   */\n      dup3\n        /* \"#utility.yul\":6771:6789   */\n      add\n        /* \"#utility.yul\":6763:6789   */\n      swap1\n      pop\n        /* \"#utility.yul\":6835:6844   */\n      dup2\n        /* \"#utility.yul\":6829:6833   */\n      dup2\n        /* \"#utility.yul\":6825:6845   */\n      sub\n        /* \"#utility.yul\":6821:6822   */\n      0x00\n        /* \"#utility.yul\":6810:6819   */\n      dup4\n        /* \"#utility.yul\":6806:6823   */\n      add\n        /* \"#utility.yul\":6799:6846   */\n      mstore\n        /* \"#utility.yul\":6863:6994   */\n      tag_224\n        /* \"#utility.yul\":6989:6993   */\n      dup2\n        /* \"#utility.yul\":6863:6994   */\n      tag_122\n      jump\t// in\n    tag_224:\n        /* \"#utility.yul\":6855:6994   */\n      swap1\n      pop\n        /* \"#utility.yul\":6582:7001   */\n      swap2\n      swap1\n      pop\n      jump\t// out\n        /* \"#utility.yul\":7007:7182   */\n    tag_123:\n        /* \"#utility.yul\":7147:7174   */\n      0x416464726573732068617320616c726561647920766f74656400000000000000\n        /* \"#utility.yul\":7143:7144   */\n      0x00\n        /* \"#utility.yul\":7135:7141   */\n      dup3\n        /* \"#utility.yul\":7131:7145   */\n      add\n        /* \"#utility.yul\":7124:7175   */\n      mstore\n        /* \"#utility.yul\":7007:7182   */\n      pop\n      jump\t// out\n        /* \"#utility.yul\":7188:7554   */\n    tag_124:\n        /* \"#utility.yul\":7330:7333   */\n      0x00\n        /* \"#utility.yul\":7351:7418   */\n      tag_227\n        /* \"#utility.yul\":7415:7417   */\n      0x19\n        /* \"#utility.yul\":7410:7413   */\n      dup4\n        /* \"#utility.yul\":7351:7418   */\n      tag_120\n      jump\t// in\n    tag_227:\n        /* \"#utility.yul\":7344:7418   */\n      swap2\n      pop\n        /* \"#utility.yul\":7427:7520   */\n      tag_228\n        /* \"#utility.yul\":7516:7519   */\n      dup3\n        /* \"#utility.yul\":7427:7520   */\n      tag_123\n      jump\t// in\n    tag_228:\n        /* \"#utility.yul\":7545:7547   */\n      0x20\n        /* \"#utility.yul\":7540:7543   */\n      dup3\n        /* \"#utility.yul\":7536:7548   */\n      add\n        /* \"#utility.yul\":7529:7548   */\n      swap1\n      pop\n        /* \"#utility.yul\":7188:7554   */\n      swap2\n      swap1\n      pop\n      jump\t// out\n        /* \"#utility.yul\":7560:7979   */\n    tag_35:\n        /* \"#utility.yul\":7726:7730   */\n      0x00\n        /* \"#utility.yul\":7764:7766   */\n      0x20\n        /* \"#utility.yul\":7753:7762   */\n      dup3\n        /* \"#utility.yul\":7749:7767   */\n      add\n        /* \"#utility.yul\":7741:7767   */\n      swap1\n      pop\n        /* \"#utility.yul\":7813:7822   */\n      dup2\n        /* \"#utility.yul\":7807:7811   */\n      dup2\n        /* \"#utility.yul\":7803:7823   */\n      sub\n        /* \"#utility.yul\":7799:7800   */\n      0x00\n        /* \"#utility.yul\":7788:7797   */\n      dup4\n        /* \"#utility.yul\":7784:7801   */\n      add\n        /* \"#utility.yul\":7777:7824   */\n      mstore\n        /* \"#utility.yul\":7841:7972   */\n      tag_230\n        /* \"#utility.yul\":7967:7971   */\n      dup2\n        /* \"#utility.yul\":7841:7972   */\n      tag_124\n      jump\t// in\n    tag_230:\n        /* \"#utility.yul\":7833:7972   */\n      swap1\n      pop\n        /* \"#utility.yul\":7560:7979   */\n      swap2\n      swap1\n      pop\n      jump\t// out\n        /* \"#utility.yul\":7985:8165   */\n    tag_125:\n        /* \"#utility.yul\":8033:8110   */\n      0x4e487b7100000000000000000000000000000000000000000000000000000000\n        /* \"#utility.yul\":8030:8031   */\n      0x00\n        /* \"#utility.yul\":8023:8111   */\n      mstore\n        /* \"#utility.yul\":8130:8134   */\n      0x11\n        /* \"#utility.yul\":8127:8128   */\n      0x04\n        /* \"#utility.yul\":8120:8135   */\n      mstore\n        /* \"#utility.yul\":8154:8158   */\n      0x24\n        /* \"#utility.yul\":8151:8152   */\n      0x00\n        /* \"#utility.yul\":8144:8159   */\n      revert\n        /* \"#utility.yul\":8171:8362   */\n    tag_38:\n        /* \"#utility.yul\":8211:8214   */\n      0x00\n        /* \"#utility.yul\":8230:8250   */\n      tag_233\n        /* \"#utility.yul\":8248:8249   */\n      dup3\n        /* \"#utility.yul\":8230:8250   */\n      tag_115\n      jump\t// in\n    tag_233:\n        /* \"#utility.yul\":8225:8250   */\n      swap2\n      pop\n        /* \"#utility.yul\":8264:8284   */\n      tag_234\n        /* \"#utility.yul\":8282:8283   */\n      dup4\n        /* \"#utility.yul\":8264:8284   */\n      tag_115\n      jump\t// in\n    tag_234:\n        /* \"#utility.yul\":8259:8284   */\n      swap3\n      pop\n        /* \"#utility.yul\":8307:8308   */\n      dup3\n        /* \"#utility.yul\":8304:8305   */\n      dup3\n        /* \"#utility.yul\":8300:8309   */\n      add\n        /* \"#utility.yul\":8293:8309   */\n      swap1\n      pop\n        /* \"#utility.yul\":8328:8331   */\n      dup1\n        /* \"#utility.yul\":8325:8326   */\n      dup3\n        /* \"#utility.yul\":8322:8332   */\n      gt\n        /* \"#utility.yul\":8319:8355   */\n      iszero\n      tag_235\n      jumpi\n        /* \"#utility.yul\":8335:8353   */\n      tag_236\n      tag_125\n      jump\t// in\n    tag_236:\n        /* \"#utility.yul\":8319:8355   */\n    tag_235:\n        /* \"#utility.yul\":8171:8362   */\n      swap3\n      swap2\n      pop\n      pop\n      jump\t// out\n        /* \"#utility.yul\":8368:8562   */\n    tag_54:\n        /* \"#utility.yul\":8408:8412   */\n      0x00\n        /* \"#utility.yul\":8428:8448   */\n      tag_238\n        /* \"#utility.yul\":8446:8447   */\n      dup3\n        /* \"#utility.yul\":8428:8448   */\n      tag_115\n      jump\t// in\n    tag_238:\n        /* \"#utility.yul\":8423:8448   */\n      swap2\n      pop\n        /* \"#utility.yul\":8462:8482   */\n      tag_239\n        /* \"#utility.yul\":8480:8481   */\n      dup4\n        /* \"#utility.yul\":8462:8482   */\n      tag_115\n      jump\t// in\n    tag_239:\n        /* \"#utility.yul\":8457:8482   */\n      swap3\n      pop\n        /* \"#utility.yul\":8506:8507   */\n      dup3\n        /* \"#utility.yul\":8503:8504   */\n      dup3\n        /* \"#utility.yul\":8499:8508   */\n      sub\n        /* \"#utility.yul\":8491:8508   */\n      swap1\n      pop\n        /* \"#utility.yul\":8530:8531   */\n      dup2\n        /* \"#utility.yul\":8524:8528   */\n      dup2\n        /* \"#utility.yul\":8521:8532   */\n      gt\n        /* \"#utility.yul\":8518:8555   */\n      iszero\n      tag_240\n      jumpi\n        /* \"#utility.yul\":8535:8553   */\n      tag_241\n      tag_125\n      jump\t// in\n    tag_241:\n        /* \"#utility.yul\":8518:8555   */\n    tag_240:\n        /* \"#utility.yul\":8368:8562   */\n      swap3\n      swap2\n      pop\n      pop\n      jump\t// out\n        /* \"#utility.yul\":8568:8667   */\n    tag_126:\n        /* \"#utility.yul\":8620:8626   */\n      0x00\n        /* \"#utility.yul\":8654:8659   */\n      dup2\n        /* \"#utility.yul\":8648:8660   */\n      mload\n        /* \"#utility.yul\":8638:8660   */\n      swap1\n      pop\n        /* \"#utility.yul\":8568:8667   */\n      swap2\n      swap1\n      pop\n      jump\t// out\n        /* \"#utility.yul\":8673:8853   */\n    tag_127:\n        /* \"#utility.yul\":8721:8798   */\n      0x4e487b7100000000000000000000000000000000000000000000000000000000\n        /* \"#utility.yul\":8718:8719   */\n      0x00\n        /* \"#utility.yul\":8711:8799   */\n      mstore\n        /* \"#utility.yul\":8818:8822   */\n      0x22\n        /* \"#utility.yul\":8815:8816   */\n      0x04\n        /* \"#utility.yul\":8808:8823   */\n      mstore\n        /* \"#utility.yul\":8842:8846   */\n      0x24\n        /* \"#utility.yul\":8839:8840   */\n      0x00\n        /* \"#utility.yul\":8832:8847   */\n      revert\n        /* \"#utility.yul\":8859:9179   */\n    tag_128:\n        /* \"#utility.yul\":8903:8909   */\n      0x00\n        /* \"#utility.yul\":8940:8941   */\n      0x02\n        /* \"#utility.yul\":8934:8938   */\n      dup3\n        /* \"#utility.yul\":8930:8942   */\n      div\n        /* \"#utility.yul\":8920:8942   */\n      swap1\n      pop\n        /* \"#utility.yul\":8987:8988   */\n      0x01\n        /* \"#utility.yul\":8981:8985   */\n      dup3\n        /* \"#utility.yul\":8977:8989   */\n      and\n        /* \"#utility.yul\":9008:9026   */\n      dup1\n        /* \"#utility.yul\":8998:9079   */\n      tag_245\n      jumpi\n        /* \"#utility.yul\":9064:9068   */\n      0x7f\n        /* \"#utility.yul\":9056:9062   */\n      dup3\n        /* \"#utility.yul\":9052:9069   */\n      and\n        /* \"#utility.yul\":9042:9069   */\n      swap2\n      pop\n        /* \"#utility.yul\":8998:9079   */\n    tag_245:\n        /* \"#utility.yul\":9126:9128   */\n      0x20\n        /* \"#utility.yul\":9118:9124   */\n      dup3\n        /* \"#utility.yul\":9115:9129   */\n      lt\n        /* \"#utility.yul\":9095:9113   */\n      dup2\n        /* \"#utility.yul\":9092:9130   */\n      sub\n        /* \"#utility.yul\":9089:9173   */\n      tag_246\n      jumpi\n        /* \"#utility.yul\":9145:9163   */\n      tag_247\n      tag_127\n      jump\t// in\n    tag_247:\n        /* \"#utility.yul\":9089:9173   */\n    tag_246:\n        /* \"#utility.yul\":8910:9179   */\n      pop\n        /* \"#utility.yul\":8859:9179   */\n      swap2\n      swap1\n      pop\n      jump\t// out\n        /* \"#utility.yul\":9185:9326   */\n    tag_129:\n        /* \"#utility.yul\":9234:9238   */\n      0x00\n        /* \"#utility.yul\":9257:9260   */\n      dup2\n        /* \"#utility.yul\":9249:9260   */\n      swap1\n      pop\n        /* \"#utility.yul\":9280:9283   */\n      dup2\n        /* \"#utility.yul\":9277:9278   */\n      0x00\n        /* \"#utility.yul\":9270:9284   */\n      mstore\n        /* \"#utility.yul\":9314:9318   */\n      0x20\n        /* \"#utility.yul\":9311:9312   */\n      0x00\n        /* \"#utility.yul\":9301:9319   */\n      keccak256\n        /* \"#utility.yul\":9293:9319   */\n      swap1\n      pop\n        /* \"#utility.yul\":9185:9326   */\n      swap2\n      swap1\n      pop\n      jump\t// out\n        /* \"#utility.yul\":9332:9425   */\n    tag_130:\n        /* \"#utility.yul\":9369:9375   */\n      0x00\n        /* \"#utility.yul\":9416:9418   */\n      0x20\n        /* \"#utility.yul\":9411:9413   */\n      0x1f\n        /* \"#utility.yul\":9404:9409   */\n      dup4\n        /* \"#utility.yul\":9400:9414   */\n      add\n        /* \"#utility.yul\":9396:9419   */\n      div\n        /* \"#utility.yul\":9386:9419   */\n      swap1\n      pop\n        /* \"#utility.yul\":9332:9425   */\n      swap2\n      swap1\n      pop\n      jump\t// out\n        /* \"#utility.yul\":9431:9538   */\n    tag_131:\n        /* \"#utility.yul\":9475:9483   */\n      0x00\n        /* \"#utility.yul\":9525:9530   */\n      dup3\n        /* \"#utility.yul\":9519:9523   */\n      dup3\n        /* \"#utility.yul\":9515:9531   */\n      shl\n        /* \"#utility.yul\":9494:9531   */\n      swap1\n      pop\n        /* \"#utility.yul\":9431:9538   */\n      swap3\n      swap2\n      pop\n      pop\n      jump\t// out\n        /* \"#utility.yul\":9544:9937   */\n    tag_132:\n        /* \"#utility.yul\":9613:9619   */\n      0x00\n        /* \"#utility.yul\":9663:9664   */\n      0x08\n        /* \"#utility.yul\":9651:9661   */\n      dup4\n        /* \"#utility.yul\":9647:9665   */\n      mul\n        /* \"#utility.yul\":9686:9783   */\n      tag_252\n        /* \"#utility.yul\":9716:9782   */\n      0xffffffffffffffffffffffffffffffffffffffffffffffffffffffffffffffff\n        /* \"#utility.yul\":9705:9714   */\n      dup3\n        /* \"#utility.yul\":9686:9783   */\n      tag_131\n      jump\t// in\n    tag_252:\n        /* \"#utility.yul\":9804:9843   */\n      tag_253\n        /* \"#utility.yul\":9834:9842   */\n      dup7\n        /* \"#utility.yul\":9823:9832   */\n      dup4\n        /* \"#utility.yul\":9804:9843   */\n      tag_131\n      jump\t// in\n    tag_253:\n        /* \"#utility.yul\":9792:9843   */\n      swap6\n      pop\n        /* \"#utility.yul\":9876:9880   */\n      dup1\n        /* \"#utility.yul\":9872:9881   */\n      not\n        /* \"#utility.yul\":9865:9870   */\n      dup5\n        /* \"#utility.yul\":9861:9882   */\n      and\n        /* \"#utility.yul\":9852:9882   */\n      swap4\n      pop\n        /* \"#utility.yul\":9925:9929   */\n      dup1\n        /* \"#utility.yul\":9915:9923   */\n      dup7\n        /* \"#utility.yul\":9911:9930   */\n      and\n        /* \"#utility.yul\":9904:9909   */\n      dup5\n        /* \"#utility.yul\":9901:9931   */\n      or\n        /* \"#utility.yul\":9891:9931   */\n      swap3\n      pop\n        /* \"#utility.yul\":9620:9937   */\n      pop\n      pop\n        /* \"#utility.yul\":9544:9937   */\n      swap4\n      swap3\n      pop\n      pop\n      pop\n      jump\t// out\n        /* \"#utility.yul\":9943:10003   */\n    tag_133:\n        /* \"#utility.yul\":9971:9974   */\n      0x00\n        /* \"#utility.yul\":9992:9997   */\n      dup2\n        /* \"#utility.yul\":9985:9997   */\n      swap1\n      pop\n        /* \"#utility.yul\":9943:10003   */\n      swap2\n      swap1\n      pop\n      jump\t// out\n        /* \"#utility.yul\":10009:10151   */\n    tag_134:\n        /* \"#utility.yul\":10059:10068   */\n      0x00\n        /* \"#utility.yul\":10092:10145   */\n      tag_256\n        /* \"#utility.yul\":10110:10144   */\n      tag_257\n        /* \"#utility.yul\":10119:10143   */\n      tag_258\n        /* \"#utility.yul\":10137:10142   */\n      dup5\n        /* \"#utility.yul\":10119:10143   */\n      tag_115\n      jump\t// in\n    tag_258:\n        /* \"#utility.yul\":10110:10144   */\n      tag_133\n      jump\t// in\n    tag_257:\n        /* \"#utility.yul\":10092:10145   */\n      tag_115\n      jump\t// in\n    tag_256:\n        /* \"#utility.yul\":10079:10145   */\n      swap1\n      pop\n        /* \"#utility.yul\":10009:10151   */\n      swap2\n      swap1\n      pop\n      jump\t// out\n        /* \"#utility.yul\":10157:10232   */\n    tag_135:\n        /* \"#utility.yul\":10200:10203   */\n      0x00\n        /* \"#utility.yul\":10221:10226   */\n      dup2\n        /* \"#utility.yul\":10214:10226   */\n      swap1\n      pop\n        /* \"#utility.yul\":10157:10232   */\n      swap2\n      swap1\n      pop\n      jump\t// out\n        /* \"#utility.yul\":10238:10507   */\n    tag_136:\n        /* \"#utility.yul\":10348:10387   */\n      tag_261\n        /* \"#utility.yul\":10379:10386   */\n      dup4\n        /* \"#utility.yul\":10348:10387   */\n      tag_134\n      jump\t// in\n    tag_261:\n        /* \"#utility.yul\":10409:10500   */\n      tag_262\n        /* \"#utility.yul\":10458:10499   */\n      tag_263\n        /* \"#utility.yul\":10482:10498   */\n      dup3\n        /* \"#utility.yul\":10458:10499   */\n      tag_135\n      jump\t// in\n    tag_263:\n        /* \"#utility.yul\":10450:10456   */\n      dup5\n        /* \"#utility.yul\":10443:10447   */\n      dup5\n        /* \"#utility.yul\":10437:10448   */\n      sload\n        /* \"#utility.yul\":10409:10500   */\n      tag_132\n      jump\t// in\n    tag_262:\n        /* \"#utility.yul\":10403:10407   */\n      dup3\n        /* \"#utility.yul\":10396:10501   */\n      sstore\n        /* \"#utility.yul\":10314:10507   */\n      pop\n        /* \"#utility.yul\":10238:10507   */\n      pop\n      pop\n      pop\n      jump\t// out\n        /* \"#utility.yul\":10513:10586   */\n    tag_137:\n        /* \"#utility.yul\":10558:10561   */\n      0x00\n        /* \"#utility.yul\":10513:10586   */\n      swap1\n      jump\t// out\n        /* \"#utility.yul\":10592:10781   */\n    tag_138:\n        /* \"#utility.yul\":10669:10701   */\n      tag_266\n      tag_137\n      jump\t// in\n    tag_266:\n        /* \"#utility.yul\":10710:10775   */\n      tag_267\n        /* \"#utility.yul\":10768:10774   */\n      dup2\n        /* \"#utility.yul\":10760:10766   */\n      dup5\n        /* \"#utility.yul\":10754:10758   */\n      dup5\n        /* \"#utility.yul\":10710:10775   */\n      tag_136\n      jump\t// in\n    tag_267:\n        /* \"#utility.yul\":10645:10781   */\n      pop\n        /* \"#utility.yul\":10592:10781   */\n      pop\n      pop\n      jump\t// out\n        /* \"#utility.yul\":10787:10973   */\n    tag_139:\n        /* \"#utility.yul\":10847:10967   */\n    tag_269:\n        /* \"#utility.yul\":10864:10867   */\n      dup2\n        /* \"#utility.yul\":10857:10862   */\n      dup2\n        /* \"#utility.yul\":10854:10868   */\n      lt\n        /* \"#utility.yul\":10847:10967   */\n      iszero\n      tag_271\n      jumpi\n        /* \"#utility.yul\":10918:10957   */\n      tag_272\n        /* \"#utility.yul\":10955:10956   */\n      0x00\n        /* \"#utility.yul\":10948:10953   */\n      dup3\n        /* \"#utility.yul\":10918:10957   */\n      tag_138\n      jump\t// in\n    tag_272:\n        /* \"#utility.yul\":10891:10892   */\n      0x01\n        /* \"#utility.yul\":10884:10889   */\n      dup2\n        /* \"#utility.yul\":10880:10893   */\n      add\n        /* \"#utility.yul\":10871:10893   */\n      swap1\n      pop\n        /* \"#utility.yul\":10847:10967   */\n      jump(tag_269)\n    tag_271:\n        /* \"#utility.yul\":10787:10973   */\n      pop\n      pop\n      jump\t// out\n        /* \"#utility.yul\":10979:11522   */\n    tag_140:\n        /* \"#utility.yul\":11080:11082   */\n      0x1f\n        /* \"#utility.yul\":11075:11078   */\n      dup3\n        /* \"#utility.yul\":11072:11083   */\n      gt\n        /* \"#utility.yul\":11069:11515   */\n      iszero\n      tag_274\n      jumpi\n        /* \"#utility.yul\":11114:11152   */\n      tag_275\n        /* \"#utility.yul\":11146:11151   */\n      dup2\n        /* \"#utility.yul\":11114:11152   */\n      tag_129\n      jump\t// in\n    tag_275:\n        /* \"#utility.yul\":11198:11227   */\n      tag_276\n        /* \"#utility.yul\":11216:11226   */\n      dup5\n        /* \"#utility.yul\":11198:11227   */\n      tag_130\n      jump\t// in\n    tag_276:\n        /* \"#utility.yul\":11188:11196   */\n      dup2\n        /* \"#utility.yul\":11184:11228   */\n      add\n        /* \"#utility.yul\":11381:11383   */\n      0x20\n        /* \"#utility.yul\":11369:11379   */\n      dup6\n        /* \"#utility.yul\":11366:11384   */\n      lt\n        /* \"#utility.yul\":11363:11412   */\n      iszero\n      tag_277\n      jumpi\n        /* \"#utility.yul\":11402:11410   */\n      dup2\n        /* \"#utility.yul\":11387:11410   */\n      swap1\n      pop\n        /* \"#utility.yul\":11363:11412   */\n    tag_277:\n        /* \"#utility.yul\":11425:11505   */\n      tag_278\n        /* \"#utility.yul\":11481:11503   */\n      tag_279\n        /* \"#utility.yul\":11499:11502   */\n      dup6\n        /* \"#utility.yul\":11481:11503   */\n      tag_130\n      jump\t// in\n    tag_279:\n        /* \"#utility.yul\":11471:11479   */\n      dup4\n        /* \"#utility.yul\":11467:11504   */\n      add\n        /* \"#utility.yul\":11454:11465   */\n      dup3\n        /* \"#utility.yul\":11425:11505   */\n      tag_139\n      jump\t// in\n    tag_278:\n        /* \"#utility.yul\":11084:11515   */\n      pop\n      pop\n        /* \"#utility.yul\":11069:11515   */\n    tag_274:\n        /* \"#utility.yul\":10979:11522   */\n      pop\n      pop\n      pop\n      jump\t// out\n        /* \"#utility.yul\":11528:11645   */\n    tag_141:\n        /* \"#utility.yul\":11582:11590   */\n      0x00\n        /* \"#utility.yul\":11632:11637   */\n      dup3\n        /* \"#utility.yul\":11626:11630   */\n      dup3\n        /* \"#utility.yul\":11622:11638   */\n      shr\n        /* \"#utility.yul\":11601:11638   */\n      swap1\n      pop\n        /* \"#utility.yul\":11528:11645   */\n      swap3\n      swap2\n      pop\n      pop\n      jump\t// out\n        /* \"#utility.yul\":11651:11820   */\n    tag_142:\n        /* \"#utility.yul\":11695:11701   */\n      0x00\n        /* \"#utility.yul\":11728:11779   */\n      tag_282\n        /* \"#utility.yul\":11776:11777   */\n      0x00\n        /* \"#utility.yul\":11772:11778   */\n      not\n        /* \"#utility.yul\":11764:11769   */\n      dup5\n        /* \"#utility.yul\":11761:11762   */\n      0x08\n        /* \"#utility.yul\":11757:11770   */\n      mul\n        /* \"#utility.yul\":11728:11779   */\n      tag_141\n      jump\t// in\n    tag_282:\n        /* \"#utility.yul\":11724:11780   */\n      not\n        /* \"#utility.yul\":11809:11813   */\n      dup1\n        /* \"#utility.yul\":11803:11807   */\n      dup4\n        /* \"#utility.yul\":11799:11814   */\n      and\n        /* \"#utility.yul\":11789:11814   */\n      swap2\n      pop\n        /* \"#utility.yul\":11702:11820   */\n      pop\n        /* \"#utility.yul\":11651:11820   */\n      swap3\n      swap2\n      pop\n      pop\n      jump\t// out\n        /* \"#utility.yul\":11825:12120   */\n    tag_143:\n        /* \"#utility.yul\":11901:11905   */\n      0x00\n        /* \"#utility.yul\":12047:12076   */\n      tag_284\n        /* \"#utility.yul\":12072:12075   */\n      dup4\n        /* \"#utility.yul\":12066:12070   */\n      dup4\n        /* \"#utility.yul\":12047:12076   */\n      tag_142\n      jump\t// in\n    tag_284:\n        /* \"#utility.yul\":12039:12076   */\n      swap2\n      pop\n        /* \"#utility.yul\":12109:12112   */\n      dup3\n        /* \"#utility.yul\":12106:12107   */\n      0x02\n        /* \"#utility.yul\":12102:12113   */\n      mul\n        /* \"#utility.yul\":12096:12100   */\n      dup3\n        /* \"#utility.yul\":12093:12114   */\n      or\n        /* \"#utility.yul\":12085:12114   */\n      swap1\n      pop\n        /* \"#utility.yul\":11825:12120   */\n      swap3\n      swap2\n      pop\n      pop\n      jump\t// out\n        /* \"#utility.yul\":12125:13520   */\n    tag_65:\n        /* \"#utility.yul\":12242:12279   */\n      tag_286\n        /* \"#utility.yul\":12275:12278   */\n      dup3\n        /* \"#utility.yul\":12242:12279   */\n      tag_126\n      jump\t// in\n    tag_286:\n        /* \"#utility.yul\":12344:12362   */\n      0xffffffffffffffff\n        /* \"#utility.yul\":12336:12342   */\n      dup2\n        /* \"#utility.yul\":12333:12363   */\n      gt\n        /* \"#utility.yul\":12330:12386   */\n      iszero\n      tag_287\n      jumpi\n        /* \"#utility.yul\":12366:12384   */\n      tag_288\n      tag_108\n      jump\t// in\n    tag_288:\n        /* \"#utility.yul\":12330:12386   */\n    tag_287:\n        /* \"#utility.yul\":12410:12448   */\n      tag_289\n        /* \"#utility.yul\":12442:12446   */\n      dup3\n        /* \"#utility.yul\":12436:12447   */\n      sload\n        /* \"#utility.yul\":12410:12448   */\n      tag_128\n      jump\t// in\n    tag_289:\n        /* \"#utility.yul\":12495:12562   */\n      tag_290\n        /* \"#utility.yul\":12555:12561   */\n      dup3\n        /* \"#utility.yul\":12547:12553   */\n      dup3\n        /* \"#utility.yul\":12541:12545   */\n      dup6\n        /* \"#utility.yul\":12495:12562   */\n      tag_140\n      jump\t// in\n    tag_290:\n        /* \"#utility.yul\":12589:12590   */\n      0x00\n        /* \"#utility.yul\":12613:12617   */\n      0x20\n        /* \"#utility.yul\":12600:12617   */\n      swap1\n      pop\n        /* \"#utility.yul\":12645:12647   */\n      0x1f\n        /* \"#utility.yul\":12637:12643   */\n      dup4\n        /* \"#utility.yul\":12634:12648   */\n      gt\n        /* \"#utility.yul\":12662:12663   */\n      0x01\n        /* \"#utility.yul\":12657:13275   */\n      dup2\n      eq\n      tag_292\n      jumpi\n        /* \"#utility.yul\":13319:13320   */\n      0x00\n        /* \"#utility.yul\":13336:13342   */\n      dup5\n        /* \"#utility.yul\":13333:13410   */\n      iszero\n      tag_293\n      jumpi\n        /* \"#utility.yul\":13385:13394   */\n      dup3\n        /* \"#utility.yul\":13380:13383   */\n      dup8\n        /* \"#utility.yul\":13376:13395   */\n      add\n        /* \"#utility.yul\":13370:13396   */\n      mload\n        /* \"#utility.yul\":13361:13396   */\n      swap1\n      pop\n        /* \"#utility.yul\":13333:13410   */\n    tag_293:\n        /* \"#utility.yul\":13436:13503   */\n      tag_294\n        /* \"#utility.yul\":13496:13502   */\n      dup6\n        /* \"#utility.yul\":13489:13494   */\n      dup3\n        /* \"#utility.yul\":13436:13503   */\n      tag_143\n      jump\t// in\n    tag_294:\n        /* \"#utility.yul\":13430:13434   */\n      dup7\n        /* \"#utility.yul\":13423:13504   */\n      sstore\n        /* \"#utility.yul\":13292:13514   */\n      pop\n        /* \"#utility.yul\":12627:13514   */\n      jump(tag_291)\n        /* \"#utility.yul\":12657:13275   */\n    tag_292:\n        /* \"#utility.yul\":12709:12713   */\n      0x1f\n        /* \"#utility.yul\":12705:12714   */\n      not\n        /* \"#utility.yul\":12697:12703   */\n      dup5\n        /* \"#utility.yul\":12693:12715   */\n      and\n        /* \"#utility.yul\":12743:12780   */\n      tag_295\n        /* \"#utility.yul\":12775:12779   */\n      dup7\n        /* \"#utility.yul\":12743:12780   */\n      tag_129\n      jump\t// in\n    tag_295:\n        /* \"#utility.yul\":12802:12803   */\n      0x00\n        /* \"#utility.yul\":12816:13024   */\n    tag_296:\n        /* \"#utility.yul\":12830:12837   */\n      dup3\n        /* \"#utility.yul\":12827:12828   */\n      dup2\n        /* \"#utility.yul\":12824:12838   */\n      lt\n        /* \"#utility.yul\":12816:13024   */\n      iszero\n      tag_298\n      jumpi\n        /* \"#utility.yul\":12909:12918   */\n      dup5\n        /* \"#utility.yul\":12904:12907   */\n      dup10\n        /* \"#utility.yul\":12900:12919   */\n      add\n        /* \"#utility.yul\":12894:12920   */\n      mload\n        /* \"#utility.yul\":12886:12892   */\n      dup3\n        /* \"#utility.yul\":12879:12921   */\n      sstore\n        /* \"#utility.yul\":12960:12961   */\n      0x01\n        /* \"#utility.yul\":12952:12958   */\n      dup3\n        /* \"#utility.yul\":12948:12962   */\n      add\n        /* \"#utility.yul\":12938:12962   */\n      swap2\n      pop\n        /* \"#utility.yul\":13007:13009   */\n      0x20\n        /* \"#utility.yul\":12996:13005   */\n      dup6\n        /* \"#utility.yul\":12992:13010   */\n      add\n        /* \"#utility.yul\":12979:13010   */\n      swap5\n      pop\n        /* \"#utility.yul\":12853:12857   */\n      0x20\n        /* \"#utility.yul\":12850:12851   */\n      dup2\n        /* \"#utility.yul\":12846:12858   */\n      add\n        /* \"#utility.yul\":12841:12858   */\n      swap1\n      pop\n        /* \"#utility.yul\":12816:13024   */\n      jump(tag_296)\n    tag_298:\n        /* \"#utility.yul\":13052:13058   */\n      dup7\n        /* \"#utility.yul\":13043:13050   */\n      dup4\n        /* \"#utility.yul\":13040:13059   */\n      lt\n        /* \"#utility.yul\":13037:13216   */\n      iszero\n      tag_299\n      jumpi\n        /* \"#utility.yul\":13110:13119   */\n      dup5\n        /* \"#utility.yul\":13105:13108   */\n      dup10\n        /* \"#utility.yul\":13101:13120   */\n      add\n        /* \"#utility.yul\":13095:13121   */\n      mload\n        /* \"#utility.yul\":13153:13201   */\n      tag_300\n        /* \"#utility.yul\":13195:13199   */\n      0x1f\n        /* \"#utility.yul\":13187:13193   */\n      dup10\n        /* \"#utility.yul\":13183:13200   */\n      and\n        /* \"#utility.yul\":13172:13181   */\n      dup3\n        /* \"#utility.yul\":13153:13201   */\n      tag_142\n      jump\t// in\n    tag_300:\n        /* \"#utility.yul\":13145:13151   */\n      dup4\n        /* \"#utility.yul\":13138:13202   */\n      sstore\n        /* \"#utility.yul\":13060:13216   */\n      pop\n        /* \"#utility.yul\":13037:13216   */\n    tag_299:\n        /* \"#utility.yul\":13262:13263   */\n      0x01\n        /* \"#utility.yul\":13258:13259   */\n      0x02\n        /* \"#utility.yul\":13250:13256   */\n      dup9\n        /* \"#utility.yul\":13246:13260   */\n      mul\n        /* \"#utility.yul\":13242:13264   */\n      add\n        /* \"#utility.yul\":13236:13240   */\n      dup9\n        /* \"#utility.yul\":13229:13265   */\n      sstore\n        /* \"#utility.yul\":12664:13275   */\n      pop\n      pop\n      pop\n        /* \"#utility.yul\":12627:13514   */\n    tag_291:\n      pop\n        /* \"#utility.yul\":12217:13520   */\n      pop\n      pop\n      pop\n        /* \"#utility.yul\":12125:13520   */\n      pop\n      pop\n      jump\t// out\n        /* \"#utility.yul\":13526:13759   */\n    tag_68:\n        /* \"#utility.yul\":13565:13568   */\n      0x00\n        /* \"#utility.yul\":13588:13612   */\n      tag_302\n        /* \"#utility.yul\":13606:13611   */\n      dup3\n        /* \"#utility.yul\":13588:13612   */\n      tag_115\n      jump\t// in\n    tag_302:\n        /* \"#utility.yul\":13579:13612   */\n      swap2\n      pop\n        /* \"#utility.yul\":13634:13700   */\n      0xffffffffffffffffffffffffffffffffffffffffffffffffffffffffffffffff\n        /* \"#utility.yul\":13627:13632   */\n      dup3\n        /* \"#utility.yul\":13624:13701   */\n      sub\n        /* \"#utility.yul\":13621:13724   */\n      tag_303\n      jumpi\n        /* \"#utility.yul\":13704:13722   */\n      tag_304\n      tag_125\n      jump\t// in\n    tag_304:\n        /* \"#utility.yul\":13621:13724   */\n    tag_303:\n        /* \"#utility.yul\":13751:13752   */\n      0x01\n        /* \"#utility.yul\":13744:13749   */\n      dup3\n        /* \"#utility.yul\":13740:13753   */\n      add\n        /* \"#utility.yul\":13733:13753   */\n      swap1\n      pop\n        /* \"#utility.yul\":13526:13759   */\n      swap2\n      swap1\n      pop\n      jump\t// out\n        /* \"#utility.yul\":13765:13945   */\n    tag_75:\n        /* \"#utility.yul\":13813:13890   */\n      0x4e487b7100000000000000000000000000000000000000000000000000000000\n        /* \"#utility.yul\":13810:13811   */\n      0x00\n        /* \"#utility.yul\":13803:13891   */\n      mstore\n        /* \"#utility.yul\":13910:13914   */\n      0x32\n        /* \"#utility.yul\":13907:13908   */\n      0x04\n        /* \"#utility.yul\":13900:13915   */\n      mstore\n        /* \"#utility.yul\":13934:13938   */\n      0x24\n        /* \"#utility.yul\":13931:13932   */\n      0x00\n        /* \"#utility.yul\":13924:13939   */\n      revert\n        /* \"#utility.yul\":13951:14131   */\n    tag_144:\n        /* \"#utility.yul\":13999:14076   */\n      0x4e487b7100000000000000000000000000000000000000000000000000000000\n        /* \"#utility.yul\":13996:13997   */\n      0x00\n        /* \"#utility.yul\":13989:14077   */\n      mstore\n        /* \"#utility.yul\":14096:14100   */\n      0x12\n        /* \"#utility.yul\":14093:14094   */\n      0x04\n        /* \"#utility.yul\":14086:14101   */\n      mstore\n        /* \"#utility.yul\":14120:14124   */\n      0x24\n        /* \"#utility.yul\":14117:14118   */\n      0x00\n        /* \"#utility.yul\":14110:14125   */\n      revert\n        /* \"#utility.yul\":14137:14313   */\n    tag_80:\n        /* \"#utility.yul\":14169:14170   */\n      0x00\n        /* \"#utility.yul\":14186:14206   */\n      tag_308\n        /* \"#utility.yul\":14204:14205   */\n      dup3\n        /* \"#utility.yul\":14186:14206   */\n      tag_115\n      jump\t// in\n    tag_308:\n        /* \"#utility.yul\":14181:14206   */\n      swap2\n      pop\n        /* \"#utility.yul\":14220:14240   */\n      tag_309\n        /* \"#utility.yul\":14238:14239   */\n      dup4\n        /* \"#utility.yul\":14220:14240   */\n      tag_115\n      jump\t// in\n    tag_309:\n        /* \"#utility.yul\":14215:14240   */\n      swap3\n      pop\n        /* \"#utility.yul\":14259:14260   */\n      dup3\n        /* \"#utility.yul\":14249:14284   */\n      tag_310\n      jumpi\n        /* \"#utility.yul\":14264:14282   */\n      tag_311\n      tag_144\n      jump\t// in\n    tag_311:\n        /* \"#utility.yul\":14249:14284   */\n    tag_310:\n        /* \"#utility.yul\":14305:14306   */\n      dup3\n        /* \"#utility.yul\":14302:14303   */\n      dup3\n        /* \"#utility.yul\":14298:14307   */\n      mod\n        /* \"#utility.yul\":14293:14307   */\n      swap1\n      pop\n        /* \"#utility.yul\":14137:14313   */\n      swap3\n      swap2\n      pop\n      pop\n      jump\t// out\n        /* \"#utility.yul\":14319:14504   */\n    tag_84:\n        /* \"#utility.yul\":14359:14360   */\n      0x00\n        /* \"#utility.yul\":14376:14396   */\n      tag_313\n        /* \"#utility.yul\":14394:14395   */\n      dup3\n        /* \"#utility.yul\":14376:14396   */\n      tag_115\n      jump\t// in\n    tag_313:\n        /* \"#utility.yul\":14371:14396   */\n      swap2\n      pop\n        /* \"#utility.yul\":14410:14430   */\n      tag_314\n        /* \"#utility.yul\":14428:14429   */\n      dup4\n        /* \"#utility.yul\":14410:14430   */\n      tag_115\n      jump\t// in\n    tag_314:\n        /* \"#utility.yul\":14405:14430   */\n      swap3\n      pop\n        /* \"#utility.yul\":14449:14450   */\n      dup3\n        /* \"#utility.yul\":14439:14474   */\n      tag_315\n      jumpi\n        /* \"#utility.yul\":14454:14472   */\n      tag_316\n      tag_144\n      jump\t// in\n    tag_316:\n        /* \"#utility.yul\":14439:14474   */\n    tag_315:\n        /* \"#utility.yul\":14496:14497   */\n      dup3\n        /* \"#utility.yul\":14493:14494   */\n      dup3\n        /* \"#utility.yul\":14489:14498   */\n      div\n        /* \"#utility.yul\":14484:14498   */\n      swap1\n      pop\n        /* \"#utility.yul\":14319:14504   */\n      swap3\n      swap2\n      pop\n      pop\n      jump\t// out\n\n    auxdata: 0xa264697066735822122000bc9ef469526ff09888cab8fbfe231d0aeb5e9e89919b3f40f420163659fdcd64736f6c634300081a0033\n}\n",
				"bytecode": {
					"linkReferences": {},
					"object": "6080604052348015600e575f80fd5b50335f806101000a81548173ffffffffffffffffffffffffffffffffffffffff021916908373ffffffffffffffffffffffffffffffffffffffff160217905550600333908060018154018082558091505060019003905f5260205f20015f9091909190916101000a81548173ffffffffffffffffffffffffffffffffffffffff021916908373ffffffffffffffffffffffffffffffffffffffff160217905550610fe9806100bb5f395ff3fe608060405234801561000f575f80fd5b506004361061004a575f3560e01c806313af40351461004e578063b3f98adc1461006a578063bd611fe614610086578063cbff75cb146100a2575b5f80fd5b610068600480360381019061006391906107b6565b6100d2565b005b610084600480360381019061007f9190610817565b61016a565b005b6100a0600480360381019061009b91906109b1565b61046e565b005b6100bc60048036038101906100b791906107b6565b610576565b6040516100c99190610a53565b60405180910390f35b5f8054906101000a900473ffffffffffffffffffffffffffffffffffffffff1673ffffffffffffffffffffffffffffffffffffffff163373ffffffffffffffffffffffffffffffffffffffff1614610128575f80fd5b805f806101000a81548173ffffffffffffffffffffffffffffffffffffffff021916908373ffffffffffffffffffffffffffffffffffffffff16021790555050565b6001151560025f60015481526020019081526020015f2060060160019054906101000a900460ff161515146101d4576040517f08c379a00000000000000000000000000000000000000000000000000000000081526004016101cb90610ac6565b60405180910390fd5b336101de81610576565b1561021e576040517f08c379a000000000000000000000000000000000000000000000000000000000815260040161021590610b2e565b60405180910390fd5b5f60025f60015481526020019081526020015f2090505f81600401548260030154836002015461024e9190610b79565b6102589190610b79565b9050600333908060018154018082558091505060019003905f5260205f20015f9091909190916101000a81548173ffffffffffffffffffffffffffffffffffffffff021916908373ffffffffffffffffffffffffffffffffffffffff16021790555060018460ff1603610307576001826002015f8282546102d99190610b79565b925050819055506102e8610618565b826006015f6101000a81548160ff02191690831515021790555061039e565b60028460ff1603610354576001826003015f8282546103269190610b79565b92505081905550610335610618565b826006015f6101000a81548160ff02191690831515021790555061039d565b5f8460ff160361039c576001826004015f8282546103729190610b79565b92505081905550610381610618565b826006015f6101000a81548160ff0219169083151502179055505b5b5b60018183600501546103b09190610bac565b1480156103db575060018460ff1614806103cd575060028460ff16145b806103da57505f8460ff16145b5b15610468575f8260060160016101000a81548160ff02191690831515021790555060405180602001604052805f8054906101000a900473ffffffffffffffffffffffffffffffffffffffff1673ffffffffffffffffffffffffffffffffffffffff1673ffffffffffffffffffffffffffffffffffffffff1681525060039060016104669291906106a9565b505b50505050565b5f8054906101000a900473ffffffffffffffffffffffffffffffffffffffff1673ffffffffffffffffffffffffffffffffffffffff163373ffffffffffffffffffffffffffffffffffffffff16146104c4575f80fd5b5f60025f60015481526020019081526020015f20905083815f0190816104ea9190610de3565b50828160010190816104fc9190610de3565b505f81600201819055505f81600301819055505f81600401819055508181600501819055505f816006015f6101000a81548160ff02191690831515021790555060018160060160016101000a81548160ff02191690831515021790555060015f81548092919061056b90610eb2565b919050555050505050565b5f805f90505b60038054905081101561060e578273ffffffffffffffffffffffffffffffffffffffff16600382815481106105b4576105b3610ef9565b5b905f5260205f20015f9054906101000a900473ffffffffffffffffffffffffffffffffffffffff1673ffffffffffffffffffffffffffffffffffffffff1603610601576001915050610613565b808060010191505061057c565b505f90505b919050565b5f8060025f60015481526020019081526020015f2090505f816002015490505f826003015490505f8360040154905060016002856004015461065a9190610f53565b0361066f5760018161066c9190610b79565b90505b60028161067c9190610f83565b9050808261068a9190610b79565b83111561069e5760019450505050506106a6565b5f9450505050505b90565b828054828255905f5260205f2090810192821561071f579160200282015b8281111561071e578251825f6101000a81548173ffffffffffffffffffffffffffffffffffffffff021916908373ffffffffffffffffffffffffffffffffffffffff160217905550916020019190600101906106c7565b5b50905061072c9190610730565b5090565b5b80821115610747575f815f905550600101610731565b5090565b5f604051905090565b5f80fd5b5f80fd5b5f73ffffffffffffffffffffffffffffffffffffffff82169050919050565b5f6107858261075c565b9050919050565b6107958161077b565b811461079f575f80fd5b50565b5f813590506107b08161078c565b92915050565b5f602082840312156107cb576107ca610754565b5b5f6107d8848285016107a2565b91505092915050565b5f60ff82169050919050565b6107f6816107e1565b8114610800575f80fd5b50565b5f81359050610811816107ed565b92915050565b5f6020828403121561082c5761082b610754565b5b5f61083984828501610803565b91505092915050565b5f80fd5b5f80fd5b5f601f19601f8301169050919050565b7f4e487b71000000000000000000000000000000000000000000000000000000005f52604160045260245ffd5b6108908261084a565b810181811067ffffffffffffffff821117156108af576108ae61085a565b5b80604052505050565b5f6108c161074b565b90506108cd8282610887565b919050565b5f67ffffffffffffffff8211156108ec576108eb61085a565b5b6108f58261084a565b9050602081019050919050565b828183375f83830152505050565b5f61092261091d846108d2565b6108b8565b90508281526020810184848401111561093e5761093d610846565b5b610949848285610902565b509392505050565b5f82601f83011261096557610964610842565b5b8135610975848260208601610910565b91505092915050565b5f819050919050565b6109908161097e565b811461099a575f80fd5b50565b5f813590506109ab81610987565b92915050565b5f805f606084860312156109c8576109c7610754565b5b5f84013567ffffffffffffffff8111156109e5576109e4610758565b5b6109f186828701610951565b935050602084013567ffffffffffffffff811115610a1257610a11610758565b5b610a1e86828701610951565b9250506040610a2f8682870161099d565b9150509250925092565b5f8115159050919050565b610a4d81610a39565b82525050565b5f602082019050610a665f830184610a44565b92915050565b5f82825260208201905092915050565b7f5468652070726f706f73616c206973206e6f74206163746976650000000000005f82015250565b5f610ab0601a83610a6c565b9150610abb82610a7c565b602082019050919050565b5f6020820190508181035f830152610add81610aa4565b9050919050565b7f416464726573732068617320616c726561647920766f746564000000000000005f82015250565b5f610b18601983610a6c565b9150610b2382610ae4565b602082019050919050565b5f6020820190508181035f830152610b4581610b0c565b9050919050565b7f4e487b71000000000000000000000000000000000000000000000000000000005f52601160045260245ffd5b5f610b838261097e565b9150610b8e8361097e565b9250828201905080821115610ba657610ba5610b4c565b5b92915050565b5f610bb68261097e565b9150610bc18361097e565b9250828203905081811115610bd957610bd8610b4c565b5b92915050565b5f81519050919050565b7f4e487b71000000000000000000000000000000000000000000000000000000005f52602260045260245ffd5b5f6002820490506001821680610c2d57607f821691505b602082108103610c4057610c3f610be9565b5b50919050565b5f819050815f5260205f209050919050565b5f6020601f8301049050919050565b5f82821b905092915050565b5f60088302610ca27fffffffffffffffffffffffffffffffffffffffffffffffffffffffffffffffff82610c67565b610cac8683610c67565b95508019841693508086168417925050509392505050565b5f819050919050565b5f610ce7610ce2610cdd8461097e565b610cc4565b61097e565b9050919050565b5f819050919050565b610d0083610ccd565b610d14610d0c82610cee565b848454610c73565b825550505050565b5f90565b610d28610d1c565b610d33818484610cf7565b505050565b5b81811015610d5657610d4b5f82610d20565b600181019050610d39565b5050565b601f821115610d9b57610d6c81610c46565b610d7584610c58565b81016020851015610d84578190505b610d98610d9085610c58565b830182610d38565b50505b505050565b5f82821c905092915050565b5f610dbb5f1984600802610da0565b1980831691505092915050565b5f610dd38383610dac565b9150826002028217905092915050565b610dec82610bdf565b67ffffffffffffffff811115610e0557610e0461085a565b5b610e0f8254610c16565b610e1a828285610d5a565b5f60209050601f831160018114610e4b575f8415610e39578287015190505b610e438582610dc8565b865550610eaa565b601f198416610e5986610c46565b5f5b82811015610e8057848901518255600182019150602085019450602081019050610e5b565b86831015610e9d5784890151610e99601f891682610dac565b8355505b6001600288020188555050505b505050505050565b5f610ebc8261097e565b91507fffffffffffffffffffffffffffffffffffffffffffffffffffffffffffffffff8203610eee57610eed610b4c565b5b600182019050919050565b7f4e487b71000000000000000000000000000000000000000000000000000000005f52603260045260245ffd5b7f4e487b71000000000000000000000000000000000000000000000000000000005f52601260045260245ffd5b5f610f5d8261097e565b9150610f688361097e565b925082610f7857610f77610f26565b5b828206905092915050565b5f610f8d8261097e565b9150610f988361097e565b925082610fa857610fa7610f26565b5b82820490509291505056fea264697066735822122000bc9ef469526ff09888cab8fbfe231d0aeb5e9e89919b3f40f420163659fdcd64736f6c634300081a0033",
					"opcodes": "PUSH1 0x80 PUSH1 0x40 MSTORE CALLVALUE DUP1 ISZERO PUSH1 0xE JUMPI PUSH0 DUP1 REVERT JUMPDEST POP CALLER PUSH0 DUP1 PUSH2 0x100 EXP DUP2 SLOAD DUP2 PUSH20 0xFFFFFFFFFFFFFFFFFFFFFFFFFFFFFFFFFFFFFFFF MUL NOT AND SWAP1 DUP4 PUSH20 0xFFFFFFFFFFFFFFFFFFFFFFFFFFFFFFFFFFFFFFFF AND MUL OR SWAP1 SSTORE POP PUSH1 0x3 CALLER SWAP1 DUP1 PUSH1 0x1 DUP2 SLOAD ADD DUP1 DUP3 SSTORE DUP1 SWAP2 POP POP PUSH1 0x1 SWAP1 SUB SWAP1 PUSH0 MSTORE PUSH1 0x20 PUSH0 KECCAK256 ADD PUSH0 SWAP1 SWAP2 SWAP1 SWAP2 SWAP1 SWAP2 PUSH2 0x100 EXP DUP2 SLOAD DUP2 PUSH20 0xFFFFFFFFFFFFFFFFFFFFFFFFFFFFFFFFFFFFFFFF MUL NOT AND SWAP1 DUP4 PUSH20 0xFFFFFFFFFFFFFFFFFFFFFFFFFFFFFFFFFFFFFFFF AND MUL OR SWAP1 SSTORE POP PUSH2 0xFE9 DUP1 PUSH2 0xBB PUSH0 CODECOPY PUSH0 RETURN INVALID PUSH1 0x80 PUSH1 0x40 MSTORE CALLVALUE DUP1 ISZERO PUSH2 0xF JUMPI PUSH0 DUP1 REVERT JUMPDEST POP PUSH1 0x4 CALLDATASIZE LT PUSH2 0x4A JUMPI PUSH0 CALLDATALOAD PUSH1 0xE0 SHR DUP1 PUSH4 0x13AF4035 EQ PUSH2 0x4E JUMPI DUP1 PUSH4 0xB3F98ADC EQ PUSH2 0x6A JUMPI DUP1 PUSH4 0xBD611FE6 EQ PUSH2 0x86 JUMPI DUP1 PUSH4 0xCBFF75CB EQ PUSH2 0xA2 JUMPI JUMPDEST PUSH0 DUP1 REVERT JUMPDEST PUSH2 0x68 PUSH1 0x4 DUP1 CALLDATASIZE SUB DUP2 ADD SWAP1 PUSH2 0x63 SWAP2 SWAP1 PUSH2 0x7B6 JUMP JUMPDEST PUSH2 0xD2 JUMP JUMPDEST STOP JUMPDEST PUSH2 0x84 PUSH1 0x4 DUP1 CALLDATASIZE SUB DUP2 ADD SWAP1 PUSH2 0x7F SWAP2 SWAP1 PUSH2 0x817 JUMP JUMPDEST PUSH2 0x16A JUMP JUMPDEST STOP JUMPDEST PUSH2 0xA0 PUSH1 0x4 DUP1 CALLDATASIZE SUB DUP2 ADD SWAP1 PUSH2 0x9B SWAP2 SWAP1 PUSH2 0x9B1 JUMP JUMPDEST PUSH2 0x46E JUMP JUMPDEST STOP JUMPDEST PUSH2 0xBC PUSH1 0x4 DUP1 CALLDATASIZE SUB DUP2 ADD SWAP1 PUSH2 0xB7 SWAP2 SWAP1 PUSH2 0x7B6 JUMP JUMPDEST PUSH2 0x576 JUMP JUMPDEST PUSH1 0x40 MLOAD PUSH2 0xC9 SWAP2 SWAP1 PUSH2 0xA53 JUMP JUMPDEST PUSH1 0x40 MLOAD DUP1 SWAP2 SUB SWAP1 RETURN JUMPDEST PUSH0 DUP1 SLOAD SWAP1 PUSH2 0x100 EXP SWAP1 DIV PUSH20 0xFFFFFFFFFFFFFFFFFFFFFFFFFFFFFFFFFFFFFFFF AND PUSH20 0xFFFFFFFFFFFFFFFFFFFFFFFFFFFFFFFFFFFFFFFF AND CALLER PUSH20 0xFFFFFFFFFFFFFFFFFFFFFFFFFFFFFFFFFFFFFFFF AND EQ PUSH2 0x128 JUMPI PUSH0 DUP1 REVERT JUMPDEST DUP1 PUSH0 DUP1 PUSH2 0x100 EXP DUP2 SLOAD DUP2 PUSH20 0xFFFFFFFFFFFFFFFFFFFFFFFFFFFFFFFFFFFFFFFF MUL NOT AND SWAP1 DUP4 PUSH20 0xFFFFFFFFFFFFFFFFFFFFFFFFFFFFFFFFFFFFFFFF AND MUL OR SWAP1 SSTORE POP POP JUMP JUMPDEST PUSH1 0x1 ISZERO ISZERO PUSH1 0x2 PUSH0 PUSH1 0x1 SLOAD DUP2 MSTORE PUSH1 0x20 ADD SWAP1 DUP2 MSTORE PUSH1 0x20 ADD PUSH0 KECCAK256 PUSH1 0x6 ADD PUSH1 0x1 SWAP1 SLOAD SWAP1 PUSH2 0x100 EXP SWAP1 DIV PUSH1 0xFF AND ISZERO ISZERO EQ PUSH2 0x1D4 JUMPI PUSH1 0x40 MLOAD PUSH32 0x8C379A000000000000000000000000000000000000000000000000000000000 DUP2 MSTORE PUSH1 0x4 ADD PUSH2 0x1CB SWAP1 PUSH2 0xAC6 JUMP JUMPDEST PUSH1 0x40 MLOAD DUP1 SWAP2 SUB SWAP1 REVERT JUMPDEST CALLER PUSH2 0x1DE DUP2 PUSH2 0x576 JUMP JUMPDEST ISZERO PUSH2 0x21E JUMPI PUSH1 0x40 MLOAD PUSH32 0x8C379A000000000000000000000000000000000000000000000000000000000 DUP2 MSTORE PUSH1 0x4 ADD PUSH2 0x215 SWAP1 PUSH2 0xB2E JUMP JUMPDEST PUSH1 0x40 MLOAD DUP1 SWAP2 SUB SWAP1 REVERT JUMPDEST PUSH0 PUSH1 0x2 PUSH0 PUSH1 0x1 SLOAD DUP2 MSTORE PUSH1 0x20 ADD SWAP1 DUP2 MSTORE PUSH1 0x20 ADD PUSH0 KECCAK256 SWAP1 POP PUSH0 DUP2 PUSH1 0x4 ADD SLOAD DUP3 PUSH1 0x3 ADD SLOAD DUP4 PUSH1 0x2 ADD SLOAD PUSH2 0x24E SWAP2 SWAP1 PUSH2 0xB79 JUMP JUMPDEST PUSH2 0x258 SWAP2 SWAP1 PUSH2 0xB79 JUMP JUMPDEST SWAP1 POP PUSH1 0x3 CALLER SWAP1 DUP1 PUSH1 0x1 DUP2 SLOAD ADD DUP1 DUP3 SSTORE DUP1 SWAP2 POP POP PUSH1 0x1 SWAP1 SUB SWAP1 PUSH0 MSTORE PUSH1 0x20 PUSH0 KECCAK256 ADD PUSH0 SWAP1 SWAP2 SWAP1 SWAP2 SWAP1 SWAP2 PUSH2 0x100 EXP DUP2 SLOAD DUP2 PUSH20 0xFFFFFFFFFFFFFFFFFFFFFFFFFFFFFFFFFFFFFFFF MUL NOT AND SWAP1 DUP4 PUSH20 0xFFFFFFFFFFFFFFFFFFFFFFFFFFFFFFFFFFFFFFFF AND MUL OR SWAP1 SSTORE POP PUSH1 0x1 DUP5 PUSH1 0xFF AND SUB PUSH2 0x307 JUMPI PUSH1 0x1 DUP3 PUSH1 0x2 ADD PUSH0 DUP3 DUP3 SLOAD PUSH2 0x2D9 SWAP2 SWAP1 PUSH2 0xB79 JUMP JUMPDEST SWAP3 POP POP DUP2 SWAP1 SSTORE POP PUSH2 0x2E8 PUSH2 0x618 JUMP JUMPDEST DUP3 PUSH1 0x6 ADD PUSH0 PUSH2 0x100 EXP DUP2 SLOAD DUP2 PUSH1 0xFF MUL NOT AND SWAP1 DUP4 ISZERO ISZERO MUL OR SWAP1 SSTORE POP PUSH2 0x39E JUMP JUMPDEST PUSH1 0x2 DUP5 PUSH1 0xFF AND SUB PUSH2 0x354 JUMPI PUSH1 0x1 DUP3 PUSH1 0x3 ADD PUSH0 DUP3 DUP3 SLOAD PUSH2 0x326 SWAP2 SWAP1 PUSH2 0xB79 JUMP JUMPDEST SWAP3 POP POP DUP2 SWAP1 SSTORE POP PUSH2 0x335 PUSH2 0x618 JUMP JUMPDEST DUP3 PUSH1 0x6 ADD PUSH0 PUSH2 0x100 EXP DUP2 SLOAD DUP2 PUSH1 0xFF MUL NOT AND SWAP1 DUP4 ISZERO ISZERO MUL OR SWAP1 SSTORE POP PUSH2 0x39D JUMP JUMPDEST PUSH0 DUP5 PUSH1 0xFF AND SUB PUSH2 0x39C JUMPI PUSH1 0x1 DUP3 PUSH1 0x4 ADD PUSH0 DUP3 DUP3 SLOAD PUSH2 0x372 SWAP2 SWAP1 PUSH2 0xB79 JUMP JUMPDEST SWAP3 POP POP DUP2 SWAP1 SSTORE POP PUSH2 0x381 PUSH2 0x618 JUMP JUMPDEST DUP3 PUSH1 0x6 ADD PUSH0 PUSH2 0x100 EXP DUP2 SLOAD DUP2 PUSH1 0xFF MUL NOT AND SWAP1 DUP4 ISZERO ISZERO MUL OR SWAP1 SSTORE POP JUMPDEST JUMPDEST JUMPDEST PUSH1 0x1 DUP2 DUP4 PUSH1 0x5 ADD SLOAD PUSH2 0x3B0 SWAP2 SWAP1 PUSH2 0xBAC JUMP JUMPDEST EQ DUP1 ISZERO PUSH2 0x3DB JUMPI POP PUSH1 0x1 DUP5 PUSH1 0xFF AND EQ DUP1 PUSH2 0x3CD JUMPI POP PUSH1 0x2 DUP5 PUSH1 0xFF AND EQ JUMPDEST DUP1 PUSH2 0x3DA JUMPI POP PUSH0 DUP5 PUSH1 0xFF AND EQ JUMPDEST JUMPDEST ISZERO PUSH2 0x468 JUMPI PUSH0 DUP3 PUSH1 0x6 ADD PUSH1 0x1 PUSH2 0x100 EXP DUP2 SLOAD DUP2 PUSH1 0xFF MUL NOT AND SWAP1 DUP4 ISZERO ISZERO MUL OR SWAP1 SSTORE POP PUSH1 0x40 MLOAD DUP1 PUSH1 0x20 ADD PUSH1 0x40 MSTORE DUP1 PUSH0 DUP1 SLOAD SWAP1 PUSH2 0x100 EXP SWAP1 DIV PUSH20 0xFFFFFFFFFFFFFFFFFFFFFFFFFFFFFFFFFFFFFFFF AND PUSH20 0xFFFFFFFFFFFFFFFFFFFFFFFFFFFFFFFFFFFFFFFF AND PUSH20 0xFFFFFFFFFFFFFFFFFFFFFFFFFFFFFFFFFFFFFFFF AND DUP2 MSTORE POP PUSH1 0x3 SWAP1 PUSH1 0x1 PUSH2 0x466 SWAP3 SWAP2 SWAP1 PUSH2 0x6A9 JUMP JUMPDEST POP JUMPDEST POP POP POP POP JUMP JUMPDEST PUSH0 DUP1 SLOAD SWAP1 PUSH2 0x100 EXP SWAP1 DIV PUSH20 0xFFFFFFFFFFFFFFFFFFFFFFFFFFFFFFFFFFFFFFFF AND PUSH20 0xFFFFFFFFFFFFFFFFFFFFFFFFFFFFFFFFFFFFFFFF AND CALLER PUSH20 0xFFFFFFFFFFFFFFFFFFFFFFFFFFFFFFFFFFFFFFFF AND EQ PUSH2 0x4C4 JUMPI PUSH0 DUP1 REVERT JUMPDEST PUSH0 PUSH1 0x2 PUSH0 PUSH1 0x1 SLOAD DUP2 MSTORE PUSH1 0x20 ADD SWAP1 DUP2 MSTORE PUSH1 0x20 ADD PUSH0 KECCAK256 SWAP1 POP DUP4 DUP2 PUSH0 ADD SWAP1 DUP2 PUSH2 0x4EA SWAP2 SWAP1 PUSH2 0xDE3 JUMP JUMPDEST POP DUP3 DUP2 PUSH1 0x1 ADD SWAP1 DUP2 PUSH2 0x4FC SWAP2 SWAP1 PUSH2 0xDE3 JUMP JUMPDEST POP PUSH0 DUP2 PUSH1 0x2 ADD DUP2 SWAP1 SSTORE POP PUSH0 DUP2 PUSH1 0x3 ADD DUP2 SWAP1 SSTORE POP PUSH0 DUP2 PUSH1 0x4 ADD DUP2 SWAP1 SSTORE POP DUP2 DUP2 PUSH1 0x5 ADD DUP2 SWAP1 SSTORE POP PUSH0 DUP2 PUSH1 0x6 ADD PUSH0 PUSH2 0x100 EXP DUP2 SLOAD DUP2 PUSH1 0xFF MUL NOT AND SWAP1 DUP4 ISZERO ISZERO MUL OR SWAP1 SSTORE POP PUSH1 0x1 DUP2 PUSH1 0x6 ADD PUSH1 0x1 PUSH2 0x100 EXP DUP2 SLOAD DUP2 PUSH1 0xFF MUL NOT AND SWAP1 DUP4 ISZERO ISZERO MUL OR SWAP1 SSTORE POP PUSH1 0x1 PUSH0 DUP2 SLOAD DUP1 SWAP3 SWAP2 SWAP1 PUSH2 0x56B SWAP1 PUSH2 0xEB2 JUMP JUMPDEST SWAP2 SWAP1 POP SSTORE POP POP POP POP POP JUMP JUMPDEST PUSH0 DUP1 PUSH0 SWAP1 POP JUMPDEST PUSH1 0x3 DUP1 SLOAD SWAP1 POP DUP2 LT ISZERO PUSH2 0x60E JUMPI DUP3 PUSH20 0xFFFFFFFFFFFFFFFFFFFFFFFFFFFFFFFFFFFFFFFF AND PUSH1 0x3 DUP3 DUP2 SLOAD DUP2 LT PUSH2 0x5B4 JUMPI PUSH2 0x5B3 PUSH2 0xEF9 JUMP JUMPDEST JUMPDEST SWAP1 PUSH0 MSTORE PUSH1 0x20 PUSH0 KECCAK256 ADD PUSH0 SWAP1 SLOAD SWAP1 PUSH2 0x100 EXP SWAP1 DIV PUSH20 0xFFFFFFFFFFFFFFFFFFFFFFFFFFFFFFFFFFFFFFFF AND PUSH20 0xFFFFFFFFFFFFFFFFFFFFFFFFFFFFFFFFFFFFFFFF AND SUB PUSH2 0x601 JUMPI PUSH1 0x1 SWAP2 POP POP PUSH2 0x613 JUMP JUMPDEST DUP1 DUP1 PUSH1 0x1 ADD SWAP2 POP POP PUSH2 0x57C JUMP JUMPDEST POP PUSH0 SWAP1 POP JUMPDEST SWAP2 SWAP1 POP JUMP JUMPDEST PUSH0 DUP1 PUSH1 0x2 PUSH0 PUSH1 0x1 SLOAD DUP2 MSTORE PUSH1 0x20 ADD SWAP1 DUP2 MSTORE PUSH1 0x20 ADD PUSH0 KECCAK256 SWAP1 POP PUSH0 DUP2 PUSH1 0x2 ADD SLOAD SWAP1 POP PUSH0 DUP3 PUSH1 0x3 ADD SLOAD SWAP1 POP PUSH0 DUP4 PUSH1 0x4 ADD SLOAD SWAP1 POP PUSH1 0x1 PUSH1 0x2 DUP6 PUSH1 0x4 ADD SLOAD PUSH2 0x65A SWAP2 SWAP1 PUSH2 0xF53 JUMP JUMPDEST SUB PUSH2 0x66F JUMPI PUSH1 0x1 DUP2 PUSH2 0x66C SWAP2 SWAP1 PUSH2 0xB79 JUMP JUMPDEST SWAP1 POP JUMPDEST PUSH1 0x2 DUP2 PUSH2 0x67C SWAP2 SWAP1 PUSH2 0xF83 JUMP JUMPDEST SWAP1 POP DUP1 DUP3 PUSH2 0x68A SWAP2 SWAP1 PUSH2 0xB79 JUMP JUMPDEST DUP4 GT ISZERO PUSH2 0x69E JUMPI PUSH1 0x1 SWAP5 POP POP POP POP POP PUSH2 0x6A6 JUMP JUMPDEST PUSH0 SWAP5 POP POP POP POP POP JUMPDEST SWAP1 JUMP JUMPDEST DUP3 DUP1 SLOAD DUP3 DUP3 SSTORE SWAP1 PUSH0 MSTORE PUSH1 0x20 PUSH0 KECCAK256 SWAP1 DUP2 ADD SWAP3 DUP3 ISZERO PUSH2 0x71F JUMPI SWAP2 PUSH1 0x20 MUL DUP3 ADD JUMPDEST DUP3 DUP2 GT ISZERO PUSH2 0x71E JUMPI DUP3 MLOAD DUP3 PUSH0 PUSH2 0x100 EXP DUP2 SLOAD DUP2 PUSH20 0xFFFFFFFFFFFFFFFFFFFFFFFFFFFFFFFFFFFFFFFF MUL NOT AND SWAP1 DUP4 PUSH20 0xFFFFFFFFFFFFFFFFFFFFFFFFFFFFFFFFFFFFFFFF AND MUL OR SWAP1 SSTORE POP SWAP2 PUSH1 0x20 ADD SWAP2 SWAP1 PUSH1 0x1 ADD SWAP1 PUSH2 0x6C7 JUMP JUMPDEST JUMPDEST POP SWAP1 POP PUSH2 0x72C SWAP2 SWAP1 PUSH2 0x730 JUMP JUMPDEST POP SWAP1 JUMP JUMPDEST JUMPDEST DUP1 DUP3 GT ISZERO PUSH2 0x747 JUMPI PUSH0 DUP2 PUSH0 SWAP1 SSTORE POP PUSH1 0x1 ADD PUSH2 0x731 JUMP JUMPDEST POP SWAP1 JUMP JUMPDEST PUSH0 PUSH1 0x40 MLOAD SWAP1 POP SWAP1 JUMP JUMPDEST PUSH0 DUP1 REVERT JUMPDEST PUSH0 DUP1 REVERT JUMPDEST PUSH0 PUSH20 0xFFFFFFFFFFFFFFFFFFFFFFFFFFFFFFFFFFFFFFFF DUP3 AND SWAP1 POP SWAP2 SWAP1 POP JUMP JUMPDEST PUSH0 PUSH2 0x785 DUP3 PUSH2 0x75C JUMP JUMPDEST SWAP1 POP SWAP2 SWAP1 POP JUMP JUMPDEST PUSH2 0x795 DUP2 PUSH2 0x77B JUMP JUMPDEST DUP2 EQ PUSH2 0x79F JUMPI PUSH0 DUP1 REVERT JUMPDEST POP JUMP JUMPDEST PUSH0 DUP2 CALLDATALOAD SWAP1 POP PUSH2 0x7B0 DUP2 PUSH2 0x78C JUMP JUMPDEST SWAP3 SWAP2 POP POP JUMP JUMPDEST PUSH0 PUSH1 0x20 DUP3 DUP5 SUB SLT ISZERO PUSH2 0x7CB JUMPI PUSH2 0x7CA PUSH2 0x754 JUMP JUMPDEST JUMPDEST PUSH0 PUSH2 0x7D8 DUP5 DUP3 DUP6 ADD PUSH2 0x7A2 JUMP JUMPDEST SWAP2 POP POP SWAP3 SWAP2 POP POP JUMP JUMPDEST PUSH0 PUSH1 0xFF DUP3 AND SWAP1 POP SWAP2 SWAP1 POP JUMP JUMPDEST PUSH2 0x7F6 DUP2 PUSH2 0x7E1 JUMP JUMPDEST DUP2 EQ PUSH2 0x800 JUMPI PUSH0 DUP1 REVERT JUMPDEST POP JUMP JUMPDEST PUSH0 DUP2 CALLDATALOAD SWAP1 POP PUSH2 0x811 DUP2 PUSH2 0x7ED JUMP JUMPDEST SWAP3 SWAP2 POP POP JUMP JUMPDEST PUSH0 PUSH1 0x20 DUP3 DUP5 SUB SLT ISZERO PUSH2 0x82C JUMPI PUSH2 0x82B PUSH2 0x754 JUMP JUMPDEST JUMPDEST PUSH0 PUSH2 0x839 DUP5 DUP3 DUP6 ADD PUSH2 0x803 JUMP JUMPDEST SWAP2 POP POP SWAP3 SWAP2 POP POP JUMP JUMPDEST PUSH0 DUP1 REVERT JUMPDEST PUSH0 DUP1 REVERT JUMPDEST PUSH0 PUSH1 0x1F NOT PUSH1 0x1F DUP4 ADD AND SWAP1 POP SWAP2 SWAP1 POP JUMP JUMPDEST PUSH32 0x4E487B7100000000000000000000000000000000000000000000000000000000 PUSH0 MSTORE PUSH1 0x41 PUSH1 0x4 MSTORE PUSH1 0x24 PUSH0 REVERT JUMPDEST PUSH2 0x890 DUP3 PUSH2 0x84A JUMP JUMPDEST DUP2 ADD DUP2 DUP2 LT PUSH8 0xFFFFFFFFFFFFFFFF DUP3 GT OR ISZERO PUSH2 0x8AF JUMPI PUSH2 0x8AE PUSH2 0x85A JUMP JUMPDEST JUMPDEST DUP1 PUSH1 0x40 MSTORE POP POP POP JUMP JUMPDEST PUSH0 PUSH2 0x8C1 PUSH2 0x74B JUMP JUMPDEST SWAP1 POP PUSH2 0x8CD DUP3 DUP3 PUSH2 0x887 JUMP JUMPDEST SWAP2 SWAP1 POP JUMP JUMPDEST PUSH0 PUSH8 0xFFFFFFFFFFFFFFFF DUP3 GT ISZERO PUSH2 0x8EC JUMPI PUSH2 0x8EB PUSH2 0x85A JUMP JUMPDEST JUMPDEST PUSH2 0x8F5 DUP3 PUSH2 0x84A JUMP JUMPDEST SWAP1 POP PUSH1 0x20 DUP2 ADD SWAP1 POP SWAP2 SWAP1 POP JUMP JUMPDEST DUP3 DUP2 DUP4 CALLDATACOPY PUSH0 DUP4 DUP4 ADD MSTORE POP POP POP JUMP JUMPDEST PUSH0 PUSH2 0x922 PUSH2 0x91D DUP5 PUSH2 0x8D2 JUMP JUMPDEST PUSH2 0x8B8 JUMP JUMPDEST SWAP1 POP DUP3 DUP2 MSTORE PUSH1 0x20 DUP2 ADD DUP5 DUP5 DUP5 ADD GT ISZERO PUSH2 0x93E JUMPI PUSH2 0x93D PUSH2 0x846 JUMP JUMPDEST JUMPDEST PUSH2 0x949 DUP5 DUP3 DUP6 PUSH2 0x902 JUMP JUMPDEST POP SWAP4 SWAP3 POP POP POP JUMP JUMPDEST PUSH0 DUP3 PUSH1 0x1F DUP4 ADD SLT PUSH2 0x965 JUMPI PUSH2 0x964 PUSH2 0x842 JUMP JUMPDEST JUMPDEST DUP2 CALLDATALOAD PUSH2 0x975 DUP5 DUP3 PUSH1 0x20 DUP7 ADD PUSH2 0x910 JUMP JUMPDEST SWAP2 POP POP SWAP3 SWAP2 POP POP JUMP JUMPDEST PUSH0 DUP2 SWAP1 POP SWAP2 SWAP1 POP JUMP JUMPDEST PUSH2 0x990 DUP2 PUSH2 0x97E JUMP JUMPDEST DUP2 EQ PUSH2 0x99A JUMPI PUSH0 DUP1 REVERT JUMPDEST POP JUMP JUMPDEST PUSH0 DUP2 CALLDATALOAD SWAP1 POP PUSH2 0x9AB DUP2 PUSH2 0x987 JUMP JUMPDEST SWAP3 SWAP2 POP POP JUMP JUMPDEST PUSH0 DUP1 PUSH0 PUSH1 0x60 DUP5 DUP7 SUB SLT ISZERO PUSH2 0x9C8 JUMPI PUSH2 0x9C7 PUSH2 0x754 JUMP JUMPDEST JUMPDEST PUSH0 DUP5 ADD CALLDATALOAD PUSH8 0xFFFFFFFFFFFFFFFF DUP2 GT ISZERO PUSH2 0x9E5 JUMPI PUSH2 0x9E4 PUSH2 0x758 JUMP JUMPDEST JUMPDEST PUSH2 0x9F1 DUP7 DUP3 DUP8 ADD PUSH2 0x951 JUMP JUMPDEST SWAP4 POP POP PUSH1 0x20 DUP5 ADD CALLDATALOAD PUSH8 0xFFFFFFFFFFFFFFFF DUP2 GT ISZERO PUSH2 0xA12 JUMPI PUSH2 0xA11 PUSH2 0x758 JUMP JUMPDEST JUMPDEST PUSH2 0xA1E DUP7 DUP3 DUP8 ADD PUSH2 0x951 JUMP JUMPDEST SWAP3 POP POP PUSH1 0x40 PUSH2 0xA2F DUP7 DUP3 DUP8 ADD PUSH2 0x99D JUMP JUMPDEST SWAP2 POP POP SWAP3 POP SWAP3 POP SWAP3 JUMP JUMPDEST PUSH0 DUP2 ISZERO ISZERO SWAP1 POP SWAP2 SWAP1 POP JUMP JUMPDEST PUSH2 0xA4D DUP2 PUSH2 0xA39 JUMP JUMPDEST DUP3 MSTORE POP POP JUMP JUMPDEST PUSH0 PUSH1 0x20 DUP3 ADD SWAP1 POP PUSH2 0xA66 PUSH0 DUP4 ADD DUP5 PUSH2 0xA44 JUMP JUMPDEST SWAP3 SWAP2 POP POP JUMP JUMPDEST PUSH0 DUP3 DUP3 MSTORE PUSH1 0x20 DUP3 ADD SWAP1 POP SWAP3 SWAP2 POP POP JUMP JUMPDEST PUSH32 0x5468652070726F706F73616C206973206E6F7420616374697665000000000000 PUSH0 DUP3 ADD MSTORE POP JUMP JUMPDEST PUSH0 PUSH2 0xAB0 PUSH1 0x1A DUP4 PUSH2 0xA6C JUMP JUMPDEST SWAP2 POP PUSH2 0xABB DUP3 PUSH2 0xA7C JUMP JUMPDEST PUSH1 0x20 DUP3 ADD SWAP1 POP SWAP2 SWAP1 POP JUMP JUMPDEST PUSH0 PUSH1 0x20 DUP3 ADD SWAP1 POP DUP2 DUP2 SUB PUSH0 DUP4 ADD MSTORE PUSH2 0xADD DUP2 PUSH2 0xAA4 JUMP JUMPDEST SWAP1 POP SWAP2 SWAP1 POP JUMP JUMPDEST PUSH32 0x416464726573732068617320616C726561647920766F74656400000000000000 PUSH0 DUP3 ADD MSTORE POP JUMP JUMPDEST PUSH0 PUSH2 0xB18 PUSH1 0x19 DUP4 PUSH2 0xA6C JUMP JUMPDEST SWAP2 POP PUSH2 0xB23 DUP3 PUSH2 0xAE4 JUMP JUMPDEST PUSH1 0x20 DUP3 ADD SWAP1 POP SWAP2 SWAP1 POP JUMP JUMPDEST PUSH0 PUSH1 0x20 DUP3 ADD SWAP1 POP DUP2 DUP2 SUB PUSH0 DUP4 ADD MSTORE PUSH2 0xB45 DUP2 PUSH2 0xB0C JUMP JUMPDEST SWAP1 POP SWAP2 SWAP1 POP JUMP JUMPDEST PUSH32 0x4E487B7100000000000000000000000000000000000000000000000000000000 PUSH0 MSTORE PUSH1 0x11 PUSH1 0x4 MSTORE PUSH1 0x24 PUSH0 REVERT JUMPDEST PUSH0 PUSH2 0xB83 DUP3 PUSH2 0x97E JUMP JUMPDEST SWAP2 POP PUSH2 0xB8E DUP4 PUSH2 0x97E JUMP JUMPDEST SWAP3 POP DUP3 DUP3 ADD SWAP1 POP DUP1 DUP3 GT ISZERO PUSH2 0xBA6 JUMPI PUSH2 0xBA5 PUSH2 0xB4C JUMP JUMPDEST JUMPDEST SWAP3 SWAP2 POP POP JUMP JUMPDEST PUSH0 PUSH2 0xBB6 DUP3 PUSH2 0x97E JUMP JUMPDEST SWAP2 POP PUSH2 0xBC1 DUP4 PUSH2 0x97E JUMP JUMPDEST SWAP3 POP DUP3 DUP3 SUB SWAP1 POP DUP2 DUP2 GT ISZERO PUSH2 0xBD9 JUMPI PUSH2 0xBD8 PUSH2 0xB4C JUMP JUMPDEST JUMPDEST SWAP3 SWAP2 POP POP JUMP JUMPDEST PUSH0 DUP2 MLOAD SWAP1 POP SWAP2 SWAP1 POP JUMP JUMPDEST PUSH32 0x4E487B7100000000000000000000000000000000000000000000000000000000 PUSH0 MSTORE PUSH1 0x22 PUSH1 0x4 MSTORE PUSH1 0x24 PUSH0 REVERT JUMPDEST PUSH0 PUSH1 0x2 DUP3 DIV SWAP1 POP PUSH1 0x1 DUP3 AND DUP1 PUSH2 0xC2D JUMPI PUSH1 0x7F DUP3 AND SWAP2 POP JUMPDEST PUSH1 0x20 DUP3 LT DUP2 SUB PUSH2 0xC40 JUMPI PUSH2 0xC3F PUSH2 0xBE9 JUMP JUMPDEST JUMPDEST POP SWAP2 SWAP1 POP JUMP JUMPDEST PUSH0 DUP2 SWAP1 POP DUP2 PUSH0 MSTORE PUSH1 0x20 PUSH0 KECCAK256 SWAP1 POP SWAP2 SWAP1 POP JUMP JUMPDEST PUSH0 PUSH1 0x20 PUSH1 0x1F DUP4 ADD DIV SWAP1 POP SWAP2 SWAP1 POP JUMP JUMPDEST PUSH0 DUP3 DUP3 SHL SWAP1 POP SWAP3 SWAP2 POP POP JUMP JUMPDEST PUSH0 PUSH1 0x8 DUP4 MUL PUSH2 0xCA2 PUSH32 0xFFFFFFFFFFFFFFFFFFFFFFFFFFFFFFFFFFFFFFFFFFFFFFFFFFFFFFFFFFFFFFFF DUP3 PUSH2 0xC67 JUMP JUMPDEST PUSH2 0xCAC DUP7 DUP4 PUSH2 0xC67 JUMP JUMPDEST SWAP6 POP DUP1 NOT DUP5 AND SWAP4 POP DUP1 DUP7 AND DUP5 OR SWAP3 POP POP POP SWAP4 SWAP3 POP POP POP JUMP JUMPDEST PUSH0 DUP2 SWAP1 POP SWAP2 SWAP1 POP JUMP JUMPDEST PUSH0 PUSH2 0xCE7 PUSH2 0xCE2 PUSH2 0xCDD DUP5 PUSH2 0x97E JUMP JUMPDEST PUSH2 0xCC4 JUMP JUMPDEST PUSH2 0x97E JUMP JUMPDEST SWAP1 POP SWAP2 SWAP1 POP JUMP JUMPDEST PUSH0 DUP2 SWAP1 POP SWAP2 SWAP1 POP JUMP JUMPDEST PUSH2 0xD00 DUP4 PUSH2 0xCCD JUMP JUMPDEST PUSH2 0xD14 PUSH2 0xD0C DUP3 PUSH2 0xCEE JUMP JUMPDEST DUP5 DUP5 SLOAD PUSH2 0xC73 JUMP JUMPDEST DUP3 SSTORE POP POP POP POP JUMP JUMPDEST PUSH0 SWAP1 JUMP JUMPDEST PUSH2 0xD28 PUSH2 0xD1C JUMP JUMPDEST PUSH2 0xD33 DUP2 DUP5 DUP5 PUSH2 0xCF7 JUMP JUMPDEST POP POP POP JUMP JUMPDEST JUMPDEST DUP2 DUP2 LT ISZERO PUSH2 0xD56 JUMPI PUSH2 0xD4B PUSH0 DUP3 PUSH2 0xD20 JUMP JUMPDEST PUSH1 0x1 DUP2 ADD SWAP1 POP PUSH2 0xD39 JUMP JUMPDEST POP POP JUMP JUMPDEST PUSH1 0x1F DUP3 GT ISZERO PUSH2 0xD9B JUMPI PUSH2 0xD6C DUP2 PUSH2 0xC46 JUMP JUMPDEST PUSH2 0xD75 DUP5 PUSH2 0xC58 JUMP JUMPDEST DUP2 ADD PUSH1 0x20 DUP6 LT ISZERO PUSH2 0xD84 JUMPI DUP2 SWAP1 POP JUMPDEST PUSH2 0xD98 PUSH2 0xD90 DUP6 PUSH2 0xC58 JUMP JUMPDEST DUP4 ADD DUP3 PUSH2 0xD38 JUMP JUMPDEST POP POP JUMPDEST POP POP POP JUMP JUMPDEST PUSH0 DUP3 DUP3 SHR SWAP1 POP SWAP3 SWAP2 POP POP JUMP JUMPDEST PUSH0 PUSH2 0xDBB PUSH0 NOT DUP5 PUSH1 0x8 MUL PUSH2 0xDA0 JUMP JUMPDEST NOT DUP1 DUP4 AND SWAP2 POP POP SWAP3 SWAP2 POP POP JUMP JUMPDEST PUSH0 PUSH2 0xDD3 DUP4 DUP4 PUSH2 0xDAC JUMP JUMPDEST SWAP2 POP DUP3 PUSH1 0x2 MUL DUP3 OR SWAP1 POP SWAP3 SWAP2 POP POP JUMP JUMPDEST PUSH2 0xDEC DUP3 PUSH2 0xBDF JUMP JUMPDEST PUSH8 0xFFFFFFFFFFFFFFFF DUP2 GT ISZERO PUSH2 0xE05 JUMPI PUSH2 0xE04 PUSH2 0x85A JUMP JUMPDEST JUMPDEST PUSH2 0xE0F DUP3 SLOAD PUSH2 0xC16 JUMP JUMPDEST PUSH2 0xE1A DUP3 DUP3 DUP6 PUSH2 0xD5A JUMP JUMPDEST PUSH0 PUSH1 0x20 SWAP1 POP PUSH1 0x1F DUP4 GT PUSH1 0x1 DUP2 EQ PUSH2 0xE4B JUMPI PUSH0 DUP5 ISZERO PUSH2 0xE39 JUMPI DUP3 DUP8 ADD MLOAD SWAP1 POP JUMPDEST PUSH2 0xE43 DUP6 DUP3 PUSH2 0xDC8 JUMP JUMPDEST DUP7 SSTORE POP PUSH2 0xEAA JUMP JUMPDEST PUSH1 0x1F NOT DUP5 AND PUSH2 0xE59 DUP7 PUSH2 0xC46 JUMP JUMPDEST PUSH0 JUMPDEST DUP3 DUP2 LT ISZERO PUSH2 0xE80 JUMPI DUP5 DUP10 ADD MLOAD DUP3 SSTORE PUSH1 0x1 DUP3 ADD SWAP2 POP PUSH1 0x20 DUP6 ADD SWAP5 POP PUSH1 0x20 DUP2 ADD SWAP1 POP PUSH2 0xE5B JUMP JUMPDEST DUP7 DUP4 LT ISZERO PUSH2 0xE9D JUMPI DUP5 DUP10 ADD MLOAD PUSH2 0xE99 PUSH1 0x1F DUP10 AND DUP3 PUSH2 0xDAC JUMP JUMPDEST DUP4 SSTORE POP JUMPDEST PUSH1 0x1 PUSH1 0x2 DUP9 MUL ADD DUP9 SSTORE POP POP POP JUMPDEST POP POP POP POP POP POP JUMP JUMPDEST PUSH0 PUSH2 0xEBC DUP3 PUSH2 0x97E JUMP JUMPDEST SWAP2 POP PUSH32 0xFFFFFFFFFFFFFFFFFFFFFFFFFFFFFFFFFFFFFFFFFFFFFFFFFFFFFFFFFFFFFFFF DUP3 SUB PUSH2 0xEEE JUMPI PUSH2 0xEED PUSH2 0xB4C JUMP JUMPDEST JUMPDEST PUSH1 0x1 DUP3 ADD SWAP1 POP SWAP2 SWAP1 POP JUMP JUMPDEST PUSH32 0x4E487B7100000000000000000000000000000000000000000000000000000000 PUSH0 MSTORE PUSH1 0x32 PUSH1 0x4 MSTORE PUSH1 0x24 PUSH0 REVERT JUMPDEST PUSH32 0x4E487B7100000000000000000000000000000000000000000000000000000000 PUSH0 MSTORE PUSH1 0x12 PUSH1 0x4 MSTORE PUSH1 0x24 PUSH0 REVERT JUMPDEST PUSH0 PUSH2 0xF5D DUP3 PUSH2 0x97E JUMP JUMPDEST SWAP2 POP PUSH2 0xF68 DUP4 PUSH2 0x97E JUMP JUMPDEST SWAP3 POP DUP3 PUSH2 0xF78 JUMPI PUSH2 0xF77 PUSH2 0xF26 JUMP JUMPDEST JUMPDEST DUP3 DUP3 MOD SWAP1 POP SWAP3 SWAP2 POP POP JUMP JUMPDEST PUSH0 PUSH2 0xF8D DUP3 PUSH2 0x97E JUMP JUMPDEST SWAP2 POP PUSH2 0xF98 DUP4 PUSH2 0x97E JUMP JUMPDEST SWAP3 POP DUP3 PUSH2 0xFA8 JUMPI PUSH2 0xFA7 PUSH2 0xF26 JUMP JUMPDEST JUMPDEST DUP3 DUP3 DIV SWAP1 POP SWAP3 SWAP2 POP POP JUMP INVALID LOG2 PUSH5 0x6970667358 0x22 SLT KECCAK256 STOP 0xBC SWAP15 DELEGATECALL PUSH10 0x526FF09888CAB8FBFE23 SAR EXP 0xEB MCOPY SWAP15 DUP10 SWAP2 SWAP12 EXTCODEHASH BLOCKHASH DELEGATECALL KECCAK256 AND CALLDATASIZE MSIZE REVERT 0xCD PUSH5 0x736F6C6343 STOP ADDMOD BYTE STOP CALLER "
				},
				"gasEstimates": {
					"creation": {
						"codeDepositCost": "814600",
						"executionCost": "73689",
						"totalCost": "888289"
					},
					"external": {
						"create_proposal(string,string,uint256)": "infinite",
						"isVoted(address)": "infinite",
						"setOwner(address)": "26859",
						"vote(uint8)": "infinite"
					},
					"internal": {
						"calculateCurrentState()": "infinite"
					}
				},
				"methodIdentifiers": {
					"create_proposal(string,string,uint256)": "bd611fe6",
					"isVoted(address)": "cbff75cb",
					"setOwner(address)": "13af4035",
					"vote(uint8)": "b3f98adc"
				}
			},
			"storageLayout": {
				"storage": [
					{
						"astId": 3,
						"contract": "contracts/proposal2.sol:proposalContract",
						"label": "owner",
						"offset": 0,
						"slot": "0",
						"type": "t_address"
					},
					{
						"astId": 5,
						"contract": "contracts/proposal2.sol:proposalContract",
						"label": "counter",
						"offset": 0,
						"slot": "1",
						"type": "t_uint256"
					},
					{
						"astId": 86,
						"contract": "contracts/proposal2.sol:proposalContract",
						"label": "proposal_history",
						"offset": 0,
						"slot": "2",
						"type": "t_mapping(t_uint256,t_struct(Proposal)81_storage)"
					},
					{
						"astId": 89,
						"contract": "contracts/proposal2.sol:proposalContract",
						"label": "voted_addresses",
						"offset": 0,
						"slot": "3",
						"type": "t_array(t_address)dyn_storage"
					}
				],
				"types": {
					"t_address": {
						"encoding": "inplace",
						"label": "address",
						"numberOfBytes": "20"
					},
					"t_array(t_address)dyn_storage": {
						"base": "t_address",
						"encoding": "dynamic_array",
						"label": "address[]",
						"numberOfBytes": "32"
					},
					"t_bool": {
						"encoding": "inplace",
						"label": "bool",
						"numberOfBytes": "1"
					},
					"t_mapping(t_address,t_bool)": {
						"encoding": "mapping",
						"key": "t_address",
						"label": "mapping(address => bool)",
						"numberOfBytes": "32",
						"value": "t_bool"
					},
					"t_mapping(t_uint256,t_struct(Proposal)81_storage)": {
						"encoding": "mapping",
						"key": "t_uint256",
						"label": "mapping(uint256 => struct proposalContract.Proposal)",
						"numberOfBytes": "32",
						"value": "t_struct(Proposal)81_storage"
					},
					"t_string_storage": {
						"encoding": "bytes",
						"label": "string",
						"numberOfBytes": "32"
					},
					"t_struct(Proposal)81_storage": {
						"encoding": "inplace",
						"label": "struct proposalContract.Proposal",
						"members": [
							{
								"astId": 62,
								"contract": "contracts/proposal2.sol:proposalContract",
								"label": "title",
								"offset": 0,
								"slot": "0",
								"type": "t_string_storage"
							},
							{
								"astId": 64,
								"contract": "contracts/proposal2.sol:proposalContract",
								"label": "description",
								"offset": 0,
								"slot": "1",
								"type": "t_string_storage"
							},
							{
								"astId": 66,
								"contract": "contracts/proposal2.sol:proposalContract",
								"label": "approve",
								"offset": 0,
								"slot": "2",
								"type": "t_uint256"
							},
							{
								"astId": 68,
								"contract": "contracts/proposal2.sol:proposalContract",
								"label": "reject",
								"offset": 0,
								"slot": "3",
								"type": "t_uint256"
							},
							{
								"astId": 70,
								"contract": "contracts/proposal2.sol:proposalContract",
								"label": "pass",
								"offset": 0,
								"slot": "4",
								"type": "t_uint256"
							},
							{
								"astId": 72,
								"contract": "contracts/proposal2.sol:proposalContract",
								"label": "total_vote_to_end",
								"offset": 0,
								"slot": "5",
								"type": "t_uint256"
							},
							{
								"astId": 74,
								"contract": "contracts/proposal2.sol:proposalContract",
								"label": "current_state",
								"offset": 0,
								"slot": "6",
								"type": "t_bool"
							},
							{
								"astId": 76,
								"contract": "contracts/proposal2.sol:proposalContract",
								"label": "is_active",
								"offset": 1,
								"slot": "6",
								"type": "t_bool"
							},
							{
								"astId": 80,
								"contract": "contracts/proposal2.sol:proposalContract",
								"label": "hasVoted",
								"offset": 0,
								"slot": "7",
								"type": "t_mapping(t_address,t_bool)"
							}
						],
						"numberOfBytes": "256"
					},
					"t_uint256": {
						"encoding": "inplace",
						"label": "uint256",
						"numberOfBytes": "32"
					}
				}
			},
			"userdoc": {
				"kind": "user",
				"methods": {},
				"version": 1
			}
		}
	}
}