{
	"contracts/proposal2.sol": {
		"proposalContract": {
			"abi": [
				{
					"inputs": [],
					"stateMutability": "nonpayable",
					"type": "constructor"
				},
				{
					"inputs": [
						{
							"internalType": "string",
							"name": "title",
							"type": "string"
						},
						{
							"internalType": "string",
							"name": "description",
							"type": "string"
						},
						{
							"internalType": "uint256",
							"name": "total_vote_to_end",
							"type": "uint256"
						}
					],
					"name": "create_proposal",
					"outputs": [],
					"stateMutability": "nonpayable",
					"type": "function"
				},
				{
					"inputs": [],
					"name": "getCurrentProposal",
					"outputs": [
						{
							"components": [
								{
									"internalType": "string",
									"name": "title",
									"type": "string"
								},
								{
									"internalType": "string",
									"name": "description",
									"type": "string"
								},
								{
									"internalType": "uint256",
									"name": "approve",
									"type": "uint256"
								},
								{
									"internalType": "uint256",
									"name": "reject",
									"type": "uint256"
								},
								{
									"internalType": "uint256",
									"name": "pass",
									"type": "uint256"
								},
								{
									"internalType": "uint256",
									"name": "total_vote_to_end",
									"type": "uint256"
								},
								{
									"internalType": "bool",
									"name": "current_state",
									"type": "bool"
								},
								{
									"internalType": "bool",
									"name": "is_active",
									"type": "bool"
								}
							],
							"internalType": "struct proposalContract.Proposal",
							"name": "",
							"type": "tuple"
						}
					],
					"stateMutability": "view",
					"type": "function"
				},
				{
					"inputs": [
						{
							"internalType": "uint256",
							"name": "number",
							"type": "uint256"
						}
					],
					"name": "getProposal",
					"outputs": [
						{
							"components": [
								{
									"internalType": "string",
									"name": "title",
									"type": "string"
								},
								{
									"internalType": "string",
									"name": "description",
									"type": "string"
								},
								{
									"internalType": "uint256",
									"name": "approve",
									"type": "uint256"
								},
								{
									"internalType": "uint256",
									"name": "reject",
									"type": "uint256"
								},
								{
									"internalType": "uint256",
									"name": "pass",
									"type": "uint256"
								},
								{
									"internalType": "uint256",
									"name": "total_vote_to_end",
									"type": "uint256"
								},
								{
									"internalType": "bool",
									"name": "current_state",
									"type": "bool"
								},
								{
									"internalType": "bool",
									"name": "is_active",
									"type": "bool"
								}
							],
							"internalType": "struct proposalContract.Proposal",
							"name": "",
							"type": "tuple"
						}
					],
					"stateMutability": "view",
					"type": "function"
				},
				{
					"inputs": [
						{
							"internalType": "address",
							"name": "_address",
							"type": "address"
						}
					],
					"name": "isVoted",
					"outputs": [
						{
							"internalType": "bool",
							"name": "",
							"type": "bool"
						}
					],
					"stateMutability": "view",
					"type": "function"
				},
				{
					"inputs": [
						{
							"internalType": "address",
							"name": "new_owner",
							"type": "address"
						}
					],
					"name": "setOwner",
					"outputs": [],
					"stateMutability": "nonpayable",
					"type": "function"
				},
				{
					"inputs": [],
					"name": "terminateProposal",
					"outputs": [],
					"stateMutability": "nonpayable",
					"type": "function"
				},
				{
					"inputs": [
						{
							"internalType": "uint8",
							"name": "choice",
							"type": "uint8"
						}
					],
					"name": "vote",
					"outputs": [],
					"stateMutability": "nonpayable",
					"type": "function"
				}
			],
			"devdoc": {
				"kind": "dev",
				"methods": {},
				"version": 1
			},
			"evm": {
				"assembly": "    /* \"contracts/proposal2.sol\":61:3665  contract proposalContract{... */\n  mstore(0x40, 0x80)\n    /* \"contracts/proposal2.sol\":143:237  constructor (){... */\n  callvalue\n  dup1\n  iszero\n  tag_1\n  jumpi\n  0x00\n  dup1\n  revert\ntag_1:\n  pop\n    /* \"contracts/proposal2.sol\":176:186  msg.sender */\n  caller\n    /* \"contracts/proposal2.sol\":168:173  owner */\n  0x00\n  dup1\n    /* \"contracts/proposal2.sol\":168:186  owner = msg.sender */\n  0x0100\n  exp\n  dup2\n  sload\n  dup2\n  0xffffffffffffffffffffffffffffffffffffffff\n  mul\n  not\n  and\n  swap1\n  dup4\n  0xffffffffffffffffffffffffffffffffffffffff\n  and\n  mul\n  or\n  swap1\n  sstore\n  pop\n    /* \"contracts/proposal2.sol\":197:212  voted_addresses */\n  0x03\n    /* \"contracts/proposal2.sol\":218:228  msg.sender */\n  caller\n    /* \"contracts/proposal2.sol\":197:229  voted_addresses.push(msg.sender) */\n  swap1\n  dup1\n  0x01\n  dup2\n  sload\n  add\n  dup1\n  dup3\n  sstore\n  dup1\n  swap2\n  pop\n  pop\n  0x01\n  swap1\n  sub\n  swap1\n  0x00\n  mstore\n  keccak256(0x00, 0x20)\n  add\n  0x00\n  swap1\n  swap2\n  swap1\n  swap2\n  swap1\n  swap2\n  0x0100\n  exp\n  dup2\n  sload\n  dup2\n  0xffffffffffffffffffffffffffffffffffffffff\n  mul\n  not\n  and\n  swap1\n  dup4\n  0xffffffffffffffffffffffffffffffffffffffff\n  and\n  mul\n  or\n  swap1\n  sstore\n  pop\n    /* \"contracts/proposal2.sol\":61:3665  contract proposalContract{... */\n  dataSize(sub_0)\n  dup1\n  dataOffset(sub_0)\n  0x00\n  codecopy\n  0x00\n  return\nstop\n\nsub_0: assembly {\n        /* \"contracts/proposal2.sol\":61:3665  contract proposalContract{... */\n      mstore(0x40, 0x80)\n      callvalue\n      dup1\n      iszero\n      tag_1\n      jumpi\n      0x00\n      dup1\n      revert\n    tag_1:\n      pop\n      jumpi(tag_2, lt(calldatasize, 0x04))\n      shr(0xe0, calldataload(0x00))\n      dup1\n      0xbd611fe6\n      gt\n      tag_10\n      jumpi\n      dup1\n      0xbd611fe6\n      eq\n      tag_6\n      jumpi\n      dup1\n      0xc7f758a8\n      eq\n      tag_7\n      jumpi\n      dup1\n      0xcbff75cb\n      eq\n      tag_8\n      jumpi\n      dup1\n      0xdbddc7aa\n      eq\n      tag_9\n      jumpi\n      jump(tag_2)\n    tag_10:\n      dup1\n      0x13af4035\n      eq\n      tag_3\n      jumpi\n      dup1\n      0x41ec6870\n      eq\n      tag_4\n      jumpi\n      dup1\n      0xb3f98adc\n      eq\n      tag_5\n      jumpi\n    tag_2:\n      0x00\n      dup1\n      revert\n        /* \"contracts/proposal2.sol\":3570:3662  function setOwner(address new_owner) external onlyOwner {... */\n    tag_3:\n      tag_11\n      0x04\n      dup1\n      calldatasize\n      sub\n      dup2\n      add\n      swap1\n      tag_12\n      swap2\n      swap1\n      tag_13\n      jump\t// in\n    tag_12:\n      tag_14\n      jump\t// in\n    tag_11:\n      stop\n        /* \"contracts/proposal2.sol\":1341:1461  function getCurrentProposal() external view returns(Proposal memory) {... */\n    tag_4:\n      tag_15\n      tag_16\n      jump\t// in\n    tag_15:\n      mload(0x40)\n      tag_17\n      swap2\n      swap1\n      tag_18\n      jump\t// in\n    tag_17:\n      mload(0x40)\n      dup1\n      swap2\n      sub\n      swap1\n      return\n        /* \"contracts/proposal2.sol\":1603:2474  function vote(uint8 choice) external active newVoter(msg.sender){... */\n    tag_5:\n      tag_19\n      0x04\n      dup1\n      calldatasize\n      sub\n      dup2\n      add\n      swap1\n      tag_20\n      swap2\n      swap1\n      tag_21\n      jump\t// in\n    tag_20:\n      tag_22\n      jump\t// in\n    tag_19:\n      stop\n        /* \"contracts/proposal2.sol\":2990:3560  function create_proposal(string memory title, string memory description, uint256 total_vote_to_end) external onlyOwner {... */\n    tag_6:\n      tag_23\n      0x04\n      dup1\n      calldatasize\n      sub\n      dup2\n      add\n      swap1\n      tag_24\n      swap2\n      swap1\n      tag_25\n      jump\t// in\n    tag_24:\n      tag_26\n      jump\t// in\n    tag_23:\n      stop\n        /* \"contracts/proposal2.sol\":1469:1595  function getProposal(uint256 number) external view returns(Proposal memory) {... */\n    tag_7:\n      tag_27\n      0x04\n      dup1\n      calldatasize\n      sub\n      dup2\n      add\n      swap1\n      tag_28\n      swap2\n      swap1\n      tag_29\n      jump\t// in\n    tag_28:\n      tag_30\n      jump\t// in\n    tag_27:\n      mload(0x40)\n      tag_31\n      swap2\n      swap1\n      tag_18\n      jump\t// in\n    tag_31:\n      mload(0x40)\n      dup1\n      swap2\n      sub\n      swap1\n      return\n        /* \"contracts/proposal2.sol\":1072:1333  function isVoted(address _address) public view returns (bool) {... */\n    tag_8:\n      tag_32\n      0x04\n      dup1\n      calldatasize\n      sub\n      dup2\n      add\n      swap1\n      tag_33\n      swap2\n      swap1\n      tag_13\n      jump\t// in\n    tag_33:\n      tag_34\n      jump\t// in\n    tag_32:\n      mload(0x40)\n      tag_35\n      swap2\n      swap1\n      tag_36\n      jump\t// in\n    tag_35:\n      mload(0x40)\n      dup1\n      swap2\n      sub\n      swap1\n      return\n        /* \"contracts/proposal2.sol\":946:1064  function terminateProposal() external onlyOwner active(){... */\n    tag_9:\n      tag_37\n      tag_38\n      jump\t// in\n    tag_37:\n      stop\n        /* \"contracts/proposal2.sol\":3570:3662  function setOwner(address new_owner) external onlyOwner {... */\n    tag_14:\n        /* \"contracts/proposal2.sol\":298:303  owner */\n      0x00\n      dup1\n      sload\n      swap1\n      0x0100\n      exp\n      swap1\n      div\n      0xffffffffffffffffffffffffffffffffffffffff\n      and\n        /* \"contracts/proposal2.sol\":284:303  msg.sender == owner */\n      0xffffffffffffffffffffffffffffffffffffffff\n      and\n        /* \"contracts/proposal2.sol\":284:294  msg.sender */\n      caller\n        /* \"contracts/proposal2.sol\":284:303  msg.sender == owner */\n      0xffffffffffffffffffffffffffffffffffffffff\n      and\n      eq\n        /* \"contracts/proposal2.sol\":276:304  require(msg.sender == owner) */\n      tag_40\n      jumpi\n      0x00\n      dup1\n      revert\n    tag_40:\n        /* \"contracts/proposal2.sol\":3645:3654  new_owner */\n      dup1\n        /* \"contracts/proposal2.sol\":3637:3642  owner */\n      0x00\n      dup1\n        /* \"contracts/proposal2.sol\":3637:3654  owner = new_owner */\n      0x0100\n      exp\n      dup2\n      sload\n      dup2\n      0xffffffffffffffffffffffffffffffffffffffff\n      mul\n      not\n      and\n      swap1\n      dup4\n      0xffffffffffffffffffffffffffffffffffffffff\n      and\n      mul\n      or\n      swap1\n      sstore\n      pop\n        /* \"contracts/proposal2.sol\":3570:3662  function setOwner(address new_owner) external onlyOwner {... */\n      pop\n      jump\t// out\n        /* \"contracts/proposal2.sol\":1341:1461  function getCurrentProposal() external view returns(Proposal memory) {... */\n    tag_16:\n        /* \"contracts/proposal2.sol\":1393:1408  Proposal memory */\n      tag_42\n      tag_43\n      jump\t// in\n    tag_42:\n        /* \"contracts/proposal2.sol\":1428:1444  proposal_history */\n      0x02\n        /* \"contracts/proposal2.sol\":1428:1453  proposal_history[counter] */\n      0x00\n        /* \"contracts/proposal2.sol\":1445:1452  counter */\n      sload(0x01)\n        /* \"contracts/proposal2.sol\":1428:1453  proposal_history[counter] */\n      dup2\n      mstore\n      0x20\n      add\n      swap1\n      dup2\n      mstore\n      0x20\n      add\n      0x00\n      keccak256\n        /* \"contracts/proposal2.sol\":1421:1453  return proposal_history[counter] */\n      mload(0x40)\n      dup1\n      0x0100\n      add\n      0x40\n      mstore\n      swap1\n      dup2\n      0x00\n      dup3\n      add\n      dup1\n      sload\n      tag_45\n      swap1\n      tag_46\n      jump\t// in\n    tag_45:\n      dup1\n      0x1f\n      add\n      0x20\n      dup1\n      swap2\n      div\n      mul\n      0x20\n      add\n      mload(0x40)\n      swap1\n      dup2\n      add\n      0x40\n      mstore\n      dup1\n      swap3\n      swap2\n      swap1\n      dup2\n      dup2\n      mstore\n      0x20\n      add\n      dup3\n      dup1\n      sload\n      tag_47\n      swap1\n      tag_46\n      jump\t// in\n    tag_47:\n      dup1\n      iszero\n      tag_48\n      jumpi\n      dup1\n      0x1f\n      lt\n      tag_49\n      jumpi\n      0x0100\n      dup1\n      dup4\n      sload\n      div\n      mul\n      dup4\n      mstore\n      swap2\n      0x20\n      add\n      swap2\n      jump(tag_48)\n    tag_49:\n      dup3\n      add\n      swap2\n      swap1\n      0x00\n      mstore\n      keccak256(0x00, 0x20)\n      swap1\n    tag_50:\n      dup2\n      sload\n      dup2\n      mstore\n      swap1\n      0x01\n      add\n      swap1\n      0x20\n      add\n      dup1\n      dup4\n      gt\n      tag_50\n      jumpi\n      dup3\n      swap1\n      sub\n      0x1f\n      and\n      dup3\n      add\n      swap2\n    tag_48:\n      pop\n      pop\n      pop\n      pop\n      pop\n      dup2\n      mstore\n      0x20\n      add\n      0x01\n      dup3\n      add\n      dup1\n      sload\n      tag_51\n      swap1\n      tag_46\n      jump\t// in\n    tag_51:\n      dup1\n      0x1f\n      add\n      0x20\n      dup1\n      swap2\n      div\n      mul\n      0x20\n      add\n      mload(0x40)\n      swap1\n      dup2\n      add\n      0x40\n      mstore\n      dup1\n      swap3\n      swap2\n      swap1\n      dup2\n      dup2\n      mstore\n      0x20\n      add\n      dup3\n      dup1\n      sload\n      tag_52\n      swap1\n      tag_46\n      jump\t// in\n    tag_52:\n      dup1\n      iszero\n      tag_53\n      jumpi\n      dup1\n      0x1f\n      lt\n      tag_54\n      jumpi\n      0x0100\n      dup1\n      dup4\n      sload\n      div\n      mul\n      dup4\n      mstore\n      swap2\n      0x20\n      add\n      swap2\n      jump(tag_53)\n    tag_54:\n      dup3\n      add\n      swap2\n      swap1\n      0x00\n      mstore\n      keccak256(0x00, 0x20)\n      swap1\n    tag_55:\n      dup2\n      sload\n      dup2\n      mstore\n      swap1\n      0x01\n      add\n      swap1\n      0x20\n      add\n      dup1\n      dup4\n      gt\n      tag_55\n      jumpi\n      dup3\n      swap1\n      sub\n      0x1f\n      and\n      dup3\n      add\n      swap2\n    tag_53:\n      pop\n      pop\n      pop\n      pop\n      pop\n      dup2\n      mstore\n      0x20\n      add\n      0x02\n      dup3\n      add\n      sload\n      dup2\n      mstore\n      0x20\n      add\n      0x03\n      dup3\n      add\n      sload\n      dup2\n      mstore\n      0x20\n      add\n      0x04\n      dup3\n      add\n      sload\n      dup2\n      mstore\n      0x20\n      add\n      0x05\n      dup3\n      add\n      sload\n      dup2\n      mstore\n      0x20\n      add\n      0x06\n      dup3\n      add\n      0x00\n      swap1\n      sload\n      swap1\n      0x0100\n      exp\n      swap1\n      div\n      0xff\n      and\n      iszero\n      iszero\n      iszero\n      iszero\n      dup2\n      mstore\n      0x20\n      add\n      0x06\n      dup3\n      add\n      0x01\n      swap1\n      sload\n      swap1\n      0x0100\n      exp\n      swap1\n      div\n      0xff\n      and\n      iszero\n      iszero\n      iszero\n      iszero\n      dup2\n      mstore\n      pop\n      pop\n      swap1\n      pop\n        /* \"contracts/proposal2.sol\":1341:1461  function getCurrentProposal() external view returns(Proposal memory) {... */\n      swap1\n      jump\t// out\n        /* \"contracts/proposal2.sol\":1603:2474  function vote(uint8 choice) external active newVoter(msg.sender){... */\n    tag_22:\n        /* \"contracts/proposal2.sol\":408:412  true */\n      0x01\n        /* \"contracts/proposal2.sol\":369:412  proposal_history[counter].is_active == true */\n      iszero\n      iszero\n        /* \"contracts/proposal2.sol\":369:385  proposal_history */\n      0x02\n        /* \"contracts/proposal2.sol\":369:394  proposal_history[counter] */\n      0x00\n        /* \"contracts/proposal2.sol\":386:393  counter */\n      sload(0x01)\n        /* \"contracts/proposal2.sol\":369:394  proposal_history[counter] */\n      dup2\n      mstore\n      0x20\n      add\n      swap1\n      dup2\n      mstore\n      0x20\n      add\n      0x00\n      keccak256\n        /* \"contracts/proposal2.sol\":369:404  proposal_history[counter].is_active */\n      0x06\n      add\n      0x01\n      swap1\n      sload\n      swap1\n      0x0100\n      exp\n      swap1\n      div\n      0xff\n      and\n        /* \"contracts/proposal2.sol\":369:412  proposal_history[counter].is_active == true */\n      iszero\n      iszero\n      eq\n        /* \"contracts/proposal2.sol\":361:443  require(proposal_history[counter].is_active == true, \"The proposal is not active\") */\n      tag_57\n      jumpi\n      mload(0x40)\n      0x08c379a000000000000000000000000000000000000000000000000000000000\n      dup2\n      mstore\n      0x04\n      add\n      tag_58\n      swap1\n      tag_59\n      jump\t// in\n    tag_58:\n      mload(0x40)\n      dup1\n      swap2\n      sub\n      swap1\n      revert\n    tag_57:\n        /* \"contracts/proposal2.sol\":1656:1666  msg.sender */\n      caller\n        /* \"contracts/proposal2.sol\":527:544  isVoted(_address) */\n      tag_61\n        /* \"contracts/proposal2.sol\":535:543  _address */\n      dup2\n        /* \"contracts/proposal2.sol\":527:534  isVoted */\n      tag_34\n        /* \"contracts/proposal2.sol\":527:544  isVoted(_address) */\n      jump\t// in\n    tag_61:\n        /* \"contracts/proposal2.sol\":526:544  !isVoted(_address) */\n      iszero\n        /* \"contracts/proposal2.sol\":518:574  require(!isVoted(_address), \"Address has already voted\") */\n      tag_62\n      jumpi\n      mload(0x40)\n      0x08c379a000000000000000000000000000000000000000000000000000000000\n      dup2\n      mstore\n      0x04\n      add\n      tag_63\n      swap1\n      tag_64\n      jump\t// in\n    tag_63:\n      mload(0x40)\n      dup1\n      swap2\n      sub\n      swap1\n      revert\n    tag_62:\n        /* \"contracts/proposal2.sol\":1678:1703  Proposal storage proposal */\n      0x00\n        /* \"contracts/proposal2.sol\":1706:1722  proposal_history */\n      0x02\n        /* \"contracts/proposal2.sol\":1706:1731  proposal_history[counter] */\n      0x00\n        /* \"contracts/proposal2.sol\":1723:1730  counter */\n      sload(0x01)\n        /* \"contracts/proposal2.sol\":1706:1731  proposal_history[counter] */\n      dup2\n      mstore\n      0x20\n      add\n      swap1\n      dup2\n      mstore\n      0x20\n      add\n      0x00\n      keccak256\n        /* \"contracts/proposal2.sol\":1678:1731  Proposal storage proposal = proposal_history[counter] */\n      swap1\n      pop\n        /* \"contracts/proposal2.sol\":1742:1760  uint256 total_vote */\n      0x00\n        /* \"contracts/proposal2.sol\":1800:1808  proposal */\n      dup2\n        /* \"contracts/proposal2.sol\":1800:1813  proposal.pass */\n      0x04\n      add\n      sload\n        /* \"contracts/proposal2.sol\":1782:1790  proposal */\n      dup3\n        /* \"contracts/proposal2.sol\":1782:1797  proposal.reject */\n      0x03\n      add\n      sload\n        /* \"contracts/proposal2.sol\":1763:1771  proposal */\n      dup4\n        /* \"contracts/proposal2.sol\":1763:1779  proposal.approve */\n      0x02\n      add\n      sload\n        /* \"contracts/proposal2.sol\":1763:1797  proposal.approve + proposal.reject */\n      tag_66\n      swap2\n      swap1\n      tag_67\n      jump\t// in\n    tag_66:\n        /* \"contracts/proposal2.sol\":1763:1813  proposal.approve + proposal.reject + proposal.pass */\n      tag_68\n      swap2\n      swap1\n      tag_67\n      jump\t// in\n    tag_68:\n        /* \"contracts/proposal2.sol\":1742:1813  uint256 total_vote = proposal.approve + proposal.reject + proposal.pass */\n      swap1\n      pop\n        /* \"contracts/proposal2.sol\":1826:1841  voted_addresses */\n      0x03\n        /* \"contracts/proposal2.sol\":1847:1857  msg.sender */\n      caller\n        /* \"contracts/proposal2.sol\":1826:1858  voted_addresses.push(msg.sender) */\n      swap1\n      dup1\n      0x01\n      dup2\n      sload\n      add\n      dup1\n      dup3\n      sstore\n      dup1\n      swap2\n      pop\n      pop\n      0x01\n      swap1\n      sub\n      swap1\n      0x00\n      mstore\n      keccak256(0x00, 0x20)\n      add\n      0x00\n      swap1\n      swap2\n      swap1\n      swap2\n      swap1\n      swap2\n      0x0100\n      exp\n      dup2\n      sload\n      dup2\n      0xffffffffffffffffffffffffffffffffffffffff\n      mul\n      not\n      and\n      swap1\n      dup4\n      0xffffffffffffffffffffffffffffffffffffffff\n      and\n      mul\n      or\n      swap1\n      sstore\n      pop\n        /* \"contracts/proposal2.sol\":1885:1886  1 */\n      0x01\n        /* \"contracts/proposal2.sol\":1875:1881  choice */\n      dup5\n        /* \"contracts/proposal2.sol\":1875:1886  choice == 1 */\n      0xff\n      and\n      sub\n        /* \"contracts/proposal2.sol\":1871:2263  if (choice == 1) {... */\n      tag_70\n      jumpi\n        /* \"contracts/proposal2.sol\":1923:1924  1 */\n      0x01\n        /* \"contracts/proposal2.sol\":1903:1911  proposal */\n      dup3\n        /* \"contracts/proposal2.sol\":1903:1919  proposal.approve */\n      0x02\n      add\n      0x00\n        /* \"contracts/proposal2.sol\":1903:1924  proposal.approve += 1 */\n      dup3\n      dup3\n      sload\n      tag_71\n      swap2\n      swap1\n      tag_67\n      jump\t// in\n    tag_71:\n      swap3\n      pop\n      pop\n      dup2\n      swap1\n      sstore\n      pop\n        /* \"contracts/proposal2.sol\":1964:1987  calculateCurrentState() */\n      tag_72\n        /* \"contracts/proposal2.sol\":1964:1985  calculateCurrentState */\n      tag_73\n        /* \"contracts/proposal2.sol\":1964:1987  calculateCurrentState() */\n      jump\t// in\n    tag_72:\n        /* \"contracts/proposal2.sol\":1939:1947  proposal */\n      dup3\n        /* \"contracts/proposal2.sol\":1939:1961  proposal.current_state */\n      0x06\n      add\n      0x00\n        /* \"contracts/proposal2.sol\":1939:1987  proposal.current_state = calculateCurrentState() */\n      0x0100\n      exp\n      dup2\n      sload\n      dup2\n      0xff\n      mul\n      not\n      and\n      swap1\n      dup4\n      iszero\n      iszero\n      mul\n      or\n      swap1\n      sstore\n      pop\n        /* \"contracts/proposal2.sol\":1871:2263  if (choice == 1) {... */\n      jump(tag_74)\n    tag_70:\n        /* \"contracts/proposal2.sol\":2019:2020  2 */\n      0x02\n        /* \"contracts/proposal2.sol\":2009:2015  choice */\n      dup5\n        /* \"contracts/proposal2.sol\":2009:2020  choice == 2 */\n      0xff\n      and\n      sub\n        /* \"contracts/proposal2.sol\":2005:2263  if (choice == 2) {... */\n      tag_75\n      jumpi\n        /* \"contracts/proposal2.sol\":2056:2057  1 */\n      0x01\n        /* \"contracts/proposal2.sol\":2037:2045  proposal */\n      dup3\n        /* \"contracts/proposal2.sol\":2037:2052  proposal.reject */\n      0x03\n      add\n      0x00\n        /* \"contracts/proposal2.sol\":2037:2057  proposal.reject += 1 */\n      dup3\n      dup3\n      sload\n      tag_76\n      swap2\n      swap1\n      tag_67\n      jump\t// in\n    tag_76:\n      swap3\n      pop\n      pop\n      dup2\n      swap1\n      sstore\n      pop\n        /* \"contracts/proposal2.sol\":2097:2120  calculateCurrentState() */\n      tag_77\n        /* \"contracts/proposal2.sol\":2097:2118  calculateCurrentState */\n      tag_73\n        /* \"contracts/proposal2.sol\":2097:2120  calculateCurrentState() */\n      jump\t// in\n    tag_77:\n        /* \"contracts/proposal2.sol\":2072:2080  proposal */\n      dup3\n        /* \"contracts/proposal2.sol\":2072:2094  proposal.current_state */\n      0x06\n      add\n      0x00\n        /* \"contracts/proposal2.sol\":2072:2120  proposal.current_state = calculateCurrentState() */\n      0x0100\n      exp\n      dup2\n      sload\n      dup2\n      0xff\n      mul\n      not\n      and\n      swap1\n      dup4\n      iszero\n      iszero\n      mul\n      or\n      swap1\n      sstore\n      pop\n        /* \"contracts/proposal2.sol\":2005:2263  if (choice == 2) {... */\n      jump(tag_78)\n    tag_75:\n        /* \"contracts/proposal2.sol\":2152:2153  0 */\n      0x00\n        /* \"contracts/proposal2.sol\":2142:2148  choice */\n      dup5\n        /* \"contracts/proposal2.sol\":2142:2153  choice == 0 */\n      0xff\n      and\n      sub\n        /* \"contracts/proposal2.sol\":2138:2263  if (choice == 0) {... */\n      tag_79\n      jumpi\n        /* \"contracts/proposal2.sol\":2187:2188  1 */\n      0x01\n        /* \"contracts/proposal2.sol\":2170:2178  proposal */\n      dup3\n        /* \"contracts/proposal2.sol\":2170:2183  proposal.pass */\n      0x04\n      add\n      0x00\n        /* \"contracts/proposal2.sol\":2170:2188  proposal.pass += 1 */\n      dup3\n      dup3\n      sload\n      tag_80\n      swap2\n      swap1\n      tag_67\n      jump\t// in\n    tag_80:\n      swap3\n      pop\n      pop\n      dup2\n      swap1\n      sstore\n      pop\n        /* \"contracts/proposal2.sol\":2228:2251  calculateCurrentState() */\n      tag_81\n        /* \"contracts/proposal2.sol\":2228:2249  calculateCurrentState */\n      tag_73\n        /* \"contracts/proposal2.sol\":2228:2251  calculateCurrentState() */\n      jump\t// in\n    tag_81:\n        /* \"contracts/proposal2.sol\":2203:2211  proposal */\n      dup3\n        /* \"contracts/proposal2.sol\":2203:2225  proposal.current_state */\n      0x06\n      add\n      0x00\n        /* \"contracts/proposal2.sol\":2203:2251  proposal.current_state = calculateCurrentState() */\n      0x0100\n      exp\n      dup2\n      sload\n      dup2\n      0xff\n      mul\n      not\n      and\n      swap1\n      dup4\n      iszero\n      iszero\n      mul\n      or\n      swap1\n      sstore\n      pop\n        /* \"contracts/proposal2.sol\":2138:2263  if (choice == 0) {... */\n    tag_79:\n        /* \"contracts/proposal2.sol\":2005:2263  if (choice == 2) {... */\n    tag_78:\n        /* \"contracts/proposal2.sol\":1871:2263  if (choice == 1) {... */\n    tag_74:\n        /* \"contracts/proposal2.sol\":2323:2324  1 */\n      0x01\n        /* \"contracts/proposal2.sol\":2309:2319  total_vote */\n      dup2\n        /* \"contracts/proposal2.sol\":2280:2288  proposal */\n      dup4\n        /* \"contracts/proposal2.sol\":2280:2306  proposal.total_vote_to_end */\n      0x05\n      add\n      sload\n        /* \"contracts/proposal2.sol\":2280:2319  proposal.total_vote_to_end - total_vote */\n      tag_82\n      swap2\n      swap1\n      tag_83\n      jump\t// in\n    tag_82:\n        /* \"contracts/proposal2.sol\":2280:2324  proposal.total_vote_to_end - total_vote == 1 */\n      eq\n        /* \"contracts/proposal2.sol\":2279:2372  (proposal.total_vote_to_end - total_vote == 1) && (choice == 1 || choice == 2 || choice == 0) */\n      dup1\n      iszero\n      tag_84\n      jumpi\n      pop\n        /* \"contracts/proposal2.sol\":2340:2341  1 */\n      0x01\n        /* \"contracts/proposal2.sol\":2330:2336  choice */\n      dup5\n        /* \"contracts/proposal2.sol\":2330:2341  choice == 1 */\n      0xff\n      and\n      eq\n        /* \"contracts/proposal2.sol\":2330:2356  choice == 1 || choice == 2 */\n      dup1\n      tag_85\n      jumpi\n      pop\n        /* \"contracts/proposal2.sol\":2355:2356  2 */\n      0x02\n        /* \"contracts/proposal2.sol\":2345:2351  choice */\n      dup5\n        /* \"contracts/proposal2.sol\":2345:2356  choice == 2 */\n      0xff\n      and\n      eq\n        /* \"contracts/proposal2.sol\":2330:2356  choice == 1 || choice == 2 */\n    tag_85:\n        /* \"contracts/proposal2.sol\":2330:2371  choice == 1 || choice == 2 || choice == 0 */\n      dup1\n      tag_86\n      jumpi\n      pop\n        /* \"contracts/proposal2.sol\":2370:2371  0 */\n      0x00\n        /* \"contracts/proposal2.sol\":2360:2366  choice */\n      dup5\n        /* \"contracts/proposal2.sol\":2360:2371  choice == 0 */\n      0xff\n      and\n      eq\n        /* \"contracts/proposal2.sol\":2330:2371  choice == 1 || choice == 2 || choice == 0 */\n    tag_86:\n        /* \"contracts/proposal2.sol\":2279:2372  (proposal.total_vote_to_end - total_vote == 1) && (choice == 1 || choice == 2 || choice == 0) */\n    tag_84:\n        /* \"contracts/proposal2.sol\":2275:2467  if ((proposal.total_vote_to_end - total_vote == 1) && (choice == 1 || choice == 2 || choice == 0)) {... */\n      iszero\n      tag_87\n      jumpi\n        /* \"contracts/proposal2.sol\":2410:2415  false */\n      0x00\n        /* \"contracts/proposal2.sol\":2389:2397  proposal */\n      dup3\n        /* \"contracts/proposal2.sol\":2389:2407  proposal.is_active */\n      0x06\n      add\n      0x01\n        /* \"contracts/proposal2.sol\":2389:2415  proposal.is_active = false */\n      0x0100\n      exp\n      dup2\n      sload\n      dup2\n      0xff\n      mul\n      not\n      and\n      swap1\n      dup4\n      iszero\n      iszero\n      mul\n      or\n      swap1\n      sstore\n      pop\n        /* \"contracts/proposal2.sol\":2430:2455  voted_addresses = [owner] */\n      mload(0x40)\n      dup1\n      0x20\n      add\n      0x40\n      mstore\n      dup1\n        /* \"contracts/proposal2.sol\":2449:2454  owner */\n      0x00\n      dup1\n      sload\n      swap1\n      0x0100\n      exp\n      swap1\n      div\n      0xffffffffffffffffffffffffffffffffffffffff\n      and\n        /* \"contracts/proposal2.sol\":2430:2455  voted_addresses = [owner] */\n      0xffffffffffffffffffffffffffffffffffffffff\n      and\n      0xffffffffffffffffffffffffffffffffffffffff\n      and\n      dup2\n      mstore\n      pop\n        /* \"contracts/proposal2.sol\":2430:2445  voted_addresses */\n      0x03\n        /* \"contracts/proposal2.sol\":2430:2455  voted_addresses = [owner] */\n      swap1\n      0x01\n      tag_88\n      swap3\n      swap2\n      swap1\n      tag_89\n      jump\t// in\n    tag_88:\n      pop\n        /* \"contracts/proposal2.sol\":2275:2467  if ((proposal.total_vote_to_end - total_vote == 1) && (choice == 1 || choice == 2 || choice == 0)) {... */\n    tag_87:\n        /* \"contracts/proposal2.sol\":1667:2474  {... */\n      pop\n      pop\n        /* \"contracts/proposal2.sol\":454:455  _ */\n      pop\n        /* \"contracts/proposal2.sol\":1603:2474  function vote(uint8 choice) external active newVoter(msg.sender){... */\n      pop\n      jump\t// out\n        /* \"contracts/proposal2.sol\":2990:3560  function create_proposal(string memory title, string memory description, uint256 total_vote_to_end) external onlyOwner {... */\n    tag_26:\n        /* \"contracts/proposal2.sol\":298:303  owner */\n      0x00\n      dup1\n      sload\n      swap1\n      0x0100\n      exp\n      swap1\n      div\n      0xffffffffffffffffffffffffffffffffffffffff\n      and\n        /* \"contracts/proposal2.sol\":284:303  msg.sender == owner */\n      0xffffffffffffffffffffffffffffffffffffffff\n      and\n        /* \"contracts/proposal2.sol\":284:294  msg.sender */\n      caller\n        /* \"contracts/proposal2.sol\":284:303  msg.sender == owner */\n      0xffffffffffffffffffffffffffffffffffffffff\n      and\n      eq\n        /* \"contracts/proposal2.sol\":276:304  require(msg.sender == owner) */\n      tag_91\n      jumpi\n      0x00\n      dup1\n      revert\n    tag_91:\n        /* \"contracts/proposal2.sol\":3120:3148  Proposal storage newProposal */\n      0x00\n        /* \"contracts/proposal2.sol\":3151:3167  proposal_history */\n      0x02\n        /* \"contracts/proposal2.sol\":3151:3176  proposal_history[counter] */\n      0x00\n        /* \"contracts/proposal2.sol\":3168:3175  counter */\n      sload(0x01)\n        /* \"contracts/proposal2.sol\":3151:3176  proposal_history[counter] */\n      dup2\n      mstore\n      0x20\n      add\n      swap1\n      dup2\n      mstore\n      0x20\n      add\n      0x00\n      keccak256\n        /* \"contracts/proposal2.sol\":3120:3176  Proposal storage newProposal = proposal_history[counter] */\n      swap1\n      pop\n        /* \"contracts/proposal2.sol\":3187:3194  counter */\n      0x01\n      0x00\n        /* \"contracts/proposal2.sol\":3187:3196  counter++ */\n      dup2\n      sload\n      dup1\n      swap3\n      swap2\n      swap1\n      tag_93\n      swap1\n      tag_94\n      jump\t// in\n    tag_93:\n      swap2\n      swap1\n      pop\n      sstore\n      pop\n        /* \"contracts/proposal2.sol\":3259:3264  title */\n      dup4\n        /* \"contracts/proposal2.sol\":3239:3250  newProposal */\n      dup2\n        /* \"contracts/proposal2.sol\":3239:3256  newProposal.title */\n      0x00\n      add\n        /* \"contracts/proposal2.sol\":3239:3264  newProposal.title = title */\n      swap1\n      dup2\n      tag_95\n      swap2\n      swap1\n      tag_96\n      jump\t// in\n    tag_95:\n      pop\n        /* \"contracts/proposal2.sol\":3301:3312  description */\n      dup3\n        /* \"contracts/proposal2.sol\":3275:3286  newProposal */\n      dup2\n        /* \"contracts/proposal2.sol\":3275:3298  newProposal.description */\n      0x01\n      add\n        /* \"contracts/proposal2.sol\":3275:3312  newProposal.description = description */\n      swap1\n      dup2\n      tag_97\n      swap2\n      swap1\n      tag_96\n      jump\t// in\n    tag_97:\n      pop\n        /* \"contracts/proposal2.sol\":3345:3346  0 */\n      0x00\n        /* \"contracts/proposal2.sol\":3323:3334  newProposal */\n      dup2\n        /* \"contracts/proposal2.sol\":3323:3342  newProposal.approve */\n      0x02\n      add\n        /* \"contracts/proposal2.sol\":3323:3346  newProposal.approve = 0 */\n      dup2\n      swap1\n      sstore\n      pop\n        /* \"contracts/proposal2.sol\":3378:3379  0 */\n      0x00\n        /* \"contracts/proposal2.sol\":3357:3368  newProposal */\n      dup2\n        /* \"contracts/proposal2.sol\":3357:3375  newProposal.reject */\n      0x03\n      add\n        /* \"contracts/proposal2.sol\":3357:3379  newProposal.reject = 0 */\n      dup2\n      swap1\n      sstore\n      pop\n        /* \"contracts/proposal2.sol\":3409:3410  0 */\n      0x00\n        /* \"contracts/proposal2.sol\":3390:3401  newProposal */\n      dup2\n        /* \"contracts/proposal2.sol\":3390:3406  newProposal.pass */\n      0x04\n      add\n        /* \"contracts/proposal2.sol\":3390:3410  newProposal.pass = 0 */\n      dup2\n      swap1\n      sstore\n      pop\n        /* \"contracts/proposal2.sol\":3453:3470  total_vote_to_end */\n      dup2\n        /* \"contracts/proposal2.sol\":3421:3432  newProposal */\n      dup2\n        /* \"contracts/proposal2.sol\":3421:3450  newProposal.total_vote_to_end */\n      0x05\n      add\n        /* \"contracts/proposal2.sol\":3421:3470  newProposal.total_vote_to_end = total_vote_to_end */\n      dup2\n      swap1\n      sstore\n      pop\n        /* \"contracts/proposal2.sol\":3509:3513  true */\n      0x01\n        /* \"contracts/proposal2.sol\":3481:3492  newProposal */\n      dup2\n        /* \"contracts/proposal2.sol\":3481:3506  newProposal.current_state */\n      0x06\n      add\n      0x00\n        /* \"contracts/proposal2.sol\":3481:3513  newProposal.current_state = true */\n      0x0100\n      exp\n      dup2\n      sload\n      dup2\n      0xff\n      mul\n      not\n      and\n      swap1\n      dup4\n      iszero\n      iszero\n      mul\n      or\n      swap1\n      sstore\n      pop\n        /* \"contracts/proposal2.sol\":3548:3552  true */\n      0x01\n        /* \"contracts/proposal2.sol\":3524:3535  newProposal */\n      dup2\n        /* \"contracts/proposal2.sol\":3524:3545  newProposal.is_active */\n      0x06\n      add\n      0x01\n        /* \"contracts/proposal2.sol\":3524:3552  newProposal.is_active = true */\n      0x0100\n      exp\n      dup2\n      sload\n      dup2\n      0xff\n      mul\n      not\n      and\n      swap1\n      dup4\n      iszero\n      iszero\n      mul\n      or\n      swap1\n      sstore\n      pop\n        /* \"contracts/proposal2.sol\":3109:3560  {... */\n      pop\n        /* \"contracts/proposal2.sol\":2990:3560  function create_proposal(string memory title, string memory description, uint256 total_vote_to_end) external onlyOwner {... */\n      pop\n      pop\n      pop\n      jump\t// out\n        /* \"contracts/proposal2.sol\":1469:1595  function getProposal(uint256 number) external view returns(Proposal memory) {... */\n    tag_30:\n        /* \"contracts/proposal2.sol\":1528:1543  Proposal memory */\n      tag_98\n      tag_43\n      jump\t// in\n    tag_98:\n        /* \"contracts/proposal2.sol\":1563:1579  proposal_history */\n      0x02\n        /* \"contracts/proposal2.sol\":1563:1587  proposal_history[number] */\n      0x00\n        /* \"contracts/proposal2.sol\":1580:1586  number */\n      dup4\n        /* \"contracts/proposal2.sol\":1563:1587  proposal_history[number] */\n      dup2\n      mstore\n      0x20\n      add\n      swap1\n      dup2\n      mstore\n      0x20\n      add\n      0x00\n      keccak256\n        /* \"contracts/proposal2.sol\":1556:1587  return proposal_history[number] */\n      mload(0x40)\n      dup1\n      0x0100\n      add\n      0x40\n      mstore\n      swap1\n      dup2\n      0x00\n      dup3\n      add\n      dup1\n      sload\n      tag_100\n      swap1\n      tag_46\n      jump\t// in\n    tag_100:\n      dup1\n      0x1f\n      add\n      0x20\n      dup1\n      swap2\n      div\n      mul\n      0x20\n      add\n      mload(0x40)\n      swap1\n      dup2\n      add\n      0x40\n      mstore\n      dup1\n      swap3\n      swap2\n      swap1\n      dup2\n      dup2\n      mstore\n      0x20\n      add\n      dup3\n      dup1\n      sload\n      tag_101\n      swap1\n      tag_46\n      jump\t// in\n    tag_101:\n      dup1\n      iszero\n      tag_102\n      jumpi\n      dup1\n      0x1f\n      lt\n      tag_103\n      jumpi\n      0x0100\n      dup1\n      dup4\n      sload\n      div\n      mul\n      dup4\n      mstore\n      swap2\n      0x20\n      add\n      swap2\n      jump(tag_102)\n    tag_103:\n      dup3\n      add\n      swap2\n      swap1\n      0x00\n      mstore\n      keccak256(0x00, 0x20)\n      swap1\n    tag_104:\n      dup2\n      sload\n      dup2\n      mstore\n      swap1\n      0x01\n      add\n      swap1\n      0x20\n      add\n      dup1\n      dup4\n      gt\n      tag_104\n      jumpi\n      dup3\n      swap1\n      sub\n      0x1f\n      and\n      dup3\n      add\n      swap2\n    tag_102:\n      pop\n      pop\n      pop\n      pop\n      pop\n      dup2\n      mstore\n      0x20\n      add\n      0x01\n      dup3\n      add\n      dup1\n      sload\n      tag_105\n      swap1\n      tag_46\n      jump\t// in\n    tag_105:\n      dup1\n      0x1f\n      add\n      0x20\n      dup1\n      swap2\n      div\n      mul\n      0x20\n      add\n      mload(0x40)\n      swap1\n      dup2\n      add\n      0x40\n      mstore\n      dup1\n      swap3\n      swap2\n      swap1\n      dup2\n      dup2\n      mstore\n      0x20\n      add\n      dup3\n      dup1\n      sload\n      tag_106\n      swap1\n      tag_46\n      jump\t// in\n    tag_106:\n      dup1\n      iszero\n      tag_107\n      jumpi\n      dup1\n      0x1f\n      lt\n      tag_108\n      jumpi\n      0x0100\n      dup1\n      dup4\n      sload\n      div\n      mul\n      dup4\n      mstore\n      swap2\n      0x20\n      add\n      swap2\n      jump(tag_107)\n    tag_108:\n      dup3\n      add\n      swap2\n      swap1\n      0x00\n      mstore\n      keccak256(0x00, 0x20)\n      swap1\n    tag_109:\n      dup2\n      sload\n      dup2\n      mstore\n      swap1\n      0x01\n      add\n      swap1\n      0x20\n      add\n      dup1\n      dup4\n      gt\n      tag_109\n      jumpi\n      dup3\n      swap1\n      sub\n      0x1f\n      and\n      dup3\n      add\n      swap2\n    tag_107:\n      pop\n      pop\n      pop\n      pop\n      pop\n      dup2\n      mstore\n      0x20\n      add\n      0x02\n      dup3\n      add\n      sload\n      dup2\n      mstore\n      0x20\n      add\n      0x03\n      dup3\n      add\n      sload\n      dup2\n      mstore\n      0x20\n      add\n      0x04\n      dup3\n      add\n      sload\n      dup2\n      mstore\n      0x20\n      add\n      0x05\n      dup3\n      add\n      sload\n      dup2\n      mstore\n      0x20\n      add\n      0x06\n      dup3\n      add\n      0x00\n      swap1\n      sload\n      swap1\n      0x0100\n      exp\n      swap1\n      div\n      0xff\n      and\n      iszero\n      iszero\n      iszero\n      iszero\n      dup2\n      mstore\n      0x20\n      add\n      0x06\n      dup3\n      add\n      0x01\n      swap1\n      sload\n      swap1\n      0x0100\n      exp\n      swap1\n      div\n      0xff\n      and\n      iszero\n      iszero\n      iszero\n      iszero\n      dup2\n      mstore\n      pop\n      pop\n      swap1\n      pop\n        /* \"contracts/proposal2.sol\":1469:1595  function getProposal(uint256 number) external view returns(Proposal memory) {... */\n      swap2\n      swap1\n      pop\n      jump\t// out\n        /* \"contracts/proposal2.sol\":1072:1333  function isVoted(address _address) public view returns (bool) {... */\n    tag_34:\n        /* \"contracts/proposal2.sol\":1128:1132  bool */\n      0x00\n        /* \"contracts/proposal2.sol\":1150:1156  uint i */\n      dup1\n        /* \"contracts/proposal2.sol\":1159:1160  0 */\n      0x00\n        /* \"contracts/proposal2.sol\":1150:1160  uint i = 0 */\n      swap1\n      pop\n        /* \"contracts/proposal2.sol\":1145:1303  for (uint i = 0; i < voted_addresses.length; i++) {... */\n    tag_111:\n        /* \"contracts/proposal2.sol\":1166:1181  voted_addresses */\n      0x03\n        /* \"contracts/proposal2.sol\":1166:1188  voted_addresses.length */\n      dup1\n      sload\n      swap1\n      pop\n        /* \"contracts/proposal2.sol\":1162:1163  i */\n      dup2\n        /* \"contracts/proposal2.sol\":1162:1188  i < voted_addresses.length */\n      lt\n        /* \"contracts/proposal2.sol\":1145:1303  for (uint i = 0; i < voted_addresses.length; i++) {... */\n      iszero\n      tag_112\n      jumpi\n        /* \"contracts/proposal2.sol\":1236:1244  _address */\n      dup3\n        /* \"contracts/proposal2.sol\":1214:1244  voted_addresses[i] == _address */\n      0xffffffffffffffffffffffffffffffffffffffff\n      and\n        /* \"contracts/proposal2.sol\":1214:1229  voted_addresses */\n      0x03\n        /* \"contracts/proposal2.sol\":1230:1231  i */\n      dup3\n        /* \"contracts/proposal2.sol\":1214:1232  voted_addresses[i] */\n      dup2\n      sload\n      dup2\n      lt\n      tag_114\n      jumpi\n      tag_115\n      tag_116\n      jump\t// in\n    tag_115:\n    tag_114:\n      swap1\n      0x00\n      mstore\n      keccak256(0x00, 0x20)\n      add\n      0x00\n      swap1\n      sload\n      swap1\n      0x0100\n      exp\n      swap1\n      div\n      0xffffffffffffffffffffffffffffffffffffffff\n      and\n        /* \"contracts/proposal2.sol\":1214:1244  voted_addresses[i] == _address */\n      0xffffffffffffffffffffffffffffffffffffffff\n      and\n      sub\n        /* \"contracts/proposal2.sol\":1210:1292  if (voted_addresses[i] == _address) {... */\n      tag_118\n      jumpi\n        /* \"contracts/proposal2.sol\":1272:1276  true */\n      0x01\n        /* \"contracts/proposal2.sol\":1265:1276  return true */\n      swap2\n      pop\n      pop\n      jump(tag_110)\n        /* \"contracts/proposal2.sol\":1210:1292  if (voted_addresses[i] == _address) {... */\n    tag_118:\n        /* \"contracts/proposal2.sol\":1190:1193  i++ */\n      dup1\n      dup1\n      0x01\n      add\n      swap2\n      pop\n      pop\n        /* \"contracts/proposal2.sol\":1145:1303  for (uint i = 0; i < voted_addresses.length; i++) {... */\n      jump(tag_111)\n    tag_112:\n      pop\n        /* \"contracts/proposal2.sol\":1320:1325  false */\n      0x00\n        /* \"contracts/proposal2.sol\":1313:1325  return false */\n      swap1\n      pop\n        /* \"contracts/proposal2.sol\":1072:1333  function isVoted(address _address) public view returns (bool) {... */\n    tag_110:\n      swap2\n      swap1\n      pop\n      jump\t// out\n        /* \"contracts/proposal2.sol\":946:1064  function terminateProposal() external onlyOwner active(){... */\n    tag_38:\n        /* \"contracts/proposal2.sol\":298:303  owner */\n      0x00\n      dup1\n      sload\n      swap1\n      0x0100\n      exp\n      swap1\n      div\n      0xffffffffffffffffffffffffffffffffffffffff\n      and\n        /* \"contracts/proposal2.sol\":284:303  msg.sender == owner */\n      0xffffffffffffffffffffffffffffffffffffffff\n      and\n        /* \"contracts/proposal2.sol\":284:294  msg.sender */\n      caller\n        /* \"contracts/proposal2.sol\":284:303  msg.sender == owner */\n      0xffffffffffffffffffffffffffffffffffffffff\n      and\n      eq\n        /* \"contracts/proposal2.sol\":276:304  require(msg.sender == owner) */\n      tag_120\n      jumpi\n      0x00\n      dup1\n      revert\n    tag_120:\n        /* \"contracts/proposal2.sol\":408:412  true */\n      0x01\n        /* \"contracts/proposal2.sol\":369:412  proposal_history[counter].is_active == true */\n      iszero\n      iszero\n        /* \"contracts/proposal2.sol\":369:385  proposal_history */\n      0x02\n        /* \"contracts/proposal2.sol\":369:394  proposal_history[counter] */\n      0x00\n        /* \"contracts/proposal2.sol\":386:393  counter */\n      sload(0x01)\n        /* \"contracts/proposal2.sol\":369:394  proposal_history[counter] */\n      dup2\n      mstore\n      0x20\n      add\n      swap1\n      dup2\n      mstore\n      0x20\n      add\n      0x00\n      keccak256\n        /* \"contracts/proposal2.sol\":369:404  proposal_history[counter].is_active */\n      0x06\n      add\n      0x01\n      swap1\n      sload\n      swap1\n      0x0100\n      exp\n      swap1\n      div\n      0xff\n      and\n        /* \"contracts/proposal2.sol\":369:412  proposal_history[counter].is_active == true */\n      iszero\n      iszero\n      eq\n        /* \"contracts/proposal2.sol\":361:443  require(proposal_history[counter].is_active == true, \"The proposal is not active\") */\n      tag_122\n      jumpi\n      mload(0x40)\n      0x08c379a000000000000000000000000000000000000000000000000000000000\n      dup2\n      mstore\n      0x04\n      add\n      tag_123\n      swap1\n      tag_59\n      jump\t// in\n    tag_123:\n      mload(0x40)\n      dup1\n      swap2\n      sub\n      swap1\n      revert\n    tag_122:\n        /* \"contracts/proposal2.sol\":1051:1056  false */\n      0x00\n        /* \"contracts/proposal2.sol\":1013:1029  proposal_history */\n      0x02\n        /* \"contracts/proposal2.sol\":1013:1038  proposal_history[counter] */\n      0x00\n        /* \"contracts/proposal2.sol\":1030:1037  counter */\n      sload(0x01)\n        /* \"contracts/proposal2.sol\":1013:1038  proposal_history[counter] */\n      dup2\n      mstore\n      0x20\n      add\n      swap1\n      dup2\n      mstore\n      0x20\n      add\n      0x00\n      keccak256\n        /* \"contracts/proposal2.sol\":1013:1048  proposal_history[counter].is_active */\n      0x06\n      add\n      0x01\n        /* \"contracts/proposal2.sol\":1013:1056  proposal_history[counter].is_active = false */\n      0x0100\n      exp\n      dup2\n      sload\n      dup2\n      0xff\n      mul\n      not\n      and\n      swap1\n      dup4\n      iszero\n      iszero\n      mul\n      or\n      swap1\n      sstore\n      pop\n        /* \"contracts/proposal2.sol\":946:1064  function terminateProposal() external onlyOwner active(){... */\n      jump\t// out\n        /* \"contracts/proposal2.sol\":2482:2982  function calculateCurrentState() private view returns(bool) {... */\n    tag_73:\n        /* \"contracts/proposal2.sol\":2536:2540  bool */\n      0x00\n        /* \"contracts/proposal2.sol\":2553:2578  Proposal storage proposal */\n      dup1\n        /* \"contracts/proposal2.sol\":2581:2597  proposal_history */\n      0x02\n        /* \"contracts/proposal2.sol\":2581:2606  proposal_history[counter] */\n      0x00\n        /* \"contracts/proposal2.sol\":2598:2605  counter */\n      sload(0x01)\n        /* \"contracts/proposal2.sol\":2581:2606  proposal_history[counter] */\n      dup2\n      mstore\n      0x20\n      add\n      swap1\n      dup2\n      mstore\n      0x20\n      add\n      0x00\n      keccak256\n        /* \"contracts/proposal2.sol\":2553:2606  Proposal storage proposal = proposal_history[counter] */\n      swap1\n      pop\n        /* \"contracts/proposal2.sol\":2619:2634  uint256 approve */\n      0x00\n        /* \"contracts/proposal2.sol\":2637:2645  proposal */\n      dup2\n        /* \"contracts/proposal2.sol\":2637:2653  proposal.approve */\n      0x02\n      add\n      sload\n        /* \"contracts/proposal2.sol\":2619:2653  uint256 approve = proposal.approve */\n      swap1\n      pop\n        /* \"contracts/proposal2.sol\":2664:2678  uint256 reject */\n      0x00\n        /* \"contracts/proposal2.sol\":2681:2689  proposal */\n      dup3\n        /* \"contracts/proposal2.sol\":2681:2696  proposal.reject */\n      0x03\n      add\n      sload\n        /* \"contracts/proposal2.sol\":2664:2696  uint256 reject = proposal.reject */\n      swap1\n      pop\n        /* \"contracts/proposal2.sol\":2707:2719  uint256 pass */\n      0x00\n        /* \"contracts/proposal2.sol\":2722:2730  proposal */\n      dup4\n        /* \"contracts/proposal2.sol\":2722:2735  proposal.pass */\n      0x04\n      add\n      sload\n        /* \"contracts/proposal2.sol\":2707:2735  uint256 pass = proposal.pass */\n      swap1\n      pop\n        /* \"contracts/proposal2.sol\":2784:2785  1 */\n      0x01\n        /* \"contracts/proposal2.sol\":2779:2780  2 */\n      0x02\n        /* \"contracts/proposal2.sol\":2764:2772  proposal */\n      dup6\n        /* \"contracts/proposal2.sol\":2764:2777  proposal.pass */\n      0x04\n      add\n      sload\n        /* \"contracts/proposal2.sol\":2764:2780  proposal.pass %2 */\n      tag_126\n      swap2\n      swap1\n      tag_127\n      jump\t// in\n    tag_126:\n        /* \"contracts/proposal2.sol\":2764:2785  proposal.pass %2 == 1 */\n      sub\n        /* \"contracts/proposal2.sol\":2760:2823  if (proposal.pass %2 == 1) {... */\n      tag_128\n      jumpi\n        /* \"contracts/proposal2.sol\":2810:2811  1 */\n      0x01\n        /* \"contracts/proposal2.sol\":2802:2811  pass += 1 */\n      dup2\n      tag_129\n      swap2\n      swap1\n      tag_67\n      jump\t// in\n    tag_129:\n      swap1\n      pop\n        /* \"contracts/proposal2.sol\":2760:2823  if (proposal.pass %2 == 1) {... */\n    tag_128:\n        /* \"contracts/proposal2.sol\":2849:2850  2 */\n      0x02\n        /* \"contracts/proposal2.sol\":2842:2846  pass */\n      dup2\n        /* \"contracts/proposal2.sol\":2842:2850  pass / 2 */\n      tag_130\n      swap2\n      swap1\n      tag_131\n      jump\t// in\n    tag_130:\n        /* \"contracts/proposal2.sol\":2835:2850  pass = pass / 2 */\n      swap1\n      pop\n        /* \"contracts/proposal2.sol\":2886:2890  pass */\n      dup1\n        /* \"contracts/proposal2.sol\":2877:2883  reject */\n      dup3\n        /* \"contracts/proposal2.sol\":2877:2890  reject + pass */\n      tag_132\n      swap2\n      swap1\n      tag_67\n      jump\t// in\n    tag_132:\n        /* \"contracts/proposal2.sol\":2867:2874  approve */\n      dup4\n        /* \"contracts/proposal2.sol\":2867:2890  approve > reject + pass */\n      gt\n        /* \"contracts/proposal2.sol\":2863:2975  if (approve > reject + pass) {... */\n      iszero\n      tag_133\n      jumpi\n        /* \"contracts/proposal2.sol\":2914:2918  true */\n      0x01\n        /* \"contracts/proposal2.sol\":2907:2918  return true */\n      swap5\n      pop\n      pop\n      pop\n      pop\n      pop\n      jump(tag_125)\n        /* \"contracts/proposal2.sol\":2863:2975  if (approve > reject + pass) {... */\n    tag_133:\n        /* \"contracts/proposal2.sol\":2958:2963  false */\n      0x00\n        /* \"contracts/proposal2.sol\":2951:2963  return false */\n      swap5\n      pop\n      pop\n      pop\n      pop\n      pop\n        /* \"contracts/proposal2.sol\":2482:2982  function calculateCurrentState() private view returns(bool) {... */\n    tag_125:\n      swap1\n      jump\t// out\n    tag_43:\n      mload(0x40)\n      dup1\n      0x0100\n      add\n      0x40\n      mstore\n      dup1\n      0x60\n      dup2\n      mstore\n      0x20\n      add\n      0x60\n      dup2\n      mstore\n      0x20\n      add\n      0x00\n      dup2\n      mstore\n      0x20\n      add\n      0x00\n      dup2\n      mstore\n      0x20\n      add\n      0x00\n      dup2\n      mstore\n      0x20\n      add\n      0x00\n      dup2\n      mstore\n      0x20\n      add\n      iszero(iszero(0x00))\n      dup2\n      mstore\n      0x20\n      add\n      iszero(iszero(0x00))\n      dup2\n      mstore\n      pop\n      swap1\n      jump\t// out\n    tag_89:\n      dup3\n      dup1\n      sload\n      dup3\n      dup3\n      sstore\n      swap1\n      0x00\n      mstore\n      keccak256(0x00, 0x20)\n      swap1\n      dup2\n      add\n      swap3\n      dup3\n      iszero\n      tag_135\n      jumpi\n      swap2\n      0x20\n      mul\n      dup3\n      add\n    tag_136:\n      dup3\n      dup2\n      gt\n      iszero\n      tag_137\n      jumpi\n      dup3\n      mload\n      dup3\n      exp(0x0100, 0x00)\n      dup2\n      sload\n      dup2\n      0xffffffffffffffffffffffffffffffffffffffff\n      mul\n      not\n      and\n      swap1\n      dup4\n      0xffffffffffffffffffffffffffffffffffffffff\n      and\n      mul\n      or\n      swap1\n      sstore\n      pop\n      swap2\n      0x20\n      add\n      swap2\n      swap1\n      0x01\n      add\n      swap1\n      jump(tag_136)\n    tag_137:\n    tag_135:\n      pop\n      swap1\n      pop\n      tag_138\n      swap2\n      swap1\n      tag_139\n      jump\t// in\n    tag_138:\n      pop\n      swap1\n      jump\t// out\n    tag_139:\n    tag_140:\n      dup1\n      dup3\n      gt\n      iszero\n      tag_141\n      jumpi\n      0x00\n      dup2\n      0x00\n      swap1\n      sstore\n      pop\n      0x01\n      add\n      jump(tag_140)\n    tag_141:\n      pop\n      swap1\n      jump\t// out\n        /* \"#utility.yul\":7:82   */\n    tag_142:\n        /* \"#utility.yul\":40:46   */\n      0x00\n        /* \"#utility.yul\":73:75   */\n      0x40\n        /* \"#utility.yul\":67:76   */\n      mload\n        /* \"#utility.yul\":57:76   */\n      swap1\n      pop\n        /* \"#utility.yul\":7:82   */\n      swap1\n      jump\t// out\n        /* \"#utility.yul\":88:205   */\n    tag_143:\n        /* \"#utility.yul\":197:198   */\n      0x00\n        /* \"#utility.yul\":194:195   */\n      dup1\n        /* \"#utility.yul\":187:199   */\n      revert\n        /* \"#utility.yul\":211:328   */\n    tag_144:\n        /* \"#utility.yul\":320:321   */\n      0x00\n        /* \"#utility.yul\":317:318   */\n      dup1\n        /* \"#utility.yul\":310:322   */\n      revert\n        /* \"#utility.yul\":334:460   */\n    tag_145:\n        /* \"#utility.yul\":371:378   */\n      0x00\n        /* \"#utility.yul\":411:453   */\n      0xffffffffffffffffffffffffffffffffffffffff\n        /* \"#utility.yul\":404:409   */\n      dup3\n        /* \"#utility.yul\":400:454   */\n      and\n        /* \"#utility.yul\":389:454   */\n      swap1\n      pop\n        /* \"#utility.yul\":334:460   */\n      swap2\n      swap1\n      pop\n      jump\t// out\n        /* \"#utility.yul\":466:562   */\n    tag_146:\n        /* \"#utility.yul\":503:510   */\n      0x00\n        /* \"#utility.yul\":532:556   */\n      tag_203\n        /* \"#utility.yul\":550:555   */\n      dup3\n        /* \"#utility.yul\":532:556   */\n      tag_145\n      jump\t// in\n    tag_203:\n        /* \"#utility.yul\":521:556   */\n      swap1\n      pop\n        /* \"#utility.yul\":466:562   */\n      swap2\n      swap1\n      pop\n      jump\t// out\n        /* \"#utility.yul\":568:690   */\n    tag_147:\n        /* \"#utility.yul\":641:665   */\n      tag_205\n        /* \"#utility.yul\":659:664   */\n      dup2\n        /* \"#utility.yul\":641:665   */\n      tag_146\n      jump\t// in\n    tag_205:\n        /* \"#utility.yul\":634:639   */\n      dup2\n        /* \"#utility.yul\":631:666   */\n      eq\n        /* \"#utility.yul\":621:684   */\n      tag_206\n      jumpi\n        /* \"#utility.yul\":680:681   */\n      0x00\n        /* \"#utility.yul\":677:678   */\n      dup1\n        /* \"#utility.yul\":670:682   */\n      revert\n        /* \"#utility.yul\":621:684   */\n    tag_206:\n        /* \"#utility.yul\":568:690   */\n      pop\n      jump\t// out\n        /* \"#utility.yul\":696:835   */\n    tag_148:\n        /* \"#utility.yul\":742:747   */\n      0x00\n        /* \"#utility.yul\":780:786   */\n      dup2\n        /* \"#utility.yul\":767:787   */\n      calldataload\n        /* \"#utility.yul\":758:787   */\n      swap1\n      pop\n        /* \"#utility.yul\":796:829   */\n      tag_208\n        /* \"#utility.yul\":823:828   */\n      dup2\n        /* \"#utility.yul\":796:829   */\n      tag_147\n      jump\t// in\n    tag_208:\n        /* \"#utility.yul\":696:835   */\n      swap3\n      swap2\n      pop\n      pop\n      jump\t// out\n        /* \"#utility.yul\":841:1170   */\n    tag_13:\n        /* \"#utility.yul\":900:906   */\n      0x00\n        /* \"#utility.yul\":949:951   */\n      0x20\n        /* \"#utility.yul\":937:946   */\n      dup3\n        /* \"#utility.yul\":928:935   */\n      dup5\n        /* \"#utility.yul\":924:947   */\n      sub\n        /* \"#utility.yul\":920:952   */\n      slt\n        /* \"#utility.yul\":917:1036   */\n      iszero\n      tag_210\n      jumpi\n        /* \"#utility.yul\":955:1034   */\n      tag_211\n      tag_143\n      jump\t// in\n    tag_211:\n        /* \"#utility.yul\":917:1036   */\n    tag_210:\n        /* \"#utility.yul\":1075:1076   */\n      0x00\n        /* \"#utility.yul\":1100:1153   */\n      tag_212\n        /* \"#utility.yul\":1145:1152   */\n      dup5\n        /* \"#utility.yul\":1136:1142   */\n      dup3\n        /* \"#utility.yul\":1125:1134   */\n      dup6\n        /* \"#utility.yul\":1121:1143   */\n      add\n        /* \"#utility.yul\":1100:1153   */\n      tag_148\n      jump\t// in\n    tag_212:\n        /* \"#utility.yul\":1090:1153   */\n      swap2\n      pop\n        /* \"#utility.yul\":1046:1163   */\n      pop\n        /* \"#utility.yul\":841:1170   */\n      swap3\n      swap2\n      pop\n      pop\n      jump\t// out\n        /* \"#utility.yul\":1176:1275   */\n    tag_149:\n        /* \"#utility.yul\":1228:1234   */\n      0x00\n        /* \"#utility.yul\":1262:1267   */\n      dup2\n        /* \"#utility.yul\":1256:1268   */\n      mload\n        /* \"#utility.yul\":1246:1268   */\n      swap1\n      pop\n        /* \"#utility.yul\":1176:1275   */\n      swap2\n      swap1\n      pop\n      jump\t// out\n        /* \"#utility.yul\":1281:1440   */\n    tag_150:\n        /* \"#utility.yul\":1355:1366   */\n      0x00\n        /* \"#utility.yul\":1389:1395   */\n      dup3\n        /* \"#utility.yul\":1384:1387   */\n      dup3\n        /* \"#utility.yul\":1377:1396   */\n      mstore\n        /* \"#utility.yul\":1429:1433   */\n      0x20\n        /* \"#utility.yul\":1424:1427   */\n      dup3\n        /* \"#utility.yul\":1420:1434   */\n      add\n        /* \"#utility.yul\":1405:1434   */\n      swap1\n      pop\n        /* \"#utility.yul\":1281:1440   */\n      swap3\n      swap2\n      pop\n      pop\n      jump\t// out\n        /* \"#utility.yul\":1446:1585   */\n    tag_151:\n        /* \"#utility.yul\":1535:1541   */\n      dup3\n        /* \"#utility.yul\":1530:1533   */\n      dup2\n        /* \"#utility.yul\":1525:1528   */\n      dup4\n        /* \"#utility.yul\":1519:1542   */\n      mcopy\n        /* \"#utility.yul\":1576:1577   */\n      0x00\n        /* \"#utility.yul\":1567:1573   */\n      dup4\n        /* \"#utility.yul\":1562:1565   */\n      dup4\n        /* \"#utility.yul\":1558:1574   */\n      add\n        /* \"#utility.yul\":1551:1578   */\n      mstore\n        /* \"#utility.yul\":1446:1585   */\n      pop\n      pop\n      pop\n      jump\t// out\n        /* \"#utility.yul\":1591:1693   */\n    tag_152:\n        /* \"#utility.yul\":1632:1638   */\n      0x00\n        /* \"#utility.yul\":1683:1685   */\n      0x1f\n        /* \"#utility.yul\":1679:1686   */\n      not\n        /* \"#utility.yul\":1674:1676   */\n      0x1f\n        /* \"#utility.yul\":1667:1672   */\n      dup4\n        /* \"#utility.yul\":1663:1677   */\n      add\n        /* \"#utility.yul\":1659:1687   */\n      and\n        /* \"#utility.yul\":1649:1687   */\n      swap1\n      pop\n        /* \"#utility.yul\":1591:1693   */\n      swap2\n      swap1\n      pop\n      jump\t// out\n        /* \"#utility.yul\":1699:2056   */\n    tag_153:\n        /* \"#utility.yul\":1777:1780   */\n      0x00\n        /* \"#utility.yul\":1805:1844   */\n      tag_218\n        /* \"#utility.yul\":1838:1843   */\n      dup3\n        /* \"#utility.yul\":1805:1844   */\n      tag_149\n      jump\t// in\n    tag_218:\n        /* \"#utility.yul\":1860:1921   */\n      tag_219\n        /* \"#utility.yul\":1914:1920   */\n      dup2\n        /* \"#utility.yul\":1909:1912   */\n      dup6\n        /* \"#utility.yul\":1860:1921   */\n      tag_150\n      jump\t// in\n    tag_219:\n        /* \"#utility.yul\":1853:1921   */\n      swap4\n      pop\n        /* \"#utility.yul\":1930:1995   */\n      tag_220\n        /* \"#utility.yul\":1988:1994   */\n      dup2\n        /* \"#utility.yul\":1983:1986   */\n      dup6\n        /* \"#utility.yul\":1976:1980   */\n      0x20\n        /* \"#utility.yul\":1969:1974   */\n      dup7\n        /* \"#utility.yul\":1965:1981   */\n      add\n        /* \"#utility.yul\":1930:1995   */\n      tag_151\n      jump\t// in\n    tag_220:\n        /* \"#utility.yul\":2020:2049   */\n      tag_221\n        /* \"#utility.yul\":2042:2048   */\n      dup2\n        /* \"#utility.yul\":2020:2049   */\n      tag_152\n      jump\t// in\n    tag_221:\n        /* \"#utility.yul\":2015:2018   */\n      dup5\n        /* \"#utility.yul\":2011:2050   */\n      add\n        /* \"#utility.yul\":2004:2050   */\n      swap2\n      pop\n        /* \"#utility.yul\":1781:2056   */\n      pop\n        /* \"#utility.yul\":1699:2056   */\n      swap3\n      swap2\n      pop\n      pop\n      jump\t// out\n        /* \"#utility.yul\":2062:2139   */\n    tag_154:\n        /* \"#utility.yul\":2099:2106   */\n      0x00\n        /* \"#utility.yul\":2128:2133   */\n      dup2\n        /* \"#utility.yul\":2117:2133   */\n      swap1\n      pop\n        /* \"#utility.yul\":2062:2139   */\n      swap2\n      swap1\n      pop\n      jump\t// out\n        /* \"#utility.yul\":2145:2253   */\n    tag_155:\n        /* \"#utility.yul\":2222:2246   */\n      tag_224\n        /* \"#utility.yul\":2240:2245   */\n      dup2\n        /* \"#utility.yul\":2222:2246   */\n      tag_154\n      jump\t// in\n    tag_224:\n        /* \"#utility.yul\":2217:2220   */\n      dup3\n        /* \"#utility.yul\":2210:2247   */\n      mstore\n        /* \"#utility.yul\":2145:2253   */\n      pop\n      pop\n      jump\t// out\n        /* \"#utility.yul\":2259:2349   */\n    tag_156:\n        /* \"#utility.yul\":2293:2300   */\n      0x00\n        /* \"#utility.yul\":2336:2341   */\n      dup2\n        /* \"#utility.yul\":2329:2342   */\n      iszero\n        /* \"#utility.yul\":2322:2343   */\n      iszero\n        /* \"#utility.yul\":2311:2343   */\n      swap1\n      pop\n        /* \"#utility.yul\":2259:2349   */\n      swap2\n      swap1\n      pop\n      jump\t// out\n        /* \"#utility.yul\":2355:2454   */\n    tag_157:\n        /* \"#utility.yul\":2426:2447   */\n      tag_227\n        /* \"#utility.yul\":2441:2446   */\n      dup2\n        /* \"#utility.yul\":2426:2447   */\n      tag_156\n      jump\t// in\n    tag_227:\n        /* \"#utility.yul\":2421:2424   */\n      dup3\n        /* \"#utility.yul\":2414:2448   */\n      mstore\n        /* \"#utility.yul\":2355:2454   */\n      pop\n      pop\n      jump\t// out\n        /* \"#utility.yul\":2536:4285   */\n    tag_158:\n        /* \"#utility.yul\":2653:2656   */\n      0x00\n        /* \"#utility.yul\":2689:2695   */\n      0x0100\n        /* \"#utility.yul\":2684:2687   */\n      dup4\n        /* \"#utility.yul\":2680:2696   */\n      add\n        /* \"#utility.yul\":2779:2783   */\n      0x00\n        /* \"#utility.yul\":2772:2777   */\n      dup4\n        /* \"#utility.yul\":2768:2784   */\n      add\n        /* \"#utility.yul\":2762:2785   */\n      mload\n        /* \"#utility.yul\":2832:2835   */\n      dup5\n        /* \"#utility.yul\":2826:2830   */\n      dup3\n        /* \"#utility.yul\":2822:2836   */\n      sub\n        /* \"#utility.yul\":2815:2819   */\n      0x00\n        /* \"#utility.yul\":2810:2813   */\n      dup7\n        /* \"#utility.yul\":2806:2820   */\n      add\n        /* \"#utility.yul\":2799:2837   */\n      mstore\n        /* \"#utility.yul\":2858:2931   */\n      tag_229\n        /* \"#utility.yul\":2926:2930   */\n      dup3\n        /* \"#utility.yul\":2912:2924   */\n      dup3\n        /* \"#utility.yul\":2858:2931   */\n      tag_153\n      jump\t// in\n    tag_229:\n        /* \"#utility.yul\":2850:2931   */\n      swap2\n      pop\n        /* \"#utility.yul\":2706:2942   */\n      pop\n        /* \"#utility.yul\":3031:3035   */\n      0x20\n        /* \"#utility.yul\":3024:3029   */\n      dup4\n        /* \"#utility.yul\":3020:3036   */\n      add\n        /* \"#utility.yul\":3014:3037   */\n      mload\n        /* \"#utility.yul\":3084:3087   */\n      dup5\n        /* \"#utility.yul\":3078:3082   */\n      dup3\n        /* \"#utility.yul\":3074:3088   */\n      sub\n        /* \"#utility.yul\":3067:3071   */\n      0x20\n        /* \"#utility.yul\":3062:3065   */\n      dup7\n        /* \"#utility.yul\":3058:3072   */\n      add\n        /* \"#utility.yul\":3051:3089   */\n      mstore\n        /* \"#utility.yul\":3110:3183   */\n      tag_230\n        /* \"#utility.yul\":3178:3182   */\n      dup3\n        /* \"#utility.yul\":3164:3176   */\n      dup3\n        /* \"#utility.yul\":3110:3183   */\n      tag_153\n      jump\t// in\n    tag_230:\n        /* \"#utility.yul\":3102:3183   */\n      swap2\n      pop\n        /* \"#utility.yul\":2952:3194   */\n      pop\n        /* \"#utility.yul\":3279:3283   */\n      0x40\n        /* \"#utility.yul\":3272:3277   */\n      dup4\n        /* \"#utility.yul\":3268:3284   */\n      add\n        /* \"#utility.yul\":3262:3285   */\n      mload\n        /* \"#utility.yul\":3298:3361   */\n      tag_231\n        /* \"#utility.yul\":3355:3359   */\n      0x40\n        /* \"#utility.yul\":3350:3353   */\n      dup7\n        /* \"#utility.yul\":3346:3360   */\n      add\n        /* \"#utility.yul\":3332:3344   */\n      dup3\n        /* \"#utility.yul\":3298:3361   */\n      tag_155\n      jump\t// in\n    tag_231:\n        /* \"#utility.yul\":3204:3371   */\n      pop\n        /* \"#utility.yul\":3455:3459   */\n      0x60\n        /* \"#utility.yul\":3448:3453   */\n      dup4\n        /* \"#utility.yul\":3444:3460   */\n      add\n        /* \"#utility.yul\":3438:3461   */\n      mload\n        /* \"#utility.yul\":3474:3537   */\n      tag_232\n        /* \"#utility.yul\":3531:3535   */\n      0x60\n        /* \"#utility.yul\":3526:3529   */\n      dup7\n        /* \"#utility.yul\":3522:3536   */\n      add\n        /* \"#utility.yul\":3508:3520   */\n      dup3\n        /* \"#utility.yul\":3474:3537   */\n      tag_155\n      jump\t// in\n    tag_232:\n        /* \"#utility.yul\":3381:3547   */\n      pop\n        /* \"#utility.yul\":3629:3633   */\n      0x80\n        /* \"#utility.yul\":3622:3627   */\n      dup4\n        /* \"#utility.yul\":3618:3634   */\n      add\n        /* \"#utility.yul\":3612:3635   */\n      mload\n        /* \"#utility.yul\":3648:3711   */\n      tag_233\n        /* \"#utility.yul\":3705:3709   */\n      0x80\n        /* \"#utility.yul\":3700:3703   */\n      dup7\n        /* \"#utility.yul\":3696:3710   */\n      add\n        /* \"#utility.yul\":3682:3694   */\n      dup3\n        /* \"#utility.yul\":3648:3711   */\n      tag_155\n      jump\t// in\n    tag_233:\n        /* \"#utility.yul\":3557:3721   */\n      pop\n        /* \"#utility.yul\":3816:3820   */\n      0xa0\n        /* \"#utility.yul\":3809:3814   */\n      dup4\n        /* \"#utility.yul\":3805:3821   */\n      add\n        /* \"#utility.yul\":3799:3822   */\n      mload\n        /* \"#utility.yul\":3835:3898   */\n      tag_234\n        /* \"#utility.yul\":3892:3896   */\n      0xa0\n        /* \"#utility.yul\":3887:3890   */\n      dup7\n        /* \"#utility.yul\":3883:3897   */\n      add\n        /* \"#utility.yul\":3869:3881   */\n      dup3\n        /* \"#utility.yul\":3835:3898   */\n      tag_155\n      jump\t// in\n    tag_234:\n        /* \"#utility.yul\":3731:3908   */\n      pop\n        /* \"#utility.yul\":3999:4003   */\n      0xc0\n        /* \"#utility.yul\":3992:3997   */\n      dup4\n        /* \"#utility.yul\":3988:4004   */\n      add\n        /* \"#utility.yul\":3982:4005   */\n      mload\n        /* \"#utility.yul\":4018:4075   */\n      tag_235\n        /* \"#utility.yul\":4069:4073   */\n      0xc0\n        /* \"#utility.yul\":4064:4067   */\n      dup7\n        /* \"#utility.yul\":4060:4074   */\n      add\n        /* \"#utility.yul\":4046:4058   */\n      dup3\n        /* \"#utility.yul\":4018:4075   */\n      tag_157\n      jump\t// in\n    tag_235:\n        /* \"#utility.yul\":3918:4085   */\n      pop\n        /* \"#utility.yul\":4172:4176   */\n      0xe0\n        /* \"#utility.yul\":4165:4170   */\n      dup4\n        /* \"#utility.yul\":4161:4177   */\n      add\n        /* \"#utility.yul\":4155:4178   */\n      mload\n        /* \"#utility.yul\":4191:4248   */\n      tag_236\n        /* \"#utility.yul\":4242:4246   */\n      0xe0\n        /* \"#utility.yul\":4237:4240   */\n      dup7\n        /* \"#utility.yul\":4233:4247   */\n      add\n        /* \"#utility.yul\":4219:4231   */\n      dup3\n        /* \"#utility.yul\":4191:4248   */\n      tag_157\n      jump\t// in\n    tag_236:\n        /* \"#utility.yul\":4095:4258   */\n      pop\n        /* \"#utility.yul\":4275:4279   */\n      dup1\n        /* \"#utility.yul\":4268:4279   */\n      swap2\n      pop\n        /* \"#utility.yul\":2658:4285   */\n      pop\n        /* \"#utility.yul\":2536:4285   */\n      swap3\n      swap2\n      pop\n      pop\n      jump\t// out\n        /* \"#utility.yul\":4291:4660   */\n    tag_18:\n        /* \"#utility.yul\":4432:4436   */\n      0x00\n        /* \"#utility.yul\":4470:4472   */\n      0x20\n        /* \"#utility.yul\":4459:4468   */\n      dup3\n        /* \"#utility.yul\":4455:4473   */\n      add\n        /* \"#utility.yul\":4447:4473   */\n      swap1\n      pop\n        /* \"#utility.yul\":4519:4528   */\n      dup2\n        /* \"#utility.yul\":4513:4517   */\n      dup2\n        /* \"#utility.yul\":4509:4529   */\n      sub\n        /* \"#utility.yul\":4505:4506   */\n      0x00\n        /* \"#utility.yul\":4494:4503   */\n      dup4\n        /* \"#utility.yul\":4490:4507   */\n      add\n        /* \"#utility.yul\":4483:4530   */\n      mstore\n        /* \"#utility.yul\":4547:4653   */\n      tag_238\n        /* \"#utility.yul\":4648:4652   */\n      dup2\n        /* \"#utility.yul\":4639:4645   */\n      dup5\n        /* \"#utility.yul\":4547:4653   */\n      tag_158\n      jump\t// in\n    tag_238:\n        /* \"#utility.yul\":4539:4653   */\n      swap1\n      pop\n        /* \"#utility.yul\":4291:4660   */\n      swap3\n      swap2\n      pop\n      pop\n      jump\t// out\n        /* \"#utility.yul\":4666:4752   */\n    tag_159:\n        /* \"#utility.yul\":4701:4708   */\n      0x00\n        /* \"#utility.yul\":4741:4745   */\n      0xff\n        /* \"#utility.yul\":4734:4739   */\n      dup3\n        /* \"#utility.yul\":4730:4746   */\n      and\n        /* \"#utility.yul\":4719:4746   */\n      swap1\n      pop\n        /* \"#utility.yul\":4666:4752   */\n      swap2\n      swap1\n      pop\n      jump\t// out\n        /* \"#utility.yul\":4758:4876   */\n    tag_160:\n        /* \"#utility.yul\":4829:4851   */\n      tag_241\n        /* \"#utility.yul\":4845:4850   */\n      dup2\n        /* \"#utility.yul\":4829:4851   */\n      tag_159\n      jump\t// in\n    tag_241:\n        /* \"#utility.yul\":4822:4827   */\n      dup2\n        /* \"#utility.yul\":4819:4852   */\n      eq\n        /* \"#utility.yul\":4809:4870   */\n      tag_242\n      jumpi\n        /* \"#utility.yul\":4866:4867   */\n      0x00\n        /* \"#utility.yul\":4863:4864   */\n      dup1\n        /* \"#utility.yul\":4856:4868   */\n      revert\n        /* \"#utility.yul\":4809:4870   */\n    tag_242:\n        /* \"#utility.yul\":4758:4876   */\n      pop\n      jump\t// out\n        /* \"#utility.yul\":4882:5017   */\n    tag_161:\n        /* \"#utility.yul\":4926:4931   */\n      0x00\n        /* \"#utility.yul\":4964:4970   */\n      dup2\n        /* \"#utility.yul\":4951:4971   */\n      calldataload\n        /* \"#utility.yul\":4942:4971   */\n      swap1\n      pop\n        /* \"#utility.yul\":4980:5011   */\n      tag_244\n        /* \"#utility.yul\":5005:5010   */\n      dup2\n        /* \"#utility.yul\":4980:5011   */\n      tag_160\n      jump\t// in\n    tag_244:\n        /* \"#utility.yul\":4882:5017   */\n      swap3\n      swap2\n      pop\n      pop\n      jump\t// out\n        /* \"#utility.yul\":5023:5348   */\n    tag_21:\n        /* \"#utility.yul\":5080:5086   */\n      0x00\n        /* \"#utility.yul\":5129:5131   */\n      0x20\n        /* \"#utility.yul\":5117:5126   */\n      dup3\n        /* \"#utility.yul\":5108:5115   */\n      dup5\n        /* \"#utility.yul\":5104:5127   */\n      sub\n        /* \"#utility.yul\":5100:5132   */\n      slt\n        /* \"#utility.yul\":5097:5216   */\n      iszero\n      tag_246\n      jumpi\n        /* \"#utility.yul\":5135:5214   */\n      tag_247\n      tag_143\n      jump\t// in\n    tag_247:\n        /* \"#utility.yul\":5097:5216   */\n    tag_246:\n        /* \"#utility.yul\":5255:5256   */\n      0x00\n        /* \"#utility.yul\":5280:5331   */\n      tag_248\n        /* \"#utility.yul\":5323:5330   */\n      dup5\n        /* \"#utility.yul\":5314:5320   */\n      dup3\n        /* \"#utility.yul\":5303:5312   */\n      dup6\n        /* \"#utility.yul\":5299:5321   */\n      add\n        /* \"#utility.yul\":5280:5331   */\n      tag_161\n      jump\t// in\n    tag_248:\n        /* \"#utility.yul\":5270:5331   */\n      swap2\n      pop\n        /* \"#utility.yul\":5226:5341   */\n      pop\n        /* \"#utility.yul\":5023:5348   */\n      swap3\n      swap2\n      pop\n      pop\n      jump\t// out\n        /* \"#utility.yul\":5354:5471   */\n    tag_162:\n        /* \"#utility.yul\":5463:5464   */\n      0x00\n        /* \"#utility.yul\":5460:5461   */\n      dup1\n        /* \"#utility.yul\":5453:5465   */\n      revert\n        /* \"#utility.yul\":5477:5594   */\n    tag_163:\n        /* \"#utility.yul\":5586:5587   */\n      0x00\n        /* \"#utility.yul\":5583:5584   */\n      dup1\n        /* \"#utility.yul\":5576:5588   */\n      revert\n        /* \"#utility.yul\":5600:5780   */\n    tag_164:\n        /* \"#utility.yul\":5648:5725   */\n      0x4e487b7100000000000000000000000000000000000000000000000000000000\n        /* \"#utility.yul\":5645:5646   */\n      0x00\n        /* \"#utility.yul\":5638:5726   */\n      mstore\n        /* \"#utility.yul\":5745:5749   */\n      0x41\n        /* \"#utility.yul\":5742:5743   */\n      0x04\n        /* \"#utility.yul\":5735:5750   */\n      mstore\n        /* \"#utility.yul\":5769:5773   */\n      0x24\n        /* \"#utility.yul\":5766:5767   */\n      0x00\n        /* \"#utility.yul\":5759:5774   */\n      revert\n        /* \"#utility.yul\":5786:6067   */\n    tag_165:\n        /* \"#utility.yul\":5869:5896   */\n      tag_253\n        /* \"#utility.yul\":5891:5895   */\n      dup3\n        /* \"#utility.yul\":5869:5896   */\n      tag_152\n      jump\t// in\n    tag_253:\n        /* \"#utility.yul\":5861:5867   */\n      dup2\n        /* \"#utility.yul\":5857:5897   */\n      add\n        /* \"#utility.yul\":5999:6005   */\n      dup2\n        /* \"#utility.yul\":5987:5997   */\n      dup2\n        /* \"#utility.yul\":5984:6006   */\n      lt\n        /* \"#utility.yul\":5963:5981   */\n      0xffffffffffffffff\n        /* \"#utility.yul\":5951:5961   */\n      dup3\n        /* \"#utility.yul\":5948:5982   */\n      gt\n        /* \"#utility.yul\":5945:6007   */\n      or\n        /* \"#utility.yul\":5942:6030   */\n      iszero\n      tag_254\n      jumpi\n        /* \"#utility.yul\":6010:6028   */\n      tag_255\n      tag_164\n      jump\t// in\n    tag_255:\n        /* \"#utility.yul\":5942:6030   */\n    tag_254:\n        /* \"#utility.yul\":6050:6060   */\n      dup1\n        /* \"#utility.yul\":6046:6048   */\n      0x40\n        /* \"#utility.yul\":6039:6061   */\n      mstore\n        /* \"#utility.yul\":5829:6067   */\n      pop\n        /* \"#utility.yul\":5786:6067   */\n      pop\n      pop\n      jump\t// out\n        /* \"#utility.yul\":6073:6202   */\n    tag_166:\n        /* \"#utility.yul\":6107:6113   */\n      0x00\n        /* \"#utility.yul\":6134:6154   */\n      tag_257\n      tag_142\n      jump\t// in\n    tag_257:\n        /* \"#utility.yul\":6124:6154   */\n      swap1\n      pop\n        /* \"#utility.yul\":6163:6196   */\n      tag_258\n        /* \"#utility.yul\":6191:6195   */\n      dup3\n        /* \"#utility.yul\":6183:6189   */\n      dup3\n        /* \"#utility.yul\":6163:6196   */\n      tag_165\n      jump\t// in\n    tag_258:\n        /* \"#utility.yul\":6073:6202   */\n      swap2\n      swap1\n      pop\n      jump\t// out\n        /* \"#utility.yul\":6208:6516   */\n    tag_167:\n        /* \"#utility.yul\":6270:6274   */\n      0x00\n        /* \"#utility.yul\":6360:6378   */\n      0xffffffffffffffff\n        /* \"#utility.yul\":6352:6358   */\n      dup3\n        /* \"#utility.yul\":6349:6379   */\n      gt\n        /* \"#utility.yul\":6346:6402   */\n      iszero\n      tag_260\n      jumpi\n        /* \"#utility.yul\":6382:6400   */\n      tag_261\n      tag_164\n      jump\t// in\n    tag_261:\n        /* \"#utility.yul\":6346:6402   */\n    tag_260:\n        /* \"#utility.yul\":6420:6449   */\n      tag_262\n        /* \"#utility.yul\":6442:6448   */\n      dup3\n        /* \"#utility.yul\":6420:6449   */\n      tag_152\n      jump\t// in\n    tag_262:\n        /* \"#utility.yul\":6412:6449   */\n      swap1\n      pop\n        /* \"#utility.yul\":6504:6508   */\n      0x20\n        /* \"#utility.yul\":6498:6502   */\n      dup2\n        /* \"#utility.yul\":6494:6509   */\n      add\n        /* \"#utility.yul\":6486:6509   */\n      swap1\n      pop\n        /* \"#utility.yul\":6208:6516   */\n      swap2\n      swap1\n      pop\n      jump\t// out\n        /* \"#utility.yul\":6522:6670   */\n    tag_168:\n        /* \"#utility.yul\":6620:6626   */\n      dup3\n        /* \"#utility.yul\":6615:6618   */\n      dup2\n        /* \"#utility.yul\":6610:6613   */\n      dup4\n        /* \"#utility.yul\":6597:6627   */\n      calldatacopy\n        /* \"#utility.yul\":6661:6662   */\n      0x00\n        /* \"#utility.yul\":6652:6658   */\n      dup4\n        /* \"#utility.yul\":6647:6650   */\n      dup4\n        /* \"#utility.yul\":6643:6659   */\n      add\n        /* \"#utility.yul\":6636:6663   */\n      mstore\n        /* \"#utility.yul\":6522:6670   */\n      pop\n      pop\n      pop\n      jump\t// out\n        /* \"#utility.yul\":6676:7101   */\n    tag_169:\n        /* \"#utility.yul\":6754:6759   */\n      0x00\n        /* \"#utility.yul\":6779:6845   */\n      tag_265\n        /* \"#utility.yul\":6795:6844   */\n      tag_266\n        /* \"#utility.yul\":6837:6843   */\n      dup5\n        /* \"#utility.yul\":6795:6844   */\n      tag_167\n      jump\t// in\n    tag_266:\n        /* \"#utility.yul\":6779:6845   */\n      tag_166\n      jump\t// in\n    tag_265:\n        /* \"#utility.yul\":6770:6845   */\n      swap1\n      pop\n        /* \"#utility.yul\":6868:6874   */\n      dup3\n        /* \"#utility.yul\":6861:6866   */\n      dup2\n        /* \"#utility.yul\":6854:6875   */\n      mstore\n        /* \"#utility.yul\":6906:6910   */\n      0x20\n        /* \"#utility.yul\":6899:6904   */\n      dup2\n        /* \"#utility.yul\":6895:6911   */\n      add\n        /* \"#utility.yul\":6944:6947   */\n      dup5\n        /* \"#utility.yul\":6935:6941   */\n      dup5\n        /* \"#utility.yul\":6930:6933   */\n      dup5\n        /* \"#utility.yul\":6926:6942   */\n      add\n        /* \"#utility.yul\":6923:6948   */\n      gt\n        /* \"#utility.yul\":6920:7032   */\n      iszero\n      tag_267\n      jumpi\n        /* \"#utility.yul\":6951:7030   */\n      tag_268\n      tag_163\n      jump\t// in\n    tag_268:\n        /* \"#utility.yul\":6920:7032   */\n    tag_267:\n        /* \"#utility.yul\":7041:7095   */\n      tag_269\n        /* \"#utility.yul\":7088:7094   */\n      dup5\n        /* \"#utility.yul\":7083:7086   */\n      dup3\n        /* \"#utility.yul\":7078:7081   */\n      dup6\n        /* \"#utility.yul\":7041:7095   */\n      tag_168\n      jump\t// in\n    tag_269:\n        /* \"#utility.yul\":6760:7101   */\n      pop\n        /* \"#utility.yul\":6676:7101   */\n      swap4\n      swap3\n      pop\n      pop\n      pop\n      jump\t// out\n        /* \"#utility.yul\":7121:7461   */\n    tag_170:\n        /* \"#utility.yul\":7177:7182   */\n      0x00\n        /* \"#utility.yul\":7226:7229   */\n      dup3\n        /* \"#utility.yul\":7219:7223   */\n      0x1f\n        /* \"#utility.yul\":7211:7217   */\n      dup4\n        /* \"#utility.yul\":7207:7224   */\n      add\n        /* \"#utility.yul\":7203:7230   */\n      slt\n        /* \"#utility.yul\":7193:7315   */\n      tag_271\n      jumpi\n        /* \"#utility.yul\":7234:7313   */\n      tag_272\n      tag_162\n      jump\t// in\n    tag_272:\n        /* \"#utility.yul\":7193:7315   */\n    tag_271:\n        /* \"#utility.yul\":7351:7357   */\n      dup2\n        /* \"#utility.yul\":7338:7358   */\n      calldataload\n        /* \"#utility.yul\":7376:7455   */\n      tag_273\n        /* \"#utility.yul\":7451:7454   */\n      dup5\n        /* \"#utility.yul\":7443:7449   */\n      dup3\n        /* \"#utility.yul\":7436:7440   */\n      0x20\n        /* \"#utility.yul\":7428:7434   */\n      dup7\n        /* \"#utility.yul\":7424:7441   */\n      add\n        /* \"#utility.yul\":7376:7455   */\n      tag_169\n      jump\t// in\n    tag_273:\n        /* \"#utility.yul\":7367:7455   */\n      swap2\n      pop\n        /* \"#utility.yul\":7183:7461   */\n      pop\n        /* \"#utility.yul\":7121:7461   */\n      swap3\n      swap2\n      pop\n      pop\n      jump\t// out\n        /* \"#utility.yul\":7467:7589   */\n    tag_171:\n        /* \"#utility.yul\":7540:7564   */\n      tag_275\n        /* \"#utility.yul\":7558:7563   */\n      dup2\n        /* \"#utility.yul\":7540:7564   */\n      tag_154\n      jump\t// in\n    tag_275:\n        /* \"#utility.yul\":7533:7538   */\n      dup2\n        /* \"#utility.yul\":7530:7565   */\n      eq\n        /* \"#utility.yul\":7520:7583   */\n      tag_276\n      jumpi\n        /* \"#utility.yul\":7579:7580   */\n      0x00\n        /* \"#utility.yul\":7576:7577   */\n      dup1\n        /* \"#utility.yul\":7569:7581   */\n      revert\n        /* \"#utility.yul\":7520:7583   */\n    tag_276:\n        /* \"#utility.yul\":7467:7589   */\n      pop\n      jump\t// out\n        /* \"#utility.yul\":7595:7734   */\n    tag_172:\n        /* \"#utility.yul\":7641:7646   */\n      0x00\n        /* \"#utility.yul\":7679:7685   */\n      dup2\n        /* \"#utility.yul\":7666:7686   */\n      calldataload\n        /* \"#utility.yul\":7657:7686   */\n      swap1\n      pop\n        /* \"#utility.yul\":7695:7728   */\n      tag_278\n        /* \"#utility.yul\":7722:7727   */\n      dup2\n        /* \"#utility.yul\":7695:7728   */\n      tag_171\n      jump\t// in\n    tag_278:\n        /* \"#utility.yul\":7595:7734   */\n      swap3\n      swap2\n      pop\n      pop\n      jump\t// out\n        /* \"#utility.yul\":7740:8719   */\n    tag_25:\n        /* \"#utility.yul\":7837:7843   */\n      0x00\n        /* \"#utility.yul\":7845:7851   */\n      dup1\n        /* \"#utility.yul\":7853:7859   */\n      0x00\n        /* \"#utility.yul\":7902:7904   */\n      0x60\n        /* \"#utility.yul\":7890:7899   */\n      dup5\n        /* \"#utility.yul\":7881:7888   */\n      dup7\n        /* \"#utility.yul\":7877:7900   */\n      sub\n        /* \"#utility.yul\":7873:7905   */\n      slt\n        /* \"#utility.yul\":7870:7989   */\n      iszero\n      tag_280\n      jumpi\n        /* \"#utility.yul\":7908:7987   */\n      tag_281\n      tag_143\n      jump\t// in\n    tag_281:\n        /* \"#utility.yul\":7870:7989   */\n    tag_280:\n        /* \"#utility.yul\":8056:8057   */\n      0x00\n        /* \"#utility.yul\":8045:8054   */\n      dup5\n        /* \"#utility.yul\":8041:8058   */\n      add\n        /* \"#utility.yul\":8028:8059   */\n      calldataload\n        /* \"#utility.yul\":8086:8104   */\n      0xffffffffffffffff\n        /* \"#utility.yul\":8078:8084   */\n      dup2\n        /* \"#utility.yul\":8075:8105   */\n      gt\n        /* \"#utility.yul\":8072:8189   */\n      iszero\n      tag_282\n      jumpi\n        /* \"#utility.yul\":8108:8187   */\n      tag_283\n      tag_144\n      jump\t// in\n    tag_283:\n        /* \"#utility.yul\":8072:8189   */\n    tag_282:\n        /* \"#utility.yul\":8213:8276   */\n      tag_284\n        /* \"#utility.yul\":8268:8275   */\n      dup7\n        /* \"#utility.yul\":8259:8265   */\n      dup3\n        /* \"#utility.yul\":8248:8257   */\n      dup8\n        /* \"#utility.yul\":8244:8266   */\n      add\n        /* \"#utility.yul\":8213:8276   */\n      tag_170\n      jump\t// in\n    tag_284:\n        /* \"#utility.yul\":8203:8276   */\n      swap4\n      pop\n        /* \"#utility.yul\":7999:8286   */\n      pop\n        /* \"#utility.yul\":8353:8355   */\n      0x20\n        /* \"#utility.yul\":8342:8351   */\n      dup5\n        /* \"#utility.yul\":8338:8356   */\n      add\n        /* \"#utility.yul\":8325:8357   */\n      calldataload\n        /* \"#utility.yul\":8384:8402   */\n      0xffffffffffffffff\n        /* \"#utility.yul\":8376:8382   */\n      dup2\n        /* \"#utility.yul\":8373:8403   */\n      gt\n        /* \"#utility.yul\":8370:8487   */\n      iszero\n      tag_285\n      jumpi\n        /* \"#utility.yul\":8406:8485   */\n      tag_286\n      tag_144\n      jump\t// in\n    tag_286:\n        /* \"#utility.yul\":8370:8487   */\n    tag_285:\n        /* \"#utility.yul\":8511:8574   */\n      tag_287\n        /* \"#utility.yul\":8566:8573   */\n      dup7\n        /* \"#utility.yul\":8557:8563   */\n      dup3\n        /* \"#utility.yul\":8546:8555   */\n      dup8\n        /* \"#utility.yul\":8542:8564   */\n      add\n        /* \"#utility.yul\":8511:8574   */\n      tag_170\n      jump\t// in\n    tag_287:\n        /* \"#utility.yul\":8501:8574   */\n      swap3\n      pop\n        /* \"#utility.yul\":8296:8584   */\n      pop\n        /* \"#utility.yul\":8623:8625   */\n      0x40\n        /* \"#utility.yul\":8649:8702   */\n      tag_288\n        /* \"#utility.yul\":8694:8701   */\n      dup7\n        /* \"#utility.yul\":8685:8691   */\n      dup3\n        /* \"#utility.yul\":8674:8683   */\n      dup8\n        /* \"#utility.yul\":8670:8692   */\n      add\n        /* \"#utility.yul\":8649:8702   */\n      tag_172\n      jump\t// in\n    tag_288:\n        /* \"#utility.yul\":8639:8702   */\n      swap2\n      pop\n        /* \"#utility.yul\":8594:8712   */\n      pop\n        /* \"#utility.yul\":7740:8719   */\n      swap3\n      pop\n      swap3\n      pop\n      swap3\n      jump\t// out\n        /* \"#utility.yul\":8725:9054   */\n    tag_29:\n        /* \"#utility.yul\":8784:8790   */\n      0x00\n        /* \"#utility.yul\":8833:8835   */\n      0x20\n        /* \"#utility.yul\":8821:8830   */\n      dup3\n        /* \"#utility.yul\":8812:8819   */\n      dup5\n        /* \"#utility.yul\":8808:8831   */\n      sub\n        /* \"#utility.yul\":8804:8836   */\n      slt\n        /* \"#utility.yul\":8801:8920   */\n      iszero\n      tag_290\n      jumpi\n        /* \"#utility.yul\":8839:8918   */\n      tag_291\n      tag_143\n      jump\t// in\n    tag_291:\n        /* \"#utility.yul\":8801:8920   */\n    tag_290:\n        /* \"#utility.yul\":8959:8960   */\n      0x00\n        /* \"#utility.yul\":8984:9037   */\n      tag_292\n        /* \"#utility.yul\":9029:9036   */\n      dup5\n        /* \"#utility.yul\":9020:9026   */\n      dup3\n        /* \"#utility.yul\":9009:9018   */\n      dup6\n        /* \"#utility.yul\":9005:9027   */\n      add\n        /* \"#utility.yul\":8984:9037   */\n      tag_172\n      jump\t// in\n    tag_292:\n        /* \"#utility.yul\":8974:9037   */\n      swap2\n      pop\n        /* \"#utility.yul\":8930:9047   */\n      pop\n        /* \"#utility.yul\":8725:9054   */\n      swap3\n      swap2\n      pop\n      pop\n      jump\t// out\n        /* \"#utility.yul\":9060:9169   */\n    tag_173:\n        /* \"#utility.yul\":9141:9162   */\n      tag_294\n        /* \"#utility.yul\":9156:9161   */\n      dup2\n        /* \"#utility.yul\":9141:9162   */\n      tag_156\n      jump\t// in\n    tag_294:\n        /* \"#utility.yul\":9136:9139   */\n      dup3\n        /* \"#utility.yul\":9129:9163   */\n      mstore\n        /* \"#utility.yul\":9060:9169   */\n      pop\n      pop\n      jump\t// out\n        /* \"#utility.yul\":9175:9385   */\n    tag_36:\n        /* \"#utility.yul\":9262:9266   */\n      0x00\n        /* \"#utility.yul\":9300:9302   */\n      0x20\n        /* \"#utility.yul\":9289:9298   */\n      dup3\n        /* \"#utility.yul\":9285:9303   */\n      add\n        /* \"#utility.yul\":9277:9303   */\n      swap1\n      pop\n        /* \"#utility.yul\":9313:9378   */\n      tag_296\n        /* \"#utility.yul\":9375:9376   */\n      0x00\n        /* \"#utility.yul\":9364:9373   */\n      dup4\n        /* \"#utility.yul\":9360:9377   */\n      add\n        /* \"#utility.yul\":9351:9357   */\n      dup5\n        /* \"#utility.yul\":9313:9378   */\n      tag_173\n      jump\t// in\n    tag_296:\n        /* \"#utility.yul\":9175:9385   */\n      swap3\n      swap2\n      pop\n      pop\n      jump\t// out\n        /* \"#utility.yul\":9391:9571   */\n    tag_174:\n        /* \"#utility.yul\":9439:9516   */\n      0x4e487b7100000000000000000000000000000000000000000000000000000000\n        /* \"#utility.yul\":9436:9437   */\n      0x00\n        /* \"#utility.yul\":9429:9517   */\n      mstore\n        /* \"#utility.yul\":9536:9540   */\n      0x22\n        /* \"#utility.yul\":9533:9534   */\n      0x04\n        /* \"#utility.yul\":9526:9541   */\n      mstore\n        /* \"#utility.yul\":9560:9564   */\n      0x24\n        /* \"#utility.yul\":9557:9558   */\n      0x00\n        /* \"#utility.yul\":9550:9565   */\n      revert\n        /* \"#utility.yul\":9577:9897   */\n    tag_46:\n        /* \"#utility.yul\":9621:9627   */\n      0x00\n        /* \"#utility.yul\":9658:9659   */\n      0x02\n        /* \"#utility.yul\":9652:9656   */\n      dup3\n        /* \"#utility.yul\":9648:9660   */\n      div\n        /* \"#utility.yul\":9638:9660   */\n      swap1\n      pop\n        /* \"#utility.yul\":9705:9706   */\n      0x01\n        /* \"#utility.yul\":9699:9703   */\n      dup3\n        /* \"#utility.yul\":9695:9707   */\n      and\n        /* \"#utility.yul\":9726:9744   */\n      dup1\n        /* \"#utility.yul\":9716:9797   */\n      tag_299\n      jumpi\n        /* \"#utility.yul\":9782:9786   */\n      0x7f\n        /* \"#utility.yul\":9774:9780   */\n      dup3\n        /* \"#utility.yul\":9770:9787   */\n      and\n        /* \"#utility.yul\":9760:9787   */\n      swap2\n      pop\n        /* \"#utility.yul\":9716:9797   */\n    tag_299:\n        /* \"#utility.yul\":9844:9846   */\n      0x20\n        /* \"#utility.yul\":9836:9842   */\n      dup3\n        /* \"#utility.yul\":9833:9847   */\n      lt\n        /* \"#utility.yul\":9813:9831   */\n      dup2\n        /* \"#utility.yul\":9810:9848   */\n      sub\n        /* \"#utility.yul\":9807:9891   */\n      tag_300\n      jumpi\n        /* \"#utility.yul\":9863:9881   */\n      tag_301\n      tag_174\n      jump\t// in\n    tag_301:\n        /* \"#utility.yul\":9807:9891   */\n    tag_300:\n        /* \"#utility.yul\":9628:9897   */\n      pop\n        /* \"#utility.yul\":9577:9897   */\n      swap2\n      swap1\n      pop\n      jump\t// out\n        /* \"#utility.yul\":9903:10072   */\n    tag_175:\n        /* \"#utility.yul\":9987:9998   */\n      0x00\n        /* \"#utility.yul\":10021:10027   */\n      dup3\n        /* \"#utility.yul\":10016:10019   */\n      dup3\n        /* \"#utility.yul\":10009:10028   */\n      mstore\n        /* \"#utility.yul\":10061:10065   */\n      0x20\n        /* \"#utility.yul\":10056:10059   */\n      dup3\n        /* \"#utility.yul\":10052:10066   */\n      add\n        /* \"#utility.yul\":10037:10066   */\n      swap1\n      pop\n        /* \"#utility.yul\":9903:10072   */\n      swap3\n      swap2\n      pop\n      pop\n      jump\t// out\n        /* \"#utility.yul\":10078:10254   */\n    tag_176:\n        /* \"#utility.yul\":10218:10246   */\n      0x5468652070726f706f73616c206973206e6f7420616374697665000000000000\n        /* \"#utility.yul\":10214:10215   */\n      0x00\n        /* \"#utility.yul\":10206:10212   */\n      dup3\n        /* \"#utility.yul\":10202:10216   */\n      add\n        /* \"#utility.yul\":10195:10247   */\n      mstore\n        /* \"#utility.yul\":10078:10254   */\n      pop\n      jump\t// out\n        /* \"#utility.yul\":10260:10626   */\n    tag_177:\n        /* \"#utility.yul\":10402:10405   */\n      0x00\n        /* \"#utility.yul\":10423:10490   */\n      tag_305\n        /* \"#utility.yul\":10487:10489   */\n      0x1a\n        /* \"#utility.yul\":10482:10485   */\n      dup4\n        /* \"#utility.yul\":10423:10490   */\n      tag_175\n      jump\t// in\n    tag_305:\n        /* \"#utility.yul\":10416:10490   */\n      swap2\n      pop\n        /* \"#utility.yul\":10499:10592   */\n      tag_306\n        /* \"#utility.yul\":10588:10591   */\n      dup3\n        /* \"#utility.yul\":10499:10592   */\n      tag_176\n      jump\t// in\n    tag_306:\n        /* \"#utility.yul\":10617:10619   */\n      0x20\n        /* \"#utility.yul\":10612:10615   */\n      dup3\n        /* \"#utility.yul\":10608:10620   */\n      add\n        /* \"#utility.yul\":10601:10620   */\n      swap1\n      pop\n        /* \"#utility.yul\":10260:10626   */\n      swap2\n      swap1\n      pop\n      jump\t// out\n        /* \"#utility.yul\":10632:11051   */\n    tag_59:\n        /* \"#utility.yul\":10798:10802   */\n      0x00\n        /* \"#utility.yul\":10836:10838   */\n      0x20\n        /* \"#utility.yul\":10825:10834   */\n      dup3\n        /* \"#utility.yul\":10821:10839   */\n      add\n        /* \"#utility.yul\":10813:10839   */\n      swap1\n      pop\n        /* \"#utility.yul\":10885:10894   */\n      dup2\n        /* \"#utility.yul\":10879:10883   */\n      dup2\n        /* \"#utility.yul\":10875:10895   */\n      sub\n        /* \"#utility.yul\":10871:10872   */\n      0x00\n        /* \"#utility.yul\":10860:10869   */\n      dup4\n        /* \"#utility.yul\":10856:10873   */\n      add\n        /* \"#utility.yul\":10849:10896   */\n      mstore\n        /* \"#utility.yul\":10913:11044   */\n      tag_308\n        /* \"#utility.yul\":11039:11043   */\n      dup2\n        /* \"#utility.yul\":10913:11044   */\n      tag_177\n      jump\t// in\n    tag_308:\n        /* \"#utility.yul\":10905:11044   */\n      swap1\n      pop\n        /* \"#utility.yul\":10632:11051   */\n      swap2\n      swap1\n      pop\n      jump\t// out\n        /* \"#utility.yul\":11057:11232   */\n    tag_178:\n        /* \"#utility.yul\":11197:11224   */\n      0x416464726573732068617320616c726561647920766f74656400000000000000\n        /* \"#utility.yul\":11193:11194   */\n      0x00\n        /* \"#utility.yul\":11185:11191   */\n      dup3\n        /* \"#utility.yul\":11181:11195   */\n      add\n        /* \"#utility.yul\":11174:11225   */\n      mstore\n        /* \"#utility.yul\":11057:11232   */\n      pop\n      jump\t// out\n        /* \"#utility.yul\":11238:11604   */\n    tag_179:\n        /* \"#utility.yul\":11380:11383   */\n      0x00\n        /* \"#utility.yul\":11401:11468   */\n      tag_311\n        /* \"#utility.yul\":11465:11467   */\n      0x19\n        /* \"#utility.yul\":11460:11463   */\n      dup4\n        /* \"#utility.yul\":11401:11468   */\n      tag_175\n      jump\t// in\n    tag_311:\n        /* \"#utility.yul\":11394:11468   */\n      swap2\n      pop\n        /* \"#utility.yul\":11477:11570   */\n      tag_312\n        /* \"#utility.yul\":11566:11569   */\n      dup3\n        /* \"#utility.yul\":11477:11570   */\n      tag_178\n      jump\t// in\n    tag_312:\n        /* \"#utility.yul\":11595:11597   */\n      0x20\n        /* \"#utility.yul\":11590:11593   */\n      dup3\n        /* \"#utility.yul\":11586:11598   */\n      add\n        /* \"#utility.yul\":11579:11598   */\n      swap1\n      pop\n        /* \"#utility.yul\":11238:11604   */\n      swap2\n      swap1\n      pop\n      jump\t// out\n        /* \"#utility.yul\":11610:12029   */\n    tag_64:\n        /* \"#utility.yul\":11776:11780   */\n      0x00\n        /* \"#utility.yul\":11814:11816   */\n      0x20\n        /* \"#utility.yul\":11803:11812   */\n      dup3\n        /* \"#utility.yul\":11799:11817   */\n      add\n        /* \"#utility.yul\":11791:11817   */\n      swap1\n      pop\n        /* \"#utility.yul\":11863:11872   */\n      dup2\n        /* \"#utility.yul\":11857:11861   */\n      dup2\n        /* \"#utility.yul\":11853:11873   */\n      sub\n        /* \"#utility.yul\":11849:11850   */\n      0x00\n        /* \"#utility.yul\":11838:11847   */\n      dup4\n        /* \"#utility.yul\":11834:11851   */\n      add\n        /* \"#utility.yul\":11827:11874   */\n      mstore\n        /* \"#utility.yul\":11891:12022   */\n      tag_314\n        /* \"#utility.yul\":12017:12021   */\n      dup2\n        /* \"#utility.yul\":11891:12022   */\n      tag_179\n      jump\t// in\n    tag_314:\n        /* \"#utility.yul\":11883:12022   */\n      swap1\n      pop\n        /* \"#utility.yul\":11610:12029   */\n      swap2\n      swap1\n      pop\n      jump\t// out\n        /* \"#utility.yul\":12035:12215   */\n    tag_180:\n        /* \"#utility.yul\":12083:12160   */\n      0x4e487b7100000000000000000000000000000000000000000000000000000000\n        /* \"#utility.yul\":12080:12081   */\n      0x00\n        /* \"#utility.yul\":12073:12161   */\n      mstore\n        /* \"#utility.yul\":12180:12184   */\n      0x11\n        /* \"#utility.yul\":12177:12178   */\n      0x04\n        /* \"#utility.yul\":12170:12185   */\n      mstore\n        /* \"#utility.yul\":12204:12208   */\n      0x24\n        /* \"#utility.yul\":12201:12202   */\n      0x00\n        /* \"#utility.yul\":12194:12209   */\n      revert\n        /* \"#utility.yul\":12221:12412   */\n    tag_67:\n        /* \"#utility.yul\":12261:12264   */\n      0x00\n        /* \"#utility.yul\":12280:12300   */\n      tag_317\n        /* \"#utility.yul\":12298:12299   */\n      dup3\n        /* \"#utility.yul\":12280:12300   */\n      tag_154\n      jump\t// in\n    tag_317:\n        /* \"#utility.yul\":12275:12300   */\n      swap2\n      pop\n        /* \"#utility.yul\":12314:12334   */\n      tag_318\n        /* \"#utility.yul\":12332:12333   */\n      dup4\n        /* \"#utility.yul\":12314:12334   */\n      tag_154\n      jump\t// in\n    tag_318:\n        /* \"#utility.yul\":12309:12334   */\n      swap3\n      pop\n        /* \"#utility.yul\":12357:12358   */\n      dup3\n        /* \"#utility.yul\":12354:12355   */\n      dup3\n        /* \"#utility.yul\":12350:12359   */\n      add\n        /* \"#utility.yul\":12343:12359   */\n      swap1\n      pop\n        /* \"#utility.yul\":12378:12381   */\n      dup1\n        /* \"#utility.yul\":12375:12376   */\n      dup3\n        /* \"#utility.yul\":12372:12382   */\n      gt\n        /* \"#utility.yul\":12369:12405   */\n      iszero\n      tag_319\n      jumpi\n        /* \"#utility.yul\":12385:12403   */\n      tag_320\n      tag_180\n      jump\t// in\n    tag_320:\n        /* \"#utility.yul\":12369:12405   */\n    tag_319:\n        /* \"#utility.yul\":12221:12412   */\n      swap3\n      swap2\n      pop\n      pop\n      jump\t// out\n        /* \"#utility.yul\":12418:12612   */\n    tag_83:\n        /* \"#utility.yul\":12458:12462   */\n      0x00\n        /* \"#utility.yul\":12478:12498   */\n      tag_322\n        /* \"#utility.yul\":12496:12497   */\n      dup3\n        /* \"#utility.yul\":12478:12498   */\n      tag_154\n      jump\t// in\n    tag_322:\n        /* \"#utility.yul\":12473:12498   */\n      swap2\n      pop\n        /* \"#utility.yul\":12512:12532   */\n      tag_323\n        /* \"#utility.yul\":12530:12531   */\n      dup4\n        /* \"#utility.yul\":12512:12532   */\n      tag_154\n      jump\t// in\n    tag_323:\n        /* \"#utility.yul\":12507:12532   */\n      swap3\n      pop\n        /* \"#utility.yul\":12556:12557   */\n      dup3\n        /* \"#utility.yul\":12553:12554   */\n      dup3\n        /* \"#utility.yul\":12549:12558   */\n      sub\n        /* \"#utility.yul\":12541:12558   */\n      swap1\n      pop\n        /* \"#utility.yul\":12580:12581   */\n      dup2\n        /* \"#utility.yul\":12574:12578   */\n      dup2\n        /* \"#utility.yul\":12571:12582   */\n      gt\n        /* \"#utility.yul\":12568:12605   */\n      iszero\n      tag_324\n      jumpi\n        /* \"#utility.yul\":12585:12603   */\n      tag_325\n      tag_180\n      jump\t// in\n    tag_325:\n        /* \"#utility.yul\":12568:12605   */\n    tag_324:\n        /* \"#utility.yul\":12418:12612   */\n      swap3\n      swap2\n      pop\n      pop\n      jump\t// out\n        /* \"#utility.yul\":12618:12851   */\n    tag_94:\n        /* \"#utility.yul\":12657:12660   */\n      0x00\n        /* \"#utility.yul\":12680:12704   */\n      tag_327\n        /* \"#utility.yul\":12698:12703   */\n      dup3\n        /* \"#utility.yul\":12680:12704   */\n      tag_154\n      jump\t// in\n    tag_327:\n        /* \"#utility.yul\":12671:12704   */\n      swap2\n      pop\n        /* \"#utility.yul\":12726:12792   */\n      0xffffffffffffffffffffffffffffffffffffffffffffffffffffffffffffffff\n        /* \"#utility.yul\":12719:12724   */\n      dup3\n        /* \"#utility.yul\":12716:12793   */\n      sub\n        /* \"#utility.yul\":12713:12816   */\n      tag_328\n      jumpi\n        /* \"#utility.yul\":12796:12814   */\n      tag_329\n      tag_180\n      jump\t// in\n    tag_329:\n        /* \"#utility.yul\":12713:12816   */\n    tag_328:\n        /* \"#utility.yul\":12843:12844   */\n      0x01\n        /* \"#utility.yul\":12836:12841   */\n      dup3\n        /* \"#utility.yul\":12832:12845   */\n      add\n        /* \"#utility.yul\":12825:12845   */\n      swap1\n      pop\n        /* \"#utility.yul\":12618:12851   */\n      swap2\n      swap1\n      pop\n      jump\t// out\n        /* \"#utility.yul\":12857:12998   */\n    tag_181:\n        /* \"#utility.yul\":12906:12910   */\n      0x00\n        /* \"#utility.yul\":12929:12932   */\n      dup2\n        /* \"#utility.yul\":12921:12932   */\n      swap1\n      pop\n        /* \"#utility.yul\":12952:12955   */\n      dup2\n        /* \"#utility.yul\":12949:12950   */\n      0x00\n        /* \"#utility.yul\":12942:12956   */\n      mstore\n        /* \"#utility.yul\":12986:12990   */\n      0x20\n        /* \"#utility.yul\":12983:12984   */\n      0x00\n        /* \"#utility.yul\":12973:12991   */\n      keccak256\n        /* \"#utility.yul\":12965:12991   */\n      swap1\n      pop\n        /* \"#utility.yul\":12857:12998   */\n      swap2\n      swap1\n      pop\n      jump\t// out\n        /* \"#utility.yul\":13004:13097   */\n    tag_182:\n        /* \"#utility.yul\":13041:13047   */\n      0x00\n        /* \"#utility.yul\":13088:13090   */\n      0x20\n        /* \"#utility.yul\":13083:13085   */\n      0x1f\n        /* \"#utility.yul\":13076:13081   */\n      dup4\n        /* \"#utility.yul\":13072:13086   */\n      add\n        /* \"#utility.yul\":13068:13091   */\n      div\n        /* \"#utility.yul\":13058:13091   */\n      swap1\n      pop\n        /* \"#utility.yul\":13004:13097   */\n      swap2\n      swap1\n      pop\n      jump\t// out\n        /* \"#utility.yul\":13103:13210   */\n    tag_183:\n        /* \"#utility.yul\":13147:13155   */\n      0x00\n        /* \"#utility.yul\":13197:13202   */\n      dup3\n        /* \"#utility.yul\":13191:13195   */\n      dup3\n        /* \"#utility.yul\":13187:13203   */\n      shl\n        /* \"#utility.yul\":13166:13203   */\n      swap1\n      pop\n        /* \"#utility.yul\":13103:13210   */\n      swap3\n      swap2\n      pop\n      pop\n      jump\t// out\n        /* \"#utility.yul\":13216:13609   */\n    tag_184:\n        /* \"#utility.yul\":13285:13291   */\n      0x00\n        /* \"#utility.yul\":13335:13336   */\n      0x08\n        /* \"#utility.yul\":13323:13333   */\n      dup4\n        /* \"#utility.yul\":13319:13337   */\n      mul\n        /* \"#utility.yul\":13358:13455   */\n      tag_334\n        /* \"#utility.yul\":13388:13454   */\n      0xffffffffffffffffffffffffffffffffffffffffffffffffffffffffffffffff\n        /* \"#utility.yul\":13377:13386   */\n      dup3\n        /* \"#utility.yul\":13358:13455   */\n      tag_183\n      jump\t// in\n    tag_334:\n        /* \"#utility.yul\":13476:13515   */\n      tag_335\n        /* \"#utility.yul\":13506:13514   */\n      dup7\n        /* \"#utility.yul\":13495:13504   */\n      dup4\n        /* \"#utility.yul\":13476:13515   */\n      tag_183\n      jump\t// in\n    tag_335:\n        /* \"#utility.yul\":13464:13515   */\n      swap6\n      pop\n        /* \"#utility.yul\":13548:13552   */\n      dup1\n        /* \"#utility.yul\":13544:13553   */\n      not\n        /* \"#utility.yul\":13537:13542   */\n      dup5\n        /* \"#utility.yul\":13533:13554   */\n      and\n        /* \"#utility.yul\":13524:13554   */\n      swap4\n      pop\n        /* \"#utility.yul\":13597:13601   */\n      dup1\n        /* \"#utility.yul\":13587:13595   */\n      dup7\n        /* \"#utility.yul\":13583:13602   */\n      and\n        /* \"#utility.yul\":13576:13581   */\n      dup5\n        /* \"#utility.yul\":13573:13603   */\n      or\n        /* \"#utility.yul\":13563:13603   */\n      swap3\n      pop\n        /* \"#utility.yul\":13292:13609   */\n      pop\n      pop\n        /* \"#utility.yul\":13216:13609   */\n      swap4\n      swap3\n      pop\n      pop\n      pop\n      jump\t// out\n        /* \"#utility.yul\":13615:13675   */\n    tag_185:\n        /* \"#utility.yul\":13643:13646   */\n      0x00\n        /* \"#utility.yul\":13664:13669   */\n      dup2\n        /* \"#utility.yul\":13657:13669   */\n      swap1\n      pop\n        /* \"#utility.yul\":13615:13675   */\n      swap2\n      swap1\n      pop\n      jump\t// out\n        /* \"#utility.yul\":13681:13823   */\n    tag_186:\n        /* \"#utility.yul\":13731:13740   */\n      0x00\n        /* \"#utility.yul\":13764:13817   */\n      tag_338\n        /* \"#utility.yul\":13782:13816   */\n      tag_339\n        /* \"#utility.yul\":13791:13815   */\n      tag_340\n        /* \"#utility.yul\":13809:13814   */\n      dup5\n        /* \"#utility.yul\":13791:13815   */\n      tag_154\n      jump\t// in\n    tag_340:\n        /* \"#utility.yul\":13782:13816   */\n      tag_185\n      jump\t// in\n    tag_339:\n        /* \"#utility.yul\":13764:13817   */\n      tag_154\n      jump\t// in\n    tag_338:\n        /* \"#utility.yul\":13751:13817   */\n      swap1\n      pop\n        /* \"#utility.yul\":13681:13823   */\n      swap2\n      swap1\n      pop\n      jump\t// out\n        /* \"#utility.yul\":13829:13904   */\n    tag_187:\n        /* \"#utility.yul\":13872:13875   */\n      0x00\n        /* \"#utility.yul\":13893:13898   */\n      dup2\n        /* \"#utility.yul\":13886:13898   */\n      swap1\n      pop\n        /* \"#utility.yul\":13829:13904   */\n      swap2\n      swap1\n      pop\n      jump\t// out\n        /* \"#utility.yul\":13910:14179   */\n    tag_188:\n        /* \"#utility.yul\":14020:14059   */\n      tag_343\n        /* \"#utility.yul\":14051:14058   */\n      dup4\n        /* \"#utility.yul\":14020:14059   */\n      tag_186\n      jump\t// in\n    tag_343:\n        /* \"#utility.yul\":14081:14172   */\n      tag_344\n        /* \"#utility.yul\":14130:14171   */\n      tag_345\n        /* \"#utility.yul\":14154:14170   */\n      dup3\n        /* \"#utility.yul\":14130:14171   */\n      tag_187\n      jump\t// in\n    tag_345:\n        /* \"#utility.yul\":14122:14128   */\n      dup5\n        /* \"#utility.yul\":14115:14119   */\n      dup5\n        /* \"#utility.yul\":14109:14120   */\n      sload\n        /* \"#utility.yul\":14081:14172   */\n      tag_184\n      jump\t// in\n    tag_344:\n        /* \"#utility.yul\":14075:14079   */\n      dup3\n        /* \"#utility.yul\":14068:14173   */\n      sstore\n        /* \"#utility.yul\":13986:14179   */\n      pop\n        /* \"#utility.yul\":13910:14179   */\n      pop\n      pop\n      pop\n      jump\t// out\n        /* \"#utility.yul\":14185:14258   */\n    tag_189:\n        /* \"#utility.yul\":14230:14233   */\n      0x00\n        /* \"#utility.yul\":14185:14258   */\n      swap1\n      jump\t// out\n        /* \"#utility.yul\":14264:14453   */\n    tag_190:\n        /* \"#utility.yul\":14341:14373   */\n      tag_348\n      tag_189\n      jump\t// in\n    tag_348:\n        /* \"#utility.yul\":14382:14447   */\n      tag_349\n        /* \"#utility.yul\":14440:14446   */\n      dup2\n        /* \"#utility.yul\":14432:14438   */\n      dup5\n        /* \"#utility.yul\":14426:14430   */\n      dup5\n        /* \"#utility.yul\":14382:14447   */\n      tag_188\n      jump\t// in\n    tag_349:\n        /* \"#utility.yul\":14317:14453   */\n      pop\n        /* \"#utility.yul\":14264:14453   */\n      pop\n      pop\n      jump\t// out\n        /* \"#utility.yul\":14459:14645   */\n    tag_191:\n        /* \"#utility.yul\":14519:14639   */\n    tag_351:\n        /* \"#utility.yul\":14536:14539   */\n      dup2\n        /* \"#utility.yul\":14529:14534   */\n      dup2\n        /* \"#utility.yul\":14526:14540   */\n      lt\n        /* \"#utility.yul\":14519:14639   */\n      iszero\n      tag_353\n      jumpi\n        /* \"#utility.yul\":14590:14629   */\n      tag_354\n        /* \"#utility.yul\":14627:14628   */\n      0x00\n        /* \"#utility.yul\":14620:14625   */\n      dup3\n        /* \"#utility.yul\":14590:14629   */\n      tag_190\n      jump\t// in\n    tag_354:\n        /* \"#utility.yul\":14563:14564   */\n      0x01\n        /* \"#utility.yul\":14556:14561   */\n      dup2\n        /* \"#utility.yul\":14552:14565   */\n      add\n        /* \"#utility.yul\":14543:14565   */\n      swap1\n      pop\n        /* \"#utility.yul\":14519:14639   */\n      jump(tag_351)\n    tag_353:\n        /* \"#utility.yul\":14459:14645   */\n      pop\n      pop\n      jump\t// out\n        /* \"#utility.yul\":14651:15194   */\n    tag_192:\n        /* \"#utility.yul\":14752:14754   */\n      0x1f\n        /* \"#utility.yul\":14747:14750   */\n      dup3\n        /* \"#utility.yul\":14744:14755   */\n      gt\n        /* \"#utility.yul\":14741:15187   */\n      iszero\n      tag_356\n      jumpi\n        /* \"#utility.yul\":14786:14824   */\n      tag_357\n        /* \"#utility.yul\":14818:14823   */\n      dup2\n        /* \"#utility.yul\":14786:14824   */\n      tag_181\n      jump\t// in\n    tag_357:\n        /* \"#utility.yul\":14870:14899   */\n      tag_358\n        /* \"#utility.yul\":14888:14898   */\n      dup5\n        /* \"#utility.yul\":14870:14899   */\n      tag_182\n      jump\t// in\n    tag_358:\n        /* \"#utility.yul\":14860:14868   */\n      dup2\n        /* \"#utility.yul\":14856:14900   */\n      add\n        /* \"#utility.yul\":15053:15055   */\n      0x20\n        /* \"#utility.yul\":15041:15051   */\n      dup6\n        /* \"#utility.yul\":15038:15056   */\n      lt\n        /* \"#utility.yul\":15035:15084   */\n      iszero\n      tag_359\n      jumpi\n        /* \"#utility.yul\":15074:15082   */\n      dup2\n        /* \"#utility.yul\":15059:15082   */\n      swap1\n      pop\n        /* \"#utility.yul\":15035:15084   */\n    tag_359:\n        /* \"#utility.yul\":15097:15177   */\n      tag_360\n        /* \"#utility.yul\":15153:15175   */\n      tag_361\n        /* \"#utility.yul\":15171:15174   */\n      dup6\n        /* \"#utility.yul\":15153:15175   */\n      tag_182\n      jump\t// in\n    tag_361:\n        /* \"#utility.yul\":15143:15151   */\n      dup4\n        /* \"#utility.yul\":15139:15176   */\n      add\n        /* \"#utility.yul\":15126:15137   */\n      dup3\n        /* \"#utility.yul\":15097:15177   */\n      tag_191\n      jump\t// in\n    tag_360:\n        /* \"#utility.yul\":14756:15187   */\n      pop\n      pop\n        /* \"#utility.yul\":14741:15187   */\n    tag_356:\n        /* \"#utility.yul\":14651:15194   */\n      pop\n      pop\n      pop\n      jump\t// out\n        /* \"#utility.yul\":15200:15317   */\n    tag_193:\n        /* \"#utility.yul\":15254:15262   */\n      0x00\n        /* \"#utility.yul\":15304:15309   */\n      dup3\n        /* \"#utility.yul\":15298:15302   */\n      dup3\n        /* \"#utility.yul\":15294:15310   */\n      shr\n        /* \"#utility.yul\":15273:15310   */\n      swap1\n      pop\n        /* \"#utility.yul\":15200:15317   */\n      swap3\n      swap2\n      pop\n      pop\n      jump\t// out\n        /* \"#utility.yul\":15323:15492   */\n    tag_194:\n        /* \"#utility.yul\":15367:15373   */\n      0x00\n        /* \"#utility.yul\":15400:15451   */\n      tag_364\n        /* \"#utility.yul\":15448:15449   */\n      0x00\n        /* \"#utility.yul\":15444:15450   */\n      not\n        /* \"#utility.yul\":15436:15441   */\n      dup5\n        /* \"#utility.yul\":15433:15434   */\n      0x08\n        /* \"#utility.yul\":15429:15442   */\n      mul\n        /* \"#utility.yul\":15400:15451   */\n      tag_193\n      jump\t// in\n    tag_364:\n        /* \"#utility.yul\":15396:15452   */\n      not\n        /* \"#utility.yul\":15481:15485   */\n      dup1\n        /* \"#utility.yul\":15475:15479   */\n      dup4\n        /* \"#utility.yul\":15471:15486   */\n      and\n        /* \"#utility.yul\":15461:15486   */\n      swap2\n      pop\n        /* \"#utility.yul\":15374:15492   */\n      pop\n        /* \"#utility.yul\":15323:15492   */\n      swap3\n      swap2\n      pop\n      pop\n      jump\t// out\n        /* \"#utility.yul\":15497:15792   */\n    tag_195:\n        /* \"#utility.yul\":15573:15577   */\n      0x00\n        /* \"#utility.yul\":15719:15748   */\n      tag_366\n        /* \"#utility.yul\":15744:15747   */\n      dup4\n        /* \"#utility.yul\":15738:15742   */\n      dup4\n        /* \"#utility.yul\":15719:15748   */\n      tag_194\n      jump\t// in\n    tag_366:\n        /* \"#utility.yul\":15711:15748   */\n      swap2\n      pop\n        /* \"#utility.yul\":15781:15784   */\n      dup3\n        /* \"#utility.yul\":15778:15779   */\n      0x02\n        /* \"#utility.yul\":15774:15785   */\n      mul\n        /* \"#utility.yul\":15768:15772   */\n      dup3\n        /* \"#utility.yul\":15765:15786   */\n      or\n        /* \"#utility.yul\":15757:15786   */\n      swap1\n      pop\n        /* \"#utility.yul\":15497:15792   */\n      swap3\n      swap2\n      pop\n      pop\n      jump\t// out\n        /* \"#utility.yul\":15797:17192   */\n    tag_96:\n        /* \"#utility.yul\":15914:15951   */\n      tag_368\n        /* \"#utility.yul\":15947:15950   */\n      dup3\n        /* \"#utility.yul\":15914:15951   */\n      tag_149\n      jump\t// in\n    tag_368:\n        /* \"#utility.yul\":16016:16034   */\n      0xffffffffffffffff\n        /* \"#utility.yul\":16008:16014   */\n      dup2\n        /* \"#utility.yul\":16005:16035   */\n      gt\n        /* \"#utility.yul\":16002:16058   */\n      iszero\n      tag_369\n      jumpi\n        /* \"#utility.yul\":16038:16056   */\n      tag_370\n      tag_164\n      jump\t// in\n    tag_370:\n        /* \"#utility.yul\":16002:16058   */\n    tag_369:\n        /* \"#utility.yul\":16082:16120   */\n      tag_371\n        /* \"#utility.yul\":16114:16118   */\n      dup3\n        /* \"#utility.yul\":16108:16119   */\n      sload\n        /* \"#utility.yul\":16082:16120   */\n      tag_46\n      jump\t// in\n    tag_371:\n        /* \"#utility.yul\":16167:16234   */\n      tag_372\n        /* \"#utility.yul\":16227:16233   */\n      dup3\n        /* \"#utility.yul\":16219:16225   */\n      dup3\n        /* \"#utility.yul\":16213:16217   */\n      dup6\n        /* \"#utility.yul\":16167:16234   */\n      tag_192\n      jump\t// in\n    tag_372:\n        /* \"#utility.yul\":16261:16262   */\n      0x00\n        /* \"#utility.yul\":16285:16289   */\n      0x20\n        /* \"#utility.yul\":16272:16289   */\n      swap1\n      pop\n        /* \"#utility.yul\":16317:16319   */\n      0x1f\n        /* \"#utility.yul\":16309:16315   */\n      dup4\n        /* \"#utility.yul\":16306:16320   */\n      gt\n        /* \"#utility.yul\":16334:16335   */\n      0x01\n        /* \"#utility.yul\":16329:16947   */\n      dup2\n      eq\n      tag_374\n      jumpi\n        /* \"#utility.yul\":16991:16992   */\n      0x00\n        /* \"#utility.yul\":17008:17014   */\n      dup5\n        /* \"#utility.yul\":17005:17082   */\n      iszero\n      tag_375\n      jumpi\n        /* \"#utility.yul\":17057:17066   */\n      dup3\n        /* \"#utility.yul\":17052:17055   */\n      dup8\n        /* \"#utility.yul\":17048:17067   */\n      add\n        /* \"#utility.yul\":17042:17068   */\n      mload\n        /* \"#utility.yul\":17033:17068   */\n      swap1\n      pop\n        /* \"#utility.yul\":17005:17082   */\n    tag_375:\n        /* \"#utility.yul\":17108:17175   */\n      tag_376\n        /* \"#utility.yul\":17168:17174   */\n      dup6\n        /* \"#utility.yul\":17161:17166   */\n      dup3\n        /* \"#utility.yul\":17108:17175   */\n      tag_195\n      jump\t// in\n    tag_376:\n        /* \"#utility.yul\":17102:17106   */\n      dup7\n        /* \"#utility.yul\":17095:17176   */\n      sstore\n        /* \"#utility.yul\":16964:17186   */\n      pop\n        /* \"#utility.yul\":16299:17186   */\n      jump(tag_373)\n        /* \"#utility.yul\":16329:16947   */\n    tag_374:\n        /* \"#utility.yul\":16381:16385   */\n      0x1f\n        /* \"#utility.yul\":16377:16386   */\n      not\n        /* \"#utility.yul\":16369:16375   */\n      dup5\n        /* \"#utility.yul\":16365:16387   */\n      and\n        /* \"#utility.yul\":16415:16452   */\n      tag_377\n        /* \"#utility.yul\":16447:16451   */\n      dup7\n        /* \"#utility.yul\":16415:16452   */\n      tag_181\n      jump\t// in\n    tag_377:\n        /* \"#utility.yul\":16474:16475   */\n      0x00\n        /* \"#utility.yul\":16488:16696   */\n    tag_378:\n        /* \"#utility.yul\":16502:16509   */\n      dup3\n        /* \"#utility.yul\":16499:16500   */\n      dup2\n        /* \"#utility.yul\":16496:16510   */\n      lt\n        /* \"#utility.yul\":16488:16696   */\n      iszero\n      tag_380\n      jumpi\n        /* \"#utility.yul\":16581:16590   */\n      dup5\n        /* \"#utility.yul\":16576:16579   */\n      dup10\n        /* \"#utility.yul\":16572:16591   */\n      add\n        /* \"#utility.yul\":16566:16592   */\n      mload\n        /* \"#utility.yul\":16558:16564   */\n      dup3\n        /* \"#utility.yul\":16551:16593   */\n      sstore\n        /* \"#utility.yul\":16632:16633   */\n      0x01\n        /* \"#utility.yul\":16624:16630   */\n      dup3\n        /* \"#utility.yul\":16620:16634   */\n      add\n        /* \"#utility.yul\":16610:16634   */\n      swap2\n      pop\n        /* \"#utility.yul\":16679:16681   */\n      0x20\n        /* \"#utility.yul\":16668:16677   */\n      dup6\n        /* \"#utility.yul\":16664:16682   */\n      add\n        /* \"#utility.yul\":16651:16682   */\n      swap5\n      pop\n        /* \"#utility.yul\":16525:16529   */\n      0x20\n        /* \"#utility.yul\":16522:16523   */\n      dup2\n        /* \"#utility.yul\":16518:16530   */\n      add\n        /* \"#utility.yul\":16513:16530   */\n      swap1\n      pop\n        /* \"#utility.yul\":16488:16696   */\n      jump(tag_378)\n    tag_380:\n        /* \"#utility.yul\":16724:16730   */\n      dup7\n        /* \"#utility.yul\":16715:16722   */\n      dup4\n        /* \"#utility.yul\":16712:16731   */\n      lt\n        /* \"#utility.yul\":16709:16888   */\n      iszero\n      tag_381\n      jumpi\n        /* \"#utility.yul\":16782:16791   */\n      dup5\n        /* \"#utility.yul\":16777:16780   */\n      dup10\n        /* \"#utility.yul\":16773:16792   */\n      add\n        /* \"#utility.yul\":16767:16793   */\n      mload\n        /* \"#utility.yul\":16825:16873   */\n      tag_382\n        /* \"#utility.yul\":16867:16871   */\n      0x1f\n        /* \"#utility.yul\":16859:16865   */\n      dup10\n        /* \"#utility.yul\":16855:16872   */\n      and\n        /* \"#utility.yul\":16844:16853   */\n      dup3\n        /* \"#utility.yul\":16825:16873   */\n      tag_194\n      jump\t// in\n    tag_382:\n        /* \"#utility.yul\":16817:16823   */\n      dup4\n        /* \"#utility.yul\":16810:16874   */\n      sstore\n        /* \"#utility.yul\":16732:16888   */\n      pop\n        /* \"#utility.yul\":16709:16888   */\n    tag_381:\n        /* \"#utility.yul\":16934:16935   */\n      0x01\n        /* \"#utility.yul\":16930:16931   */\n      0x02\n        /* \"#utility.yul\":16922:16928   */\n      dup9\n        /* \"#utility.yul\":16918:16932   */\n      mul\n        /* \"#utility.yul\":16914:16936   */\n      add\n        /* \"#utility.yul\":16908:16912   */\n      dup9\n        /* \"#utility.yul\":16901:16937   */\n      sstore\n        /* \"#utility.yul\":16336:16947   */\n      pop\n      pop\n      pop\n        /* \"#utility.yul\":16299:17186   */\n    tag_373:\n      pop\n        /* \"#utility.yul\":15889:17192   */\n      pop\n      pop\n      pop\n        /* \"#utility.yul\":15797:17192   */\n      pop\n      pop\n      jump\t// out\n        /* \"#utility.yul\":17198:17378   */\n    tag_116:\n        /* \"#utility.yul\":17246:17323   */\n      0x4e487b7100000000000000000000000000000000000000000000000000000000\n        /* \"#utility.yul\":17243:17244   */\n      0x00\n        /* \"#utility.yul\":17236:17324   */\n      mstore\n        /* \"#utility.yul\":17343:17347   */\n      0x32\n        /* \"#utility.yul\":17340:17341   */\n      0x04\n        /* \"#utility.yul\":17333:17348   */\n      mstore\n        /* \"#utility.yul\":17367:17371   */\n      0x24\n        /* \"#utility.yul\":17364:17365   */\n      0x00\n        /* \"#utility.yul\":17357:17372   */\n      revert\n        /* \"#utility.yul\":17384:17564   */\n    tag_196:\n        /* \"#utility.yul\":17432:17509   */\n      0x4e487b7100000000000000000000000000000000000000000000000000000000\n        /* \"#utility.yul\":17429:17430   */\n      0x00\n        /* \"#utility.yul\":17422:17510   */\n      mstore\n        /* \"#utility.yul\":17529:17533   */\n      0x12\n        /* \"#utility.yul\":17526:17527   */\n      0x04\n        /* \"#utility.yul\":17519:17534   */\n      mstore\n        /* \"#utility.yul\":17553:17557   */\n      0x24\n        /* \"#utility.yul\":17550:17551   */\n      0x00\n        /* \"#utility.yul\":17543:17558   */\n      revert\n        /* \"#utility.yul\":17570:17746   */\n    tag_127:\n        /* \"#utility.yul\":17602:17603   */\n      0x00\n        /* \"#utility.yul\":17619:17639   */\n      tag_386\n        /* \"#utility.yul\":17637:17638   */\n      dup3\n        /* \"#utility.yul\":17619:17639   */\n      tag_154\n      jump\t// in\n    tag_386:\n        /* \"#utility.yul\":17614:17639   */\n      swap2\n      pop\n        /* \"#utility.yul\":17653:17673   */\n      tag_387\n        /* \"#utility.yul\":17671:17672   */\n      dup4\n        /* \"#utility.yul\":17653:17673   */\n      tag_154\n      jump\t// in\n    tag_387:\n        /* \"#utility.yul\":17648:17673   */\n      swap3\n      pop\n        /* \"#utility.yul\":17692:17693   */\n      dup3\n        /* \"#utility.yul\":17682:17717   */\n      tag_388\n      jumpi\n        /* \"#utility.yul\":17697:17715   */\n      tag_389\n      tag_196\n      jump\t// in\n    tag_389:\n        /* \"#utility.yul\":17682:17717   */\n    tag_388:\n        /* \"#utility.yul\":17738:17739   */\n      dup3\n        /* \"#utility.yul\":17735:17736   */\n      dup3\n        /* \"#utility.yul\":17731:17740   */\n      mod\n        /* \"#utility.yul\":17726:17740   */\n      swap1\n      pop\n        /* \"#utility.yul\":17570:17746   */\n      swap3\n      swap2\n      pop\n      pop\n      jump\t// out\n        /* \"#utility.yul\":17752:17937   */\n    tag_131:\n        /* \"#utility.yul\":17792:17793   */\n      0x00\n        /* \"#utility.yul\":17809:17829   */\n      tag_391\n        /* \"#utility.yul\":17827:17828   */\n      dup3\n        /* \"#utility.yul\":17809:17829   */\n      tag_154\n      jump\t// in\n    tag_391:\n        /* \"#utility.yul\":17804:17829   */\n      swap2\n      pop\n        /* \"#utility.yul\":17843:17863   */\n      tag_392\n        /* \"#utility.yul\":17861:17862   */\n      dup4\n        /* \"#utility.yul\":17843:17863   */\n      tag_154\n      jump\t// in\n    tag_392:\n        /* \"#utility.yul\":17838:17863   */\n      swap3\n      pop\n        /* \"#utility.yul\":17882:17883   */\n      dup3\n        /* \"#utility.yul\":17872:17907   */\n      tag_393\n      jumpi\n        /* \"#utility.yul\":17887:17905   */\n      tag_394\n      tag_196\n      jump\t// in\n    tag_394:\n        /* \"#utility.yul\":17872:17907   */\n    tag_393:\n        /* \"#utility.yul\":17929:17930   */\n      dup3\n        /* \"#utility.yul\":17926:17927   */\n      dup3\n        /* \"#utility.yul\":17922:17931   */\n      div\n        /* \"#utility.yul\":17917:17931   */\n      swap1\n      pop\n        /* \"#utility.yul\":17752:17937   */\n      swap3\n      swap2\n      pop\n      pop\n      jump\t// out\n\n    auxdata: 0xa2646970667358221220b0c739d89b1c8c3e0514d10a7bb75bf13bc375cc9369c66b673e21cffedabd6f64736f6c634300081a0033\n}\n",
				"bytecode": {
					"linkReferences": {},
					"object": "6080604052348015600e575f80fd5b50335f806101000a81548173ffffffffffffffffffffffffffffffffffffffff021916908373ffffffffffffffffffffffffffffffffffffffff160217905550600333908060018154018082558091505060019003905f5260205f20015f9091909190916101000a81548173ffffffffffffffffffffffffffffffffffffffff021916908373ffffffffffffffffffffffffffffffffffffffff160217905550611669806100bb5f395ff3fe608060405234801561000f575f80fd5b506004361061007b575f3560e01c8063bd611fe611610059578063bd611fe6146100d5578063c7f758a8146100f1578063cbff75cb14610121578063dbddc7aa146101515761007b565b806313af40351461007f57806341ec68701461009b578063b3f98adc146100b9575b5f80fd5b61009960048036038101906100949190610cc3565b61015b565b005b6100a36101f3565b6040516100b09190610e44565b60405180910390f35b6100d360048036038101906100ce9190610e9a565b61039b565b005b6100ef60048036038101906100ea919061101b565b61069f565b005b61010b600480360381019061010691906110a3565b6107a8565b6040516101189190610e44565b60405180910390f35b61013b60048036038101906101369190610cc3565b610950565b60405161014891906110dd565b60405180910390f35b6101596109f2565b005b5f8054906101000a900473ffffffffffffffffffffffffffffffffffffffff1673ffffffffffffffffffffffffffffffffffffffff163373ffffffffffffffffffffffffffffffffffffffff16146101b1575f80fd5b805f806101000a81548173ffffffffffffffffffffffffffffffffffffffff021916908373ffffffffffffffffffffffffffffffffffffffff16021790555050565b6101fb610b73565b60025f60015481526020019081526020015f20604051806101000160405290815f8201805461022990611123565b80601f016020809104026020016040519081016040528092919081815260200182805461025590611123565b80156102a05780601f10610277576101008083540402835291602001916102a0565b820191905f5260205f20905b81548152906001019060200180831161028357829003601f168201915b505050505081526020016001820180546102b990611123565b80601f01602080910402602001604051908101604052809291908181526020018280546102e590611123565b80156103305780601f1061030757610100808354040283529160200191610330565b820191905f5260205f20905b81548152906001019060200180831161031357829003601f168201915b5050505050815260200160028201548152602001600382015481526020016004820154815260200160058201548152602001600682015f9054906101000a900460ff161515151581526020016006820160019054906101000a900460ff161515151581525050905090565b6001151560025f60015481526020019081526020015f2060060160019054906101000a900460ff16151514610405576040517f08c379a00000000000000000000000000000000000000000000000000000000081526004016103fc906111ad565b60405180910390fd5b3361040f81610950565b1561044f576040517f08c379a000000000000000000000000000000000000000000000000000000000815260040161044690611215565b60405180910390fd5b5f60025f60015481526020019081526020015f2090505f81600401548260030154836002015461047f9190611260565b6104899190611260565b9050600333908060018154018082558091505060019003905f5260205f20015f9091909190916101000a81548173ffffffffffffffffffffffffffffffffffffffff021916908373ffffffffffffffffffffffffffffffffffffffff16021790555060018460ff1603610538576001826002015f82825461050a9190611260565b92505081905550610519610ae2565b826006015f6101000a81548160ff0219169083151502179055506105cf565b60028460ff1603610585576001826003015f8282546105579190611260565b92505081905550610566610ae2565b826006015f6101000a81548160ff0219169083151502179055506105ce565b5f8460ff16036105cd576001826004015f8282546105a39190611260565b925050819055506105b2610ae2565b826006015f6101000a81548160ff0219169083151502179055505b5b5b60018183600501546105e19190611293565b14801561060c575060018460ff1614806105fe575060028460ff16145b8061060b57505f8460ff16145b5b15610699575f8260060160016101000a81548160ff02191690831515021790555060405180602001604052805f8054906101000a900473ffffffffffffffffffffffffffffffffffffffff1673ffffffffffffffffffffffffffffffffffffffff1673ffffffffffffffffffffffffffffffffffffffff168152506003906001610697929190610bb6565b505b50505050565b5f8054906101000a900473ffffffffffffffffffffffffffffffffffffffff1673ffffffffffffffffffffffffffffffffffffffff163373ffffffffffffffffffffffffffffffffffffffff16146106f5575f80fd5b5f60025f60015481526020019081526020015f20905060015f81548092919061071d906112c6565b919050555083815f01908161073291906114aa565b508281600101908161074491906114aa565b505f81600201819055505f81600301819055505f81600401819055508181600501819055506001816006015f6101000a81548160ff02191690831515021790555060018160060160016101000a81548160ff02191690831515021790555050505050565b6107b0610b73565b60025f8381526020019081526020015f20604051806101000160405290815f820180546107dc90611123565b80601f016020809104026020016040519081016040528092919081815260200182805461080890611123565b80156108535780601f1061082a57610100808354040283529160200191610853565b820191905f5260205f20905b81548152906001019060200180831161083657829003601f168201915b5050505050815260200160018201805461086c90611123565b80601f016020809104026020016040519081016040528092919081815260200182805461089890611123565b80156108e35780601f106108ba576101008083540402835291602001916108e3565b820191905f5260205f20905b8154815290600101906020018083116108c657829003601f168201915b5050505050815260200160028201548152602001600382015481526020016004820154815260200160058201548152602001600682015f9054906101000a900460ff161515151581526020016006820160019054906101000a900460ff1615151515815250509050919050565b5f805f90505b6003805490508110156109e8578273ffffffffffffffffffffffffffffffffffffffff166003828154811061098e5761098d611579565b5b905f5260205f20015f9054906101000a900473ffffffffffffffffffffffffffffffffffffffff1673ffffffffffffffffffffffffffffffffffffffff16036109db5760019150506109ed565b8080600101915050610956565b505f90505b919050565b5f8054906101000a900473ffffffffffffffffffffffffffffffffffffffff1673ffffffffffffffffffffffffffffffffffffffff163373ffffffffffffffffffffffffffffffffffffffff1614610a48575f80fd5b6001151560025f60015481526020019081526020015f2060060160019054906101000a900460ff16151514610ab2576040517f08c379a0000000000000000000000000000000000000000000000000000000008152600401610aa9906111ad565b60405180910390fd5b5f60025f60015481526020019081526020015f2060060160016101000a81548160ff021916908315150217905550565b5f8060025f60015481526020019081526020015f2090505f816002015490505f826003015490505f83600401549050600160028560040154610b2491906115d3565b03610b3957600181610b369190611260565b90505b600281610b469190611603565b90508082610b549190611260565b831115610b68576001945050505050610b70565b5f9450505050505b90565b60405180610100016040528060608152602001606081526020015f81526020015f81526020015f81526020015f81526020015f151581526020015f151581525090565b828054828255905f5260205f20908101928215610c2c579160200282015b82811115610c2b578251825f6101000a81548173ffffffffffffffffffffffffffffffffffffffff021916908373ffffffffffffffffffffffffffffffffffffffff16021790555091602001919060010190610bd4565b5b509050610c399190610c3d565b5090565b5b80821115610c54575f815f905550600101610c3e565b5090565b5f604051905090565b5f80fd5b5f80fd5b5f73ffffffffffffffffffffffffffffffffffffffff82169050919050565b5f610c9282610c69565b9050919050565b610ca281610c88565b8114610cac575f80fd5b50565b5f81359050610cbd81610c99565b92915050565b5f60208284031215610cd857610cd7610c61565b5b5f610ce584828501610caf565b91505092915050565b5f81519050919050565b5f82825260208201905092915050565b8281835e5f83830152505050565b5f601f19601f8301169050919050565b5f610d3082610cee565b610d3a8185610cf8565b9350610d4a818560208601610d08565b610d5381610d16565b840191505092915050565b5f819050919050565b610d7081610d5e565b82525050565b5f8115159050919050565b610d8a81610d76565b82525050565b5f61010083015f8301518482035f860152610dab8282610d26565b91505060208301518482036020860152610dc58282610d26565b9150506040830151610dda6040860182610d67565b506060830151610ded6060860182610d67565b506080830151610e006080860182610d67565b5060a0830151610e1360a0860182610d67565b5060c0830151610e2660c0860182610d81565b5060e0830151610e3960e0860182610d81565b508091505092915050565b5f6020820190508181035f830152610e5c8184610d90565b905092915050565b5f60ff82169050919050565b610e7981610e64565b8114610e83575f80fd5b50565b5f81359050610e9481610e70565b92915050565b5f60208284031215610eaf57610eae610c61565b5b5f610ebc84828501610e86565b91505092915050565b5f80fd5b5f80fd5b7f4e487b71000000000000000000000000000000000000000000000000000000005f52604160045260245ffd5b610f0382610d16565b810181811067ffffffffffffffff82111715610f2257610f21610ecd565b5b80604052505050565b5f610f34610c58565b9050610f408282610efa565b919050565b5f67ffffffffffffffff821115610f5f57610f5e610ecd565b5b610f6882610d16565b9050602081019050919050565b828183375f83830152505050565b5f610f95610f9084610f45565b610f2b565b905082815260208101848484011115610fb157610fb0610ec9565b5b610fbc848285610f75565b509392505050565b5f82601f830112610fd857610fd7610ec5565b5b8135610fe8848260208601610f83565b91505092915050565b610ffa81610d5e565b8114611004575f80fd5b50565b5f8135905061101581610ff1565b92915050565b5f805f6060848603121561103257611031610c61565b5b5f84013567ffffffffffffffff81111561104f5761104e610c65565b5b61105b86828701610fc4565b935050602084013567ffffffffffffffff81111561107c5761107b610c65565b5b61108886828701610fc4565b925050604061109986828701611007565b9150509250925092565b5f602082840312156110b8576110b7610c61565b5b5f6110c584828501611007565b91505092915050565b6110d781610d76565b82525050565b5f6020820190506110f05f8301846110ce565b92915050565b7f4e487b71000000000000000000000000000000000000000000000000000000005f52602260045260245ffd5b5f600282049050600182168061113a57607f821691505b60208210810361114d5761114c6110f6565b5b50919050565b5f82825260208201905092915050565b7f5468652070726f706f73616c206973206e6f74206163746976650000000000005f82015250565b5f611197601a83611153565b91506111a282611163565b602082019050919050565b5f6020820190508181035f8301526111c48161118b565b9050919050565b7f416464726573732068617320616c726561647920766f746564000000000000005f82015250565b5f6111ff601983611153565b915061120a826111cb565b602082019050919050565b5f6020820190508181035f83015261122c816111f3565b9050919050565b7f4e487b71000000000000000000000000000000000000000000000000000000005f52601160045260245ffd5b5f61126a82610d5e565b915061127583610d5e565b925082820190508082111561128d5761128c611233565b5b92915050565b5f61129d82610d5e565b91506112a883610d5e565b92508282039050818111156112c0576112bf611233565b5b92915050565b5f6112d082610d5e565b91507fffffffffffffffffffffffffffffffffffffffffffffffffffffffffffffffff820361130257611301611233565b5b600182019050919050565b5f819050815f5260205f209050919050565b5f6020601f8301049050919050565b5f82821b905092915050565b5f600883026113697fffffffffffffffffffffffffffffffffffffffffffffffffffffffffffffffff8261132e565b611373868361132e565b95508019841693508086168417925050509392505050565b5f819050919050565b5f6113ae6113a96113a484610d5e565b61138b565b610d5e565b9050919050565b5f819050919050565b6113c783611394565b6113db6113d3826113b5565b84845461133a565b825550505050565b5f90565b6113ef6113e3565b6113fa8184846113be565b505050565b5b8181101561141d576114125f826113e7565b600181019050611400565b5050565b601f821115611462576114338161130d565b61143c8461131f565b8101602085101561144b578190505b61145f6114578561131f565b8301826113ff565b50505b505050565b5f82821c905092915050565b5f6114825f1984600802611467565b1980831691505092915050565b5f61149a8383611473565b9150826002028217905092915050565b6114b382610cee565b67ffffffffffffffff8111156114cc576114cb610ecd565b5b6114d68254611123565b6114e1828285611421565b5f60209050601f831160018114611512575f8415611500578287015190505b61150a858261148f565b865550611571565b601f1984166115208661130d565b5f5b8281101561154757848901518255600182019150602085019450602081019050611522565b868310156115645784890151611560601f891682611473565b8355505b6001600288020188555050505b505050505050565b7f4e487b71000000000000000000000000000000000000000000000000000000005f52603260045260245ffd5b7f4e487b71000000000000000000000000000000000000000000000000000000005f52601260045260245ffd5b5f6115dd82610d5e565b91506115e883610d5e565b9250826115f8576115f76115a6565b5b828206905092915050565b5f61160d82610d5e565b915061161883610d5e565b925082611628576116276115a6565b5b82820490509291505056fea2646970667358221220b0c739d89b1c8c3e0514d10a7bb75bf13bc375cc9369c66b673e21cffedabd6f64736f6c634300081a0033",
					"opcodes": "PUSH1 0x80 PUSH1 0x40 MSTORE CALLVALUE DUP1 ISZERO PUSH1 0xE JUMPI PUSH0 DUP1 REVERT JUMPDEST POP CALLER PUSH0 DUP1 PUSH2 0x100 EXP DUP2 SLOAD DUP2 PUSH20 0xFFFFFFFFFFFFFFFFFFFFFFFFFFFFFFFFFFFFFFFF MUL NOT AND SWAP1 DUP4 PUSH20 0xFFFFFFFFFFFFFFFFFFFFFFFFFFFFFFFFFFFFFFFF AND MUL OR SWAP1 SSTORE POP PUSH1 0x3 CALLER SWAP1 DUP1 PUSH1 0x1 DUP2 SLOAD ADD DUP1 DUP3 SSTORE DUP1 SWAP2 POP POP PUSH1 0x1 SWAP1 SUB SWAP1 PUSH0 MSTORE PUSH1 0x20 PUSH0 KECCAK256 ADD PUSH0 SWAP1 SWAP2 SWAP1 SWAP2 SWAP1 SWAP2 PUSH2 0x100 EXP DUP2 SLOAD DUP2 PUSH20 0xFFFFFFFFFFFFFFFFFFFFFFFFFFFFFFFFFFFFFFFF MUL NOT AND SWAP1 DUP4 PUSH20 0xFFFFFFFFFFFFFFFFFFFFFFFFFFFFFFFFFFFFFFFF AND MUL OR SWAP1 SSTORE POP PUSH2 0x1669 DUP1 PUSH2 0xBB PUSH0 CODECOPY PUSH0 RETURN INVALID PUSH1 0x80 PUSH1 0x40 MSTORE CALLVALUE DUP1 ISZERO PUSH2 0xF JUMPI PUSH0 DUP1 REVERT JUMPDEST POP PUSH1 0x4 CALLDATASIZE LT PUSH2 0x7B JUMPI PUSH0 CALLDATALOAD PUSH1 0xE0 SHR DUP1 PUSH4 0xBD611FE6 GT PUSH2 0x59 JUMPI DUP1 PUSH4 0xBD611FE6 EQ PUSH2 0xD5 JUMPI DUP1 PUSH4 0xC7F758A8 EQ PUSH2 0xF1 JUMPI DUP1 PUSH4 0xCBFF75CB EQ PUSH2 0x121 JUMPI DUP1 PUSH4 0xDBDDC7AA EQ PUSH2 0x151 JUMPI PUSH2 0x7B JUMP JUMPDEST DUP1 PUSH4 0x13AF4035 EQ PUSH2 0x7F JUMPI DUP1 PUSH4 0x41EC6870 EQ PUSH2 0x9B JUMPI DUP1 PUSH4 0xB3F98ADC EQ PUSH2 0xB9 JUMPI JUMPDEST PUSH0 DUP1 REVERT JUMPDEST PUSH2 0x99 PUSH1 0x4 DUP1 CALLDATASIZE SUB DUP2 ADD SWAP1 PUSH2 0x94 SWAP2 SWAP1 PUSH2 0xCC3 JUMP JUMPDEST PUSH2 0x15B JUMP JUMPDEST STOP JUMPDEST PUSH2 0xA3 PUSH2 0x1F3 JUMP JUMPDEST PUSH1 0x40 MLOAD PUSH2 0xB0 SWAP2 SWAP1 PUSH2 0xE44 JUMP JUMPDEST PUSH1 0x40 MLOAD DUP1 SWAP2 SUB SWAP1 RETURN JUMPDEST PUSH2 0xD3 PUSH1 0x4 DUP1 CALLDATASIZE SUB DUP2 ADD SWAP1 PUSH2 0xCE SWAP2 SWAP1 PUSH2 0xE9A JUMP JUMPDEST PUSH2 0x39B JUMP JUMPDEST STOP JUMPDEST PUSH2 0xEF PUSH1 0x4 DUP1 CALLDATASIZE SUB DUP2 ADD SWAP1 PUSH2 0xEA SWAP2 SWAP1 PUSH2 0x101B JUMP JUMPDEST PUSH2 0x69F JUMP JUMPDEST STOP JUMPDEST PUSH2 0x10B PUSH1 0x4 DUP1 CALLDATASIZE SUB DUP2 ADD SWAP1 PUSH2 0x106 SWAP2 SWAP1 PUSH2 0x10A3 JUMP JUMPDEST PUSH2 0x7A8 JUMP JUMPDEST PUSH1 0x40 MLOAD PUSH2 0x118 SWAP2 SWAP1 PUSH2 0xE44 JUMP JUMPDEST PUSH1 0x40 MLOAD DUP1 SWAP2 SUB SWAP1 RETURN JUMPDEST PUSH2 0x13B PUSH1 0x4 DUP1 CALLDATASIZE SUB DUP2 ADD SWAP1 PUSH2 0x136 SWAP2 SWAP1 PUSH2 0xCC3 JUMP JUMPDEST PUSH2 0x950 JUMP JUMPDEST PUSH1 0x40 MLOAD PUSH2 0x148 SWAP2 SWAP1 PUSH2 0x10DD JUMP JUMPDEST PUSH1 0x40 MLOAD DUP1 SWAP2 SUB SWAP1 RETURN JUMPDEST PUSH2 0x159 PUSH2 0x9F2 JUMP JUMPDEST STOP JUMPDEST PUSH0 DUP1 SLOAD SWAP1 PUSH2 0x100 EXP SWAP1 DIV PUSH20 0xFFFFFFFFFFFFFFFFFFFFFFFFFFFFFFFFFFFFFFFF AND PUSH20 0xFFFFFFFFFFFFFFFFFFFFFFFFFFFFFFFFFFFFFFFF AND CALLER PUSH20 0xFFFFFFFFFFFFFFFFFFFFFFFFFFFFFFFFFFFFFFFF AND EQ PUSH2 0x1B1 JUMPI PUSH0 DUP1 REVERT JUMPDEST DUP1 PUSH0 DUP1 PUSH2 0x100 EXP DUP2 SLOAD DUP2 PUSH20 0xFFFFFFFFFFFFFFFFFFFFFFFFFFFFFFFFFFFFFFFF MUL NOT AND SWAP1 DUP4 PUSH20 0xFFFFFFFFFFFFFFFFFFFFFFFFFFFFFFFFFFFFFFFF AND MUL OR SWAP1 SSTORE POP POP JUMP JUMPDEST PUSH2 0x1FB PUSH2 0xB73 JUMP JUMPDEST PUSH1 0x2 PUSH0 PUSH1 0x1 SLOAD DUP2 MSTORE PUSH1 0x20 ADD SWAP1 DUP2 MSTORE PUSH1 0x20 ADD PUSH0 KECCAK256 PUSH1 0x40 MLOAD DUP1 PUSH2 0x100 ADD PUSH1 0x40 MSTORE SWAP1 DUP2 PUSH0 DUP3 ADD DUP1 SLOAD PUSH2 0x229 SWAP1 PUSH2 0x1123 JUMP JUMPDEST DUP1 PUSH1 0x1F ADD PUSH1 0x20 DUP1 SWAP2 DIV MUL PUSH1 0x20 ADD PUSH1 0x40 MLOAD SWAP1 DUP2 ADD PUSH1 0x40 MSTORE DUP1 SWAP3 SWAP2 SWAP1 DUP2 DUP2 MSTORE PUSH1 0x20 ADD DUP3 DUP1 SLOAD PUSH2 0x255 SWAP1 PUSH2 0x1123 JUMP JUMPDEST DUP1 ISZERO PUSH2 0x2A0 JUMPI DUP1 PUSH1 0x1F LT PUSH2 0x277 JUMPI PUSH2 0x100 DUP1 DUP4 SLOAD DIV MUL DUP4 MSTORE SWAP2 PUSH1 0x20 ADD SWAP2 PUSH2 0x2A0 JUMP JUMPDEST DUP3 ADD SWAP2 SWAP1 PUSH0 MSTORE PUSH1 0x20 PUSH0 KECCAK256 SWAP1 JUMPDEST DUP2 SLOAD DUP2 MSTORE SWAP1 PUSH1 0x1 ADD SWAP1 PUSH1 0x20 ADD DUP1 DUP4 GT PUSH2 0x283 JUMPI DUP3 SWAP1 SUB PUSH1 0x1F AND DUP3 ADD SWAP2 JUMPDEST POP POP POP POP POP DUP2 MSTORE PUSH1 0x20 ADD PUSH1 0x1 DUP3 ADD DUP1 SLOAD PUSH2 0x2B9 SWAP1 PUSH2 0x1123 JUMP JUMPDEST DUP1 PUSH1 0x1F ADD PUSH1 0x20 DUP1 SWAP2 DIV MUL PUSH1 0x20 ADD PUSH1 0x40 MLOAD SWAP1 DUP2 ADD PUSH1 0x40 MSTORE DUP1 SWAP3 SWAP2 SWAP1 DUP2 DUP2 MSTORE PUSH1 0x20 ADD DUP3 DUP1 SLOAD PUSH2 0x2E5 SWAP1 PUSH2 0x1123 JUMP JUMPDEST DUP1 ISZERO PUSH2 0x330 JUMPI DUP1 PUSH1 0x1F LT PUSH2 0x307 JUMPI PUSH2 0x100 DUP1 DUP4 SLOAD DIV MUL DUP4 MSTORE SWAP2 PUSH1 0x20 ADD SWAP2 PUSH2 0x330 JUMP JUMPDEST DUP3 ADD SWAP2 SWAP1 PUSH0 MSTORE PUSH1 0x20 PUSH0 KECCAK256 SWAP1 JUMPDEST DUP2 SLOAD DUP2 MSTORE SWAP1 PUSH1 0x1 ADD SWAP1 PUSH1 0x20 ADD DUP1 DUP4 GT PUSH2 0x313 JUMPI DUP3 SWAP1 SUB PUSH1 0x1F AND DUP3 ADD SWAP2 JUMPDEST POP POP POP POP POP DUP2 MSTORE PUSH1 0x20 ADD PUSH1 0x2 DUP3 ADD SLOAD DUP2 MSTORE PUSH1 0x20 ADD PUSH1 0x3 DUP3 ADD SLOAD DUP2 MSTORE PUSH1 0x20 ADD PUSH1 0x4 DUP3 ADD SLOAD DUP2 MSTORE PUSH1 0x20 ADD PUSH1 0x5 DUP3 ADD SLOAD DUP2 MSTORE PUSH1 0x20 ADD PUSH1 0x6 DUP3 ADD PUSH0 SWAP1 SLOAD SWAP1 PUSH2 0x100 EXP SWAP1 DIV PUSH1 0xFF AND ISZERO ISZERO ISZERO ISZERO DUP2 MSTORE PUSH1 0x20 ADD PUSH1 0x6 DUP3 ADD PUSH1 0x1 SWAP1 SLOAD SWAP1 PUSH2 0x100 EXP SWAP1 DIV PUSH1 0xFF AND ISZERO ISZERO ISZERO ISZERO DUP2 MSTORE POP POP SWAP1 POP SWAP1 JUMP JUMPDEST PUSH1 0x1 ISZERO ISZERO PUSH1 0x2 PUSH0 PUSH1 0x1 SLOAD DUP2 MSTORE PUSH1 0x20 ADD SWAP1 DUP2 MSTORE PUSH1 0x20 ADD PUSH0 KECCAK256 PUSH1 0x6 ADD PUSH1 0x1 SWAP1 SLOAD SWAP1 PUSH2 0x100 EXP SWAP1 DIV PUSH1 0xFF AND ISZERO ISZERO EQ PUSH2 0x405 JUMPI PUSH1 0x40 MLOAD PUSH32 0x8C379A000000000000000000000000000000000000000000000000000000000 DUP2 MSTORE PUSH1 0x4 ADD PUSH2 0x3FC SWAP1 PUSH2 0x11AD JUMP JUMPDEST PUSH1 0x40 MLOAD DUP1 SWAP2 SUB SWAP1 REVERT JUMPDEST CALLER PUSH2 0x40F DUP2 PUSH2 0x950 JUMP JUMPDEST ISZERO PUSH2 0x44F JUMPI PUSH1 0x40 MLOAD PUSH32 0x8C379A000000000000000000000000000000000000000000000000000000000 DUP2 MSTORE PUSH1 0x4 ADD PUSH2 0x446 SWAP1 PUSH2 0x1215 JUMP JUMPDEST PUSH1 0x40 MLOAD DUP1 SWAP2 SUB SWAP1 REVERT JUMPDEST PUSH0 PUSH1 0x2 PUSH0 PUSH1 0x1 SLOAD DUP2 MSTORE PUSH1 0x20 ADD SWAP1 DUP2 MSTORE PUSH1 0x20 ADD PUSH0 KECCAK256 SWAP1 POP PUSH0 DUP2 PUSH1 0x4 ADD SLOAD DUP3 PUSH1 0x3 ADD SLOAD DUP4 PUSH1 0x2 ADD SLOAD PUSH2 0x47F SWAP2 SWAP1 PUSH2 0x1260 JUMP JUMPDEST PUSH2 0x489 SWAP2 SWAP1 PUSH2 0x1260 JUMP JUMPDEST SWAP1 POP PUSH1 0x3 CALLER SWAP1 DUP1 PUSH1 0x1 DUP2 SLOAD ADD DUP1 DUP3 SSTORE DUP1 SWAP2 POP POP PUSH1 0x1 SWAP1 SUB SWAP1 PUSH0 MSTORE PUSH1 0x20 PUSH0 KECCAK256 ADD PUSH0 SWAP1 SWAP2 SWAP1 SWAP2 SWAP1 SWAP2 PUSH2 0x100 EXP DUP2 SLOAD DUP2 PUSH20 0xFFFFFFFFFFFFFFFFFFFFFFFFFFFFFFFFFFFFFFFF MUL NOT AND SWAP1 DUP4 PUSH20 0xFFFFFFFFFFFFFFFFFFFFFFFFFFFFFFFFFFFFFFFF AND MUL OR SWAP1 SSTORE POP PUSH1 0x1 DUP5 PUSH1 0xFF AND SUB PUSH2 0x538 JUMPI PUSH1 0x1 DUP3 PUSH1 0x2 ADD PUSH0 DUP3 DUP3 SLOAD PUSH2 0x50A SWAP2 SWAP1 PUSH2 0x1260 JUMP JUMPDEST SWAP3 POP POP DUP2 SWAP1 SSTORE POP PUSH2 0x519 PUSH2 0xAE2 JUMP JUMPDEST DUP3 PUSH1 0x6 ADD PUSH0 PUSH2 0x100 EXP DUP2 SLOAD DUP2 PUSH1 0xFF MUL NOT AND SWAP1 DUP4 ISZERO ISZERO MUL OR SWAP1 SSTORE POP PUSH2 0x5CF JUMP JUMPDEST PUSH1 0x2 DUP5 PUSH1 0xFF AND SUB PUSH2 0x585 JUMPI PUSH1 0x1 DUP3 PUSH1 0x3 ADD PUSH0 DUP3 DUP3 SLOAD PUSH2 0x557 SWAP2 SWAP1 PUSH2 0x1260 JUMP JUMPDEST SWAP3 POP POP DUP2 SWAP1 SSTORE POP PUSH2 0x566 PUSH2 0xAE2 JUMP JUMPDEST DUP3 PUSH1 0x6 ADD PUSH0 PUSH2 0x100 EXP DUP2 SLOAD DUP2 PUSH1 0xFF MUL NOT AND SWAP1 DUP4 ISZERO ISZERO MUL OR SWAP1 SSTORE POP PUSH2 0x5CE JUMP JUMPDEST PUSH0 DUP5 PUSH1 0xFF AND SUB PUSH2 0x5CD JUMPI PUSH1 0x1 DUP3 PUSH1 0x4 ADD PUSH0 DUP3 DUP3 SLOAD PUSH2 0x5A3 SWAP2 SWAP1 PUSH2 0x1260 JUMP JUMPDEST SWAP3 POP POP DUP2 SWAP1 SSTORE POP PUSH2 0x5B2 PUSH2 0xAE2 JUMP JUMPDEST DUP3 PUSH1 0x6 ADD PUSH0 PUSH2 0x100 EXP DUP2 SLOAD DUP2 PUSH1 0xFF MUL NOT AND SWAP1 DUP4 ISZERO ISZERO MUL OR SWAP1 SSTORE POP JUMPDEST JUMPDEST JUMPDEST PUSH1 0x1 DUP2 DUP4 PUSH1 0x5 ADD SLOAD PUSH2 0x5E1 SWAP2 SWAP1 PUSH2 0x1293 JUMP JUMPDEST EQ DUP1 ISZERO PUSH2 0x60C JUMPI POP PUSH1 0x1 DUP5 PUSH1 0xFF AND EQ DUP1 PUSH2 0x5FE JUMPI POP PUSH1 0x2 DUP5 PUSH1 0xFF AND EQ JUMPDEST DUP1 PUSH2 0x60B JUMPI POP PUSH0 DUP5 PUSH1 0xFF AND EQ JUMPDEST JUMPDEST ISZERO PUSH2 0x699 JUMPI PUSH0 DUP3 PUSH1 0x6 ADD PUSH1 0x1 PUSH2 0x100 EXP DUP2 SLOAD DUP2 PUSH1 0xFF MUL NOT AND SWAP1 DUP4 ISZERO ISZERO MUL OR SWAP1 SSTORE POP PUSH1 0x40 MLOAD DUP1 PUSH1 0x20 ADD PUSH1 0x40 MSTORE DUP1 PUSH0 DUP1 SLOAD SWAP1 PUSH2 0x100 EXP SWAP1 DIV PUSH20 0xFFFFFFFFFFFFFFFFFFFFFFFFFFFFFFFFFFFFFFFF AND PUSH20 0xFFFFFFFFFFFFFFFFFFFFFFFFFFFFFFFFFFFFFFFF AND PUSH20 0xFFFFFFFFFFFFFFFFFFFFFFFFFFFFFFFFFFFFFFFF AND DUP2 MSTORE POP PUSH1 0x3 SWAP1 PUSH1 0x1 PUSH2 0x697 SWAP3 SWAP2 SWAP1 PUSH2 0xBB6 JUMP JUMPDEST POP JUMPDEST POP POP POP POP JUMP JUMPDEST PUSH0 DUP1 SLOAD SWAP1 PUSH2 0x100 EXP SWAP1 DIV PUSH20 0xFFFFFFFFFFFFFFFFFFFFFFFFFFFFFFFFFFFFFFFF AND PUSH20 0xFFFFFFFFFFFFFFFFFFFFFFFFFFFFFFFFFFFFFFFF AND CALLER PUSH20 0xFFFFFFFFFFFFFFFFFFFFFFFFFFFFFFFFFFFFFFFF AND EQ PUSH2 0x6F5 JUMPI PUSH0 DUP1 REVERT JUMPDEST PUSH0 PUSH1 0x2 PUSH0 PUSH1 0x1 SLOAD DUP2 MSTORE PUSH1 0x20 ADD SWAP1 DUP2 MSTORE PUSH1 0x20 ADD PUSH0 KECCAK256 SWAP1 POP PUSH1 0x1 PUSH0 DUP2 SLOAD DUP1 SWAP3 SWAP2 SWAP1 PUSH2 0x71D SWAP1 PUSH2 0x12C6 JUMP JUMPDEST SWAP2 SWAP1 POP SSTORE POP DUP4 DUP2 PUSH0 ADD SWAP1 DUP2 PUSH2 0x732 SWAP2 SWAP1 PUSH2 0x14AA JUMP JUMPDEST POP DUP3 DUP2 PUSH1 0x1 ADD SWAP1 DUP2 PUSH2 0x744 SWAP2 SWAP1 PUSH2 0x14AA JUMP JUMPDEST POP PUSH0 DUP2 PUSH1 0x2 ADD DUP2 SWAP1 SSTORE POP PUSH0 DUP2 PUSH1 0x3 ADD DUP2 SWAP1 SSTORE POP PUSH0 DUP2 PUSH1 0x4 ADD DUP2 SWAP1 SSTORE POP DUP2 DUP2 PUSH1 0x5 ADD DUP2 SWAP1 SSTORE POP PUSH1 0x1 DUP2 PUSH1 0x6 ADD PUSH0 PUSH2 0x100 EXP DUP2 SLOAD DUP2 PUSH1 0xFF MUL NOT AND SWAP1 DUP4 ISZERO ISZERO MUL OR SWAP1 SSTORE POP PUSH1 0x1 DUP2 PUSH1 0x6 ADD PUSH1 0x1 PUSH2 0x100 EXP DUP2 SLOAD DUP2 PUSH1 0xFF MUL NOT AND SWAP1 DUP4 ISZERO ISZERO MUL OR SWAP1 SSTORE POP POP POP POP POP JUMP JUMPDEST PUSH2 0x7B0 PUSH2 0xB73 JUMP JUMPDEST PUSH1 0x2 PUSH0 DUP4 DUP2 MSTORE PUSH1 0x20 ADD SWAP1 DUP2 MSTORE PUSH1 0x20 ADD PUSH0 KECCAK256 PUSH1 0x40 MLOAD DUP1 PUSH2 0x100 ADD PUSH1 0x40 MSTORE SWAP1 DUP2 PUSH0 DUP3 ADD DUP1 SLOAD PUSH2 0x7DC SWAP1 PUSH2 0x1123 JUMP JUMPDEST DUP1 PUSH1 0x1F ADD PUSH1 0x20 DUP1 SWAP2 DIV MUL PUSH1 0x20 ADD PUSH1 0x40 MLOAD SWAP1 DUP2 ADD PUSH1 0x40 MSTORE DUP1 SWAP3 SWAP2 SWAP1 DUP2 DUP2 MSTORE PUSH1 0x20 ADD DUP3 DUP1 SLOAD PUSH2 0x808 SWAP1 PUSH2 0x1123 JUMP JUMPDEST DUP1 ISZERO PUSH2 0x853 JUMPI DUP1 PUSH1 0x1F LT PUSH2 0x82A JUMPI PUSH2 0x100 DUP1 DUP4 SLOAD DIV MUL DUP4 MSTORE SWAP2 PUSH1 0x20 ADD SWAP2 PUSH2 0x853 JUMP JUMPDEST DUP3 ADD SWAP2 SWAP1 PUSH0 MSTORE PUSH1 0x20 PUSH0 KECCAK256 SWAP1 JUMPDEST DUP2 SLOAD DUP2 MSTORE SWAP1 PUSH1 0x1 ADD SWAP1 PUSH1 0x20 ADD DUP1 DUP4 GT PUSH2 0x836 JUMPI DUP3 SWAP1 SUB PUSH1 0x1F AND DUP3 ADD SWAP2 JUMPDEST POP POP POP POP POP DUP2 MSTORE PUSH1 0x20 ADD PUSH1 0x1 DUP3 ADD DUP1 SLOAD PUSH2 0x86C SWAP1 PUSH2 0x1123 JUMP JUMPDEST DUP1 PUSH1 0x1F ADD PUSH1 0x20 DUP1 SWAP2 DIV MUL PUSH1 0x20 ADD PUSH1 0x40 MLOAD SWAP1 DUP2 ADD PUSH1 0x40 MSTORE DUP1 SWAP3 SWAP2 SWAP1 DUP2 DUP2 MSTORE PUSH1 0x20 ADD DUP3 DUP1 SLOAD PUSH2 0x898 SWAP1 PUSH2 0x1123 JUMP JUMPDEST DUP1 ISZERO PUSH2 0x8E3 JUMPI DUP1 PUSH1 0x1F LT PUSH2 0x8BA JUMPI PUSH2 0x100 DUP1 DUP4 SLOAD DIV MUL DUP4 MSTORE SWAP2 PUSH1 0x20 ADD SWAP2 PUSH2 0x8E3 JUMP JUMPDEST DUP3 ADD SWAP2 SWAP1 PUSH0 MSTORE PUSH1 0x20 PUSH0 KECCAK256 SWAP1 JUMPDEST DUP2 SLOAD DUP2 MSTORE SWAP1 PUSH1 0x1 ADD SWAP1 PUSH1 0x20 ADD DUP1 DUP4 GT PUSH2 0x8C6 JUMPI DUP3 SWAP1 SUB PUSH1 0x1F AND DUP3 ADD SWAP2 JUMPDEST POP POP POP POP POP DUP2 MSTORE PUSH1 0x20 ADD PUSH1 0x2 DUP3 ADD SLOAD DUP2 MSTORE PUSH1 0x20 ADD PUSH1 0x3 DUP3 ADD SLOAD DUP2 MSTORE PUSH1 0x20 ADD PUSH1 0x4 DUP3 ADD SLOAD DUP2 MSTORE PUSH1 0x20 ADD PUSH1 0x5 DUP3 ADD SLOAD DUP2 MSTORE PUSH1 0x20 ADD PUSH1 0x6 DUP3 ADD PUSH0 SWAP1 SLOAD SWAP1 PUSH2 0x100 EXP SWAP1 DIV PUSH1 0xFF AND ISZERO ISZERO ISZERO ISZERO DUP2 MSTORE PUSH1 0x20 ADD PUSH1 0x6 DUP3 ADD PUSH1 0x1 SWAP1 SLOAD SWAP1 PUSH2 0x100 EXP SWAP1 DIV PUSH1 0xFF AND ISZERO ISZERO ISZERO ISZERO DUP2 MSTORE POP POP SWAP1 POP SWAP2 SWAP1 POP JUMP JUMPDEST PUSH0 DUP1 PUSH0 SWAP1 POP JUMPDEST PUSH1 0x3 DUP1 SLOAD SWAP1 POP DUP2 LT ISZERO PUSH2 0x9E8 JUMPI DUP3 PUSH20 0xFFFFFFFFFFFFFFFFFFFFFFFFFFFFFFFFFFFFFFFF AND PUSH1 0x3 DUP3 DUP2 SLOAD DUP2 LT PUSH2 0x98E JUMPI PUSH2 0x98D PUSH2 0x1579 JUMP JUMPDEST JUMPDEST SWAP1 PUSH0 MSTORE PUSH1 0x20 PUSH0 KECCAK256 ADD PUSH0 SWAP1 SLOAD SWAP1 PUSH2 0x100 EXP SWAP1 DIV PUSH20 0xFFFFFFFFFFFFFFFFFFFFFFFFFFFFFFFFFFFFFFFF AND PUSH20 0xFFFFFFFFFFFFFFFFFFFFFFFFFFFFFFFFFFFFFFFF AND SUB PUSH2 0x9DB JUMPI PUSH1 0x1 SWAP2 POP POP PUSH2 0x9ED JUMP JUMPDEST DUP1 DUP1 PUSH1 0x1 ADD SWAP2 POP POP PUSH2 0x956 JUMP JUMPDEST POP PUSH0 SWAP1 POP JUMPDEST SWAP2 SWAP1 POP JUMP JUMPDEST PUSH0 DUP1 SLOAD SWAP1 PUSH2 0x100 EXP SWAP1 DIV PUSH20 0xFFFFFFFFFFFFFFFFFFFFFFFFFFFFFFFFFFFFFFFF AND PUSH20 0xFFFFFFFFFFFFFFFFFFFFFFFFFFFFFFFFFFFFFFFF AND CALLER PUSH20 0xFFFFFFFFFFFFFFFFFFFFFFFFFFFFFFFFFFFFFFFF AND EQ PUSH2 0xA48 JUMPI PUSH0 DUP1 REVERT JUMPDEST PUSH1 0x1 ISZERO ISZERO PUSH1 0x2 PUSH0 PUSH1 0x1 SLOAD DUP2 MSTORE PUSH1 0x20 ADD SWAP1 DUP2 MSTORE PUSH1 0x20 ADD PUSH0 KECCAK256 PUSH1 0x6 ADD PUSH1 0x1 SWAP1 SLOAD SWAP1 PUSH2 0x100 EXP SWAP1 DIV PUSH1 0xFF AND ISZERO ISZERO EQ PUSH2 0xAB2 JUMPI PUSH1 0x40 MLOAD PUSH32 0x8C379A000000000000000000000000000000000000000000000000000000000 DUP2 MSTORE PUSH1 0x4 ADD PUSH2 0xAA9 SWAP1 PUSH2 0x11AD JUMP JUMPDEST PUSH1 0x40 MLOAD DUP1 SWAP2 SUB SWAP1 REVERT JUMPDEST PUSH0 PUSH1 0x2 PUSH0 PUSH1 0x1 SLOAD DUP2 MSTORE PUSH1 0x20 ADD SWAP1 DUP2 MSTORE PUSH1 0x20 ADD PUSH0 KECCAK256 PUSH1 0x6 ADD PUSH1 0x1 PUSH2 0x100 EXP DUP2 SLOAD DUP2 PUSH1 0xFF MUL NOT AND SWAP1 DUP4 ISZERO ISZERO MUL OR SWAP1 SSTORE POP JUMP JUMPDEST PUSH0 DUP1 PUSH1 0x2 PUSH0 PUSH1 0x1 SLOAD DUP2 MSTORE PUSH1 0x20 ADD SWAP1 DUP2 MSTORE PUSH1 0x20 ADD PUSH0 KECCAK256 SWAP1 POP PUSH0 DUP2 PUSH1 0x2 ADD SLOAD SWAP1 POP PUSH0 DUP3 PUSH1 0x3 ADD SLOAD SWAP1 POP PUSH0 DUP4 PUSH1 0x4 ADD SLOAD SWAP1 POP PUSH1 0x1 PUSH1 0x2 DUP6 PUSH1 0x4 ADD SLOAD PUSH2 0xB24 SWAP2 SWAP1 PUSH2 0x15D3 JUMP JUMPDEST SUB PUSH2 0xB39 JUMPI PUSH1 0x1 DUP2 PUSH2 0xB36 SWAP2 SWAP1 PUSH2 0x1260 JUMP JUMPDEST SWAP1 POP JUMPDEST PUSH1 0x2 DUP2 PUSH2 0xB46 SWAP2 SWAP1 PUSH2 0x1603 JUMP JUMPDEST SWAP1 POP DUP1 DUP3 PUSH2 0xB54 SWAP2 SWAP1 PUSH2 0x1260 JUMP JUMPDEST DUP4 GT ISZERO PUSH2 0xB68 JUMPI PUSH1 0x1 SWAP5 POP POP POP POP POP PUSH2 0xB70 JUMP JUMPDEST PUSH0 SWAP5 POP POP POP POP POP JUMPDEST SWAP1 JUMP JUMPDEST PUSH1 0x40 MLOAD DUP1 PUSH2 0x100 ADD PUSH1 0x40 MSTORE DUP1 PUSH1 0x60 DUP2 MSTORE PUSH1 0x20 ADD PUSH1 0x60 DUP2 MSTORE PUSH1 0x20 ADD PUSH0 DUP2 MSTORE PUSH1 0x20 ADD PUSH0 DUP2 MSTORE PUSH1 0x20 ADD PUSH0 DUP2 MSTORE PUSH1 0x20 ADD PUSH0 DUP2 MSTORE PUSH1 0x20 ADD PUSH0 ISZERO ISZERO DUP2 MSTORE PUSH1 0x20 ADD PUSH0 ISZERO ISZERO DUP2 MSTORE POP SWAP1 JUMP JUMPDEST DUP3 DUP1 SLOAD DUP3 DUP3 SSTORE SWAP1 PUSH0 MSTORE PUSH1 0x20 PUSH0 KECCAK256 SWAP1 DUP2 ADD SWAP3 DUP3 ISZERO PUSH2 0xC2C JUMPI SWAP2 PUSH1 0x20 MUL DUP3 ADD JUMPDEST DUP3 DUP2 GT ISZERO PUSH2 0xC2B JUMPI DUP3 MLOAD DUP3 PUSH0 PUSH2 0x100 EXP DUP2 SLOAD DUP2 PUSH20 0xFFFFFFFFFFFFFFFFFFFFFFFFFFFFFFFFFFFFFFFF MUL NOT AND SWAP1 DUP4 PUSH20 0xFFFFFFFFFFFFFFFFFFFFFFFFFFFFFFFFFFFFFFFF AND MUL OR SWAP1 SSTORE POP SWAP2 PUSH1 0x20 ADD SWAP2 SWAP1 PUSH1 0x1 ADD SWAP1 PUSH2 0xBD4 JUMP JUMPDEST JUMPDEST POP SWAP1 POP PUSH2 0xC39 SWAP2 SWAP1 PUSH2 0xC3D JUMP JUMPDEST POP SWAP1 JUMP JUMPDEST JUMPDEST DUP1 DUP3 GT ISZERO PUSH2 0xC54 JUMPI PUSH0 DUP2 PUSH0 SWAP1 SSTORE POP PUSH1 0x1 ADD PUSH2 0xC3E JUMP JUMPDEST POP SWAP1 JUMP JUMPDEST PUSH0 PUSH1 0x40 MLOAD SWAP1 POP SWAP1 JUMP JUMPDEST PUSH0 DUP1 REVERT JUMPDEST PUSH0 DUP1 REVERT JUMPDEST PUSH0 PUSH20 0xFFFFFFFFFFFFFFFFFFFFFFFFFFFFFFFFFFFFFFFF DUP3 AND SWAP1 POP SWAP2 SWAP1 POP JUMP JUMPDEST PUSH0 PUSH2 0xC92 DUP3 PUSH2 0xC69 JUMP JUMPDEST SWAP1 POP SWAP2 SWAP1 POP JUMP JUMPDEST PUSH2 0xCA2 DUP2 PUSH2 0xC88 JUMP JUMPDEST DUP2 EQ PUSH2 0xCAC JUMPI PUSH0 DUP1 REVERT JUMPDEST POP JUMP JUMPDEST PUSH0 DUP2 CALLDATALOAD SWAP1 POP PUSH2 0xCBD DUP2 PUSH2 0xC99 JUMP JUMPDEST SWAP3 SWAP2 POP POP JUMP JUMPDEST PUSH0 PUSH1 0x20 DUP3 DUP5 SUB SLT ISZERO PUSH2 0xCD8 JUMPI PUSH2 0xCD7 PUSH2 0xC61 JUMP JUMPDEST JUMPDEST PUSH0 PUSH2 0xCE5 DUP5 DUP3 DUP6 ADD PUSH2 0xCAF JUMP JUMPDEST SWAP2 POP POP SWAP3 SWAP2 POP POP JUMP JUMPDEST PUSH0 DUP2 MLOAD SWAP1 POP SWAP2 SWAP1 POP JUMP JUMPDEST PUSH0 DUP3 DUP3 MSTORE PUSH1 0x20 DUP3 ADD SWAP1 POP SWAP3 SWAP2 POP POP JUMP JUMPDEST DUP3 DUP2 DUP4 MCOPY PUSH0 DUP4 DUP4 ADD MSTORE POP POP POP JUMP JUMPDEST PUSH0 PUSH1 0x1F NOT PUSH1 0x1F DUP4 ADD AND SWAP1 POP SWAP2 SWAP1 POP JUMP JUMPDEST PUSH0 PUSH2 0xD30 DUP3 PUSH2 0xCEE JUMP JUMPDEST PUSH2 0xD3A DUP2 DUP6 PUSH2 0xCF8 JUMP JUMPDEST SWAP4 POP PUSH2 0xD4A DUP2 DUP6 PUSH1 0x20 DUP7 ADD PUSH2 0xD08 JUMP JUMPDEST PUSH2 0xD53 DUP2 PUSH2 0xD16 JUMP JUMPDEST DUP5 ADD SWAP2 POP POP SWAP3 SWAP2 POP POP JUMP JUMPDEST PUSH0 DUP2 SWAP1 POP SWAP2 SWAP1 POP JUMP JUMPDEST PUSH2 0xD70 DUP2 PUSH2 0xD5E JUMP JUMPDEST DUP3 MSTORE POP POP JUMP JUMPDEST PUSH0 DUP2 ISZERO ISZERO SWAP1 POP SWAP2 SWAP1 POP JUMP JUMPDEST PUSH2 0xD8A DUP2 PUSH2 0xD76 JUMP JUMPDEST DUP3 MSTORE POP POP JUMP JUMPDEST PUSH0 PUSH2 0x100 DUP4 ADD PUSH0 DUP4 ADD MLOAD DUP5 DUP3 SUB PUSH0 DUP7 ADD MSTORE PUSH2 0xDAB DUP3 DUP3 PUSH2 0xD26 JUMP JUMPDEST SWAP2 POP POP PUSH1 0x20 DUP4 ADD MLOAD DUP5 DUP3 SUB PUSH1 0x20 DUP7 ADD MSTORE PUSH2 0xDC5 DUP3 DUP3 PUSH2 0xD26 JUMP JUMPDEST SWAP2 POP POP PUSH1 0x40 DUP4 ADD MLOAD PUSH2 0xDDA PUSH1 0x40 DUP7 ADD DUP3 PUSH2 0xD67 JUMP JUMPDEST POP PUSH1 0x60 DUP4 ADD MLOAD PUSH2 0xDED PUSH1 0x60 DUP7 ADD DUP3 PUSH2 0xD67 JUMP JUMPDEST POP PUSH1 0x80 DUP4 ADD MLOAD PUSH2 0xE00 PUSH1 0x80 DUP7 ADD DUP3 PUSH2 0xD67 JUMP JUMPDEST POP PUSH1 0xA0 DUP4 ADD MLOAD PUSH2 0xE13 PUSH1 0xA0 DUP7 ADD DUP3 PUSH2 0xD67 JUMP JUMPDEST POP PUSH1 0xC0 DUP4 ADD MLOAD PUSH2 0xE26 PUSH1 0xC0 DUP7 ADD DUP3 PUSH2 0xD81 JUMP JUMPDEST POP PUSH1 0xE0 DUP4 ADD MLOAD PUSH2 0xE39 PUSH1 0xE0 DUP7 ADD DUP3 PUSH2 0xD81 JUMP JUMPDEST POP DUP1 SWAP2 POP POP SWAP3 SWAP2 POP POP JUMP JUMPDEST PUSH0 PUSH1 0x20 DUP3 ADD SWAP1 POP DUP2 DUP2 SUB PUSH0 DUP4 ADD MSTORE PUSH2 0xE5C DUP2 DUP5 PUSH2 0xD90 JUMP JUMPDEST SWAP1 POP SWAP3 SWAP2 POP POP JUMP JUMPDEST PUSH0 PUSH1 0xFF DUP3 AND SWAP1 POP SWAP2 SWAP1 POP JUMP JUMPDEST PUSH2 0xE79 DUP2 PUSH2 0xE64 JUMP JUMPDEST DUP2 EQ PUSH2 0xE83 JUMPI PUSH0 DUP1 REVERT JUMPDEST POP JUMP JUMPDEST PUSH0 DUP2 CALLDATALOAD SWAP1 POP PUSH2 0xE94 DUP2 PUSH2 0xE70 JUMP JUMPDEST SWAP3 SWAP2 POP POP JUMP JUMPDEST PUSH0 PUSH1 0x20 DUP3 DUP5 SUB SLT ISZERO PUSH2 0xEAF JUMPI PUSH2 0xEAE PUSH2 0xC61 JUMP JUMPDEST JUMPDEST PUSH0 PUSH2 0xEBC DUP5 DUP3 DUP6 ADD PUSH2 0xE86 JUMP JUMPDEST SWAP2 POP POP SWAP3 SWAP2 POP POP JUMP JUMPDEST PUSH0 DUP1 REVERT JUMPDEST PUSH0 DUP1 REVERT JUMPDEST PUSH32 0x4E487B7100000000000000000000000000000000000000000000000000000000 PUSH0 MSTORE PUSH1 0x41 PUSH1 0x4 MSTORE PUSH1 0x24 PUSH0 REVERT JUMPDEST PUSH2 0xF03 DUP3 PUSH2 0xD16 JUMP JUMPDEST DUP2 ADD DUP2 DUP2 LT PUSH8 0xFFFFFFFFFFFFFFFF DUP3 GT OR ISZERO PUSH2 0xF22 JUMPI PUSH2 0xF21 PUSH2 0xECD JUMP JUMPDEST JUMPDEST DUP1 PUSH1 0x40 MSTORE POP POP POP JUMP JUMPDEST PUSH0 PUSH2 0xF34 PUSH2 0xC58 JUMP JUMPDEST SWAP1 POP PUSH2 0xF40 DUP3 DUP3 PUSH2 0xEFA JUMP JUMPDEST SWAP2 SWAP1 POP JUMP JUMPDEST PUSH0 PUSH8 0xFFFFFFFFFFFFFFFF DUP3 GT ISZERO PUSH2 0xF5F JUMPI PUSH2 0xF5E PUSH2 0xECD JUMP JUMPDEST JUMPDEST PUSH2 0xF68 DUP3 PUSH2 0xD16 JUMP JUMPDEST SWAP1 POP PUSH1 0x20 DUP2 ADD SWAP1 POP SWAP2 SWAP1 POP JUMP JUMPDEST DUP3 DUP2 DUP4 CALLDATACOPY PUSH0 DUP4 DUP4 ADD MSTORE POP POP POP JUMP JUMPDEST PUSH0 PUSH2 0xF95 PUSH2 0xF90 DUP5 PUSH2 0xF45 JUMP JUMPDEST PUSH2 0xF2B JUMP JUMPDEST SWAP1 POP DUP3 DUP2 MSTORE PUSH1 0x20 DUP2 ADD DUP5 DUP5 DUP5 ADD GT ISZERO PUSH2 0xFB1 JUMPI PUSH2 0xFB0 PUSH2 0xEC9 JUMP JUMPDEST JUMPDEST PUSH2 0xFBC DUP5 DUP3 DUP6 PUSH2 0xF75 JUMP JUMPDEST POP SWAP4 SWAP3 POP POP POP JUMP JUMPDEST PUSH0 DUP3 PUSH1 0x1F DUP4 ADD SLT PUSH2 0xFD8 JUMPI PUSH2 0xFD7 PUSH2 0xEC5 JUMP JUMPDEST JUMPDEST DUP2 CALLDATALOAD PUSH2 0xFE8 DUP5 DUP3 PUSH1 0x20 DUP7 ADD PUSH2 0xF83 JUMP JUMPDEST SWAP2 POP POP SWAP3 SWAP2 POP POP JUMP JUMPDEST PUSH2 0xFFA DUP2 PUSH2 0xD5E JUMP JUMPDEST DUP2 EQ PUSH2 0x1004 JUMPI PUSH0 DUP1 REVERT JUMPDEST POP JUMP JUMPDEST PUSH0 DUP2 CALLDATALOAD SWAP1 POP PUSH2 0x1015 DUP2 PUSH2 0xFF1 JUMP JUMPDEST SWAP3 SWAP2 POP POP JUMP JUMPDEST PUSH0 DUP1 PUSH0 PUSH1 0x60 DUP5 DUP7 SUB SLT ISZERO PUSH2 0x1032 JUMPI PUSH2 0x1031 PUSH2 0xC61 JUMP JUMPDEST JUMPDEST PUSH0 DUP5 ADD CALLDATALOAD PUSH8 0xFFFFFFFFFFFFFFFF DUP2 GT ISZERO PUSH2 0x104F JUMPI PUSH2 0x104E PUSH2 0xC65 JUMP JUMPDEST JUMPDEST PUSH2 0x105B DUP7 DUP3 DUP8 ADD PUSH2 0xFC4 JUMP JUMPDEST SWAP4 POP POP PUSH1 0x20 DUP5 ADD CALLDATALOAD PUSH8 0xFFFFFFFFFFFFFFFF DUP2 GT ISZERO PUSH2 0x107C JUMPI PUSH2 0x107B PUSH2 0xC65 JUMP JUMPDEST JUMPDEST PUSH2 0x1088 DUP7 DUP3 DUP8 ADD PUSH2 0xFC4 JUMP JUMPDEST SWAP3 POP POP PUSH1 0x40 PUSH2 0x1099 DUP7 DUP3 DUP8 ADD PUSH2 0x1007 JUMP JUMPDEST SWAP2 POP POP SWAP3 POP SWAP3 POP SWAP3 JUMP JUMPDEST PUSH0 PUSH1 0x20 DUP3 DUP5 SUB SLT ISZERO PUSH2 0x10B8 JUMPI PUSH2 0x10B7 PUSH2 0xC61 JUMP JUMPDEST JUMPDEST PUSH0 PUSH2 0x10C5 DUP5 DUP3 DUP6 ADD PUSH2 0x1007 JUMP JUMPDEST SWAP2 POP POP SWAP3 SWAP2 POP POP JUMP JUMPDEST PUSH2 0x10D7 DUP2 PUSH2 0xD76 JUMP JUMPDEST DUP3 MSTORE POP POP JUMP JUMPDEST PUSH0 PUSH1 0x20 DUP3 ADD SWAP1 POP PUSH2 0x10F0 PUSH0 DUP4 ADD DUP5 PUSH2 0x10CE JUMP JUMPDEST SWAP3 SWAP2 POP POP JUMP JUMPDEST PUSH32 0x4E487B7100000000000000000000000000000000000000000000000000000000 PUSH0 MSTORE PUSH1 0x22 PUSH1 0x4 MSTORE PUSH1 0x24 PUSH0 REVERT JUMPDEST PUSH0 PUSH1 0x2 DUP3 DIV SWAP1 POP PUSH1 0x1 DUP3 AND DUP1 PUSH2 0x113A JUMPI PUSH1 0x7F DUP3 AND SWAP2 POP JUMPDEST PUSH1 0x20 DUP3 LT DUP2 SUB PUSH2 0x114D JUMPI PUSH2 0x114C PUSH2 0x10F6 JUMP JUMPDEST JUMPDEST POP SWAP2 SWAP1 POP JUMP JUMPDEST PUSH0 DUP3 DUP3 MSTORE PUSH1 0x20 DUP3 ADD SWAP1 POP SWAP3 SWAP2 POP POP JUMP JUMPDEST PUSH32 0x5468652070726F706F73616C206973206E6F7420616374697665000000000000 PUSH0 DUP3 ADD MSTORE POP JUMP JUMPDEST PUSH0 PUSH2 0x1197 PUSH1 0x1A DUP4 PUSH2 0x1153 JUMP JUMPDEST SWAP2 POP PUSH2 0x11A2 DUP3 PUSH2 0x1163 JUMP JUMPDEST PUSH1 0x20 DUP3 ADD SWAP1 POP SWAP2 SWAP1 POP JUMP JUMPDEST PUSH0 PUSH1 0x20 DUP3 ADD SWAP1 POP DUP2 DUP2 SUB PUSH0 DUP4 ADD MSTORE PUSH2 0x11C4 DUP2 PUSH2 0x118B JUMP JUMPDEST SWAP1 POP SWAP2 SWAP1 POP JUMP JUMPDEST PUSH32 0x416464726573732068617320616C726561647920766F74656400000000000000 PUSH0 DUP3 ADD MSTORE POP JUMP JUMPDEST PUSH0 PUSH2 0x11FF PUSH1 0x19 DUP4 PUSH2 0x1153 JUMP JUMPDEST SWAP2 POP PUSH2 0x120A DUP3 PUSH2 0x11CB JUMP JUMPDEST PUSH1 0x20 DUP3 ADD SWAP1 POP SWAP2 SWAP1 POP JUMP JUMPDEST PUSH0 PUSH1 0x20 DUP3 ADD SWAP1 POP DUP2 DUP2 SUB PUSH0 DUP4 ADD MSTORE PUSH2 0x122C DUP2 PUSH2 0x11F3 JUMP JUMPDEST SWAP1 POP SWAP2 SWAP1 POP JUMP JUMPDEST PUSH32 0x4E487B7100000000000000000000000000000000000000000000000000000000 PUSH0 MSTORE PUSH1 0x11 PUSH1 0x4 MSTORE PUSH1 0x24 PUSH0 REVERT JUMPDEST PUSH0 PUSH2 0x126A DUP3 PUSH2 0xD5E JUMP JUMPDEST SWAP2 POP PUSH2 0x1275 DUP4 PUSH2 0xD5E JUMP JUMPDEST SWAP3 POP DUP3 DUP3 ADD SWAP1 POP DUP1 DUP3 GT ISZERO PUSH2 0x128D JUMPI PUSH2 0x128C PUSH2 0x1233 JUMP JUMPDEST JUMPDEST SWAP3 SWAP2 POP POP JUMP JUMPDEST PUSH0 PUSH2 0x129D DUP3 PUSH2 0xD5E JUMP JUMPDEST SWAP2 POP PUSH2 0x12A8 DUP4 PUSH2 0xD5E JUMP JUMPDEST SWAP3 POP DUP3 DUP3 SUB SWAP1 POP DUP2 DUP2 GT ISZERO PUSH2 0x12C0 JUMPI PUSH2 0x12BF PUSH2 0x1233 JUMP JUMPDEST JUMPDEST SWAP3 SWAP2 POP POP JUMP JUMPDEST PUSH0 PUSH2 0x12D0 DUP3 PUSH2 0xD5E JUMP JUMPDEST SWAP2 POP PUSH32 0xFFFFFFFFFFFFFFFFFFFFFFFFFFFFFFFFFFFFFFFFFFFFFFFFFFFFFFFFFFFFFFFF DUP3 SUB PUSH2 0x1302 JUMPI PUSH2 0x1301 PUSH2 0x1233 JUMP JUMPDEST JUMPDEST PUSH1 0x1 DUP3 ADD SWAP1 POP SWAP2 SWAP1 POP JUMP JUMPDEST PUSH0 DUP2 SWAP1 POP DUP2 PUSH0 MSTORE PUSH1 0x20 PUSH0 KECCAK256 SWAP1 POP SWAP2 SWAP1 POP JUMP JUMPDEST PUSH0 PUSH1 0x20 PUSH1 0x1F DUP4 ADD DIV SWAP1 POP SWAP2 SWAP1 POP JUMP JUMPDEST PUSH0 DUP3 DUP3 SHL SWAP1 POP SWAP3 SWAP2 POP POP JUMP JUMPDEST PUSH0 PUSH1 0x8 DUP4 MUL PUSH2 0x1369 PUSH32 0xFFFFFFFFFFFFFFFFFFFFFFFFFFFFFFFFFFFFFFFFFFFFFFFFFFFFFFFFFFFFFFFF DUP3 PUSH2 0x132E JUMP JUMPDEST PUSH2 0x1373 DUP7 DUP4 PUSH2 0x132E JUMP JUMPDEST SWAP6 POP DUP1 NOT DUP5 AND SWAP4 POP DUP1 DUP7 AND DUP5 OR SWAP3 POP POP POP SWAP4 SWAP3 POP POP POP JUMP JUMPDEST PUSH0 DUP2 SWAP1 POP SWAP2 SWAP1 POP JUMP JUMPDEST PUSH0 PUSH2 0x13AE PUSH2 0x13A9 PUSH2 0x13A4 DUP5 PUSH2 0xD5E JUMP JUMPDEST PUSH2 0x138B JUMP JUMPDEST PUSH2 0xD5E JUMP JUMPDEST SWAP1 POP SWAP2 SWAP1 POP JUMP JUMPDEST PUSH0 DUP2 SWAP1 POP SWAP2 SWAP1 POP JUMP JUMPDEST PUSH2 0x13C7 DUP4 PUSH2 0x1394 JUMP JUMPDEST PUSH2 0x13DB PUSH2 0x13D3 DUP3 PUSH2 0x13B5 JUMP JUMPDEST DUP5 DUP5 SLOAD PUSH2 0x133A JUMP JUMPDEST DUP3 SSTORE POP POP POP POP JUMP JUMPDEST PUSH0 SWAP1 JUMP JUMPDEST PUSH2 0x13EF PUSH2 0x13E3 JUMP JUMPDEST PUSH2 0x13FA DUP2 DUP5 DUP5 PUSH2 0x13BE JUMP JUMPDEST POP POP POP JUMP JUMPDEST JUMPDEST DUP2 DUP2 LT ISZERO PUSH2 0x141D JUMPI PUSH2 0x1412 PUSH0 DUP3 PUSH2 0x13E7 JUMP JUMPDEST PUSH1 0x1 DUP2 ADD SWAP1 POP PUSH2 0x1400 JUMP JUMPDEST POP POP JUMP JUMPDEST PUSH1 0x1F DUP3 GT ISZERO PUSH2 0x1462 JUMPI PUSH2 0x1433 DUP2 PUSH2 0x130D JUMP JUMPDEST PUSH2 0x143C DUP5 PUSH2 0x131F JUMP JUMPDEST DUP2 ADD PUSH1 0x20 DUP6 LT ISZERO PUSH2 0x144B JUMPI DUP2 SWAP1 POP JUMPDEST PUSH2 0x145F PUSH2 0x1457 DUP6 PUSH2 0x131F JUMP JUMPDEST DUP4 ADD DUP3 PUSH2 0x13FF JUMP JUMPDEST POP POP JUMPDEST POP POP POP JUMP JUMPDEST PUSH0 DUP3 DUP3 SHR SWAP1 POP SWAP3 SWAP2 POP POP JUMP JUMPDEST PUSH0 PUSH2 0x1482 PUSH0 NOT DUP5 PUSH1 0x8 MUL PUSH2 0x1467 JUMP JUMPDEST NOT DUP1 DUP4 AND SWAP2 POP POP SWAP3 SWAP2 POP POP JUMP JUMPDEST PUSH0 PUSH2 0x149A DUP4 DUP4 PUSH2 0x1473 JUMP JUMPDEST SWAP2 POP DUP3 PUSH1 0x2 MUL DUP3 OR SWAP1 POP SWAP3 SWAP2 POP POP JUMP JUMPDEST PUSH2 0x14B3 DUP3 PUSH2 0xCEE JUMP JUMPDEST PUSH8 0xFFFFFFFFFFFFFFFF DUP2 GT ISZERO PUSH2 0x14CC JUMPI PUSH2 0x14CB PUSH2 0xECD JUMP JUMPDEST JUMPDEST PUSH2 0x14D6 DUP3 SLOAD PUSH2 0x1123 JUMP JUMPDEST PUSH2 0x14E1 DUP3 DUP3 DUP6 PUSH2 0x1421 JUMP JUMPDEST PUSH0 PUSH1 0x20 SWAP1 POP PUSH1 0x1F DUP4 GT PUSH1 0x1 DUP2 EQ PUSH2 0x1512 JUMPI PUSH0 DUP5 ISZERO PUSH2 0x1500 JUMPI DUP3 DUP8 ADD MLOAD SWAP1 POP JUMPDEST PUSH2 0x150A DUP6 DUP3 PUSH2 0x148F JUMP JUMPDEST DUP7 SSTORE POP PUSH2 0x1571 JUMP JUMPDEST PUSH1 0x1F NOT DUP5 AND PUSH2 0x1520 DUP7 PUSH2 0x130D JUMP JUMPDEST PUSH0 JUMPDEST DUP3 DUP2 LT ISZERO PUSH2 0x1547 JUMPI DUP5 DUP10 ADD MLOAD DUP3 SSTORE PUSH1 0x1 DUP3 ADD SWAP2 POP PUSH1 0x20 DUP6 ADD SWAP5 POP PUSH1 0x20 DUP2 ADD SWAP1 POP PUSH2 0x1522 JUMP JUMPDEST DUP7 DUP4 LT ISZERO PUSH2 0x1564 JUMPI DUP5 DUP10 ADD MLOAD PUSH2 0x1560 PUSH1 0x1F DUP10 AND DUP3 PUSH2 0x1473 JUMP JUMPDEST DUP4 SSTORE POP JUMPDEST PUSH1 0x1 PUSH1 0x2 DUP9 MUL ADD DUP9 SSTORE POP POP POP JUMPDEST POP POP POP POP POP POP JUMP JUMPDEST PUSH32 0x4E487B7100000000000000000000000000000000000000000000000000000000 PUSH0 MSTORE PUSH1 0x32 PUSH1 0x4 MSTORE PUSH1 0x24 PUSH0 REVERT JUMPDEST PUSH32 0x4E487B7100000000000000000000000000000000000000000000000000000000 PUSH0 MSTORE PUSH1 0x12 PUSH1 0x4 MSTORE PUSH1 0x24 PUSH0 REVERT JUMPDEST PUSH0 PUSH2 0x15DD DUP3 PUSH2 0xD5E JUMP JUMPDEST SWAP2 POP PUSH2 0x15E8 DUP4 PUSH2 0xD5E JUMP JUMPDEST SWAP3 POP DUP3 PUSH2 0x15F8 JUMPI PUSH2 0x15F7 PUSH2 0x15A6 JUMP JUMPDEST JUMPDEST DUP3 DUP3 MOD SWAP1 POP SWAP3 SWAP2 POP POP JUMP JUMPDEST PUSH0 PUSH2 0x160D DUP3 PUSH2 0xD5E JUMP JUMPDEST SWAP2 POP PUSH2 0x1618 DUP4 PUSH2 0xD5E JUMP JUMPDEST SWAP3 POP DUP3 PUSH2 0x1628 JUMPI PUSH2 0x1627 PUSH2 0x15A6 JUMP JUMPDEST JUMPDEST DUP3 DUP3 DIV SWAP1 POP SWAP3 SWAP2 POP POP JUMP INVALID LOG2 PUSH5 0x6970667358 0x22 SLT KECCAK256 0xB0 0xC7 CODECOPY 0xD8 SWAP12 SHR DUP13 RETURNDATACOPY SDIV EQ 0xD1 EXP PUSH28 0xB75BF13BC375CC9369C66B673E21CFFEDABD6F64736F6C634300081A STOP CALLER "
				},
				"gasEstimates": {
					"creation": {
						"codeDepositCost": "1147400",
						"executionCost": "74032",
						"totalCost": "1221432"
					},
					"external": {
						"create_proposal(string,string,uint256)": "infinite",
						"getCurrentProposal()": "infinite",
						"getProposal(uint256)": "infinite",
						"isVoted(address)": "infinite",
						"setOwner(address)": "26882",
						"terminateProposal()": "33276",
						"vote(uint8)": "infinite"
					},
					"internal": {
						"calculateCurrentState()": "infinite"
					}
				},
				"methodIdentifiers": {
					"create_proposal(string,string,uint256)": "bd611fe6",
					"getCurrentProposal()": "41ec6870",
					"getProposal(uint256)": "c7f758a8",
					"isVoted(address)": "cbff75cb",
					"setOwner(address)": "13af4035",
					"terminateProposal()": "dbddc7aa",
					"vote(uint8)": "b3f98adc"
				}
			},
			"storageLayout": {
				"storage": [
					{
						"astId": 3,
						"contract": "contracts/proposal2.sol:proposalContract",
						"label": "owner",
						"offset": 0,
						"slot": "0",
						"type": "t_address"
					},
					{
						"astId": 5,
						"contract": "contracts/proposal2.sol:proposalContract",
						"label": "counter",
						"offset": 0,
						"slot": "1",
						"type": "t_uint256"
					},
					{
						"astId": 82,
						"contract": "contracts/proposal2.sol:proposalContract",
						"label": "proposal_history",
						"offset": 0,
						"slot": "2",
						"type": "t_mapping(t_uint256,t_struct(Proposal)77_storage)"
					},
					{
						"astId": 85,
						"contract": "contracts/proposal2.sol:proposalContract",
						"label": "voted_addresses",
						"offset": 0,
						"slot": "3",
						"type": "t_array(t_address)dyn_storage"
					}
				],
				"types": {
					"t_address": {
						"encoding": "inplace",
						"label": "address",
						"numberOfBytes": "20"
					},
					"t_array(t_address)dyn_storage": {
						"base": "t_address",
						"encoding": "dynamic_array",
						"label": "address[]",
						"numberOfBytes": "32"
					},
					"t_bool": {
						"encoding": "inplace",
						"label": "bool",
						"numberOfBytes": "1"
					},
					"t_mapping(t_uint256,t_struct(Proposal)77_storage)": {
						"encoding": "mapping",
						"key": "t_uint256",
						"label": "mapping(uint256 => struct proposalContract.Proposal)",
						"numberOfBytes": "32",
						"value": "t_struct(Proposal)77_storage"
					},
					"t_string_storage": {
						"encoding": "bytes",
						"label": "string",
						"numberOfBytes": "32"
					},
					"t_struct(Proposal)77_storage": {
						"encoding": "inplace",
						"label": "struct proposalContract.Proposal",
						"members": [
							{
								"astId": 62,
								"contract": "contracts/proposal2.sol:proposalContract",
								"label": "title",
								"offset": 0,
								"slot": "0",
								"type": "t_string_storage"
							},
							{
								"astId": 64,
								"contract": "contracts/proposal2.sol:proposalContract",
								"label": "description",
								"offset": 0,
								"slot": "1",
								"type": "t_string_storage"
							},
							{
								"astId": 66,
								"contract": "contracts/proposal2.sol:proposalContract",
								"label": "approve",
								"offset": 0,
								"slot": "2",
								"type": "t_uint256"
							},
							{
								"astId": 68,
								"contract": "contracts/proposal2.sol:proposalContract",
								"label": "reject",
								"offset": 0,
								"slot": "3",
								"type": "t_uint256"
							},
							{
								"astId": 70,
								"contract": "contracts/proposal2.sol:proposalContract",
								"label": "pass",
								"offset": 0,
								"slot": "4",
								"type": "t_uint256"
							},
							{
								"astId": 72,
								"contract": "contracts/proposal2.sol:proposalContract",
								"label": "total_vote_to_end",
								"offset": 0,
								"slot": "5",
								"type": "t_uint256"
							},
							{
								"astId": 74,
								"contract": "contracts/proposal2.sol:proposalContract",
								"label": "current_state",
								"offset": 0,
								"slot": "6",
								"type": "t_bool"
							},
							{
								"astId": 76,
								"contract": "contracts/proposal2.sol:proposalContract",
								"label": "is_active",
								"offset": 1,
								"slot": "6",
								"type": "t_bool"
							}
						],
						"numberOfBytes": "224"
					},
					"t_uint256": {
						"encoding": "inplace",
						"label": "uint256",
						"numberOfBytes": "32"
					}
				}
			},
			"userdoc": {
				"kind": "user",
				"methods": {},
				"version": 1
			}
		}
	}
}