{
	"contracts/proposal.sol": {
		"proposalContract": {
			"abi": [
				{
					"inputs": [],
					"stateMutability": "nonpayable",
					"type": "constructor"
				},
				{
					"inputs": [
						{
							"internalType": "uint256",
							"name": "proposal_number",
							"type": "uint256"
						}
					],
					"name": "approve",
					"outputs": [],
					"stateMutability": "nonpayable",
					"type": "function"
				},
				{
					"inputs": [
						{
							"internalType": "string",
							"name": "title",
							"type": "string"
						},
						{
							"internalType": "string",
							"name": "description",
							"type": "string"
						},
						{
							"internalType": "uint256",
							"name": "total_vote_to_end",
							"type": "uint256"
						}
					],
					"name": "create_proposal",
					"outputs": [],
					"stateMutability": "nonpayable",
					"type": "function"
				},
				{
					"inputs": [
						{
							"internalType": "uint256",
							"name": "proposal_number",
							"type": "uint256"
						}
					],
					"name": "reject",
					"outputs": [],
					"stateMutability": "nonpayable",
					"type": "function"
				}
			],
			"devdoc": {
				"kind": "dev",
				"methods": {},
				"version": 1
			},
			"evm": {
				"assembly": "    /* \"contracts/proposal.sol\":61:2381  contract proposalContract{... */\n  mstore(0x40, 0x80)\n    /* \"contracts/proposal.sol\":150:201  constructor (){... */\n  callvalue\n  dup1\n  iszero\n  tag_1\n  jumpi\n  0x00\n  dup1\n  revert\ntag_1:\n  pop\n    /* \"contracts/proposal.sol\":183:193  msg.sender */\n  caller\n    /* \"contracts/proposal.sol\":175:180  owner */\n  0x00\n  dup1\n    /* \"contracts/proposal.sol\":175:193  owner = msg.sender */\n  0x0100\n  exp\n  dup2\n  sload\n  dup2\n  0xffffffffffffffffffffffffffffffffffffffff\n  mul\n  not\n  and\n  swap1\n  dup4\n  0xffffffffffffffffffffffffffffffffffffffff\n  and\n  mul\n  or\n  swap1\n  sstore\n  pop\n    /* \"contracts/proposal.sol\":61:2381  contract proposalContract{... */\n  dataSize(sub_0)\n  dup1\n  dataOffset(sub_0)\n  0x00\n  codecopy\n  0x00\n  return\nstop\n\nsub_0: assembly {\n        /* \"contracts/proposal.sol\":61:2381  contract proposalContract{... */\n      mstore(0x40, 0x80)\n      callvalue\n      dup1\n      iszero\n      tag_1\n      jumpi\n      0x00\n      dup1\n      revert\n    tag_1:\n      pop\n      jumpi(tag_2, lt(calldatasize, 0x04))\n      shr(0xe0, calldataload(0x00))\n      dup1\n      0xb759f954\n      eq\n      tag_3\n      jumpi\n      dup1\n      0xb8adaa11\n      eq\n      tag_4\n      jumpi\n      dup1\n      0xbd611fe6\n      eq\n      tag_5\n      jumpi\n    tag_2:\n      0x00\n      dup1\n      revert\n        /* \"contracts/proposal.sol\":643:1218  function approve(uint proposal_number) external {... */\n    tag_3:\n      tag_6\n      0x04\n      dup1\n      calldatasize\n      sub\n      dup2\n      add\n      swap1\n      tag_7\n      swap2\n      swap1\n      tag_8\n      jump\t// in\n    tag_7:\n      tag_9\n      jump\t// in\n    tag_6:\n      stop\n        /* \"contracts/proposal.sol\":1226:1805  function reject(uint proposal_number) external {... */\n    tag_4:\n      tag_10\n      0x04\n      dup1\n      calldatasize\n      sub\n      dup2\n      add\n      swap1\n      tag_11\n      swap2\n      swap1\n      tag_8\n      jump\t// in\n    tag_11:\n      tag_12\n      jump\t// in\n    tag_10:\n      stop\n        /* \"contracts/proposal.sol\":1813:2378  function create_proposal(string memory title, string memory description, uint256 total_vote_to_end) external onlyOwner {... */\n    tag_5:\n      tag_13\n      0x04\n      dup1\n      calldatasize\n      sub\n      dup2\n      add\n      swap1\n      tag_14\n      swap2\n      swap1\n      tag_15\n      jump\t// in\n    tag_14:\n      tag_16\n      jump\t// in\n    tag_13:\n      stop\n        /* \"contracts/proposal.sol\":643:1218  function approve(uint proposal_number) external {... */\n    tag_9:\n        /* \"contracts/proposal.sol\":702:736  Proposal storage selected_proposal */\n      0x00\n        /* \"contracts/proposal.sol\":739:755  proposal_history */\n      0x02\n        /* \"contracts/proposal.sol\":739:772  proposal_history[proposal_number] */\n      0x00\n        /* \"contracts/proposal.sol\":756:771  proposal_number */\n      dup4\n        /* \"contracts/proposal.sol\":739:772  proposal_history[proposal_number] */\n      dup2\n      mstore\n      0x20\n      add\n      swap1\n      dup2\n      mstore\n      0x20\n      add\n      0x00\n      keccak256\n        /* \"contracts/proposal.sol\":702:772  Proposal storage selected_proposal = proposal_history[proposal_number] */\n      swap1\n      pop\n        /* \"contracts/proposal.sol\":792:809  selected_proposal */\n      dup1\n        /* \"contracts/proposal.sol\":792:819  selected_proposal.is_active */\n      0x06\n      add\n      0x01\n      swap1\n      sload\n      swap1\n      0x0100\n      exp\n      swap1\n      div\n      0xff\n      and\n        /* \"contracts/proposal.sol\":784:857  require(selected_proposal.is_active,\"This proposal is no longer active.\") */\n      tag_18\n      jumpi\n      mload(0x40)\n      0x08c379a000000000000000000000000000000000000000000000000000000000\n      dup2\n      mstore\n      0x04\n      add\n      tag_19\n      swap1\n      tag_20\n      jump\t// in\n    tag_19:\n      mload(0x40)\n      dup1\n      swap2\n      sub\n      swap1\n      revert\n    tag_18:\n        /* \"contracts/proposal.sol\":877:894  selected_proposal */\n      dup1\n        /* \"contracts/proposal.sol\":877:903  selected_proposal.hasVoted */\n      0x07\n      add\n        /* \"contracts/proposal.sol\":877:915  selected_proposal.hasVoted[msg.sender] */\n      0x00\n        /* \"contracts/proposal.sol\":904:914  msg.sender */\n      caller\n        /* \"contracts/proposal.sol\":877:915  selected_proposal.hasVoted[msg.sender] */\n      0xffffffffffffffffffffffffffffffffffffffff\n      and\n      0xffffffffffffffffffffffffffffffffffffffff\n      and\n      dup2\n      mstore\n      0x20\n      add\n      swap1\n      dup2\n      mstore\n      0x20\n      add\n      0x00\n      keccak256\n      0x00\n      swap1\n      sload\n      swap1\n      0x0100\n      exp\n      swap1\n      div\n      0xff\n      and\n        /* \"contracts/proposal.sol\":876:915  !selected_proposal.hasVoted[msg.sender] */\n      iszero\n        /* \"contracts/proposal.sol\":868:943  require(!selected_proposal.hasVoted[msg.sender],\"Voter has already voted.\") */\n      tag_21\n      jumpi\n      mload(0x40)\n      0x08c379a000000000000000000000000000000000000000000000000000000000\n      dup2\n      mstore\n      0x04\n      add\n      tag_22\n      swap1\n      tag_23\n      jump\t// in\n    tag_22:\n      mload(0x40)\n      dup1\n      swap2\n      sub\n      swap1\n      revert\n    tag_21:\n        /* \"contracts/proposal.sol\":983:984  1 */\n      0x01\n        /* \"contracts/proposal.sol\":954:971  selected_proposal */\n      dup2\n        /* \"contracts/proposal.sol\":954:979  selected_proposal.approve */\n      0x02\n      add\n      0x00\n        /* \"contracts/proposal.sol\":954:984  selected_proposal.approve += 1 */\n      dup3\n      dup3\n      sload\n      tag_24\n      swap2\n      swap1\n      tag_25\n      jump\t// in\n    tag_24:\n      swap3\n      pop\n      pop\n      dup2\n      swap1\n      sstore\n      pop\n        /* \"contracts/proposal.sol\":1036:1040  true */\n      0x01\n        /* \"contracts/proposal.sol\":995:1012  selected_proposal */\n      dup2\n        /* \"contracts/proposal.sol\":995:1021  selected_proposal.hasVoted */\n      0x07\n      add\n        /* \"contracts/proposal.sol\":995:1033  selected_proposal.hasVoted[msg.sender] */\n      0x00\n        /* \"contracts/proposal.sol\":1022:1032  msg.sender */\n      caller\n        /* \"contracts/proposal.sol\":995:1033  selected_proposal.hasVoted[msg.sender] */\n      0xffffffffffffffffffffffffffffffffffffffff\n      and\n      0xffffffffffffffffffffffffffffffffffffffff\n      and\n      dup2\n      mstore\n      0x20\n      add\n      swap1\n      dup2\n      mstore\n      0x20\n      add\n      0x00\n      keccak256\n      0x00\n        /* \"contracts/proposal.sol\":995:1040  selected_proposal.hasVoted[msg.sender] = true */\n      0x0100\n      exp\n      dup2\n      sload\n      dup2\n      0xff\n      mul\n      not\n      and\n      swap1\n      dup4\n      iszero\n      iszero\n      mul\n      or\n      swap1\n      sstore\n      pop\n        /* \"contracts/proposal.sol\":1113:1130  selected_proposal */\n      dup1\n        /* \"contracts/proposal.sol\":1113:1148  selected_proposal.total_vote_to_end */\n      0x05\n      add\n      sload\n        /* \"contracts/proposal.sol\":1085:1102  selected_proposal */\n      dup2\n        /* \"contracts/proposal.sol\":1085:1109  selected_proposal.reject */\n      0x03\n      add\n      sload\n        /* \"contracts/proposal.sol\":1057:1074  selected_proposal */\n      dup3\n        /* \"contracts/proposal.sol\":1057:1082  selected_proposal.approve */\n      0x02\n      add\n      sload\n        /* \"contracts/proposal.sol\":1057:1109  selected_proposal.approve + selected_proposal.reject */\n      tag_26\n      swap2\n      swap1\n      tag_25\n      jump\t// in\n    tag_26:\n        /* \"contracts/proposal.sol\":1057:1148  selected_proposal.approve + selected_proposal.reject == selected_proposal.total_vote_to_end */\n      sub\n        /* \"contracts/proposal.sol\":1053:1211  if (selected_proposal.approve + selected_proposal.reject == selected_proposal.total_vote_to_end){... */\n      tag_27\n      jumpi\n        /* \"contracts/proposal.sol\":1194:1199  false */\n      0x00\n        /* \"contracts/proposal.sol\":1164:1181  selected_proposal */\n      dup2\n        /* \"contracts/proposal.sol\":1164:1191  selected_proposal.is_active */\n      0x06\n      add\n      0x01\n        /* \"contracts/proposal.sol\":1164:1199  selected_proposal.is_active = false */\n      0x0100\n      exp\n      dup2\n      sload\n      dup2\n      0xff\n      mul\n      not\n      and\n      swap1\n      dup4\n      iszero\n      iszero\n      mul\n      or\n      swap1\n      sstore\n      pop\n        /* \"contracts/proposal.sol\":1053:1211  if (selected_proposal.approve + selected_proposal.reject == selected_proposal.total_vote_to_end){... */\n    tag_27:\n        /* \"contracts/proposal.sol\":691:1218  {... */\n      pop\n        /* \"contracts/proposal.sol\":643:1218  function approve(uint proposal_number) external {... */\n      pop\n      jump\t// out\n        /* \"contracts/proposal.sol\":1226:1805  function reject(uint proposal_number) external {... */\n    tag_12:\n        /* \"contracts/proposal.sol\":1284:1318  Proposal storage selected_proposal */\n      0x00\n        /* \"contracts/proposal.sol\":1321:1337  proposal_history */\n      0x02\n        /* \"contracts/proposal.sol\":1321:1354  proposal_history[proposal_number] */\n      0x00\n        /* \"contracts/proposal.sol\":1338:1353  proposal_number */\n      dup4\n        /* \"contracts/proposal.sol\":1321:1354  proposal_history[proposal_number] */\n      dup2\n      mstore\n      0x20\n      add\n      swap1\n      dup2\n      mstore\n      0x20\n      add\n      0x00\n      keccak256\n        /* \"contracts/proposal.sol\":1284:1354  Proposal storage selected_proposal = proposal_history[proposal_number] */\n      swap1\n      pop\n        /* \"contracts/proposal.sol\":1373:1390  selected_proposal */\n      dup1\n        /* \"contracts/proposal.sol\":1373:1400  selected_proposal.is_active */\n      0x06\n      add\n      0x01\n      swap1\n      sload\n      swap1\n      0x0100\n      exp\n      swap1\n      div\n      0xff\n      and\n        /* \"contracts/proposal.sol\":1365:1438  require(selected_proposal.is_active,\"This proposal is no longer active.\") */\n      tag_29\n      jumpi\n      mload(0x40)\n      0x08c379a000000000000000000000000000000000000000000000000000000000\n      dup2\n      mstore\n      0x04\n      add\n      tag_30\n      swap1\n      tag_20\n      jump\t// in\n    tag_30:\n      mload(0x40)\n      dup1\n      swap2\n      sub\n      swap1\n      revert\n    tag_29:\n        /* \"contracts/proposal.sol\":1458:1475  selected_proposal */\n      dup1\n        /* \"contracts/proposal.sol\":1458:1484  selected_proposal.hasVoted */\n      0x07\n      add\n        /* \"contracts/proposal.sol\":1458:1496  selected_proposal.hasVoted[msg.sender] */\n      0x00\n        /* \"contracts/proposal.sol\":1485:1495  msg.sender */\n      caller\n        /* \"contracts/proposal.sol\":1458:1496  selected_proposal.hasVoted[msg.sender] */\n      0xffffffffffffffffffffffffffffffffffffffff\n      and\n      0xffffffffffffffffffffffffffffffffffffffff\n      and\n      dup2\n      mstore\n      0x20\n      add\n      swap1\n      dup2\n      mstore\n      0x20\n      add\n      0x00\n      keccak256\n      0x00\n      swap1\n      sload\n      swap1\n      0x0100\n      exp\n      swap1\n      div\n      0xff\n      and\n        /* \"contracts/proposal.sol\":1457:1496  !selected_proposal.hasVoted[msg.sender] */\n      iszero\n        /* \"contracts/proposal.sol\":1449:1524  require(!selected_proposal.hasVoted[msg.sender],\"Voter has already voted.\") */\n      tag_31\n      jumpi\n      mload(0x40)\n      0x08c379a000000000000000000000000000000000000000000000000000000000\n      dup2\n      mstore\n      0x04\n      add\n      tag_32\n      swap1\n      tag_23\n      jump\t// in\n    tag_32:\n      mload(0x40)\n      dup1\n      swap2\n      sub\n      swap1\n      revert\n    tag_31:\n        /* \"contracts/proposal.sol\":1562:1563  1 */\n      0x01\n        /* \"contracts/proposal.sol\":1535:1552  selected_proposal */\n      dup2\n        /* \"contracts/proposal.sol\":1535:1559  selected_proposal.reject */\n      0x03\n      add\n      0x00\n        /* \"contracts/proposal.sol\":1535:1563  selected_proposal.reject +=1 */\n      dup3\n      dup3\n      sload\n      tag_33\n      swap2\n      swap1\n      tag_25\n      jump\t// in\n    tag_33:\n      swap3\n      pop\n      pop\n      dup2\n      swap1\n      sstore\n      pop\n        /* \"contracts/proposal.sol\":1615:1619  true */\n      0x01\n        /* \"contracts/proposal.sol\":1574:1591  selected_proposal */\n      dup2\n        /* \"contracts/proposal.sol\":1574:1600  selected_proposal.hasVoted */\n      0x07\n      add\n        /* \"contracts/proposal.sol\":1574:1612  selected_proposal.hasVoted[msg.sender] */\n      0x00\n        /* \"contracts/proposal.sol\":1601:1611  msg.sender */\n      caller\n        /* \"contracts/proposal.sol\":1574:1612  selected_proposal.hasVoted[msg.sender] */\n      0xffffffffffffffffffffffffffffffffffffffff\n      and\n      0xffffffffffffffffffffffffffffffffffffffff\n      and\n      dup2\n      mstore\n      0x20\n      add\n      swap1\n      dup2\n      mstore\n      0x20\n      add\n      0x00\n      keccak256\n      0x00\n        /* \"contracts/proposal.sol\":1574:1619  selected_proposal.hasVoted[msg.sender] = true */\n      0x0100\n      exp\n      dup2\n      sload\n      dup2\n      0xff\n      mul\n      not\n      and\n      swap1\n      dup4\n      iszero\n      iszero\n      mul\n      or\n      swap1\n      sstore\n      pop\n        /* \"contracts/proposal.sol\":1699:1716  selected_proposal */\n      dup1\n        /* \"contracts/proposal.sol\":1699:1734  selected_proposal.total_vote_to_end */\n      0x05\n      add\n      sload\n        /* \"contracts/proposal.sol\":1671:1688  selected_proposal */\n      dup2\n        /* \"contracts/proposal.sol\":1671:1695  selected_proposal.reject */\n      0x03\n      add\n      sload\n        /* \"contracts/proposal.sol\":1643:1660  selected_proposal */\n      dup3\n        /* \"contracts/proposal.sol\":1643:1668  selected_proposal.approve */\n      0x02\n      add\n      sload\n        /* \"contracts/proposal.sol\":1643:1695  selected_proposal.approve + selected_proposal.reject */\n      tag_34\n      swap2\n      swap1\n      tag_25\n      jump\t// in\n    tag_34:\n        /* \"contracts/proposal.sol\":1643:1734  selected_proposal.approve + selected_proposal.reject == selected_proposal.total_vote_to_end */\n      sub\n        /* \"contracts/proposal.sol\":1640:1798  if(selected_proposal.approve + selected_proposal.reject == selected_proposal.total_vote_to_end) {... */\n      tag_35\n      jumpi\n        /* \"contracts/proposal.sol\":1781:1786  false */\n      0x00\n        /* \"contracts/proposal.sol\":1751:1768  selected_proposal */\n      dup2\n        /* \"contracts/proposal.sol\":1751:1778  selected_proposal.is_active */\n      0x06\n      add\n      0x01\n        /* \"contracts/proposal.sol\":1751:1786  selected_proposal.is_active = false */\n      0x0100\n      exp\n      dup2\n      sload\n      dup2\n      0xff\n      mul\n      not\n      and\n      swap1\n      dup4\n      iszero\n      iszero\n      mul\n      or\n      swap1\n      sstore\n      pop\n        /* \"contracts/proposal.sol\":1640:1798  if(selected_proposal.approve + selected_proposal.reject == selected_proposal.total_vote_to_end) {... */\n    tag_35:\n        /* \"contracts/proposal.sol\":1273:1805  {... */\n      pop\n        /* \"contracts/proposal.sol\":1226:1805  function reject(uint proposal_number) external {... */\n      pop\n      jump\t// out\n        /* \"contracts/proposal.sol\":1813:2378  function create_proposal(string memory title, string memory description, uint256 total_vote_to_end) external onlyOwner {... */\n    tag_16:\n        /* \"contracts/proposal.sol\":262:267  owner */\n      0x00\n      dup1\n      sload\n      swap1\n      0x0100\n      exp\n      swap1\n      div\n      0xffffffffffffffffffffffffffffffffffffffff\n      and\n        /* \"contracts/proposal.sol\":248:267  msg.sender == owner */\n      0xffffffffffffffffffffffffffffffffffffffff\n      and\n        /* \"contracts/proposal.sol\":248:258  msg.sender */\n      caller\n        /* \"contracts/proposal.sol\":248:267  msg.sender == owner */\n      0xffffffffffffffffffffffffffffffffffffffff\n      and\n      eq\n        /* \"contracts/proposal.sol\":240:268  require(msg.sender == owner) */\n      tag_37\n      jumpi\n      0x00\n      dup1\n      revert\n    tag_37:\n        /* \"contracts/proposal.sol\":1943:1971  Proposal storage newProposal */\n      0x00\n        /* \"contracts/proposal.sol\":1974:1990  proposal_history */\n      0x02\n        /* \"contracts/proposal.sol\":1974:2006  proposal_history[proposal_count] */\n      0x00\n        /* \"contracts/proposal.sol\":1991:2005  proposal_count */\n      sload(0x01)\n        /* \"contracts/proposal.sol\":1974:2006  proposal_history[proposal_count] */\n      dup2\n      mstore\n      0x20\n      add\n      swap1\n      dup2\n      mstore\n      0x20\n      add\n      0x00\n      keccak256\n        /* \"contracts/proposal.sol\":1943:2006  Proposal storage newProposal = proposal_history[proposal_count] */\n      swap1\n      pop\n        /* \"contracts/proposal.sol\":2047:2052  title */\n      dup4\n        /* \"contracts/proposal.sol\":2027:2038  newProposal */\n      dup2\n        /* \"contracts/proposal.sol\":2027:2044  newProposal.title */\n      0x00\n      add\n        /* \"contracts/proposal.sol\":2027:2052  newProposal.title = title */\n      swap1\n      dup2\n      tag_39\n      swap2\n      swap1\n      tag_40\n      jump\t// in\n    tag_39:\n      pop\n        /* \"contracts/proposal.sol\":2089:2100  description */\n      dup3\n        /* \"contracts/proposal.sol\":2063:2074  newProposal */\n      dup2\n        /* \"contracts/proposal.sol\":2063:2086  newProposal.description */\n      0x01\n      add\n        /* \"contracts/proposal.sol\":2063:2100  newProposal.description = description */\n      swap1\n      dup2\n      tag_41\n      swap2\n      swap1\n      tag_40\n      jump\t// in\n    tag_41:\n      pop\n        /* \"contracts/proposal.sol\":2133:2134  0 */\n      0x00\n        /* \"contracts/proposal.sol\":2111:2122  newProposal */\n      dup2\n        /* \"contracts/proposal.sol\":2111:2130  newProposal.approve */\n      0x02\n      add\n        /* \"contracts/proposal.sol\":2111:2134  newProposal.approve = 0 */\n      dup2\n      swap1\n      sstore\n      pop\n        /* \"contracts/proposal.sol\":2166:2167  0 */\n      0x00\n        /* \"contracts/proposal.sol\":2145:2156  newProposal */\n      dup2\n        /* \"contracts/proposal.sol\":2145:2163  newProposal.reject */\n      0x03\n      add\n        /* \"contracts/proposal.sol\":2145:2167  newProposal.reject = 0 */\n      dup2\n      swap1\n      sstore\n      pop\n        /* \"contracts/proposal.sol\":2197:2198  0 */\n      0x00\n        /* \"contracts/proposal.sol\":2178:2189  newProposal */\n      dup2\n        /* \"contracts/proposal.sol\":2178:2194  newProposal.pass */\n      0x04\n      add\n        /* \"contracts/proposal.sol\":2178:2198  newProposal.pass = 0 */\n      dup2\n      swap1\n      sstore\n      pop\n        /* \"contracts/proposal.sol\":2241:2258  total_vote_to_end */\n      dup2\n        /* \"contracts/proposal.sol\":2209:2220  newProposal */\n      dup2\n        /* \"contracts/proposal.sol\":2209:2238  newProposal.total_vote_to_end */\n      0x05\n      add\n        /* \"contracts/proposal.sol\":2209:2258  newProposal.total_vote_to_end = total_vote_to_end */\n      dup2\n      swap1\n      sstore\n      pop\n        /* \"contracts/proposal.sol\":2297:2302  false */\n      0x00\n        /* \"contracts/proposal.sol\":2269:2280  newProposal */\n      dup2\n        /* \"contracts/proposal.sol\":2269:2294  newProposal.current_state */\n      0x06\n      add\n      0x00\n        /* \"contracts/proposal.sol\":2269:2302  newProposal.current_state = false */\n      0x0100\n      exp\n      dup2\n      sload\n      dup2\n      0xff\n      mul\n      not\n      and\n      swap1\n      dup4\n      iszero\n      iszero\n      mul\n      or\n      swap1\n      sstore\n      pop\n        /* \"contracts/proposal.sol\":2337:2341  true */\n      0x01\n        /* \"contracts/proposal.sol\":2313:2324  newProposal */\n      dup2\n        /* \"contracts/proposal.sol\":2313:2334  newProposal.is_active */\n      0x06\n      add\n      0x01\n        /* \"contracts/proposal.sol\":2313:2341  newProposal.is_active = true */\n      0x0100\n      exp\n      dup2\n      sload\n      dup2\n      0xff\n      mul\n      not\n      and\n      swap1\n      dup4\n      iszero\n      iszero\n      mul\n      or\n      swap1\n      sstore\n      pop\n        /* \"contracts/proposal.sol\":2354:2368  proposal_count */\n      0x01\n      0x00\n        /* \"contracts/proposal.sol\":2354:2370  proposal_count++ */\n      dup2\n      sload\n      dup1\n      swap3\n      swap2\n      swap1\n      tag_42\n      swap1\n      tag_43\n      jump\t// in\n    tag_42:\n      swap2\n      swap1\n      pop\n      sstore\n      pop\n        /* \"contracts/proposal.sol\":1932:2378  {... */\n      pop\n        /* \"contracts/proposal.sol\":1813:2378  function create_proposal(string memory title, string memory description, uint256 total_vote_to_end) external onlyOwner {... */\n      pop\n      pop\n      pop\n      jump\t// out\n        /* \"#utility.yul\":7:82   */\n    tag_44:\n        /* \"#utility.yul\":40:46   */\n      0x00\n        /* \"#utility.yul\":73:75   */\n      0x40\n        /* \"#utility.yul\":67:76   */\n      mload\n        /* \"#utility.yul\":57:76   */\n      swap1\n      pop\n        /* \"#utility.yul\":7:82   */\n      swap1\n      jump\t// out\n        /* \"#utility.yul\":88:205   */\n    tag_45:\n        /* \"#utility.yul\":197:198   */\n      0x00\n        /* \"#utility.yul\":194:195   */\n      dup1\n        /* \"#utility.yul\":187:199   */\n      revert\n        /* \"#utility.yul\":211:328   */\n    tag_46:\n        /* \"#utility.yul\":320:321   */\n      0x00\n        /* \"#utility.yul\":317:318   */\n      dup1\n        /* \"#utility.yul\":310:322   */\n      revert\n        /* \"#utility.yul\":334:411   */\n    tag_47:\n        /* \"#utility.yul\":371:378   */\n      0x00\n        /* \"#utility.yul\":400:405   */\n      dup2\n        /* \"#utility.yul\":389:405   */\n      swap1\n      pop\n        /* \"#utility.yul\":334:411   */\n      swap2\n      swap1\n      pop\n      jump\t// out\n        /* \"#utility.yul\":417:539   */\n    tag_48:\n        /* \"#utility.yul\":490:514   */\n      tag_90\n        /* \"#utility.yul\":508:513   */\n      dup2\n        /* \"#utility.yul\":490:514   */\n      tag_47\n      jump\t// in\n    tag_90:\n        /* \"#utility.yul\":483:488   */\n      dup2\n        /* \"#utility.yul\":480:515   */\n      eq\n        /* \"#utility.yul\":470:533   */\n      tag_91\n      jumpi\n        /* \"#utility.yul\":529:530   */\n      0x00\n        /* \"#utility.yul\":526:527   */\n      dup1\n        /* \"#utility.yul\":519:531   */\n      revert\n        /* \"#utility.yul\":470:533   */\n    tag_91:\n        /* \"#utility.yul\":417:539   */\n      pop\n      jump\t// out\n        /* \"#utility.yul\":545:684   */\n    tag_49:\n        /* \"#utility.yul\":591:596   */\n      0x00\n        /* \"#utility.yul\":629:635   */\n      dup2\n        /* \"#utility.yul\":616:636   */\n      calldataload\n        /* \"#utility.yul\":607:636   */\n      swap1\n      pop\n        /* \"#utility.yul\":645:678   */\n      tag_93\n        /* \"#utility.yul\":672:677   */\n      dup2\n        /* \"#utility.yul\":645:678   */\n      tag_48\n      jump\t// in\n    tag_93:\n        /* \"#utility.yul\":545:684   */\n      swap3\n      swap2\n      pop\n      pop\n      jump\t// out\n        /* \"#utility.yul\":690:1019   */\n    tag_8:\n        /* \"#utility.yul\":749:755   */\n      0x00\n        /* \"#utility.yul\":798:800   */\n      0x20\n        /* \"#utility.yul\":786:795   */\n      dup3\n        /* \"#utility.yul\":777:784   */\n      dup5\n        /* \"#utility.yul\":773:796   */\n      sub\n        /* \"#utility.yul\":769:801   */\n      slt\n        /* \"#utility.yul\":766:885   */\n      iszero\n      tag_95\n      jumpi\n        /* \"#utility.yul\":804:883   */\n      tag_96\n      tag_45\n      jump\t// in\n    tag_96:\n        /* \"#utility.yul\":766:885   */\n    tag_95:\n        /* \"#utility.yul\":924:925   */\n      0x00\n        /* \"#utility.yul\":949:1002   */\n      tag_97\n        /* \"#utility.yul\":994:1001   */\n      dup5\n        /* \"#utility.yul\":985:991   */\n      dup3\n        /* \"#utility.yul\":974:983   */\n      dup6\n        /* \"#utility.yul\":970:992   */\n      add\n        /* \"#utility.yul\":949:1002   */\n      tag_49\n      jump\t// in\n    tag_97:\n        /* \"#utility.yul\":939:1002   */\n      swap2\n      pop\n        /* \"#utility.yul\":895:1012   */\n      pop\n        /* \"#utility.yul\":690:1019   */\n      swap3\n      swap2\n      pop\n      pop\n      jump\t// out\n        /* \"#utility.yul\":1025:1142   */\n    tag_50:\n        /* \"#utility.yul\":1134:1135   */\n      0x00\n        /* \"#utility.yul\":1131:1132   */\n      dup1\n        /* \"#utility.yul\":1124:1136   */\n      revert\n        /* \"#utility.yul\":1148:1265   */\n    tag_51:\n        /* \"#utility.yul\":1257:1258   */\n      0x00\n        /* \"#utility.yul\":1254:1255   */\n      dup1\n        /* \"#utility.yul\":1247:1259   */\n      revert\n        /* \"#utility.yul\":1271:1373   */\n    tag_52:\n        /* \"#utility.yul\":1312:1318   */\n      0x00\n        /* \"#utility.yul\":1363:1365   */\n      0x1f\n        /* \"#utility.yul\":1359:1366   */\n      not\n        /* \"#utility.yul\":1354:1356   */\n      0x1f\n        /* \"#utility.yul\":1347:1352   */\n      dup4\n        /* \"#utility.yul\":1343:1357   */\n      add\n        /* \"#utility.yul\":1339:1367   */\n      and\n        /* \"#utility.yul\":1329:1367   */\n      swap1\n      pop\n        /* \"#utility.yul\":1271:1373   */\n      swap2\n      swap1\n      pop\n      jump\t// out\n        /* \"#utility.yul\":1379:1559   */\n    tag_53:\n        /* \"#utility.yul\":1427:1504   */\n      0x4e487b7100000000000000000000000000000000000000000000000000000000\n        /* \"#utility.yul\":1424:1425   */\n      0x00\n        /* \"#utility.yul\":1417:1505   */\n      mstore\n        /* \"#utility.yul\":1524:1528   */\n      0x41\n        /* \"#utility.yul\":1521:1522   */\n      0x04\n        /* \"#utility.yul\":1514:1529   */\n      mstore\n        /* \"#utility.yul\":1548:1552   */\n      0x24\n        /* \"#utility.yul\":1545:1546   */\n      0x00\n        /* \"#utility.yul\":1538:1553   */\n      revert\n        /* \"#utility.yul\":1565:1846   */\n    tag_54:\n        /* \"#utility.yul\":1648:1675   */\n      tag_103\n        /* \"#utility.yul\":1670:1674   */\n      dup3\n        /* \"#utility.yul\":1648:1675   */\n      tag_52\n      jump\t// in\n    tag_103:\n        /* \"#utility.yul\":1640:1646   */\n      dup2\n        /* \"#utility.yul\":1636:1676   */\n      add\n        /* \"#utility.yul\":1778:1784   */\n      dup2\n        /* \"#utility.yul\":1766:1776   */\n      dup2\n        /* \"#utility.yul\":1763:1785   */\n      lt\n        /* \"#utility.yul\":1742:1760   */\n      0xffffffffffffffff\n        /* \"#utility.yul\":1730:1740   */\n      dup3\n        /* \"#utility.yul\":1727:1761   */\n      gt\n        /* \"#utility.yul\":1724:1786   */\n      or\n        /* \"#utility.yul\":1721:1809   */\n      iszero\n      tag_104\n      jumpi\n        /* \"#utility.yul\":1789:1807   */\n      tag_105\n      tag_53\n      jump\t// in\n    tag_105:\n        /* \"#utility.yul\":1721:1809   */\n    tag_104:\n        /* \"#utility.yul\":1829:1839   */\n      dup1\n        /* \"#utility.yul\":1825:1827   */\n      0x40\n        /* \"#utility.yul\":1818:1840   */\n      mstore\n        /* \"#utility.yul\":1608:1846   */\n      pop\n        /* \"#utility.yul\":1565:1846   */\n      pop\n      pop\n      jump\t// out\n        /* \"#utility.yul\":1852:1981   */\n    tag_55:\n        /* \"#utility.yul\":1886:1892   */\n      0x00\n        /* \"#utility.yul\":1913:1933   */\n      tag_107\n      tag_44\n      jump\t// in\n    tag_107:\n        /* \"#utility.yul\":1903:1933   */\n      swap1\n      pop\n        /* \"#utility.yul\":1942:1975   */\n      tag_108\n        /* \"#utility.yul\":1970:1974   */\n      dup3\n        /* \"#utility.yul\":1962:1968   */\n      dup3\n        /* \"#utility.yul\":1942:1975   */\n      tag_54\n      jump\t// in\n    tag_108:\n        /* \"#utility.yul\":1852:1981   */\n      swap2\n      swap1\n      pop\n      jump\t// out\n        /* \"#utility.yul\":1987:2295   */\n    tag_56:\n        /* \"#utility.yul\":2049:2053   */\n      0x00\n        /* \"#utility.yul\":2139:2157   */\n      0xffffffffffffffff\n        /* \"#utility.yul\":2131:2137   */\n      dup3\n        /* \"#utility.yul\":2128:2158   */\n      gt\n        /* \"#utility.yul\":2125:2181   */\n      iszero\n      tag_110\n      jumpi\n        /* \"#utility.yul\":2161:2179   */\n      tag_111\n      tag_53\n      jump\t// in\n    tag_111:\n        /* \"#utility.yul\":2125:2181   */\n    tag_110:\n        /* \"#utility.yul\":2199:2228   */\n      tag_112\n        /* \"#utility.yul\":2221:2227   */\n      dup3\n        /* \"#utility.yul\":2199:2228   */\n      tag_52\n      jump\t// in\n    tag_112:\n        /* \"#utility.yul\":2191:2228   */\n      swap1\n      pop\n        /* \"#utility.yul\":2283:2287   */\n      0x20\n        /* \"#utility.yul\":2277:2281   */\n      dup2\n        /* \"#utility.yul\":2273:2288   */\n      add\n        /* \"#utility.yul\":2265:2288   */\n      swap1\n      pop\n        /* \"#utility.yul\":1987:2295   */\n      swap2\n      swap1\n      pop\n      jump\t// out\n        /* \"#utility.yul\":2301:2449   */\n    tag_57:\n        /* \"#utility.yul\":2399:2405   */\n      dup3\n        /* \"#utility.yul\":2394:2397   */\n      dup2\n        /* \"#utility.yul\":2389:2392   */\n      dup4\n        /* \"#utility.yul\":2376:2406   */\n      calldatacopy\n        /* \"#utility.yul\":2440:2441   */\n      0x00\n        /* \"#utility.yul\":2431:2437   */\n      dup4\n        /* \"#utility.yul\":2426:2429   */\n      dup4\n        /* \"#utility.yul\":2422:2438   */\n      add\n        /* \"#utility.yul\":2415:2442   */\n      mstore\n        /* \"#utility.yul\":2301:2449   */\n      pop\n      pop\n      pop\n      jump\t// out\n        /* \"#utility.yul\":2455:2880   */\n    tag_58:\n        /* \"#utility.yul\":2533:2538   */\n      0x00\n        /* \"#utility.yul\":2558:2624   */\n      tag_115\n        /* \"#utility.yul\":2574:2623   */\n      tag_116\n        /* \"#utility.yul\":2616:2622   */\n      dup5\n        /* \"#utility.yul\":2574:2623   */\n      tag_56\n      jump\t// in\n    tag_116:\n        /* \"#utility.yul\":2558:2624   */\n      tag_55\n      jump\t// in\n    tag_115:\n        /* \"#utility.yul\":2549:2624   */\n      swap1\n      pop\n        /* \"#utility.yul\":2647:2653   */\n      dup3\n        /* \"#utility.yul\":2640:2645   */\n      dup2\n        /* \"#utility.yul\":2633:2654   */\n      mstore\n        /* \"#utility.yul\":2685:2689   */\n      0x20\n        /* \"#utility.yul\":2678:2683   */\n      dup2\n        /* \"#utility.yul\":2674:2690   */\n      add\n        /* \"#utility.yul\":2723:2726   */\n      dup5\n        /* \"#utility.yul\":2714:2720   */\n      dup5\n        /* \"#utility.yul\":2709:2712   */\n      dup5\n        /* \"#utility.yul\":2705:2721   */\n      add\n        /* \"#utility.yul\":2702:2727   */\n      gt\n        /* \"#utility.yul\":2699:2811   */\n      iszero\n      tag_117\n      jumpi\n        /* \"#utility.yul\":2730:2809   */\n      tag_118\n      tag_51\n      jump\t// in\n    tag_118:\n        /* \"#utility.yul\":2699:2811   */\n    tag_117:\n        /* \"#utility.yul\":2820:2874   */\n      tag_119\n        /* \"#utility.yul\":2867:2873   */\n      dup5\n        /* \"#utility.yul\":2862:2865   */\n      dup3\n        /* \"#utility.yul\":2857:2860   */\n      dup6\n        /* \"#utility.yul\":2820:2874   */\n      tag_57\n      jump\t// in\n    tag_119:\n        /* \"#utility.yul\":2539:2880   */\n      pop\n        /* \"#utility.yul\":2455:2880   */\n      swap4\n      swap3\n      pop\n      pop\n      pop\n      jump\t// out\n        /* \"#utility.yul\":2900:3240   */\n    tag_59:\n        /* \"#utility.yul\":2956:2961   */\n      0x00\n        /* \"#utility.yul\":3005:3008   */\n      dup3\n        /* \"#utility.yul\":2998:3002   */\n      0x1f\n        /* \"#utility.yul\":2990:2996   */\n      dup4\n        /* \"#utility.yul\":2986:3003   */\n      add\n        /* \"#utility.yul\":2982:3009   */\n      slt\n        /* \"#utility.yul\":2972:3094   */\n      tag_121\n      jumpi\n        /* \"#utility.yul\":3013:3092   */\n      tag_122\n      tag_50\n      jump\t// in\n    tag_122:\n        /* \"#utility.yul\":2972:3094   */\n    tag_121:\n        /* \"#utility.yul\":3130:3136   */\n      dup2\n        /* \"#utility.yul\":3117:3137   */\n      calldataload\n        /* \"#utility.yul\":3155:3234   */\n      tag_123\n        /* \"#utility.yul\":3230:3233   */\n      dup5\n        /* \"#utility.yul\":3222:3228   */\n      dup3\n        /* \"#utility.yul\":3215:3219   */\n      0x20\n        /* \"#utility.yul\":3207:3213   */\n      dup7\n        /* \"#utility.yul\":3203:3220   */\n      add\n        /* \"#utility.yul\":3155:3234   */\n      tag_58\n      jump\t// in\n    tag_123:\n        /* \"#utility.yul\":3146:3234   */\n      swap2\n      pop\n        /* \"#utility.yul\":2962:3240   */\n      pop\n        /* \"#utility.yul\":2900:3240   */\n      swap3\n      swap2\n      pop\n      pop\n      jump\t// out\n        /* \"#utility.yul\":3246:4225   */\n    tag_15:\n        /* \"#utility.yul\":3343:3349   */\n      0x00\n        /* \"#utility.yul\":3351:3357   */\n      dup1\n        /* \"#utility.yul\":3359:3365   */\n      0x00\n        /* \"#utility.yul\":3408:3410   */\n      0x60\n        /* \"#utility.yul\":3396:3405   */\n      dup5\n        /* \"#utility.yul\":3387:3394   */\n      dup7\n        /* \"#utility.yul\":3383:3406   */\n      sub\n        /* \"#utility.yul\":3379:3411   */\n      slt\n        /* \"#utility.yul\":3376:3495   */\n      iszero\n      tag_125\n      jumpi\n        /* \"#utility.yul\":3414:3493   */\n      tag_126\n      tag_45\n      jump\t// in\n    tag_126:\n        /* \"#utility.yul\":3376:3495   */\n    tag_125:\n        /* \"#utility.yul\":3562:3563   */\n      0x00\n        /* \"#utility.yul\":3551:3560   */\n      dup5\n        /* \"#utility.yul\":3547:3564   */\n      add\n        /* \"#utility.yul\":3534:3565   */\n      calldataload\n        /* \"#utility.yul\":3592:3610   */\n      0xffffffffffffffff\n        /* \"#utility.yul\":3584:3590   */\n      dup2\n        /* \"#utility.yul\":3581:3611   */\n      gt\n        /* \"#utility.yul\":3578:3695   */\n      iszero\n      tag_127\n      jumpi\n        /* \"#utility.yul\":3614:3693   */\n      tag_128\n      tag_46\n      jump\t// in\n    tag_128:\n        /* \"#utility.yul\":3578:3695   */\n    tag_127:\n        /* \"#utility.yul\":3719:3782   */\n      tag_129\n        /* \"#utility.yul\":3774:3781   */\n      dup7\n        /* \"#utility.yul\":3765:3771   */\n      dup3\n        /* \"#utility.yul\":3754:3763   */\n      dup8\n        /* \"#utility.yul\":3750:3772   */\n      add\n        /* \"#utility.yul\":3719:3782   */\n      tag_59\n      jump\t// in\n    tag_129:\n        /* \"#utility.yul\":3709:3782   */\n      swap4\n      pop\n        /* \"#utility.yul\":3505:3792   */\n      pop\n        /* \"#utility.yul\":3859:3861   */\n      0x20\n        /* \"#utility.yul\":3848:3857   */\n      dup5\n        /* \"#utility.yul\":3844:3862   */\n      add\n        /* \"#utility.yul\":3831:3863   */\n      calldataload\n        /* \"#utility.yul\":3890:3908   */\n      0xffffffffffffffff\n        /* \"#utility.yul\":3882:3888   */\n      dup2\n        /* \"#utility.yul\":3879:3909   */\n      gt\n        /* \"#utility.yul\":3876:3993   */\n      iszero\n      tag_130\n      jumpi\n        /* \"#utility.yul\":3912:3991   */\n      tag_131\n      tag_46\n      jump\t// in\n    tag_131:\n        /* \"#utility.yul\":3876:3993   */\n    tag_130:\n        /* \"#utility.yul\":4017:4080   */\n      tag_132\n        /* \"#utility.yul\":4072:4079   */\n      dup7\n        /* \"#utility.yul\":4063:4069   */\n      dup3\n        /* \"#utility.yul\":4052:4061   */\n      dup8\n        /* \"#utility.yul\":4048:4070   */\n      add\n        /* \"#utility.yul\":4017:4080   */\n      tag_59\n      jump\t// in\n    tag_132:\n        /* \"#utility.yul\":4007:4080   */\n      swap3\n      pop\n        /* \"#utility.yul\":3802:4090   */\n      pop\n        /* \"#utility.yul\":4129:4131   */\n      0x40\n        /* \"#utility.yul\":4155:4208   */\n      tag_133\n        /* \"#utility.yul\":4200:4207   */\n      dup7\n        /* \"#utility.yul\":4191:4197   */\n      dup3\n        /* \"#utility.yul\":4180:4189   */\n      dup8\n        /* \"#utility.yul\":4176:4198   */\n      add\n        /* \"#utility.yul\":4155:4208   */\n      tag_49\n      jump\t// in\n    tag_133:\n        /* \"#utility.yul\":4145:4208   */\n      swap2\n      pop\n        /* \"#utility.yul\":4100:4218   */\n      pop\n        /* \"#utility.yul\":3246:4225   */\n      swap3\n      pop\n      swap3\n      pop\n      swap3\n      jump\t// out\n        /* \"#utility.yul\":4231:4400   */\n    tag_60:\n        /* \"#utility.yul\":4315:4326   */\n      0x00\n        /* \"#utility.yul\":4349:4355   */\n      dup3\n        /* \"#utility.yul\":4344:4347   */\n      dup3\n        /* \"#utility.yul\":4337:4356   */\n      mstore\n        /* \"#utility.yul\":4389:4393   */\n      0x20\n        /* \"#utility.yul\":4384:4387   */\n      dup3\n        /* \"#utility.yul\":4380:4394   */\n      add\n        /* \"#utility.yul\":4365:4394   */\n      swap1\n      pop\n        /* \"#utility.yul\":4231:4400   */\n      swap3\n      swap2\n      pop\n      pop\n      jump\t// out\n        /* \"#utility.yul\":4406:4627   */\n    tag_61:\n        /* \"#utility.yul\":4546:4580   */\n      0x546869732070726f706f73616c206973206e6f206c6f6e676572206163746976\n        /* \"#utility.yul\":4542:4543   */\n      0x00\n        /* \"#utility.yul\":4534:4540   */\n      dup3\n        /* \"#utility.yul\":4530:4544   */\n      add\n        /* \"#utility.yul\":4523:4581   */\n      mstore\n        /* \"#utility.yul\":4615:4619   */\n      0x652e000000000000000000000000000000000000000000000000000000000000\n        /* \"#utility.yul\":4610:4612   */\n      0x20\n        /* \"#utility.yul\":4602:4608   */\n      dup3\n        /* \"#utility.yul\":4598:4613   */\n      add\n        /* \"#utility.yul\":4591:4620   */\n      mstore\n        /* \"#utility.yul\":4406:4627   */\n      pop\n      jump\t// out\n        /* \"#utility.yul\":4633:4999   */\n    tag_62:\n        /* \"#utility.yul\":4775:4778   */\n      0x00\n        /* \"#utility.yul\":4796:4863   */\n      tag_137\n        /* \"#utility.yul\":4860:4862   */\n      0x22\n        /* \"#utility.yul\":4855:4858   */\n      dup4\n        /* \"#utility.yul\":4796:4863   */\n      tag_60\n      jump\t// in\n    tag_137:\n        /* \"#utility.yul\":4789:4863   */\n      swap2\n      pop\n        /* \"#utility.yul\":4872:4965   */\n      tag_138\n        /* \"#utility.yul\":4961:4964   */\n      dup3\n        /* \"#utility.yul\":4872:4965   */\n      tag_61\n      jump\t// in\n    tag_138:\n        /* \"#utility.yul\":4990:4992   */\n      0x40\n        /* \"#utility.yul\":4985:4988   */\n      dup3\n        /* \"#utility.yul\":4981:4993   */\n      add\n        /* \"#utility.yul\":4974:4993   */\n      swap1\n      pop\n        /* \"#utility.yul\":4633:4999   */\n      swap2\n      swap1\n      pop\n      jump\t// out\n        /* \"#utility.yul\":5005:5424   */\n    tag_20:\n        /* \"#utility.yul\":5171:5175   */\n      0x00\n        /* \"#utility.yul\":5209:5211   */\n      0x20\n        /* \"#utility.yul\":5198:5207   */\n      dup3\n        /* \"#utility.yul\":5194:5212   */\n      add\n        /* \"#utility.yul\":5186:5212   */\n      swap1\n      pop\n        /* \"#utility.yul\":5258:5267   */\n      dup2\n        /* \"#utility.yul\":5252:5256   */\n      dup2\n        /* \"#utility.yul\":5248:5268   */\n      sub\n        /* \"#utility.yul\":5244:5245   */\n      0x00\n        /* \"#utility.yul\":5233:5242   */\n      dup4\n        /* \"#utility.yul\":5229:5246   */\n      add\n        /* \"#utility.yul\":5222:5269   */\n      mstore\n        /* \"#utility.yul\":5286:5417   */\n      tag_140\n        /* \"#utility.yul\":5412:5416   */\n      dup2\n        /* \"#utility.yul\":5286:5417   */\n      tag_62\n      jump\t// in\n    tag_140:\n        /* \"#utility.yul\":5278:5417   */\n      swap1\n      pop\n        /* \"#utility.yul\":5005:5424   */\n      swap2\n      swap1\n      pop\n      jump\t// out\n        /* \"#utility.yul\":5430:5604   */\n    tag_63:\n        /* \"#utility.yul\":5570:5596   */\n      0x566f7465722068617320616c726561647920766f7465642e0000000000000000\n        /* \"#utility.yul\":5566:5567   */\n      0x00\n        /* \"#utility.yul\":5558:5564   */\n      dup3\n        /* \"#utility.yul\":5554:5568   */\n      add\n        /* \"#utility.yul\":5547:5597   */\n      mstore\n        /* \"#utility.yul\":5430:5604   */\n      pop\n      jump\t// out\n        /* \"#utility.yul\":5610:5976   */\n    tag_64:\n        /* \"#utility.yul\":5752:5755   */\n      0x00\n        /* \"#utility.yul\":5773:5840   */\n      tag_143\n        /* \"#utility.yul\":5837:5839   */\n      0x18\n        /* \"#utility.yul\":5832:5835   */\n      dup4\n        /* \"#utility.yul\":5773:5840   */\n      tag_60\n      jump\t// in\n    tag_143:\n        /* \"#utility.yul\":5766:5840   */\n      swap2\n      pop\n        /* \"#utility.yul\":5849:5942   */\n      tag_144\n        /* \"#utility.yul\":5938:5941   */\n      dup3\n        /* \"#utility.yul\":5849:5942   */\n      tag_63\n      jump\t// in\n    tag_144:\n        /* \"#utility.yul\":5967:5969   */\n      0x20\n        /* \"#utility.yul\":5962:5965   */\n      dup3\n        /* \"#utility.yul\":5958:5970   */\n      add\n        /* \"#utility.yul\":5951:5970   */\n      swap1\n      pop\n        /* \"#utility.yul\":5610:5976   */\n      swap2\n      swap1\n      pop\n      jump\t// out\n        /* \"#utility.yul\":5982:6401   */\n    tag_23:\n        /* \"#utility.yul\":6148:6152   */\n      0x00\n        /* \"#utility.yul\":6186:6188   */\n      0x20\n        /* \"#utility.yul\":6175:6184   */\n      dup3\n        /* \"#utility.yul\":6171:6189   */\n      add\n        /* \"#utility.yul\":6163:6189   */\n      swap1\n      pop\n        /* \"#utility.yul\":6235:6244   */\n      dup2\n        /* \"#utility.yul\":6229:6233   */\n      dup2\n        /* \"#utility.yul\":6225:6245   */\n      sub\n        /* \"#utility.yul\":6221:6222   */\n      0x00\n        /* \"#utility.yul\":6210:6219   */\n      dup4\n        /* \"#utility.yul\":6206:6223   */\n      add\n        /* \"#utility.yul\":6199:6246   */\n      mstore\n        /* \"#utility.yul\":6263:6394   */\n      tag_146\n        /* \"#utility.yul\":6389:6393   */\n      dup2\n        /* \"#utility.yul\":6263:6394   */\n      tag_64\n      jump\t// in\n    tag_146:\n        /* \"#utility.yul\":6255:6394   */\n      swap1\n      pop\n        /* \"#utility.yul\":5982:6401   */\n      swap2\n      swap1\n      pop\n      jump\t// out\n        /* \"#utility.yul\":6407:6587   */\n    tag_65:\n        /* \"#utility.yul\":6455:6532   */\n      0x4e487b7100000000000000000000000000000000000000000000000000000000\n        /* \"#utility.yul\":6452:6453   */\n      0x00\n        /* \"#utility.yul\":6445:6533   */\n      mstore\n        /* \"#utility.yul\":6552:6556   */\n      0x11\n        /* \"#utility.yul\":6549:6550   */\n      0x04\n        /* \"#utility.yul\":6542:6557   */\n      mstore\n        /* \"#utility.yul\":6576:6580   */\n      0x24\n        /* \"#utility.yul\":6573:6574   */\n      0x00\n        /* \"#utility.yul\":6566:6581   */\n      revert\n        /* \"#utility.yul\":6593:6784   */\n    tag_25:\n        /* \"#utility.yul\":6633:6636   */\n      0x00\n        /* \"#utility.yul\":6652:6672   */\n      tag_149\n        /* \"#utility.yul\":6670:6671   */\n      dup3\n        /* \"#utility.yul\":6652:6672   */\n      tag_47\n      jump\t// in\n    tag_149:\n        /* \"#utility.yul\":6647:6672   */\n      swap2\n      pop\n        /* \"#utility.yul\":6686:6706   */\n      tag_150\n        /* \"#utility.yul\":6704:6705   */\n      dup4\n        /* \"#utility.yul\":6686:6706   */\n      tag_47\n      jump\t// in\n    tag_150:\n        /* \"#utility.yul\":6681:6706   */\n      swap3\n      pop\n        /* \"#utility.yul\":6729:6730   */\n      dup3\n        /* \"#utility.yul\":6726:6727   */\n      dup3\n        /* \"#utility.yul\":6722:6731   */\n      add\n        /* \"#utility.yul\":6715:6731   */\n      swap1\n      pop\n        /* \"#utility.yul\":6750:6753   */\n      dup1\n        /* \"#utility.yul\":6747:6748   */\n      dup3\n        /* \"#utility.yul\":6744:6754   */\n      gt\n        /* \"#utility.yul\":6741:6777   */\n      iszero\n      tag_151\n      jumpi\n        /* \"#utility.yul\":6757:6775   */\n      tag_152\n      tag_65\n      jump\t// in\n    tag_152:\n        /* \"#utility.yul\":6741:6777   */\n    tag_151:\n        /* \"#utility.yul\":6593:6784   */\n      swap3\n      swap2\n      pop\n      pop\n      jump\t// out\n        /* \"#utility.yul\":6790:6889   */\n    tag_66:\n        /* \"#utility.yul\":6842:6848   */\n      0x00\n        /* \"#utility.yul\":6876:6881   */\n      dup2\n        /* \"#utility.yul\":6870:6882   */\n      mload\n        /* \"#utility.yul\":6860:6882   */\n      swap1\n      pop\n        /* \"#utility.yul\":6790:6889   */\n      swap2\n      swap1\n      pop\n      jump\t// out\n        /* \"#utility.yul\":6895:7075   */\n    tag_67:\n        /* \"#utility.yul\":6943:7020   */\n      0x4e487b7100000000000000000000000000000000000000000000000000000000\n        /* \"#utility.yul\":6940:6941   */\n      0x00\n        /* \"#utility.yul\":6933:7021   */\n      mstore\n        /* \"#utility.yul\":7040:7044   */\n      0x22\n        /* \"#utility.yul\":7037:7038   */\n      0x04\n        /* \"#utility.yul\":7030:7045   */\n      mstore\n        /* \"#utility.yul\":7064:7068   */\n      0x24\n        /* \"#utility.yul\":7061:7062   */\n      0x00\n        /* \"#utility.yul\":7054:7069   */\n      revert\n        /* \"#utility.yul\":7081:7401   */\n    tag_68:\n        /* \"#utility.yul\":7125:7131   */\n      0x00\n        /* \"#utility.yul\":7162:7163   */\n      0x02\n        /* \"#utility.yul\":7156:7160   */\n      dup3\n        /* \"#utility.yul\":7152:7164   */\n      div\n        /* \"#utility.yul\":7142:7164   */\n      swap1\n      pop\n        /* \"#utility.yul\":7209:7210   */\n      0x01\n        /* \"#utility.yul\":7203:7207   */\n      dup3\n        /* \"#utility.yul\":7199:7211   */\n      and\n        /* \"#utility.yul\":7230:7248   */\n      dup1\n        /* \"#utility.yul\":7220:7301   */\n      tag_156\n      jumpi\n        /* \"#utility.yul\":7286:7290   */\n      0x7f\n        /* \"#utility.yul\":7278:7284   */\n      dup3\n        /* \"#utility.yul\":7274:7291   */\n      and\n        /* \"#utility.yul\":7264:7291   */\n      swap2\n      pop\n        /* \"#utility.yul\":7220:7301   */\n    tag_156:\n        /* \"#utility.yul\":7348:7350   */\n      0x20\n        /* \"#utility.yul\":7340:7346   */\n      dup3\n        /* \"#utility.yul\":7337:7351   */\n      lt\n        /* \"#utility.yul\":7317:7335   */\n      dup2\n        /* \"#utility.yul\":7314:7352   */\n      sub\n        /* \"#utility.yul\":7311:7395   */\n      tag_157\n      jumpi\n        /* \"#utility.yul\":7367:7385   */\n      tag_158\n      tag_67\n      jump\t// in\n    tag_158:\n        /* \"#utility.yul\":7311:7395   */\n    tag_157:\n        /* \"#utility.yul\":7132:7401   */\n      pop\n        /* \"#utility.yul\":7081:7401   */\n      swap2\n      swap1\n      pop\n      jump\t// out\n        /* \"#utility.yul\":7407:7548   */\n    tag_69:\n        /* \"#utility.yul\":7456:7460   */\n      0x00\n        /* \"#utility.yul\":7479:7482   */\n      dup2\n        /* \"#utility.yul\":7471:7482   */\n      swap1\n      pop\n        /* \"#utility.yul\":7502:7505   */\n      dup2\n        /* \"#utility.yul\":7499:7500   */\n      0x00\n        /* \"#utility.yul\":7492:7506   */\n      mstore\n        /* \"#utility.yul\":7536:7540   */\n      0x20\n        /* \"#utility.yul\":7533:7534   */\n      0x00\n        /* \"#utility.yul\":7523:7541   */\n      keccak256\n        /* \"#utility.yul\":7515:7541   */\n      swap1\n      pop\n        /* \"#utility.yul\":7407:7548   */\n      swap2\n      swap1\n      pop\n      jump\t// out\n        /* \"#utility.yul\":7554:7647   */\n    tag_70:\n        /* \"#utility.yul\":7591:7597   */\n      0x00\n        /* \"#utility.yul\":7638:7640   */\n      0x20\n        /* \"#utility.yul\":7633:7635   */\n      0x1f\n        /* \"#utility.yul\":7626:7631   */\n      dup4\n        /* \"#utility.yul\":7622:7636   */\n      add\n        /* \"#utility.yul\":7618:7641   */\n      div\n        /* \"#utility.yul\":7608:7641   */\n      swap1\n      pop\n        /* \"#utility.yul\":7554:7647   */\n      swap2\n      swap1\n      pop\n      jump\t// out\n        /* \"#utility.yul\":7653:7760   */\n    tag_71:\n        /* \"#utility.yul\":7697:7705   */\n      0x00\n        /* \"#utility.yul\":7747:7752   */\n      dup3\n        /* \"#utility.yul\":7741:7745   */\n      dup3\n        /* \"#utility.yul\":7737:7753   */\n      shl\n        /* \"#utility.yul\":7716:7753   */\n      swap1\n      pop\n        /* \"#utility.yul\":7653:7760   */\n      swap3\n      swap2\n      pop\n      pop\n      jump\t// out\n        /* \"#utility.yul\":7766:8159   */\n    tag_72:\n        /* \"#utility.yul\":7835:7841   */\n      0x00\n        /* \"#utility.yul\":7885:7886   */\n      0x08\n        /* \"#utility.yul\":7873:7883   */\n      dup4\n        /* \"#utility.yul\":7869:7887   */\n      mul\n        /* \"#utility.yul\":7908:8005   */\n      tag_163\n        /* \"#utility.yul\":7938:8004   */\n      0xffffffffffffffffffffffffffffffffffffffffffffffffffffffffffffffff\n        /* \"#utility.yul\":7927:7936   */\n      dup3\n        /* \"#utility.yul\":7908:8005   */\n      tag_71\n      jump\t// in\n    tag_163:\n        /* \"#utility.yul\":8026:8065   */\n      tag_164\n        /* \"#utility.yul\":8056:8064   */\n      dup7\n        /* \"#utility.yul\":8045:8054   */\n      dup4\n        /* \"#utility.yul\":8026:8065   */\n      tag_71\n      jump\t// in\n    tag_164:\n        /* \"#utility.yul\":8014:8065   */\n      swap6\n      pop\n        /* \"#utility.yul\":8098:8102   */\n      dup1\n        /* \"#utility.yul\":8094:8103   */\n      not\n        /* \"#utility.yul\":8087:8092   */\n      dup5\n        /* \"#utility.yul\":8083:8104   */\n      and\n        /* \"#utility.yul\":8074:8104   */\n      swap4\n      pop\n        /* \"#utility.yul\":8147:8151   */\n      dup1\n        /* \"#utility.yul\":8137:8145   */\n      dup7\n        /* \"#utility.yul\":8133:8152   */\n      and\n        /* \"#utility.yul\":8126:8131   */\n      dup5\n        /* \"#utility.yul\":8123:8153   */\n      or\n        /* \"#utility.yul\":8113:8153   */\n      swap3\n      pop\n        /* \"#utility.yul\":7842:8159   */\n      pop\n      pop\n        /* \"#utility.yul\":7766:8159   */\n      swap4\n      swap3\n      pop\n      pop\n      pop\n      jump\t// out\n        /* \"#utility.yul\":8165:8225   */\n    tag_73:\n        /* \"#utility.yul\":8193:8196   */\n      0x00\n        /* \"#utility.yul\":8214:8219   */\n      dup2\n        /* \"#utility.yul\":8207:8219   */\n      swap1\n      pop\n        /* \"#utility.yul\":8165:8225   */\n      swap2\n      swap1\n      pop\n      jump\t// out\n        /* \"#utility.yul\":8231:8373   */\n    tag_74:\n        /* \"#utility.yul\":8281:8290   */\n      0x00\n        /* \"#utility.yul\":8314:8367   */\n      tag_167\n        /* \"#utility.yul\":8332:8366   */\n      tag_168\n        /* \"#utility.yul\":8341:8365   */\n      tag_169\n        /* \"#utility.yul\":8359:8364   */\n      dup5\n        /* \"#utility.yul\":8341:8365   */\n      tag_47\n      jump\t// in\n    tag_169:\n        /* \"#utility.yul\":8332:8366   */\n      tag_73\n      jump\t// in\n    tag_168:\n        /* \"#utility.yul\":8314:8367   */\n      tag_47\n      jump\t// in\n    tag_167:\n        /* \"#utility.yul\":8301:8367   */\n      swap1\n      pop\n        /* \"#utility.yul\":8231:8373   */\n      swap2\n      swap1\n      pop\n      jump\t// out\n        /* \"#utility.yul\":8379:8454   */\n    tag_75:\n        /* \"#utility.yul\":8422:8425   */\n      0x00\n        /* \"#utility.yul\":8443:8448   */\n      dup2\n        /* \"#utility.yul\":8436:8448   */\n      swap1\n      pop\n        /* \"#utility.yul\":8379:8454   */\n      swap2\n      swap1\n      pop\n      jump\t// out\n        /* \"#utility.yul\":8460:8729   */\n    tag_76:\n        /* \"#utility.yul\":8570:8609   */\n      tag_172\n        /* \"#utility.yul\":8601:8608   */\n      dup4\n        /* \"#utility.yul\":8570:8609   */\n      tag_74\n      jump\t// in\n    tag_172:\n        /* \"#utility.yul\":8631:8722   */\n      tag_173\n        /* \"#utility.yul\":8680:8721   */\n      tag_174\n        /* \"#utility.yul\":8704:8720   */\n      dup3\n        /* \"#utility.yul\":8680:8721   */\n      tag_75\n      jump\t// in\n    tag_174:\n        /* \"#utility.yul\":8672:8678   */\n      dup5\n        /* \"#utility.yul\":8665:8669   */\n      dup5\n        /* \"#utility.yul\":8659:8670   */\n      sload\n        /* \"#utility.yul\":8631:8722   */\n      tag_72\n      jump\t// in\n    tag_173:\n        /* \"#utility.yul\":8625:8629   */\n      dup3\n        /* \"#utility.yul\":8618:8723   */\n      sstore\n        /* \"#utility.yul\":8536:8729   */\n      pop\n        /* \"#utility.yul\":8460:8729   */\n      pop\n      pop\n      pop\n      jump\t// out\n        /* \"#utility.yul\":8735:8808   */\n    tag_77:\n        /* \"#utility.yul\":8780:8783   */\n      0x00\n        /* \"#utility.yul\":8735:8808   */\n      swap1\n      jump\t// out\n        /* \"#utility.yul\":8814:9003   */\n    tag_78:\n        /* \"#utility.yul\":8891:8923   */\n      tag_177\n      tag_77\n      jump\t// in\n    tag_177:\n        /* \"#utility.yul\":8932:8997   */\n      tag_178\n        /* \"#utility.yul\":8990:8996   */\n      dup2\n        /* \"#utility.yul\":8982:8988   */\n      dup5\n        /* \"#utility.yul\":8976:8980   */\n      dup5\n        /* \"#utility.yul\":8932:8997   */\n      tag_76\n      jump\t// in\n    tag_178:\n        /* \"#utility.yul\":8867:9003   */\n      pop\n        /* \"#utility.yul\":8814:9003   */\n      pop\n      pop\n      jump\t// out\n        /* \"#utility.yul\":9009:9195   */\n    tag_79:\n        /* \"#utility.yul\":9069:9189   */\n    tag_180:\n        /* \"#utility.yul\":9086:9089   */\n      dup2\n        /* \"#utility.yul\":9079:9084   */\n      dup2\n        /* \"#utility.yul\":9076:9090   */\n      lt\n        /* \"#utility.yul\":9069:9189   */\n      iszero\n      tag_182\n      jumpi\n        /* \"#utility.yul\":9140:9179   */\n      tag_183\n        /* \"#utility.yul\":9177:9178   */\n      0x00\n        /* \"#utility.yul\":9170:9175   */\n      dup3\n        /* \"#utility.yul\":9140:9179   */\n      tag_78\n      jump\t// in\n    tag_183:\n        /* \"#utility.yul\":9113:9114   */\n      0x01\n        /* \"#utility.yul\":9106:9111   */\n      dup2\n        /* \"#utility.yul\":9102:9115   */\n      add\n        /* \"#utility.yul\":9093:9115   */\n      swap1\n      pop\n        /* \"#utility.yul\":9069:9189   */\n      jump(tag_180)\n    tag_182:\n        /* \"#utility.yul\":9009:9195   */\n      pop\n      pop\n      jump\t// out\n        /* \"#utility.yul\":9201:9744   */\n    tag_80:\n        /* \"#utility.yul\":9302:9304   */\n      0x1f\n        /* \"#utility.yul\":9297:9300   */\n      dup3\n        /* \"#utility.yul\":9294:9305   */\n      gt\n        /* \"#utility.yul\":9291:9737   */\n      iszero\n      tag_185\n      jumpi\n        /* \"#utility.yul\":9336:9374   */\n      tag_186\n        /* \"#utility.yul\":9368:9373   */\n      dup2\n        /* \"#utility.yul\":9336:9374   */\n      tag_69\n      jump\t// in\n    tag_186:\n        /* \"#utility.yul\":9420:9449   */\n      tag_187\n        /* \"#utility.yul\":9438:9448   */\n      dup5\n        /* \"#utility.yul\":9420:9449   */\n      tag_70\n      jump\t// in\n    tag_187:\n        /* \"#utility.yul\":9410:9418   */\n      dup2\n        /* \"#utility.yul\":9406:9450   */\n      add\n        /* \"#utility.yul\":9603:9605   */\n      0x20\n        /* \"#utility.yul\":9591:9601   */\n      dup6\n        /* \"#utility.yul\":9588:9606   */\n      lt\n        /* \"#utility.yul\":9585:9634   */\n      iszero\n      tag_188\n      jumpi\n        /* \"#utility.yul\":9624:9632   */\n      dup2\n        /* \"#utility.yul\":9609:9632   */\n      swap1\n      pop\n        /* \"#utility.yul\":9585:9634   */\n    tag_188:\n        /* \"#utility.yul\":9647:9727   */\n      tag_189\n        /* \"#utility.yul\":9703:9725   */\n      tag_190\n        /* \"#utility.yul\":9721:9724   */\n      dup6\n        /* \"#utility.yul\":9703:9725   */\n      tag_70\n      jump\t// in\n    tag_190:\n        /* \"#utility.yul\":9693:9701   */\n      dup4\n        /* \"#utility.yul\":9689:9726   */\n      add\n        /* \"#utility.yul\":9676:9687   */\n      dup3\n        /* \"#utility.yul\":9647:9727   */\n      tag_79\n      jump\t// in\n    tag_189:\n        /* \"#utility.yul\":9306:9737   */\n      pop\n      pop\n        /* \"#utility.yul\":9291:9737   */\n    tag_185:\n        /* \"#utility.yul\":9201:9744   */\n      pop\n      pop\n      pop\n      jump\t// out\n        /* \"#utility.yul\":9750:9867   */\n    tag_81:\n        /* \"#utility.yul\":9804:9812   */\n      0x00\n        /* \"#utility.yul\":9854:9859   */\n      dup3\n        /* \"#utility.yul\":9848:9852   */\n      dup3\n        /* \"#utility.yul\":9844:9860   */\n      shr\n        /* \"#utility.yul\":9823:9860   */\n      swap1\n      pop\n        /* \"#utility.yul\":9750:9867   */\n      swap3\n      swap2\n      pop\n      pop\n      jump\t// out\n        /* \"#utility.yul\":9873:10042   */\n    tag_82:\n        /* \"#utility.yul\":9917:9923   */\n      0x00\n        /* \"#utility.yul\":9950:10001   */\n      tag_193\n        /* \"#utility.yul\":9998:9999   */\n      0x00\n        /* \"#utility.yul\":9994:10000   */\n      not\n        /* \"#utility.yul\":9986:9991   */\n      dup5\n        /* \"#utility.yul\":9983:9984   */\n      0x08\n        /* \"#utility.yul\":9979:9992   */\n      mul\n        /* \"#utility.yul\":9950:10001   */\n      tag_81\n      jump\t// in\n    tag_193:\n        /* \"#utility.yul\":9946:10002   */\n      not\n        /* \"#utility.yul\":10031:10035   */\n      dup1\n        /* \"#utility.yul\":10025:10029   */\n      dup4\n        /* \"#utility.yul\":10021:10036   */\n      and\n        /* \"#utility.yul\":10011:10036   */\n      swap2\n      pop\n        /* \"#utility.yul\":9924:10042   */\n      pop\n        /* \"#utility.yul\":9873:10042   */\n      swap3\n      swap2\n      pop\n      pop\n      jump\t// out\n        /* \"#utility.yul\":10047:10342   */\n    tag_83:\n        /* \"#utility.yul\":10123:10127   */\n      0x00\n        /* \"#utility.yul\":10269:10298   */\n      tag_195\n        /* \"#utility.yul\":10294:10297   */\n      dup4\n        /* \"#utility.yul\":10288:10292   */\n      dup4\n        /* \"#utility.yul\":10269:10298   */\n      tag_82\n      jump\t// in\n    tag_195:\n        /* \"#utility.yul\":10261:10298   */\n      swap2\n      pop\n        /* \"#utility.yul\":10331:10334   */\n      dup3\n        /* \"#utility.yul\":10328:10329   */\n      0x02\n        /* \"#utility.yul\":10324:10335   */\n      mul\n        /* \"#utility.yul\":10318:10322   */\n      dup3\n        /* \"#utility.yul\":10315:10336   */\n      or\n        /* \"#utility.yul\":10307:10336   */\n      swap1\n      pop\n        /* \"#utility.yul\":10047:10342   */\n      swap3\n      swap2\n      pop\n      pop\n      jump\t// out\n        /* \"#utility.yul\":10347:11742   */\n    tag_40:\n        /* \"#utility.yul\":10464:10501   */\n      tag_197\n        /* \"#utility.yul\":10497:10500   */\n      dup3\n        /* \"#utility.yul\":10464:10501   */\n      tag_66\n      jump\t// in\n    tag_197:\n        /* \"#utility.yul\":10566:10584   */\n      0xffffffffffffffff\n        /* \"#utility.yul\":10558:10564   */\n      dup2\n        /* \"#utility.yul\":10555:10585   */\n      gt\n        /* \"#utility.yul\":10552:10608   */\n      iszero\n      tag_198\n      jumpi\n        /* \"#utility.yul\":10588:10606   */\n      tag_199\n      tag_53\n      jump\t// in\n    tag_199:\n        /* \"#utility.yul\":10552:10608   */\n    tag_198:\n        /* \"#utility.yul\":10632:10670   */\n      tag_200\n        /* \"#utility.yul\":10664:10668   */\n      dup3\n        /* \"#utility.yul\":10658:10669   */\n      sload\n        /* \"#utility.yul\":10632:10670   */\n      tag_68\n      jump\t// in\n    tag_200:\n        /* \"#utility.yul\":10717:10784   */\n      tag_201\n        /* \"#utility.yul\":10777:10783   */\n      dup3\n        /* \"#utility.yul\":10769:10775   */\n      dup3\n        /* \"#utility.yul\":10763:10767   */\n      dup6\n        /* \"#utility.yul\":10717:10784   */\n      tag_80\n      jump\t// in\n    tag_201:\n        /* \"#utility.yul\":10811:10812   */\n      0x00\n        /* \"#utility.yul\":10835:10839   */\n      0x20\n        /* \"#utility.yul\":10822:10839   */\n      swap1\n      pop\n        /* \"#utility.yul\":10867:10869   */\n      0x1f\n        /* \"#utility.yul\":10859:10865   */\n      dup4\n        /* \"#utility.yul\":10856:10870   */\n      gt\n        /* \"#utility.yul\":10884:10885   */\n      0x01\n        /* \"#utility.yul\":10879:11497   */\n      dup2\n      eq\n      tag_203\n      jumpi\n        /* \"#utility.yul\":11541:11542   */\n      0x00\n        /* \"#utility.yul\":11558:11564   */\n      dup5\n        /* \"#utility.yul\":11555:11632   */\n      iszero\n      tag_204\n      jumpi\n        /* \"#utility.yul\":11607:11616   */\n      dup3\n        /* \"#utility.yul\":11602:11605   */\n      dup8\n        /* \"#utility.yul\":11598:11617   */\n      add\n        /* \"#utility.yul\":11592:11618   */\n      mload\n        /* \"#utility.yul\":11583:11618   */\n      swap1\n      pop\n        /* \"#utility.yul\":11555:11632   */\n    tag_204:\n        /* \"#utility.yul\":11658:11725   */\n      tag_205\n        /* \"#utility.yul\":11718:11724   */\n      dup6\n        /* \"#utility.yul\":11711:11716   */\n      dup3\n        /* \"#utility.yul\":11658:11725   */\n      tag_83\n      jump\t// in\n    tag_205:\n        /* \"#utility.yul\":11652:11656   */\n      dup7\n        /* \"#utility.yul\":11645:11726   */\n      sstore\n        /* \"#utility.yul\":11514:11736   */\n      pop\n        /* \"#utility.yul\":10849:11736   */\n      jump(tag_202)\n        /* \"#utility.yul\":10879:11497   */\n    tag_203:\n        /* \"#utility.yul\":10931:10935   */\n      0x1f\n        /* \"#utility.yul\":10927:10936   */\n      not\n        /* \"#utility.yul\":10919:10925   */\n      dup5\n        /* \"#utility.yul\":10915:10937   */\n      and\n        /* \"#utility.yul\":10965:11002   */\n      tag_206\n        /* \"#utility.yul\":10997:11001   */\n      dup7\n        /* \"#utility.yul\":10965:11002   */\n      tag_69\n      jump\t// in\n    tag_206:\n        /* \"#utility.yul\":11024:11025   */\n      0x00\n        /* \"#utility.yul\":11038:11246   */\n    tag_207:\n        /* \"#utility.yul\":11052:11059   */\n      dup3\n        /* \"#utility.yul\":11049:11050   */\n      dup2\n        /* \"#utility.yul\":11046:11060   */\n      lt\n        /* \"#utility.yul\":11038:11246   */\n      iszero\n      tag_209\n      jumpi\n        /* \"#utility.yul\":11131:11140   */\n      dup5\n        /* \"#utility.yul\":11126:11129   */\n      dup10\n        /* \"#utility.yul\":11122:11141   */\n      add\n        /* \"#utility.yul\":11116:11142   */\n      mload\n        /* \"#utility.yul\":11108:11114   */\n      dup3\n        /* \"#utility.yul\":11101:11143   */\n      sstore\n        /* \"#utility.yul\":11182:11183   */\n      0x01\n        /* \"#utility.yul\":11174:11180   */\n      dup3\n        /* \"#utility.yul\":11170:11184   */\n      add\n        /* \"#utility.yul\":11160:11184   */\n      swap2\n      pop\n        /* \"#utility.yul\":11229:11231   */\n      0x20\n        /* \"#utility.yul\":11218:11227   */\n      dup6\n        /* \"#utility.yul\":11214:11232   */\n      add\n        /* \"#utility.yul\":11201:11232   */\n      swap5\n      pop\n        /* \"#utility.yul\":11075:11079   */\n      0x20\n        /* \"#utility.yul\":11072:11073   */\n      dup2\n        /* \"#utility.yul\":11068:11080   */\n      add\n        /* \"#utility.yul\":11063:11080   */\n      swap1\n      pop\n        /* \"#utility.yul\":11038:11246   */\n      jump(tag_207)\n    tag_209:\n        /* \"#utility.yul\":11274:11280   */\n      dup7\n        /* \"#utility.yul\":11265:11272   */\n      dup4\n        /* \"#utility.yul\":11262:11281   */\n      lt\n        /* \"#utility.yul\":11259:11438   */\n      iszero\n      tag_210\n      jumpi\n        /* \"#utility.yul\":11332:11341   */\n      dup5\n        /* \"#utility.yul\":11327:11330   */\n      dup10\n        /* \"#utility.yul\":11323:11342   */\n      add\n        /* \"#utility.yul\":11317:11343   */\n      mload\n        /* \"#utility.yul\":11375:11423   */\n      tag_211\n        /* \"#utility.yul\":11417:11421   */\n      0x1f\n        /* \"#utility.yul\":11409:11415   */\n      dup10\n        /* \"#utility.yul\":11405:11422   */\n      and\n        /* \"#utility.yul\":11394:11403   */\n      dup3\n        /* \"#utility.yul\":11375:11423   */\n      tag_82\n      jump\t// in\n    tag_211:\n        /* \"#utility.yul\":11367:11373   */\n      dup4\n        /* \"#utility.yul\":11360:11424   */\n      sstore\n        /* \"#utility.yul\":11282:11438   */\n      pop\n        /* \"#utility.yul\":11259:11438   */\n    tag_210:\n        /* \"#utility.yul\":11484:11485   */\n      0x01\n        /* \"#utility.yul\":11480:11481   */\n      0x02\n        /* \"#utility.yul\":11472:11478   */\n      dup9\n        /* \"#utility.yul\":11468:11482   */\n      mul\n        /* \"#utility.yul\":11464:11486   */\n      add\n        /* \"#utility.yul\":11458:11462   */\n      dup9\n        /* \"#utility.yul\":11451:11487   */\n      sstore\n        /* \"#utility.yul\":10886:11497   */\n      pop\n      pop\n      pop\n        /* \"#utility.yul\":10849:11736   */\n    tag_202:\n      pop\n        /* \"#utility.yul\":10439:11742   */\n      pop\n      pop\n      pop\n        /* \"#utility.yul\":10347:11742   */\n      pop\n      pop\n      jump\t// out\n        /* \"#utility.yul\":11748:11981   */\n    tag_43:\n        /* \"#utility.yul\":11787:11790   */\n      0x00\n        /* \"#utility.yul\":11810:11834   */\n      tag_213\n        /* \"#utility.yul\":11828:11833   */\n      dup3\n        /* \"#utility.yul\":11810:11834   */\n      tag_47\n      jump\t// in\n    tag_213:\n        /* \"#utility.yul\":11801:11834   */\n      swap2\n      pop\n        /* \"#utility.yul\":11856:11922   */\n      0xffffffffffffffffffffffffffffffffffffffffffffffffffffffffffffffff\n        /* \"#utility.yul\":11849:11854   */\n      dup3\n        /* \"#utility.yul\":11846:11923   */\n      sub\n        /* \"#utility.yul\":11843:11946   */\n      tag_214\n      jumpi\n        /* \"#utility.yul\":11926:11944   */\n      tag_215\n      tag_65\n      jump\t// in\n    tag_215:\n        /* \"#utility.yul\":11843:11946   */\n    tag_214:\n        /* \"#utility.yul\":11973:11974   */\n      0x01\n        /* \"#utility.yul\":11966:11971   */\n      dup3\n        /* \"#utility.yul\":11962:11975   */\n      add\n        /* \"#utility.yul\":11955:11975   */\n      swap1\n      pop\n        /* \"#utility.yul\":11748:11981   */\n      swap2\n      swap1\n      pop\n      jump\t// out\n\n    auxdata: 0xa26469706673582212204110ed01fe2fea4adc1baf31c79bb9ad95bdb5332a03a9e2f128641748980b8064736f6c634300081a0033\n}\n",
				"bytecode": {
					"linkReferences": {},
					"object": "6080604052348015600e575f80fd5b50335f806101000a81548173ffffffffffffffffffffffffffffffffffffffff021916908373ffffffffffffffffffffffffffffffffffffffff160217905550610bcc8061005b5f395ff3fe608060405234801561000f575f80fd5b506004361061003f575f3560e01c8063b759f95414610043578063b8adaa111461005f578063bd611fe61461007b575b5f80fd5b61005d60048036038101906100589190610527565b610097565b005b61007960048036038101906100749190610527565b610239565b005b6100956004803603810190610090919061068e565b6103db565b005b5f60025f8381526020019081526020015f2090508060060160019054906101000a900460ff166100fc576040517f08c379a00000000000000000000000000000000000000000000000000000000081526004016100f390610796565b60405180910390fd5b806007015f3373ffffffffffffffffffffffffffffffffffffffff1673ffffffffffffffffffffffffffffffffffffffff1681526020019081526020015f205f9054906101000a900460ff1615610188576040517f08c379a000000000000000000000000000000000000000000000000000000000815260040161017f906107fe565b60405180910390fd5b6001816002015f82825461019c9190610849565b925050819055506001816007015f3373ffffffffffffffffffffffffffffffffffffffff1673ffffffffffffffffffffffffffffffffffffffff1681526020019081526020015f205f6101000a81548160ff0219169083151502179055508060050154816003015482600201546102139190610849565b03610235575f8160060160016101000a81548160ff0219169083151502179055505b5050565b5f60025f8381526020019081526020015f2090508060060160019054906101000a900460ff1661029e576040517f08c379a000000000000000000000000000000000000000000000000000000000815260040161029590610796565b60405180910390fd5b806007015f3373ffffffffffffffffffffffffffffffffffffffff1673ffffffffffffffffffffffffffffffffffffffff1681526020019081526020015f205f9054906101000a900460ff161561032a576040517f08c379a0000000000000000000000000000000000000000000000000000000008152600401610321906107fe565b60405180910390fd5b6001816003015f82825461033e9190610849565b925050819055506001816007015f3373ffffffffffffffffffffffffffffffffffffffff1673ffffffffffffffffffffffffffffffffffffffff1681526020019081526020015f205f6101000a81548160ff0219169083151502179055508060050154816003015482600201546103b59190610849565b036103d7575f8160060160016101000a81548160ff0219169083151502179055505b5050565b5f8054906101000a900473ffffffffffffffffffffffffffffffffffffffff1673ffffffffffffffffffffffffffffffffffffffff163373ffffffffffffffffffffffffffffffffffffffff1614610431575f80fd5b5f60025f60015481526020019081526020015f20905083815f0190816104579190610a80565b50828160010190816104699190610a80565b505f81600201819055505f81600301819055505f81600401819055508181600501819055505f816006015f6101000a81548160ff02191690831515021790555060018160060160016101000a81548160ff02191690831515021790555060015f8154809291906104d890610b4f565b919050555050505050565b5f604051905090565b5f80fd5b5f80fd5b5f819050919050565b610506816104f4565b8114610510575f80fd5b50565b5f81359050610521816104fd565b92915050565b5f6020828403121561053c5761053b6104ec565b5b5f61054984828501610513565b91505092915050565b5f80fd5b5f80fd5b5f601f19601f8301169050919050565b7f4e487b71000000000000000000000000000000000000000000000000000000005f52604160045260245ffd5b6105a08261055a565b810181811067ffffffffffffffff821117156105bf576105be61056a565b5b80604052505050565b5f6105d16104e3565b90506105dd8282610597565b919050565b5f67ffffffffffffffff8211156105fc576105fb61056a565b5b6106058261055a565b9050602081019050919050565b828183375f83830152505050565b5f61063261062d846105e2565b6105c8565b90508281526020810184848401111561064e5761064d610556565b5b610659848285610612565b509392505050565b5f82601f83011261067557610674610552565b5b8135610685848260208601610620565b91505092915050565b5f805f606084860312156106a5576106a46104ec565b5b5f84013567ffffffffffffffff8111156106c2576106c16104f0565b5b6106ce86828701610661565b935050602084013567ffffffffffffffff8111156106ef576106ee6104f0565b5b6106fb86828701610661565b925050604061070c86828701610513565b9150509250925092565b5f82825260208201905092915050565b7f546869732070726f706f73616c206973206e6f206c6f6e6765722061637469765f8201527f652e000000000000000000000000000000000000000000000000000000000000602082015250565b5f610780602283610716565b915061078b82610726565b604082019050919050565b5f6020820190508181035f8301526107ad81610774565b9050919050565b7f566f7465722068617320616c726561647920766f7465642e00000000000000005f82015250565b5f6107e8601883610716565b91506107f3826107b4565b602082019050919050565b5f6020820190508181035f830152610815816107dc565b9050919050565b7f4e487b71000000000000000000000000000000000000000000000000000000005f52601160045260245ffd5b5f610853826104f4565b915061085e836104f4565b92508282019050808211156108765761087561081c565b5b92915050565b5f81519050919050565b7f4e487b71000000000000000000000000000000000000000000000000000000005f52602260045260245ffd5b5f60028204905060018216806108ca57607f821691505b6020821081036108dd576108dc610886565b5b50919050565b5f819050815f5260205f209050919050565b5f6020601f8301049050919050565b5f82821b905092915050565b5f6008830261093f7fffffffffffffffffffffffffffffffffffffffffffffffffffffffffffffffff82610904565b6109498683610904565b95508019841693508086168417925050509392505050565b5f819050919050565b5f61098461097f61097a846104f4565b610961565b6104f4565b9050919050565b5f819050919050565b61099d8361096a565b6109b16109a98261098b565b848454610910565b825550505050565b5f90565b6109c56109b9565b6109d0818484610994565b505050565b5b818110156109f3576109e85f826109bd565b6001810190506109d6565b5050565b601f821115610a3857610a09816108e3565b610a12846108f5565b81016020851015610a21578190505b610a35610a2d856108f5565b8301826109d5565b50505b505050565b5f82821c905092915050565b5f610a585f1984600802610a3d565b1980831691505092915050565b5f610a708383610a49565b9150826002028217905092915050565b610a898261087c565b67ffffffffffffffff811115610aa257610aa161056a565b5b610aac82546108b3565b610ab78282856109f7565b5f60209050601f831160018114610ae8575f8415610ad6578287015190505b610ae08582610a65565b865550610b47565b601f198416610af6866108e3565b5f5b82811015610b1d57848901518255600182019150602085019450602081019050610af8565b86831015610b3a5784890151610b36601f891682610a49565b8355505b6001600288020188555050505b505050505050565b5f610b59826104f4565b91507fffffffffffffffffffffffffffffffffffffffffffffffffffffffffffffffff8203610b8b57610b8a61081c565b5b60018201905091905056fea26469706673582212204110ed01fe2fea4adc1baf31c79bb9ad95bdb5332a03a9e2f128641748980b8064736f6c634300081a0033",
					"opcodes": "PUSH1 0x80 PUSH1 0x40 MSTORE CALLVALUE DUP1 ISZERO PUSH1 0xE JUMPI PUSH0 DUP1 REVERT JUMPDEST POP CALLER PUSH0 DUP1 PUSH2 0x100 EXP DUP2 SLOAD DUP2 PUSH20 0xFFFFFFFFFFFFFFFFFFFFFFFFFFFFFFFFFFFFFFFF MUL NOT AND SWAP1 DUP4 PUSH20 0xFFFFFFFFFFFFFFFFFFFFFFFFFFFFFFFFFFFFFFFF AND MUL OR SWAP1 SSTORE POP PUSH2 0xBCC DUP1 PUSH2 0x5B PUSH0 CODECOPY PUSH0 RETURN INVALID PUSH1 0x80 PUSH1 0x40 MSTORE CALLVALUE DUP1 ISZERO PUSH2 0xF JUMPI PUSH0 DUP1 REVERT JUMPDEST POP PUSH1 0x4 CALLDATASIZE LT PUSH2 0x3F JUMPI PUSH0 CALLDATALOAD PUSH1 0xE0 SHR DUP1 PUSH4 0xB759F954 EQ PUSH2 0x43 JUMPI DUP1 PUSH4 0xB8ADAA11 EQ PUSH2 0x5F JUMPI DUP1 PUSH4 0xBD611FE6 EQ PUSH2 0x7B JUMPI JUMPDEST PUSH0 DUP1 REVERT JUMPDEST PUSH2 0x5D PUSH1 0x4 DUP1 CALLDATASIZE SUB DUP2 ADD SWAP1 PUSH2 0x58 SWAP2 SWAP1 PUSH2 0x527 JUMP JUMPDEST PUSH2 0x97 JUMP JUMPDEST STOP JUMPDEST PUSH2 0x79 PUSH1 0x4 DUP1 CALLDATASIZE SUB DUP2 ADD SWAP1 PUSH2 0x74 SWAP2 SWAP1 PUSH2 0x527 JUMP JUMPDEST PUSH2 0x239 JUMP JUMPDEST STOP JUMPDEST PUSH2 0x95 PUSH1 0x4 DUP1 CALLDATASIZE SUB DUP2 ADD SWAP1 PUSH2 0x90 SWAP2 SWAP1 PUSH2 0x68E JUMP JUMPDEST PUSH2 0x3DB JUMP JUMPDEST STOP JUMPDEST PUSH0 PUSH1 0x2 PUSH0 DUP4 DUP2 MSTORE PUSH1 0x20 ADD SWAP1 DUP2 MSTORE PUSH1 0x20 ADD PUSH0 KECCAK256 SWAP1 POP DUP1 PUSH1 0x6 ADD PUSH1 0x1 SWAP1 SLOAD SWAP1 PUSH2 0x100 EXP SWAP1 DIV PUSH1 0xFF AND PUSH2 0xFC JUMPI PUSH1 0x40 MLOAD PUSH32 0x8C379A000000000000000000000000000000000000000000000000000000000 DUP2 MSTORE PUSH1 0x4 ADD PUSH2 0xF3 SWAP1 PUSH2 0x796 JUMP JUMPDEST PUSH1 0x40 MLOAD DUP1 SWAP2 SUB SWAP1 REVERT JUMPDEST DUP1 PUSH1 0x7 ADD PUSH0 CALLER PUSH20 0xFFFFFFFFFFFFFFFFFFFFFFFFFFFFFFFFFFFFFFFF AND PUSH20 0xFFFFFFFFFFFFFFFFFFFFFFFFFFFFFFFFFFFFFFFF AND DUP2 MSTORE PUSH1 0x20 ADD SWAP1 DUP2 MSTORE PUSH1 0x20 ADD PUSH0 KECCAK256 PUSH0 SWAP1 SLOAD SWAP1 PUSH2 0x100 EXP SWAP1 DIV PUSH1 0xFF AND ISZERO PUSH2 0x188 JUMPI PUSH1 0x40 MLOAD PUSH32 0x8C379A000000000000000000000000000000000000000000000000000000000 DUP2 MSTORE PUSH1 0x4 ADD PUSH2 0x17F SWAP1 PUSH2 0x7FE JUMP JUMPDEST PUSH1 0x40 MLOAD DUP1 SWAP2 SUB SWAP1 REVERT JUMPDEST PUSH1 0x1 DUP2 PUSH1 0x2 ADD PUSH0 DUP3 DUP3 SLOAD PUSH2 0x19C SWAP2 SWAP1 PUSH2 0x849 JUMP JUMPDEST SWAP3 POP POP DUP2 SWAP1 SSTORE POP PUSH1 0x1 DUP2 PUSH1 0x7 ADD PUSH0 CALLER PUSH20 0xFFFFFFFFFFFFFFFFFFFFFFFFFFFFFFFFFFFFFFFF AND PUSH20 0xFFFFFFFFFFFFFFFFFFFFFFFFFFFFFFFFFFFFFFFF AND DUP2 MSTORE PUSH1 0x20 ADD SWAP1 DUP2 MSTORE PUSH1 0x20 ADD PUSH0 KECCAK256 PUSH0 PUSH2 0x100 EXP DUP2 SLOAD DUP2 PUSH1 0xFF MUL NOT AND SWAP1 DUP4 ISZERO ISZERO MUL OR SWAP1 SSTORE POP DUP1 PUSH1 0x5 ADD SLOAD DUP2 PUSH1 0x3 ADD SLOAD DUP3 PUSH1 0x2 ADD SLOAD PUSH2 0x213 SWAP2 SWAP1 PUSH2 0x849 JUMP JUMPDEST SUB PUSH2 0x235 JUMPI PUSH0 DUP2 PUSH1 0x6 ADD PUSH1 0x1 PUSH2 0x100 EXP DUP2 SLOAD DUP2 PUSH1 0xFF MUL NOT AND SWAP1 DUP4 ISZERO ISZERO MUL OR SWAP1 SSTORE POP JUMPDEST POP POP JUMP JUMPDEST PUSH0 PUSH1 0x2 PUSH0 DUP4 DUP2 MSTORE PUSH1 0x20 ADD SWAP1 DUP2 MSTORE PUSH1 0x20 ADD PUSH0 KECCAK256 SWAP1 POP DUP1 PUSH1 0x6 ADD PUSH1 0x1 SWAP1 SLOAD SWAP1 PUSH2 0x100 EXP SWAP1 DIV PUSH1 0xFF AND PUSH2 0x29E JUMPI PUSH1 0x40 MLOAD PUSH32 0x8C379A000000000000000000000000000000000000000000000000000000000 DUP2 MSTORE PUSH1 0x4 ADD PUSH2 0x295 SWAP1 PUSH2 0x796 JUMP JUMPDEST PUSH1 0x40 MLOAD DUP1 SWAP2 SUB SWAP1 REVERT JUMPDEST DUP1 PUSH1 0x7 ADD PUSH0 CALLER PUSH20 0xFFFFFFFFFFFFFFFFFFFFFFFFFFFFFFFFFFFFFFFF AND PUSH20 0xFFFFFFFFFFFFFFFFFFFFFFFFFFFFFFFFFFFFFFFF AND DUP2 MSTORE PUSH1 0x20 ADD SWAP1 DUP2 MSTORE PUSH1 0x20 ADD PUSH0 KECCAK256 PUSH0 SWAP1 SLOAD SWAP1 PUSH2 0x100 EXP SWAP1 DIV PUSH1 0xFF AND ISZERO PUSH2 0x32A JUMPI PUSH1 0x40 MLOAD PUSH32 0x8C379A000000000000000000000000000000000000000000000000000000000 DUP2 MSTORE PUSH1 0x4 ADD PUSH2 0x321 SWAP1 PUSH2 0x7FE JUMP JUMPDEST PUSH1 0x40 MLOAD DUP1 SWAP2 SUB SWAP1 REVERT JUMPDEST PUSH1 0x1 DUP2 PUSH1 0x3 ADD PUSH0 DUP3 DUP3 SLOAD PUSH2 0x33E SWAP2 SWAP1 PUSH2 0x849 JUMP JUMPDEST SWAP3 POP POP DUP2 SWAP1 SSTORE POP PUSH1 0x1 DUP2 PUSH1 0x7 ADD PUSH0 CALLER PUSH20 0xFFFFFFFFFFFFFFFFFFFFFFFFFFFFFFFFFFFFFFFF AND PUSH20 0xFFFFFFFFFFFFFFFFFFFFFFFFFFFFFFFFFFFFFFFF AND DUP2 MSTORE PUSH1 0x20 ADD SWAP1 DUP2 MSTORE PUSH1 0x20 ADD PUSH0 KECCAK256 PUSH0 PUSH2 0x100 EXP DUP2 SLOAD DUP2 PUSH1 0xFF MUL NOT AND SWAP1 DUP4 ISZERO ISZERO MUL OR SWAP1 SSTORE POP DUP1 PUSH1 0x5 ADD SLOAD DUP2 PUSH1 0x3 ADD SLOAD DUP3 PUSH1 0x2 ADD SLOAD PUSH2 0x3B5 SWAP2 SWAP1 PUSH2 0x849 JUMP JUMPDEST SUB PUSH2 0x3D7 JUMPI PUSH0 DUP2 PUSH1 0x6 ADD PUSH1 0x1 PUSH2 0x100 EXP DUP2 SLOAD DUP2 PUSH1 0xFF MUL NOT AND SWAP1 DUP4 ISZERO ISZERO MUL OR SWAP1 SSTORE POP JUMPDEST POP POP JUMP JUMPDEST PUSH0 DUP1 SLOAD SWAP1 PUSH2 0x100 EXP SWAP1 DIV PUSH20 0xFFFFFFFFFFFFFFFFFFFFFFFFFFFFFFFFFFFFFFFF AND PUSH20 0xFFFFFFFFFFFFFFFFFFFFFFFFFFFFFFFFFFFFFFFF AND CALLER PUSH20 0xFFFFFFFFFFFFFFFFFFFFFFFFFFFFFFFFFFFFFFFF AND EQ PUSH2 0x431 JUMPI PUSH0 DUP1 REVERT JUMPDEST PUSH0 PUSH1 0x2 PUSH0 PUSH1 0x1 SLOAD DUP2 MSTORE PUSH1 0x20 ADD SWAP1 DUP2 MSTORE PUSH1 0x20 ADD PUSH0 KECCAK256 SWAP1 POP DUP4 DUP2 PUSH0 ADD SWAP1 DUP2 PUSH2 0x457 SWAP2 SWAP1 PUSH2 0xA80 JUMP JUMPDEST POP DUP3 DUP2 PUSH1 0x1 ADD SWAP1 DUP2 PUSH2 0x469 SWAP2 SWAP1 PUSH2 0xA80 JUMP JUMPDEST POP PUSH0 DUP2 PUSH1 0x2 ADD DUP2 SWAP1 SSTORE POP PUSH0 DUP2 PUSH1 0x3 ADD DUP2 SWAP1 SSTORE POP PUSH0 DUP2 PUSH1 0x4 ADD DUP2 SWAP1 SSTORE POP DUP2 DUP2 PUSH1 0x5 ADD DUP2 SWAP1 SSTORE POP PUSH0 DUP2 PUSH1 0x6 ADD PUSH0 PUSH2 0x100 EXP DUP2 SLOAD DUP2 PUSH1 0xFF MUL NOT AND SWAP1 DUP4 ISZERO ISZERO MUL OR SWAP1 SSTORE POP PUSH1 0x1 DUP2 PUSH1 0x6 ADD PUSH1 0x1 PUSH2 0x100 EXP DUP2 SLOAD DUP2 PUSH1 0xFF MUL NOT AND SWAP1 DUP4 ISZERO ISZERO MUL OR SWAP1 SSTORE POP PUSH1 0x1 PUSH0 DUP2 SLOAD DUP1 SWAP3 SWAP2 SWAP1 PUSH2 0x4D8 SWAP1 PUSH2 0xB4F JUMP JUMPDEST SWAP2 SWAP1 POP SSTORE POP POP POP POP POP JUMP JUMPDEST PUSH0 PUSH1 0x40 MLOAD SWAP1 POP SWAP1 JUMP JUMPDEST PUSH0 DUP1 REVERT JUMPDEST PUSH0 DUP1 REVERT JUMPDEST PUSH0 DUP2 SWAP1 POP SWAP2 SWAP1 POP JUMP JUMPDEST PUSH2 0x506 DUP2 PUSH2 0x4F4 JUMP JUMPDEST DUP2 EQ PUSH2 0x510 JUMPI PUSH0 DUP1 REVERT JUMPDEST POP JUMP JUMPDEST PUSH0 DUP2 CALLDATALOAD SWAP1 POP PUSH2 0x521 DUP2 PUSH2 0x4FD JUMP JUMPDEST SWAP3 SWAP2 POP POP JUMP JUMPDEST PUSH0 PUSH1 0x20 DUP3 DUP5 SUB SLT ISZERO PUSH2 0x53C JUMPI PUSH2 0x53B PUSH2 0x4EC JUMP JUMPDEST JUMPDEST PUSH0 PUSH2 0x549 DUP5 DUP3 DUP6 ADD PUSH2 0x513 JUMP JUMPDEST SWAP2 POP POP SWAP3 SWAP2 POP POP JUMP JUMPDEST PUSH0 DUP1 REVERT JUMPDEST PUSH0 DUP1 REVERT JUMPDEST PUSH0 PUSH1 0x1F NOT PUSH1 0x1F DUP4 ADD AND SWAP1 POP SWAP2 SWAP1 POP JUMP JUMPDEST PUSH32 0x4E487B7100000000000000000000000000000000000000000000000000000000 PUSH0 MSTORE PUSH1 0x41 PUSH1 0x4 MSTORE PUSH1 0x24 PUSH0 REVERT JUMPDEST PUSH2 0x5A0 DUP3 PUSH2 0x55A JUMP JUMPDEST DUP2 ADD DUP2 DUP2 LT PUSH8 0xFFFFFFFFFFFFFFFF DUP3 GT OR ISZERO PUSH2 0x5BF JUMPI PUSH2 0x5BE PUSH2 0x56A JUMP JUMPDEST JUMPDEST DUP1 PUSH1 0x40 MSTORE POP POP POP JUMP JUMPDEST PUSH0 PUSH2 0x5D1 PUSH2 0x4E3 JUMP JUMPDEST SWAP1 POP PUSH2 0x5DD DUP3 DUP3 PUSH2 0x597 JUMP JUMPDEST SWAP2 SWAP1 POP JUMP JUMPDEST PUSH0 PUSH8 0xFFFFFFFFFFFFFFFF DUP3 GT ISZERO PUSH2 0x5FC JUMPI PUSH2 0x5FB PUSH2 0x56A JUMP JUMPDEST JUMPDEST PUSH2 0x605 DUP3 PUSH2 0x55A JUMP JUMPDEST SWAP1 POP PUSH1 0x20 DUP2 ADD SWAP1 POP SWAP2 SWAP1 POP JUMP JUMPDEST DUP3 DUP2 DUP4 CALLDATACOPY PUSH0 DUP4 DUP4 ADD MSTORE POP POP POP JUMP JUMPDEST PUSH0 PUSH2 0x632 PUSH2 0x62D DUP5 PUSH2 0x5E2 JUMP JUMPDEST PUSH2 0x5C8 JUMP JUMPDEST SWAP1 POP DUP3 DUP2 MSTORE PUSH1 0x20 DUP2 ADD DUP5 DUP5 DUP5 ADD GT ISZERO PUSH2 0x64E JUMPI PUSH2 0x64D PUSH2 0x556 JUMP JUMPDEST JUMPDEST PUSH2 0x659 DUP5 DUP3 DUP6 PUSH2 0x612 JUMP JUMPDEST POP SWAP4 SWAP3 POP POP POP JUMP JUMPDEST PUSH0 DUP3 PUSH1 0x1F DUP4 ADD SLT PUSH2 0x675 JUMPI PUSH2 0x674 PUSH2 0x552 JUMP JUMPDEST JUMPDEST DUP2 CALLDATALOAD PUSH2 0x685 DUP5 DUP3 PUSH1 0x20 DUP7 ADD PUSH2 0x620 JUMP JUMPDEST SWAP2 POP POP SWAP3 SWAP2 POP POP JUMP JUMPDEST PUSH0 DUP1 PUSH0 PUSH1 0x60 DUP5 DUP7 SUB SLT ISZERO PUSH2 0x6A5 JUMPI PUSH2 0x6A4 PUSH2 0x4EC JUMP JUMPDEST JUMPDEST PUSH0 DUP5 ADD CALLDATALOAD PUSH8 0xFFFFFFFFFFFFFFFF DUP2 GT ISZERO PUSH2 0x6C2 JUMPI PUSH2 0x6C1 PUSH2 0x4F0 JUMP JUMPDEST JUMPDEST PUSH2 0x6CE DUP7 DUP3 DUP8 ADD PUSH2 0x661 JUMP JUMPDEST SWAP4 POP POP PUSH1 0x20 DUP5 ADD CALLDATALOAD PUSH8 0xFFFFFFFFFFFFFFFF DUP2 GT ISZERO PUSH2 0x6EF JUMPI PUSH2 0x6EE PUSH2 0x4F0 JUMP JUMPDEST JUMPDEST PUSH2 0x6FB DUP7 DUP3 DUP8 ADD PUSH2 0x661 JUMP JUMPDEST SWAP3 POP POP PUSH1 0x40 PUSH2 0x70C DUP7 DUP3 DUP8 ADD PUSH2 0x513 JUMP JUMPDEST SWAP2 POP POP SWAP3 POP SWAP3 POP SWAP3 JUMP JUMPDEST PUSH0 DUP3 DUP3 MSTORE PUSH1 0x20 DUP3 ADD SWAP1 POP SWAP3 SWAP2 POP POP JUMP JUMPDEST PUSH32 0x546869732070726F706F73616C206973206E6F206C6F6E676572206163746976 PUSH0 DUP3 ADD MSTORE PUSH32 0x652E000000000000000000000000000000000000000000000000000000000000 PUSH1 0x20 DUP3 ADD MSTORE POP JUMP JUMPDEST PUSH0 PUSH2 0x780 PUSH1 0x22 DUP4 PUSH2 0x716 JUMP JUMPDEST SWAP2 POP PUSH2 0x78B DUP3 PUSH2 0x726 JUMP JUMPDEST PUSH1 0x40 DUP3 ADD SWAP1 POP SWAP2 SWAP1 POP JUMP JUMPDEST PUSH0 PUSH1 0x20 DUP3 ADD SWAP1 POP DUP2 DUP2 SUB PUSH0 DUP4 ADD MSTORE PUSH2 0x7AD DUP2 PUSH2 0x774 JUMP JUMPDEST SWAP1 POP SWAP2 SWAP1 POP JUMP JUMPDEST PUSH32 0x566F7465722068617320616C726561647920766F7465642E0000000000000000 PUSH0 DUP3 ADD MSTORE POP JUMP JUMPDEST PUSH0 PUSH2 0x7E8 PUSH1 0x18 DUP4 PUSH2 0x716 JUMP JUMPDEST SWAP2 POP PUSH2 0x7F3 DUP3 PUSH2 0x7B4 JUMP JUMPDEST PUSH1 0x20 DUP3 ADD SWAP1 POP SWAP2 SWAP1 POP JUMP JUMPDEST PUSH0 PUSH1 0x20 DUP3 ADD SWAP1 POP DUP2 DUP2 SUB PUSH0 DUP4 ADD MSTORE PUSH2 0x815 DUP2 PUSH2 0x7DC JUMP JUMPDEST SWAP1 POP SWAP2 SWAP1 POP JUMP JUMPDEST PUSH32 0x4E487B7100000000000000000000000000000000000000000000000000000000 PUSH0 MSTORE PUSH1 0x11 PUSH1 0x4 MSTORE PUSH1 0x24 PUSH0 REVERT JUMPDEST PUSH0 PUSH2 0x853 DUP3 PUSH2 0x4F4 JUMP JUMPDEST SWAP2 POP PUSH2 0x85E DUP4 PUSH2 0x4F4 JUMP JUMPDEST SWAP3 POP DUP3 DUP3 ADD SWAP1 POP DUP1 DUP3 GT ISZERO PUSH2 0x876 JUMPI PUSH2 0x875 PUSH2 0x81C JUMP JUMPDEST JUMPDEST SWAP3 SWAP2 POP POP JUMP JUMPDEST PUSH0 DUP2 MLOAD SWAP1 POP SWAP2 SWAP1 POP JUMP JUMPDEST PUSH32 0x4E487B7100000000000000000000000000000000000000000000000000000000 PUSH0 MSTORE PUSH1 0x22 PUSH1 0x4 MSTORE PUSH1 0x24 PUSH0 REVERT JUMPDEST PUSH0 PUSH1 0x2 DUP3 DIV SWAP1 POP PUSH1 0x1 DUP3 AND DUP1 PUSH2 0x8CA JUMPI PUSH1 0x7F DUP3 AND SWAP2 POP JUMPDEST PUSH1 0x20 DUP3 LT DUP2 SUB PUSH2 0x8DD JUMPI PUSH2 0x8DC PUSH2 0x886 JUMP JUMPDEST JUMPDEST POP SWAP2 SWAP1 POP JUMP JUMPDEST PUSH0 DUP2 SWAP1 POP DUP2 PUSH0 MSTORE PUSH1 0x20 PUSH0 KECCAK256 SWAP1 POP SWAP2 SWAP1 POP JUMP JUMPDEST PUSH0 PUSH1 0x20 PUSH1 0x1F DUP4 ADD DIV SWAP1 POP SWAP2 SWAP1 POP JUMP JUMPDEST PUSH0 DUP3 DUP3 SHL SWAP1 POP SWAP3 SWAP2 POP POP JUMP JUMPDEST PUSH0 PUSH1 0x8 DUP4 MUL PUSH2 0x93F PUSH32 0xFFFFFFFFFFFFFFFFFFFFFFFFFFFFFFFFFFFFFFFFFFFFFFFFFFFFFFFFFFFFFFFF DUP3 PUSH2 0x904 JUMP JUMPDEST PUSH2 0x949 DUP7 DUP4 PUSH2 0x904 JUMP JUMPDEST SWAP6 POP DUP1 NOT DUP5 AND SWAP4 POP DUP1 DUP7 AND DUP5 OR SWAP3 POP POP POP SWAP4 SWAP3 POP POP POP JUMP JUMPDEST PUSH0 DUP2 SWAP1 POP SWAP2 SWAP1 POP JUMP JUMPDEST PUSH0 PUSH2 0x984 PUSH2 0x97F PUSH2 0x97A DUP5 PUSH2 0x4F4 JUMP JUMPDEST PUSH2 0x961 JUMP JUMPDEST PUSH2 0x4F4 JUMP JUMPDEST SWAP1 POP SWAP2 SWAP1 POP JUMP JUMPDEST PUSH0 DUP2 SWAP1 POP SWAP2 SWAP1 POP JUMP JUMPDEST PUSH2 0x99D DUP4 PUSH2 0x96A JUMP JUMPDEST PUSH2 0x9B1 PUSH2 0x9A9 DUP3 PUSH2 0x98B JUMP JUMPDEST DUP5 DUP5 SLOAD PUSH2 0x910 JUMP JUMPDEST DUP3 SSTORE POP POP POP POP JUMP JUMPDEST PUSH0 SWAP1 JUMP JUMPDEST PUSH2 0x9C5 PUSH2 0x9B9 JUMP JUMPDEST PUSH2 0x9D0 DUP2 DUP5 DUP5 PUSH2 0x994 JUMP JUMPDEST POP POP POP JUMP JUMPDEST JUMPDEST DUP2 DUP2 LT ISZERO PUSH2 0x9F3 JUMPI PUSH2 0x9E8 PUSH0 DUP3 PUSH2 0x9BD JUMP JUMPDEST PUSH1 0x1 DUP2 ADD SWAP1 POP PUSH2 0x9D6 JUMP JUMPDEST POP POP JUMP JUMPDEST PUSH1 0x1F DUP3 GT ISZERO PUSH2 0xA38 JUMPI PUSH2 0xA09 DUP2 PUSH2 0x8E3 JUMP JUMPDEST PUSH2 0xA12 DUP5 PUSH2 0x8F5 JUMP JUMPDEST DUP2 ADD PUSH1 0x20 DUP6 LT ISZERO PUSH2 0xA21 JUMPI DUP2 SWAP1 POP JUMPDEST PUSH2 0xA35 PUSH2 0xA2D DUP6 PUSH2 0x8F5 JUMP JUMPDEST DUP4 ADD DUP3 PUSH2 0x9D5 JUMP JUMPDEST POP POP JUMPDEST POP POP POP JUMP JUMPDEST PUSH0 DUP3 DUP3 SHR SWAP1 POP SWAP3 SWAP2 POP POP JUMP JUMPDEST PUSH0 PUSH2 0xA58 PUSH0 NOT DUP5 PUSH1 0x8 MUL PUSH2 0xA3D JUMP JUMPDEST NOT DUP1 DUP4 AND SWAP2 POP POP SWAP3 SWAP2 POP POP JUMP JUMPDEST PUSH0 PUSH2 0xA70 DUP4 DUP4 PUSH2 0xA49 JUMP JUMPDEST SWAP2 POP DUP3 PUSH1 0x2 MUL DUP3 OR SWAP1 POP SWAP3 SWAP2 POP POP JUMP JUMPDEST PUSH2 0xA89 DUP3 PUSH2 0x87C JUMP JUMPDEST PUSH8 0xFFFFFFFFFFFFFFFF DUP2 GT ISZERO PUSH2 0xAA2 JUMPI PUSH2 0xAA1 PUSH2 0x56A JUMP JUMPDEST JUMPDEST PUSH2 0xAAC DUP3 SLOAD PUSH2 0x8B3 JUMP JUMPDEST PUSH2 0xAB7 DUP3 DUP3 DUP6 PUSH2 0x9F7 JUMP JUMPDEST PUSH0 PUSH1 0x20 SWAP1 POP PUSH1 0x1F DUP4 GT PUSH1 0x1 DUP2 EQ PUSH2 0xAE8 JUMPI PUSH0 DUP5 ISZERO PUSH2 0xAD6 JUMPI DUP3 DUP8 ADD MLOAD SWAP1 POP JUMPDEST PUSH2 0xAE0 DUP6 DUP3 PUSH2 0xA65 JUMP JUMPDEST DUP7 SSTORE POP PUSH2 0xB47 JUMP JUMPDEST PUSH1 0x1F NOT DUP5 AND PUSH2 0xAF6 DUP7 PUSH2 0x8E3 JUMP JUMPDEST PUSH0 JUMPDEST DUP3 DUP2 LT ISZERO PUSH2 0xB1D JUMPI DUP5 DUP10 ADD MLOAD DUP3 SSTORE PUSH1 0x1 DUP3 ADD SWAP2 POP PUSH1 0x20 DUP6 ADD SWAP5 POP PUSH1 0x20 DUP2 ADD SWAP1 POP PUSH2 0xAF8 JUMP JUMPDEST DUP7 DUP4 LT ISZERO PUSH2 0xB3A JUMPI DUP5 DUP10 ADD MLOAD PUSH2 0xB36 PUSH1 0x1F DUP10 AND DUP3 PUSH2 0xA49 JUMP JUMPDEST DUP4 SSTORE POP JUMPDEST PUSH1 0x1 PUSH1 0x2 DUP9 MUL ADD DUP9 SSTORE POP POP POP JUMPDEST POP POP POP POP POP POP JUMP JUMPDEST PUSH0 PUSH2 0xB59 DUP3 PUSH2 0x4F4 JUMP JUMPDEST SWAP2 POP PUSH32 0xFFFFFFFFFFFFFFFFFFFFFFFFFFFFFFFFFFFFFFFFFFFFFFFFFFFFFFFFFFFFFFFF DUP3 SUB PUSH2 0xB8B JUMPI PUSH2 0xB8A PUSH2 0x81C JUMP JUMPDEST JUMPDEST PUSH1 0x1 DUP3 ADD SWAP1 POP SWAP2 SWAP1 POP JUMP INVALID LOG2 PUSH5 0x6970667358 0x22 SLT KECCAK256 COINBASE LT 0xED ADD INVALID 0x2F 0xEA BLOBBASEFEE 0xDC SHL 0xAF BALANCE 0xC7 SWAP12 0xB9 0xAD SWAP6 0xBD 0xB5 CALLER 0x2A SUB 0xA9 0xE2 CALL 0x28 PUSH5 0x1748980B80 PUSH5 0x736F6C6343 STOP ADDMOD BYTE STOP CALLER "
				},
				"gasEstimates": {
					"creation": {
						"codeDepositCost": "604000",
						"executionCost": "24901",
						"totalCost": "628901"
					},
					"external": {
						"approve(uint256)": "infinite",
						"create_proposal(string,string,uint256)": "infinite",
						"reject(uint256)": "infinite"
					}
				},
				"methodIdentifiers": {
					"approve(uint256)": "b759f954",
					"create_proposal(string,string,uint256)": "bd611fe6",
					"reject(uint256)": "b8adaa11"
				}
			},
			"storageLayout": {
				"storage": [
					{
						"astId": 3,
						"contract": "contracts/proposal.sol:proposalContract",
						"label": "owner",
						"offset": 0,
						"slot": "0",
						"type": "t_address"
					},
					{
						"astId": 5,
						"contract": "contracts/proposal.sol:proposalContract",
						"label": "proposal_count",
						"offset": 0,
						"slot": "1",
						"type": "t_uint256"
					},
					{
						"astId": 51,
						"contract": "contracts/proposal.sol:proposalContract",
						"label": "proposal_history",
						"offset": 0,
						"slot": "2",
						"type": "t_mapping(t_uint256,t_struct(Proposal)46_storage)"
					}
				],
				"types": {
					"t_address": {
						"encoding": "inplace",
						"label": "address",
						"numberOfBytes": "20"
					},
					"t_bool": {
						"encoding": "inplace",
						"label": "bool",
						"numberOfBytes": "1"
					},
					"t_mapping(t_address,t_bool)": {
						"encoding": "mapping",
						"key": "t_address",
						"label": "mapping(address => bool)",
						"numberOfBytes": "32",
						"value": "t_bool"
					},
					"t_mapping(t_uint256,t_struct(Proposal)46_storage)": {
						"encoding": "mapping",
						"key": "t_uint256",
						"label": "mapping(uint256 => struct proposalContract.Proposal)",
						"numberOfBytes": "32",
						"value": "t_struct(Proposal)46_storage"
					},
					"t_string_storage": {
						"encoding": "bytes",
						"label": "string",
						"numberOfBytes": "32"
					},
					"t_struct(Proposal)46_storage": {
						"encoding": "inplace",
						"label": "struct proposalContract.Proposal",
						"members": [
							{
								"astId": 27,
								"contract": "contracts/proposal.sol:proposalContract",
								"label": "title",
								"offset": 0,
								"slot": "0",
								"type": "t_string_storage"
							},
							{
								"astId": 29,
								"contract": "contracts/proposal.sol:proposalContract",
								"label": "description",
								"offset": 0,
								"slot": "1",
								"type": "t_string_storage"
							},
							{
								"astId": 31,
								"contract": "contracts/proposal.sol:proposalContract",
								"label": "approve",
								"offset": 0,
								"slot": "2",
								"type": "t_uint256"
							},
							{
								"astId": 33,
								"contract": "contracts/proposal.sol:proposalContract",
								"label": "reject",
								"offset": 0,
								"slot": "3",
								"type": "t_uint256"
							},
							{
								"astId": 35,
								"contract": "contracts/proposal.sol:proposalContract",
								"label": "pass",
								"offset": 0,
								"slot": "4",
								"type": "t_uint256"
							},
							{
								"astId": 37,
								"contract": "contracts/proposal.sol:proposalContract",
								"label": "total_vote_to_end",
								"offset": 0,
								"slot": "5",
								"type": "t_uint256"
							},
							{
								"astId": 39,
								"contract": "contracts/proposal.sol:proposalContract",
								"label": "current_state",
								"offset": 0,
								"slot": "6",
								"type": "t_bool"
							},
							{
								"astId": 41,
								"contract": "contracts/proposal.sol:proposalContract",
								"label": "is_active",
								"offset": 1,
								"slot": "6",
								"type": "t_bool"
							},
							{
								"astId": 45,
								"contract": "contracts/proposal.sol:proposalContract",
								"label": "hasVoted",
								"offset": 0,
								"slot": "7",
								"type": "t_mapping(t_address,t_bool)"
							}
						],
						"numberOfBytes": "256"
					},
					"t_uint256": {
						"encoding": "inplace",
						"label": "uint256",
						"numberOfBytes": "32"
					}
				}
			},
			"userdoc": {
				"kind": "user",
				"methods": {},
				"version": 1
			}
		}
	}
}